{
	"contracts/Lottery.sol": {
		"HWTToken": {
			"abi": [
				{
					"inputs": [],
					"stateMutability": "nonpayable",
					"type": "constructor"
				},
				{
					"anonymous": false,
					"inputs": [
						{
							"indexed": true,
							"internalType": "address",
							"name": "owner",
							"type": "address"
						},
						{
							"indexed": true,
							"internalType": "address",
							"name": "spender",
							"type": "address"
						},
						{
							"indexed": false,
							"internalType": "uint256",
							"name": "value",
							"type": "uint256"
						}
					],
					"name": "Approval",
					"type": "event"
				},
				{
					"anonymous": false,
					"inputs": [
						{
							"indexed": true,
							"internalType": "address",
							"name": "previousOwner",
							"type": "address"
						},
						{
							"indexed": true,
							"internalType": "address",
							"name": "newOwner",
							"type": "address"
						}
					],
					"name": "OwnershipTransferred",
					"type": "event"
				},
				{
					"anonymous": false,
					"inputs": [
						{
							"indexed": true,
							"internalType": "address",
							"name": "from",
							"type": "address"
						},
						{
							"indexed": true,
							"internalType": "address",
							"name": "to",
							"type": "address"
						},
						{
							"indexed": false,
							"internalType": "uint256",
							"name": "value",
							"type": "uint256"
						}
					],
					"name": "Transfer",
					"type": "event"
				},
				{
					"inputs": [],
					"name": "MAX_MINT_TIMES",
					"outputs": [
						{
							"internalType": "uint256",
							"name": "",
							"type": "uint256"
						}
					],
					"stateMutability": "view",
					"type": "function"
				},
				{
					"inputs": [],
					"name": "MINT_INTERVAL",
					"outputs": [
						{
							"internalType": "uint256",
							"name": "",
							"type": "uint256"
						}
					],
					"stateMutability": "view",
					"type": "function"
				},
				{
					"inputs": [
						{
							"internalType": "address",
							"name": "owner",
							"type": "address"
						},
						{
							"internalType": "address",
							"name": "spender",
							"type": "address"
						}
					],
					"name": "allowance",
					"outputs": [
						{
							"internalType": "uint256",
							"name": "",
							"type": "uint256"
						}
					],
					"stateMutability": "view",
					"type": "function"
				},
				{
					"inputs": [
						{
							"internalType": "address",
							"name": "spender",
							"type": "address"
						},
						{
							"internalType": "uint256",
							"name": "amount",
							"type": "uint256"
						}
					],
					"name": "approve",
					"outputs": [
						{
							"internalType": "bool",
							"name": "",
							"type": "bool"
						}
					],
					"stateMutability": "nonpayable",
					"type": "function"
				},
				{
					"inputs": [
						{
							"internalType": "address",
							"name": "account",
							"type": "address"
						}
					],
					"name": "balanceOf",
					"outputs": [
						{
							"internalType": "uint256",
							"name": "",
							"type": "uint256"
						}
					],
					"stateMutability": "view",
					"type": "function"
				},
				{
					"inputs": [
						{
							"internalType": "uint256",
							"name": "_amount",
							"type": "uint256"
						}
					],
					"name": "burn",
					"outputs": [],
					"stateMutability": "nonpayable",
					"type": "function"
				},
				{
					"inputs": [
						{
							"internalType": "address",
							"name": "_from",
							"type": "address"
						},
						{
							"internalType": "uint256",
							"name": "_amount",
							"type": "uint256"
						}
					],
					"name": "burnFrom",
					"outputs": [],
					"stateMutability": "nonpayable",
					"type": "function"
				},
				{
					"inputs": [],
					"name": "decimals",
					"outputs": [
						{
							"internalType": "uint8",
							"name": "",
							"type": "uint8"
						}
					],
					"stateMutability": "view",
					"type": "function"
				},
				{
					"inputs": [
						{
							"internalType": "address",
							"name": "spender",
							"type": "address"
						},
						{
							"internalType": "uint256",
							"name": "subtractedValue",
							"type": "uint256"
						}
					],
					"name": "decreaseAllowance",
					"outputs": [
						{
							"internalType": "bool",
							"name": "",
							"type": "bool"
						}
					],
					"stateMutability": "nonpayable",
					"type": "function"
				},
				{
					"inputs": [],
					"name": "getNextMintTime",
					"outputs": [
						{
							"internalType": "uint256",
							"name": "",
							"type": "uint256"
						}
					],
					"stateMutability": "view",
					"type": "function"
				},
				{
					"inputs": [
						{
							"internalType": "address",
							"name": "spender",
							"type": "address"
						},
						{
							"internalType": "uint256",
							"name": "addedValue",
							"type": "uint256"
						}
					],
					"name": "increaseAllowance",
					"outputs": [
						{
							"internalType": "bool",
							"name": "",
							"type": "bool"
						}
					],
					"stateMutability": "nonpayable",
					"type": "function"
				},
				{
					"inputs": [],
					"name": "lastMintTime",
					"outputs": [
						{
							"internalType": "uint256",
							"name": "",
							"type": "uint256"
						}
					],
					"stateMutability": "view",
					"type": "function"
				},
				{
					"inputs": [],
					"name": "mainPool",
					"outputs": [
						{
							"internalType": "address",
							"name": "",
							"type": "address"
						}
					],
					"stateMutability": "view",
					"type": "function"
				},
				{
					"inputs": [
						{
							"internalType": "uint256",
							"name": "",
							"type": "uint256"
						}
					],
					"name": "maxMintAmounts",
					"outputs": [
						{
							"internalType": "uint256",
							"name": "",
							"type": "uint256"
						}
					],
					"stateMutability": "view",
					"type": "function"
				},
				{
					"inputs": [
						{
							"internalType": "address",
							"name": "_to",
							"type": "address"
						}
					],
					"name": "mint",
					"outputs": [],
					"stateMutability": "nonpayable",
					"type": "function"
				},
				{
					"inputs": [],
					"name": "mintTimes",
					"outputs": [
						{
							"internalType": "uint256",
							"name": "",
							"type": "uint256"
						}
					],
					"stateMutability": "view",
					"type": "function"
				},
				{
					"inputs": [],
					"name": "name",
					"outputs": [
						{
							"internalType": "string",
							"name": "",
							"type": "string"
						}
					],
					"stateMutability": "view",
					"type": "function"
				},
				{
					"inputs": [],
					"name": "owner",
					"outputs": [
						{
							"internalType": "address",
							"name": "",
							"type": "address"
						}
					],
					"stateMutability": "view",
					"type": "function"
				},
				{
					"inputs": [],
					"name": "renounceOwnership",
					"outputs": [],
					"stateMutability": "nonpayable",
					"type": "function"
				},
				{
					"inputs": [
						{
							"internalType": "address",
							"name": "_pool",
							"type": "address"
						}
					],
					"name": "setMainPool",
					"outputs": [],
					"stateMutability": "nonpayable",
					"type": "function"
				},
				{
					"inputs": [],
					"name": "symbol",
					"outputs": [
						{
							"internalType": "string",
							"name": "",
							"type": "string"
						}
					],
					"stateMutability": "view",
					"type": "function"
				},
				{
					"inputs": [],
					"name": "totalSupply",
					"outputs": [
						{
							"internalType": "uint256",
							"name": "",
							"type": "uint256"
						}
					],
					"stateMutability": "view",
					"type": "function"
				},
				{
					"inputs": [
						{
							"internalType": "address",
							"name": "recipient",
							"type": "address"
						},
						{
							"internalType": "uint256",
							"name": "amount",
							"type": "uint256"
						}
					],
					"name": "transfer",
					"outputs": [
						{
							"internalType": "bool",
							"name": "",
							"type": "bool"
						}
					],
					"stateMutability": "nonpayable",
					"type": "function"
				},
				{
					"inputs": [
						{
							"internalType": "address",
							"name": "sender",
							"type": "address"
						},
						{
							"internalType": "address",
							"name": "recipient",
							"type": "address"
						},
						{
							"internalType": "uint256",
							"name": "amount",
							"type": "uint256"
						}
					],
					"name": "transferFrom",
					"outputs": [
						{
							"internalType": "bool",
							"name": "",
							"type": "bool"
						}
					],
					"stateMutability": "nonpayable",
					"type": "function"
				},
				{
					"inputs": [
						{
							"internalType": "address",
							"name": "newOwner",
							"type": "address"
						}
					],
					"name": "transferOwnership",
					"outputs": [],
					"stateMutability": "nonpayable",
					"type": "function"
				}
			],
			"devdoc": {
				"kind": "dev",
				"methods": {
					"allowance(address,address)": {
						"details": "See {IERC20-allowance}."
					},
					"approve(address,uint256)": {
						"details": "See {IERC20-approve}. Requirements: - `spender` cannot be the zero address."
					},
					"balanceOf(address)": {
						"details": "See {IERC20-balanceOf}."
					},
					"decimals()": {
						"details": "Returns the number of decimals used to get its user representation. For example, if `decimals` equals `2`, a balance of `505` tokens should be displayed to a user as `5.05` (`505 / 10 ** 2`). Tokens usually opt for a value of 18, imitating the relationship between Ether and Wei. This is the value {ERC20} uses, unless this function is overridden; NOTE: This information is only used for _display_ purposes: it in no way affects any of the arithmetic of the contract, including {IERC20-balanceOf} and {IERC20-transfer}."
					},
					"decreaseAllowance(address,uint256)": {
						"details": "Atomically decreases the allowance granted to `spender` by the caller. This is an alternative to {approve} that can be used as a mitigation for problems described in {IERC20-approve}. Emits an {Approval} event indicating the updated allowance. Requirements: - `spender` cannot be the zero address. - `spender` must have allowance for the caller of at least `subtractedValue`."
					},
					"increaseAllowance(address,uint256)": {
						"details": "Atomically increases the allowance granted to `spender` by the caller. This is an alternative to {approve} that can be used as a mitigation for problems described in {IERC20-approve}. Emits an {Approval} event indicating the updated allowance. Requirements: - `spender` cannot be the zero address."
					},
					"name()": {
						"details": "Returns the name of the token."
					},
					"owner()": {
						"details": "Returns the address of the current owner."
					},
					"renounceOwnership()": {
						"details": "Leaves the contract without owner. It will not be possible to call `onlyOwner` functions anymore. Can only be called by the current owner. NOTE: Renouncing ownership will leave the contract without an owner, thereby removing any functionality that is only available to the owner."
					},
					"symbol()": {
						"details": "Returns the symbol of the token, usually a shorter version of the name."
					},
					"totalSupply()": {
						"details": "See {IERC20-totalSupply}."
					},
					"transfer(address,uint256)": {
						"details": "See {IERC20-transfer}. Requirements: - `recipient` cannot be the zero address. - the caller must have a balance of at least `amount`."
					},
					"transferFrom(address,address,uint256)": {
						"details": "See {IERC20-transferFrom}. Emits an {Approval} event indicating the updated allowance. This is not required by the EIP. See the note at the beginning of {ERC20}. Requirements: - `sender` and `recipient` cannot be the zero address. - `sender` must have a balance of at least `amount`. - the caller must have allowance for ``sender``'s tokens of at least `amount`."
					},
					"transferOwnership(address)": {
						"details": "Transfers ownership of the contract to a new account (`newOwner`). Can only be called by the current owner."
					}
				},
				"version": 1
			},
			"evm": {
				"assembly": "    /* \"contracts/Lottery.sol\":24974:27201  contract HWTToken is ERC20, Ownable {... */\n  mstore(0x40, 0x80)\n    /* \"contracts/Lottery.sol\":25430:25431  0 */\n  0x00\n    /* \"contracts/Lottery.sol\":25403:25431  uint256 public mintTimes = 0 */\n  0x0d\n  sstore\n    /* \"contracts/Lottery.sol\":25438:26049  constructor() ERC20(\"HonorWorld Token\", \"HWT\") { ... */\n  callvalue\n  dup1\n  iszero\n  tag_1\n  jumpi\n  0x00\n  dup1\n  revert\ntag_1:\n  pop\n    /* \"contracts/Lottery.sol\":6093:6206  constructor(string memory name_, string memory symbol_) {... */\n  mload(0x40)\n  dup1\n  0x40\n  add\n  0x40\n  mstore\n  dup1\n  0x10\n  dup2\n  mstore\n  0x20\n  add\n  0x486f6e6f72576f726c6420546f6b656e00000000000000000000000000000000\n  dup2\n  mstore\n  pop\n  mload(0x40)\n  dup1\n  0x40\n  add\n  0x40\n  mstore\n  dup1\n  0x03\n  dup2\n  mstore\n  0x20\n  add\n  0x4857540000000000000000000000000000000000000000000000000000000000\n  dup2\n  mstore\n  pop\n    /* \"contracts/Lottery.sol\":6167:6172  name_ */\n  dup2\n    /* \"contracts/Lottery.sol\":6159:6164  _name */\n  0x03\n    /* \"contracts/Lottery.sol\":6159:6172  _name = name_ */\n  swap1\n  dup1\n  mload\n  swap1\n  0x20\n  add\n  swap1\n  tag_6\n  swap3\n  swap2\n  swap1\n  tag_7\n  jump\t// in\ntag_6:\n  pop\n    /* \"contracts/Lottery.sol\":6192:6199  symbol_ */\n  dup1\n    /* \"contracts/Lottery.sol\":6182:6189  _symbol */\n  0x04\n    /* \"contracts/Lottery.sol\":6182:6199  _symbol = symbol_ */\n  swap1\n  dup1\n  mload\n  swap1\n  0x20\n  add\n  swap1\n  tag_8\n  swap3\n  swap2\n  swap1\n  tag_7\n  jump\t// in\ntag_8:\n  pop\n    /* \"contracts/Lottery.sol\":6093:6206  constructor(string memory name_, string memory symbol_) {... */\n  pop\n  pop\n    /* \"contracts/Lottery.sol\":16777:16800  _setOwner(_msgSender()) */\n  tag_10\n    /* \"contracts/Lottery.sol\":16787:16799  _msgSender() */\n  tag_11\n    /* \"contracts/Lottery.sol\":16787:16797  _msgSender */\n  shl(0x20, tag_12)\n    /* \"contracts/Lottery.sol\":16787:16799  _msgSender() */\n  0x20\n  shr\n  jump\t// in\ntag_11:\n    /* \"contracts/Lottery.sol\":16777:16786  _setOwner */\n  shl(0x20, tag_13)\n    /* \"contracts/Lottery.sol\":16777:16800  _setOwner(_msgSender()) */\n  0x20\n  shr\n  jump\t// in\ntag_10:\n    /* \"contracts/Lottery.sol\":25492:25507  uint256 decimal */\n  0x00\n    /* \"contracts/Lottery.sol\":25524:25534  decimals() */\n  tag_15\n    /* \"contracts/Lottery.sol\":25524:25532  decimals */\n  shl(0x20, tag_16)\n    /* \"contracts/Lottery.sol\":25524:25534  decimals() */\n  0x20\n  shr\n  jump\t// in\ntag_15:\n    /* \"contracts/Lottery.sol\":25516:25535  uint256(decimals()) */\n  0xff\n  and\n    /* \"contracts/Lottery.sol\":25510:25512  10 */\n  0x0a\n    /* \"contracts/Lottery.sol\":25510:25535  10 ** uint256(decimals()) */\n  tag_17\n  swap2\n  swap1\n  tag_18\n  jump\t// in\ntag_17:\n    /* \"contracts/Lottery.sol\":25492:25535  uint256 decimal = 10 ** uint256(decimals()) */\n  swap1\n  pop\n    /* \"contracts/Lottery.sol\":25858:25865  decimal */\n  dup1\n    /* \"contracts/Lottery.sol\":25846:25855  400000000 */\n  0x17d78400\n    /* \"contracts/Lottery.sol\":25846:25865  400000000 * decimal */\n  tag_19\n  swap2\n  swap1\n  tag_20\n  jump\t// in\ntag_19:\n    /* \"contracts/Lottery.sol\":25826:25840  maxMintAmounts */\n  0x08\n    /* \"contracts/Lottery.sol\":25841:25842  0 */\n  0x00\n    /* \"contracts/Lottery.sol\":25826:25843  maxMintAmounts[0] */\n  0x05\n  dup2\n  lt\n  tag_21\n  jumpi\n  tag_22\n  tag_23\n  jump\t// in\ntag_22:\ntag_21:\n  add\n    /* \"contracts/Lottery.sol\":25826:25865  maxMintAmounts[0] = 400000000 * decimal */\n  dup2\n  swap1\n  sstore\n  pop\n    /* \"contracts/Lottery.sol\":25903:25910  decimal */\n  dup1\n    /* \"contracts/Lottery.sol\":25891:25900  225000000 */\n  0x0d693a40\n    /* \"contracts/Lottery.sol\":25891:25910  225000000 * decimal */\n  tag_25\n  swap2\n  swap1\n  tag_20\n  jump\t// in\ntag_25:\n    /* \"contracts/Lottery.sol\":25871:25885  maxMintAmounts */\n  0x08\n    /* \"contracts/Lottery.sol\":25886:25887  1 */\n  0x01\n    /* \"contracts/Lottery.sol\":25871:25888  maxMintAmounts[1] */\n  0x05\n  dup2\n  lt\n  tag_26\n  jumpi\n  tag_27\n  tag_23\n  jump\t// in\ntag_27:\ntag_26:\n  add\n    /* \"contracts/Lottery.sol\":25871:25910  maxMintAmounts[1] = 225000000 * decimal */\n  dup2\n  swap1\n  sstore\n  pop\n    /* \"contracts/Lottery.sol\":25948:25955  decimal */\n  dup1\n    /* \"contracts/Lottery.sol\":25936:25945  175000000 */\n  0x0a6e49c0\n    /* \"contracts/Lottery.sol\":25936:25955  175000000 * decimal */\n  tag_29\n  swap2\n  swap1\n  tag_20\n  jump\t// in\ntag_29:\n    /* \"contracts/Lottery.sol\":25916:25930  maxMintAmounts */\n  0x08\n    /* \"contracts/Lottery.sol\":25931:25932  2 */\n  0x02\n    /* \"contracts/Lottery.sol\":25916:25933  maxMintAmounts[2] */\n  0x05\n  dup2\n  lt\n  tag_30\n  jumpi\n  tag_31\n  tag_23\n  jump\t// in\ntag_31:\ntag_30:\n  add\n    /* \"contracts/Lottery.sol\":25916:25955  maxMintAmounts[2] = 175000000 * decimal */\n  dup2\n  swap1\n  sstore\n  pop\n    /* \"contracts/Lottery.sol\":25993:26000  decimal */\n  dup1\n    /* \"contracts/Lottery.sol\":25981:25990  125000000 */\n  0x07735940\n    /* \"contracts/Lottery.sol\":25981:26000  125000000 * decimal */\n  tag_33\n  swap2\n  swap1\n  tag_20\n  jump\t// in\ntag_33:\n    /* \"contracts/Lottery.sol\":25961:25975  maxMintAmounts */\n  0x08\n    /* \"contracts/Lottery.sol\":25976:25977  3 */\n  0x03\n    /* \"contracts/Lottery.sol\":25961:25978  maxMintAmounts[3] */\n  0x05\n  dup2\n  lt\n  tag_34\n  jumpi\n  tag_35\n  tag_23\n  jump\t// in\ntag_35:\ntag_34:\n  add\n    /* \"contracts/Lottery.sol\":25961:26000  maxMintAmounts[3] = 125000000 * decimal */\n  dup2\n  swap1\n  sstore\n  pop\n    /* \"contracts/Lottery.sol\":26037:26044  decimal */\n  dup1\n    /* \"contracts/Lottery.sol\":26026:26034  75000000 */\n  0x047868c0\n    /* \"contracts/Lottery.sol\":26026:26044  75000000 * decimal */\n  tag_37\n  swap2\n  swap1\n  tag_20\n  jump\t// in\ntag_37:\n    /* \"contracts/Lottery.sol\":26006:26020  maxMintAmounts */\n  0x08\n    /* \"contracts/Lottery.sol\":26021:26022  4 */\n  0x04\n    /* \"contracts/Lottery.sol\":26006:26023  maxMintAmounts[4] */\n  0x05\n  dup2\n  lt\n  tag_38\n  jumpi\n  tag_39\n  tag_23\n  jump\t// in\ntag_39:\ntag_38:\n  add\n    /* \"contracts/Lottery.sol\":26006:26044  maxMintAmounts[4] = 75000000 * decimal */\n  dup2\n  swap1\n  sstore\n  pop\n    /* \"contracts/Lottery.sol\":25485:26049  { ... */\n  pop\n    /* \"contracts/Lottery.sol\":24974:27201  contract HWTToken is ERC20, Ownable {... */\n  jump(tag_41)\n    /* \"contracts/Lottery.sol\":4076:4172  function _msgSender() internal view virtual returns (address) {... */\ntag_12:\n    /* \"contracts/Lottery.sol\":4129:4136  address */\n  0x00\n    /* \"contracts/Lottery.sol\":4155:4165  msg.sender */\n  caller\n    /* \"contracts/Lottery.sol\":4148:4165  return msg.sender */\n  swap1\n  pop\n    /* \"contracts/Lottery.sol\":4076:4172  function _msgSender() internal view virtual returns (address) {... */\n  swap1\n  jump\t// out\n    /* \"contracts/Lottery.sol\":17951:18120  function _setOwner(address newOwner) private {... */\ntag_13:\n    /* \"contracts/Lottery.sol\":18006:18022  address oldOwner */\n  0x00\n    /* \"contracts/Lottery.sol\":18025:18031  _owner */\n  0x05\n  0x00\n  swap1\n  sload\n  swap1\n  0x0100\n  exp\n  swap1\n  div\n  0xffffffffffffffffffffffffffffffffffffffff\n  and\n    /* \"contracts/Lottery.sol\":18006:18031  address oldOwner = _owner */\n  swap1\n  pop\n    /* \"contracts/Lottery.sol\":18050:18058  newOwner */\n  dup2\n    /* \"contracts/Lottery.sol\":18041:18047  _owner */\n  0x05\n  0x00\n    /* \"contracts/Lottery.sol\":18041:18058  _owner = newOwner */\n  0x0100\n  exp\n  dup2\n  sload\n  dup2\n  0xffffffffffffffffffffffffffffffffffffffff\n  mul\n  not\n  and\n  swap1\n  dup4\n  0xffffffffffffffffffffffffffffffffffffffff\n  and\n  mul\n  or\n  swap1\n  sstore\n  pop\n    /* \"contracts/Lottery.sol\":18104:18112  newOwner */\n  dup2\n    /* \"contracts/Lottery.sol\":18073:18113  OwnershipTransferred(oldOwner, newOwner) */\n  0xffffffffffffffffffffffffffffffffffffffff\n  and\n    /* \"contracts/Lottery.sol\":18094:18102  oldOwner */\n  dup2\n    /* \"contracts/Lottery.sol\":18073:18113  OwnershipTransferred(oldOwner, newOwner) */\n  0xffffffffffffffffffffffffffffffffffffffff\n  and\n  0x8be0079c531659141344cd1fd0a4f28419497f9722a3daafe3b4186f6b6457e0\n  mload(0x40)\n  mload(0x40)\n  dup1\n  swap2\n  sub\n  swap1\n  log3\n    /* \"contracts/Lottery.sol\":17996:18120  {... */\n  pop\n    /* \"contracts/Lottery.sol\":17951:18120  function _setOwner(address newOwner) private {... */\n  pop\n  jump\t// out\n    /* \"contracts/Lottery.sol\":7208:7299  function decimals() public view virtual override returns (uint8) {... */\ntag_16:\n    /* \"contracts/Lottery.sol\":7266:7271  uint8 */\n  0x00\n    /* \"contracts/Lottery.sol\":7290:7292  18 */\n  0x12\n    /* \"contracts/Lottery.sol\":7283:7292  return 18 */\n  swap1\n  pop\n    /* \"contracts/Lottery.sol\":7208:7299  function decimals() public view virtual override returns (uint8) {... */\n  swap1\n  jump\t// out\n    /* \"contracts/Lottery.sol\":24974:27201  contract HWTToken is ERC20, Ownable {... */\ntag_7:\n  dup3\n  dup1\n  sload\n  tag_45\n  swap1\n  tag_46\n  jump\t// in\ntag_45:\n  swap1\n  0x00\n  mstore\n  keccak256(0x00, 0x20)\n  swap1\n  0x1f\n  add\n  0x20\n  swap1\n  div\n  dup2\n  add\n  swap3\n  dup3\n  tag_48\n  jumpi\n  0x00\n  dup6\n  sstore\n  jump(tag_47)\ntag_48:\n  dup3\n  0x1f\n  lt\n  tag_49\n  jumpi\n  dup1\n  mload\n  not(0xff)\n  and\n  dup4\n  dup1\n  add\n  or\n  dup6\n  sstore\n  jump(tag_47)\ntag_49:\n  dup3\n  dup1\n  add\n  0x01\n  add\n  dup6\n  sstore\n  dup3\n  iszero\n  tag_47\n  jumpi\n  swap2\n  dup3\n  add\ntag_50:\n  dup3\n  dup2\n  gt\n  iszero\n  tag_51\n  jumpi\n  dup3\n  mload\n  dup3\n  sstore\n  swap2\n  0x20\n  add\n  swap2\n  swap1\n  0x01\n  add\n  swap1\n  jump(tag_50)\ntag_51:\ntag_47:\n  pop\n  swap1\n  pop\n  tag_52\n  swap2\n  swap1\n  tag_53\n  jump\t// in\ntag_52:\n  pop\n  swap1\n  jump\t// out\ntag_53:\ntag_54:\n  dup1\n  dup3\n  gt\n  iszero\n  tag_55\n  jumpi\n  0x00\n  dup2\n  0x00\n  swap1\n  sstore\n  pop\n  0x01\n  add\n  jump(tag_54)\ntag_55:\n  pop\n  swap1\n  jump\t// out\n    /* \"#utility.yul\":7:855   */\ntag_57:\n    /* \"#utility.yul\":68:73   */\n  0x00\n    /* \"#utility.yul\":75:79   */\n  dup1\n    /* \"#utility.yul\":99:105   */\n  dup3\n    /* \"#utility.yul\":90:105   */\n  swap2\n  pop\n    /* \"#utility.yul\":123:128   */\n  dup4\n    /* \"#utility.yul\":114:128   */\n  swap1\n  pop\n    /* \"#utility.yul\":137:849   */\ntag_59:\n    /* \"#utility.yul\":158:159   */\n  0x01\n    /* \"#utility.yul\":148:156   */\n  dup6\n    /* \"#utility.yul\":145:160   */\n  gt\n    /* \"#utility.yul\":137:849   */\n  iszero\n  tag_61\n  jumpi\n    /* \"#utility.yul\":253:257   */\n  dup1\n    /* \"#utility.yul\":248:251   */\n  dup7\n    /* \"#utility.yul\":244:258   */\n  div\n    /* \"#utility.yul\":238:242   */\n  dup2\n    /* \"#utility.yul\":235:259   */\n  gt\n    /* \"#utility.yul\":232:282   */\n  iszero\n  tag_62\n  jumpi\n    /* \"#utility.yul\":262:280   */\n  tag_63\n  tag_64\n  jump\t// in\ntag_63:\n    /* \"#utility.yul\":232:282   */\ntag_62:\n    /* \"#utility.yul\":312:313   */\n  0x01\n    /* \"#utility.yul\":302:310   */\n  dup6\n    /* \"#utility.yul\":298:314   */\n  and\n    /* \"#utility.yul\":295:746   */\n  iszero\n  tag_65\n  jumpi\n    /* \"#utility.yul\":727:731   */\n  dup1\n    /* \"#utility.yul\":720:725   */\n  dup3\n    /* \"#utility.yul\":716:732   */\n  mul\n    /* \"#utility.yul\":707:732   */\n  swap2\n  pop\n    /* \"#utility.yul\":295:746   */\ntag_65:\n    /* \"#utility.yul\":777:781   */\n  dup1\n    /* \"#utility.yul\":771:775   */\n  dup2\n    /* \"#utility.yul\":767:782   */\n  mul\n    /* \"#utility.yul\":759:782   */\n  swap1\n  pop\n    /* \"#utility.yul\":807:839   */\n  tag_66\n    /* \"#utility.yul\":830:838   */\n  dup6\n    /* \"#utility.yul\":807:839   */\n  tag_67\n  jump\t// in\ntag_66:\n    /* \"#utility.yul\":795:839   */\n  swap5\n  pop\n    /* \"#utility.yul\":137:849   */\n  jump(tag_59)\ntag_61:\n    /* \"#utility.yul\":7:855   */\n  swap5\n  pop\n  swap5\n  swap3\n  pop\n  pop\n  pop\n  jump\t// out\n    /* \"#utility.yul\":861:1146   */\ntag_18:\n    /* \"#utility.yul\":921:926   */\n  0x00\n    /* \"#utility.yul\":945:968   */\n  tag_69\n    /* \"#utility.yul\":963:967   */\n  dup3\n    /* \"#utility.yul\":945:968   */\n  tag_70\n  jump\t// in\ntag_69:\n    /* \"#utility.yul\":937:968   */\n  swap2\n  pop\n    /* \"#utility.yul\":989:1016   */\n  tag_71\n    /* \"#utility.yul\":1007:1015   */\n  dup4\n    /* \"#utility.yul\":989:1016   */\n  tag_70\n  jump\t// in\ntag_71:\n    /* \"#utility.yul\":977:1016   */\n  swap3\n  pop\n    /* \"#utility.yul\":1035:1139   */\n  tag_72\n    /* \"#utility.yul\":1072:1138   */\n  0xffffffffffffffffffffffffffffffffffffffffffffffffffffffffffffffff\n    /* \"#utility.yul\":1062:1070   */\n  dup5\n    /* \"#utility.yul\":1056:1060   */\n  dup5\n    /* \"#utility.yul\":1035:1139   */\n  tag_73\n  jump\t// in\ntag_72:\n    /* \"#utility.yul\":1026:1139   */\n  swap1\n  pop\n    /* \"#utility.yul\":861:1146   */\n  swap3\n  swap2\n  pop\n  pop\n  jump\t// out\n    /* \"#utility.yul\":1152:2225   */\ntag_73:\n    /* \"#utility.yul\":1206:1211   */\n  0x00\n    /* \"#utility.yul\":1397:1405   */\n  dup3\n    /* \"#utility.yul\":1387:1427   */\n  tag_75\n  jumpi\n    /* \"#utility.yul\":1418:1419   */\n  0x01\n    /* \"#utility.yul\":1409:1419   */\n  swap1\n  pop\n    /* \"#utility.yul\":1420:1425   */\n  jump(tag_74)\n    /* \"#utility.yul\":1387:1427   */\ntag_75:\n    /* \"#utility.yul\":1446:1450   */\n  dup2\n    /* \"#utility.yul\":1436:1472   */\n  tag_76\n  jumpi\n    /* \"#utility.yul\":1463:1464   */\n  0x00\n    /* \"#utility.yul\":1454:1464   */\n  swap1\n  pop\n    /* \"#utility.yul\":1465:1470   */\n  jump(tag_74)\n    /* \"#utility.yul\":1436:1472   */\ntag_76:\n    /* \"#utility.yul\":1532:1536   */\n  dup2\n    /* \"#utility.yul\":1580:1581   */\n  0x01\n    /* \"#utility.yul\":1575:1602   */\n  dup2\n  eq\n  tag_78\n  jumpi\n    /* \"#utility.yul\":1616:1617   */\n  0x02\n    /* \"#utility.yul\":1611:1802   */\n  dup2\n  eq\n  tag_79\n  jumpi\n    /* \"#utility.yul\":1525:1802   */\n  jump(tag_77)\n    /* \"#utility.yul\":1575:1602   */\ntag_78:\n    /* \"#utility.yul\":1593:1594   */\n  0x01\n    /* \"#utility.yul\":1584:1594   */\n  swap2\n  pop\n    /* \"#utility.yul\":1595:1600   */\n  pop\n  jump(tag_74)\n    /* \"#utility.yul\":1611:1802   */\ntag_79:\n    /* \"#utility.yul\":1656:1659   */\n  0xff\n    /* \"#utility.yul\":1646:1654   */\n  dup5\n    /* \"#utility.yul\":1643:1660   */\n  gt\n    /* \"#utility.yul\":1640:1683   */\n  iszero\n  tag_80\n  jumpi\n    /* \"#utility.yul\":1663:1681   */\n  tag_81\n  tag_64\n  jump\t// in\ntag_81:\n    /* \"#utility.yul\":1640:1683   */\ntag_80:\n    /* \"#utility.yul\":1712:1720   */\n  dup4\n    /* \"#utility.yul\":1709:1710   */\n  0x02\n    /* \"#utility.yul\":1705:1721   */\n  exp\n    /* \"#utility.yul\":1696:1721   */\n  swap2\n  pop\n    /* \"#utility.yul\":1747:1750   */\n  dup5\n    /* \"#utility.yul\":1740:1745   */\n  dup3\n    /* \"#utility.yul\":1737:1751   */\n  gt\n    /* \"#utility.yul\":1734:1774   */\n  iszero\n  tag_82\n  jumpi\n    /* \"#utility.yul\":1754:1772   */\n  tag_83\n  tag_64\n  jump\t// in\ntag_83:\n    /* \"#utility.yul\":1734:1774   */\ntag_82:\n    /* \"#utility.yul\":1787:1792   */\n  pop\n  jump(tag_74)\n    /* \"#utility.yul\":1525:1802   */\ntag_77:\n  pop\n    /* \"#utility.yul\":1911:1913   */\n  0x20\n    /* \"#utility.yul\":1901:1909   */\n  dup4\n    /* \"#utility.yul\":1898:1914   */\n  lt\n    /* \"#utility.yul\":1892:1895   */\n  0x0133\n    /* \"#utility.yul\":1886:1890   */\n  dup4\n    /* \"#utility.yul\":1883:1896   */\n  lt\n    /* \"#utility.yul\":1879:1915   */\n  and\n    /* \"#utility.yul\":1861:1863   */\n  0x4e\n    /* \"#utility.yul\":1851:1859   */\n  dup5\n    /* \"#utility.yul\":1848:1864   */\n  lt\n    /* \"#utility.yul\":1843:1845   */\n  0x0b\n    /* \"#utility.yul\":1837:1841   */\n  dup5\n    /* \"#utility.yul\":1834:1846   */\n  lt\n    /* \"#utility.yul\":1830:1865   */\n  and\n    /* \"#utility.yul\":1814:1925   */\n  or\n    /* \"#utility.yul\":1811:2057   */\n  iszero\n  tag_84\n  jumpi\n    /* \"#utility.yul\":1967:1975   */\n  dup3\n    /* \"#utility.yul\":1961:1965   */\n  dup3\n    /* \"#utility.yul\":1957:1976   */\n  exp\n    /* \"#utility.yul\":1948:1976   */\n  swap1\n  pop\n    /* \"#utility.yul\":2002:2005   */\n  dup4\n    /* \"#utility.yul\":1995:2000   */\n  dup2\n    /* \"#utility.yul\":1992:2006   */\n  gt\n    /* \"#utility.yul\":1989:2029   */\n  iszero\n  tag_85\n  jumpi\n    /* \"#utility.yul\":2009:2027   */\n  tag_86\n  tag_64\n  jump\t// in\ntag_86:\n    /* \"#utility.yul\":1989:2029   */\ntag_85:\n    /* \"#utility.yul\":2042:2047   */\n  jump(tag_74)\n    /* \"#utility.yul\":1811:2057   */\ntag_84:\n    /* \"#utility.yul\":2082:2124   */\n  tag_87\n    /* \"#utility.yul\":2120:2123   */\n  dup5\n    /* \"#utility.yul\":2110:2118   */\n  dup5\n    /* \"#utility.yul\":2104:2108   */\n  dup5\n    /* \"#utility.yul\":2101:2102   */\n  0x01\n    /* \"#utility.yul\":2082:2124   */\n  tag_57\n  jump\t// in\ntag_87:\n    /* \"#utility.yul\":2067:2124   */\n  swap3\n  pop\n  swap1\n  pop\n    /* \"#utility.yul\":2156:2160   */\n  dup2\n    /* \"#utility.yul\":2151:2154   */\n  dup5\n    /* \"#utility.yul\":2147:2161   */\n  div\n    /* \"#utility.yul\":2140:2145   */\n  dup2\n    /* \"#utility.yul\":2137:2162   */\n  gt\n    /* \"#utility.yul\":2134:2185   */\n  iszero\n  tag_88\n  jumpi\n    /* \"#utility.yul\":2165:2183   */\n  tag_89\n  tag_64\n  jump\t// in\ntag_89:\n    /* \"#utility.yul\":2134:2185   */\ntag_88:\n    /* \"#utility.yul\":2214:2218   */\n  dup2\n    /* \"#utility.yul\":2207:2212   */\n  dup2\n    /* \"#utility.yul\":2203:2219   */\n  mul\n    /* \"#utility.yul\":2194:2219   */\n  swap1\n  pop\n    /* \"#utility.yul\":1152:2225   */\ntag_74:\n  swap4\n  swap3\n  pop\n  pop\n  pop\n  jump\t// out\n    /* \"#utility.yul\":2231:2579   */\ntag_20:\n    /* \"#utility.yul\":2271:2278   */\n  0x00\n    /* \"#utility.yul\":2294:2314   */\n  tag_91\n    /* \"#utility.yul\":2312:2313   */\n  dup3\n    /* \"#utility.yul\":2294:2314   */\n  tag_70\n  jump\t// in\ntag_91:\n    /* \"#utility.yul\":2289:2314   */\n  swap2\n  pop\n    /* \"#utility.yul\":2328:2348   */\n  tag_92\n    /* \"#utility.yul\":2346:2347   */\n  dup4\n    /* \"#utility.yul\":2328:2348   */\n  tag_70\n  jump\t// in\ntag_92:\n    /* \"#utility.yul\":2323:2348   */\n  swap3\n  pop\n    /* \"#utility.yul\":2516:2517   */\n  dup2\n    /* \"#utility.yul\":2448:2514   */\n  0xffffffffffffffffffffffffffffffffffffffffffffffffffffffffffffffff\n    /* \"#utility.yul\":2444:2518   */\n  div\n    /* \"#utility.yul\":2441:2442   */\n  dup4\n    /* \"#utility.yul\":2438:2519   */\n  gt\n    /* \"#utility.yul\":2433:2434   */\n  dup3\n    /* \"#utility.yul\":2426:2435   */\n  iszero\n    /* \"#utility.yul\":2419:2436   */\n  iszero\n    /* \"#utility.yul\":2415:2520   */\n  and\n    /* \"#utility.yul\":2412:2543   */\n  iszero\n  tag_93\n  jumpi\n    /* \"#utility.yul\":2523:2541   */\n  tag_94\n  tag_64\n  jump\t// in\ntag_94:\n    /* \"#utility.yul\":2412:2543   */\ntag_93:\n    /* \"#utility.yul\":2571:2572   */\n  dup3\n    /* \"#utility.yul\":2568:2569   */\n  dup3\n    /* \"#utility.yul\":2564:2573   */\n  mul\n    /* \"#utility.yul\":2553:2573   */\n  swap1\n  pop\n    /* \"#utility.yul\":2231:2579   */\n  swap3\n  swap2\n  pop\n  pop\n  jump\t// out\n    /* \"#utility.yul\":2585:2662   */\ntag_70:\n    /* \"#utility.yul\":2622:2629   */\n  0x00\n    /* \"#utility.yul\":2651:2656   */\n  dup2\n    /* \"#utility.yul\":2640:2656   */\n  swap1\n  pop\n    /* \"#utility.yul\":2585:2662   */\n  swap2\n  swap1\n  pop\n  jump\t// out\n    /* \"#utility.yul\":2668:2988   */\ntag_46:\n    /* \"#utility.yul\":2712:2718   */\n  0x00\n    /* \"#utility.yul\":2749:2750   */\n  0x02\n    /* \"#utility.yul\":2743:2747   */\n  dup3\n    /* \"#utility.yul\":2739:2751   */\n  div\n    /* \"#utility.yul\":2729:2751   */\n  swap1\n  pop\n    /* \"#utility.yul\":2796:2797   */\n  0x01\n    /* \"#utility.yul\":2790:2794   */\n  dup3\n    /* \"#utility.yul\":2786:2798   */\n  and\n    /* \"#utility.yul\":2817:2835   */\n  dup1\n    /* \"#utility.yul\":2807:2888   */\n  tag_97\n  jumpi\n    /* \"#utility.yul\":2873:2877   */\n  0x7f\n    /* \"#utility.yul\":2865:2871   */\n  dup3\n    /* \"#utility.yul\":2861:2878   */\n  and\n    /* \"#utility.yul\":2851:2878   */\n  swap2\n  pop\n    /* \"#utility.yul\":2807:2888   */\ntag_97:\n    /* \"#utility.yul\":2935:2937   */\n  0x20\n    /* \"#utility.yul\":2927:2933   */\n  dup3\n    /* \"#utility.yul\":2924:2938   */\n  lt\n    /* \"#utility.yul\":2904:2922   */\n  dup2\n    /* \"#utility.yul\":2901:2939   */\n  eq\n    /* \"#utility.yul\":2898:2982   */\n  iszero\n  tag_98\n  jumpi\n    /* \"#utility.yul\":2954:2972   */\n  tag_99\n  tag_100\n  jump\t// in\ntag_99:\n    /* \"#utility.yul\":2898:2982   */\ntag_98:\n    /* \"#utility.yul\":2719:2988   */\n  pop\n    /* \"#utility.yul\":2668:2988   */\n  swap2\n  swap1\n  pop\n  jump\t// out\n    /* \"#utility.yul\":2994:3174   */\ntag_64:\n    /* \"#utility.yul\":3042:3119   */\n  0x4e487b7100000000000000000000000000000000000000000000000000000000\n    /* \"#utility.yul\":3039:3040   */\n  0x00\n    /* \"#utility.yul\":3032:3120   */\n  mstore\n    /* \"#utility.yul\":3139:3143   */\n  0x11\n    /* \"#utility.yul\":3136:3137   */\n  0x04\n    /* \"#utility.yul\":3129:3144   */\n  mstore\n    /* \"#utility.yul\":3163:3167   */\n  0x24\n    /* \"#utility.yul\":3160:3161   */\n  0x00\n    /* \"#utility.yul\":3153:3168   */\n  revert\n    /* \"#utility.yul\":3180:3360   */\ntag_100:\n    /* \"#utility.yul\":3228:3305   */\n  0x4e487b7100000000000000000000000000000000000000000000000000000000\n    /* \"#utility.yul\":3225:3226   */\n  0x00\n    /* \"#utility.yul\":3218:3306   */\n  mstore\n    /* \"#utility.yul\":3325:3329   */\n  0x22\n    /* \"#utility.yul\":3322:3323   */\n  0x04\n    /* \"#utility.yul\":3315:3330   */\n  mstore\n    /* \"#utility.yul\":3349:3353   */\n  0x24\n    /* \"#utility.yul\":3346:3347   */\n  0x00\n    /* \"#utility.yul\":3339:3354   */\n  revert\n    /* \"#utility.yul\":3366:3546   */\ntag_23:\n    /* \"#utility.yul\":3414:3491   */\n  0x4e487b7100000000000000000000000000000000000000000000000000000000\n    /* \"#utility.yul\":3411:3412   */\n  0x00\n    /* \"#utility.yul\":3404:3492   */\n  mstore\n    /* \"#utility.yul\":3511:3515   */\n  0x32\n    /* \"#utility.yul\":3508:3509   */\n  0x04\n    /* \"#utility.yul\":3501:3516   */\n  mstore\n    /* \"#utility.yul\":3535:3539   */\n  0x24\n    /* \"#utility.yul\":3532:3533   */\n  0x00\n    /* \"#utility.yul\":3525:3540   */\n  revert\n    /* \"#utility.yul\":3552:3654   */\ntag_67:\n    /* \"#utility.yul\":3594:3602   */\n  0x00\n    /* \"#utility.yul\":3641:3646   */\n  dup2\n    /* \"#utility.yul\":3638:3639   */\n  0x01\n    /* \"#utility.yul\":3634:3647   */\n  shr\n    /* \"#utility.yul\":3613:3647   */\n  swap1\n  pop\n    /* \"#utility.yul\":3552:3654   */\n  swap2\n  swap1\n  pop\n  jump\t// out\n    /* \"contracts/Lottery.sol\":24974:27201  contract HWTToken is ERC20, Ownable {... */\ntag_41:\n  dataSize(sub_0)\n  dup1\n  dataOffset(sub_0)\n  0x00\n  codecopy\n  0x00\n  return\nstop\n\nsub_0: assembly {\n        /* \"contracts/Lottery.sol\":24974:27201  contract HWTToken is ERC20, Ownable {... */\n      mstore(0x40, 0x80)\n      callvalue\n      dup1\n      iszero\n      tag_1\n      jumpi\n      0x00\n      dup1\n      revert\n    tag_1:\n      pop\n      jumpi(tag_2, lt(calldatasize, 0x04))\n      shr(0xe0, calldataload(0x00))\n      dup1\n      0x755cc41e\n      gt\n      tag_28\n      jumpi\n      dup1\n      0xa457c2d7\n      gt\n      tag_29\n      jumpi\n      dup1\n      0xbe146adc\n      gt\n      tag_30\n      jumpi\n      dup1\n      0xbe146adc\n      eq\n      tag_24\n      jumpi\n      dup1\n      0xc0972cc4\n      eq\n      tag_25\n      jumpi\n      dup1\n      0xdd62ed3e\n      eq\n      tag_26\n      jumpi\n      dup1\n      0xf2fde38b\n      eq\n      tag_27\n      jumpi\n      jump(tag_2)\n    tag_30:\n      dup1\n      0xa457c2d7\n      eq\n      tag_21\n      jumpi\n      dup1\n      0xa5a302d3\n      eq\n      tag_22\n      jumpi\n      dup1\n      0xa9059cbb\n      eq\n      tag_23\n      jumpi\n      jump(tag_2)\n    tag_29:\n      dup1\n      0x755cc41e\n      eq\n      tag_15\n      jumpi\n      dup1\n      0x79cc6790\n      eq\n      tag_16\n      jumpi\n      dup1\n      0x84e7e3d3\n      eq\n      tag_17\n      jumpi\n      dup1\n      0x8da5cb5b\n      eq\n      tag_18\n      jumpi\n      dup1\n      0x95d89b41\n      eq\n      tag_19\n      jumpi\n      dup1\n      0x9d463520\n      eq\n      tag_20\n      jumpi\n      jump(tag_2)\n    tag_28:\n      dup1\n      0x36031a46\n      gt\n      tag_31\n      jumpi\n      dup1\n      0x36031a46\n      eq\n      tag_9\n      jumpi\n      dup1\n      0x39509351\n      eq\n      tag_10\n      jumpi\n      dup1\n      0x42966c68\n      eq\n      tag_11\n      jumpi\n      dup1\n      0x6a627842\n      eq\n      tag_12\n      jumpi\n      dup1\n      0x70a08231\n      eq\n      tag_13\n      jumpi\n      dup1\n      0x715018a6\n      eq\n      tag_14\n      jumpi\n      jump(tag_2)\n    tag_31:\n      dup1\n      0x06fdde03\n      eq\n      tag_3\n      jumpi\n      dup1\n      0x095ea7b3\n      eq\n      tag_4\n      jumpi\n      dup1\n      0x18160ddd\n      eq\n      tag_5\n      jumpi\n      dup1\n      0x23b872dd\n      eq\n      tag_6\n      jumpi\n      dup1\n      0x29dbecb1\n      eq\n      tag_7\n      jumpi\n      dup1\n      0x313ce567\n      eq\n      tag_8\n      jumpi\n    tag_2:\n      0x00\n      dup1\n      revert\n        /* \"contracts/Lottery.sol\":6271:6369  function name() public view virtual override returns (string memory) {... */\n    tag_3:\n      tag_32\n      tag_33\n      jump\t// in\n    tag_32:\n      mload(0x40)\n      tag_34\n      swap2\n      swap1\n      tag_35\n      jump\t// in\n    tag_34:\n      mload(0x40)\n      dup1\n      swap2\n      sub\n      swap1\n      return\n        /* \"contracts/Lottery.sol\":8368:8534  function approve(address spender, uint256 amount) public virtual override returns (bool) {... */\n    tag_4:\n      tag_36\n      0x04\n      dup1\n      calldatasize\n      sub\n      dup2\n      add\n      swap1\n      tag_37\n      swap2\n      swap1\n      tag_38\n      jump\t// in\n    tag_37:\n      tag_39\n      jump\t// in\n    tag_36:\n      mload(0x40)\n      tag_40\n      swap2\n      swap1\n      tag_41\n      jump\t// in\n    tag_40:\n      mload(0x40)\n      dup1\n      swap2\n      sub\n      swap1\n      return\n        /* \"contracts/Lottery.sol\":7359:7465  function totalSupply() public view virtual override returns (uint256) {... */\n    tag_5:\n      tag_42\n      tag_43\n      jump\t// in\n    tag_42:\n      mload(0x40)\n      tag_44\n      swap2\n      swap1\n      tag_45\n      jump\t// in\n    tag_44:\n      mload(0x40)\n      dup1\n      swap2\n      sub\n      swap1\n      return\n        /* \"contracts/Lottery.sol\":9001:9479  function transferFrom(... */\n    tag_6:\n      tag_46\n      0x04\n      dup1\n      calldatasize\n      sub\n      dup2\n      add\n      swap1\n      tag_47\n      swap2\n      swap1\n      tag_48\n      jump\t// in\n    tag_47:\n      tag_49\n      jump\t// in\n    tag_46:\n      mload(0x40)\n      tag_50\n      swap2\n      swap1\n      tag_41\n      jump\t// in\n    tag_50:\n      mload(0x40)\n      dup1\n      swap2\n      sub\n      swap1\n      return\n        /* \"contracts/Lottery.sol\":26225:26385  function setMainPool(address _pool) external onlyOwner {... */\n    tag_7:\n      tag_51\n      0x04\n      dup1\n      calldatasize\n      sub\n      dup2\n      add\n      swap1\n      tag_52\n      swap2\n      swap1\n      tag_53\n      jump\t// in\n    tag_52:\n      tag_54\n      jump\t// in\n    tag_51:\n      stop\n        /* \"contracts/Lottery.sol\":7208:7299  function decimals() public view virtual override returns (uint8) {... */\n    tag_8:\n      tag_55\n      tag_56\n      jump\t// in\n    tag_55:\n      mload(0x40)\n      tag_57\n      swap2\n      swap1\n      tag_58\n      jump\t// in\n    tag_57:\n      mload(0x40)\n      dup1\n      swap2\n      sub\n      swap1\n      return\n        /* \"contracts/Lottery.sol\":25354:25399  uint256[MAX_MINT_TIMES] public maxMintAmounts */\n    tag_9:\n      tag_59\n      0x04\n      dup1\n      calldatasize\n      sub\n      dup2\n      add\n      swap1\n      tag_60\n      swap2\n      swap1\n      tag_61\n      jump\t// in\n    tag_60:\n      tag_62\n      jump\t// in\n    tag_59:\n      mload(0x40)\n      tag_63\n      swap2\n      swap1\n      tag_45\n      jump\t// in\n    tag_63:\n      mload(0x40)\n      dup1\n      swap2\n      sub\n      swap1\n      return\n        /* \"contracts/Lottery.sol\":9874:10086  function increaseAllowance(address spender, uint256 addedValue) public virtual returns (bool) {... */\n    tag_10:\n      tag_64\n      0x04\n      dup1\n      calldatasize\n      sub\n      dup2\n      add\n      swap1\n      tag_65\n      swap2\n      swap1\n      tag_38\n      jump\t// in\n    tag_65:\n      tag_66\n      jump\t// in\n    tag_64:\n      mload(0x40)\n      tag_67\n      swap2\n      swap1\n      tag_41\n      jump\t// in\n    tag_67:\n      mload(0x40)\n      dup1\n      swap2\n      sub\n      swap1\n      return\n        /* \"contracts/Lottery.sol\":26884:26961  function burn(uint256 _amount) external {... */\n    tag_11:\n      tag_68\n      0x04\n      dup1\n      calldatasize\n      sub\n      dup2\n      add\n      swap1\n      tag_69\n      swap2\n      swap1\n      tag_61\n      jump\t// in\n    tag_69:\n      tag_70\n      jump\t// in\n    tag_68:\n      stop\n        /* \"contracts/Lottery.sol\":26445:26880  function mint(address _to) external {... */\n    tag_12:\n      tag_71\n      0x04\n      dup1\n      calldatasize\n      sub\n      dup2\n      add\n      swap1\n      tag_72\n      swap2\n      swap1\n      tag_53\n      jump\t// in\n    tag_72:\n      tag_73\n      jump\t// in\n    tag_71:\n      stop\n        /* \"contracts/Lottery.sol\":7523:7648  function balanceOf(address account) public view virtual override returns (uint256) {... */\n    tag_13:\n      tag_74\n      0x04\n      dup1\n      calldatasize\n      sub\n      dup2\n      add\n      swap1\n      tag_75\n      swap2\n      swap1\n      tag_53\n      jump\t// in\n    tag_75:\n      tag_76\n      jump\t// in\n    tag_74:\n      mload(0x40)\n      tag_77\n      swap2\n      swap1\n      tag_45\n      jump\t// in\n    tag_77:\n      mload(0x40)\n      dup1\n      swap2\n      sub\n      swap1\n      return\n        /* \"contracts/Lottery.sol\":17515:17607  function renounceOwnership() public virtual onlyOwner {... */\n    tag_14:\n      tag_78\n      tag_79\n      jump\t// in\n    tag_78:\n      stop\n        /* \"contracts/Lottery.sol\":25403:25431  uint256 public mintTimes = 0 */\n    tag_15:\n      tag_80\n      tag_81\n      jump\t// in\n    tag_80:\n      mload(0x40)\n      tag_82\n      swap2\n      swap1\n      tag_45\n      jump\t// in\n    tag_82:\n      mload(0x40)\n      dup1\n      swap2\n      sub\n      swap1\n      return\n        /* \"contracts/Lottery.sol\":26965:27199  function burnFrom(address _from, uint256 _amount) external {... */\n    tag_16:\n      tag_83\n      0x04\n      dup1\n      calldatasize\n      sub\n      dup2\n      add\n      swap1\n      tag_84\n      swap2\n      swap1\n      tag_38\n      jump\t// in\n    tag_84:\n      tag_85\n      jump\t// in\n    tag_83:\n      stop\n        /* \"contracts/Lottery.sol\":25136:25184  uint256 public constant MINT_INTERVAL = 365 days */\n    tag_17:\n      tag_86\n      tag_87\n      jump\t// in\n    tag_86:\n      mload(0x40)\n      tag_88\n      swap2\n      swap1\n      tag_45\n      jump\t// in\n    tag_88:\n      mload(0x40)\n      dup1\n      swap2\n      sub\n      swap1\n      return\n        /* \"contracts/Lottery.sol\":16883:16968  function owner() public view virtual returns (address) {... */\n    tag_18:\n      tag_89\n      tag_90\n      jump\t// in\n    tag_89:\n      mload(0x40)\n      tag_91\n      swap2\n      swap1\n      tag_92\n      jump\t// in\n    tag_91:\n      mload(0x40)\n      dup1\n      swap2\n      sub\n      swap1\n      return\n        /* \"contracts/Lottery.sol\":6482:6584  function symbol() public view virtual override returns (string memory) {... */\n    tag_19:\n      tag_93\n      tag_94\n      jump\t// in\n    tag_93:\n      mload(0x40)\n      tag_95\n      swap2\n      swap1\n      tag_35\n      jump\t// in\n    tag_95:\n      mload(0x40)\n      dup1\n      swap2\n      sub\n      swap1\n      return\n        /* \"contracts/Lottery.sol\":25323:25350  uint256 public lastMintTime */\n    tag_20:\n      tag_96\n      tag_97\n      jump\t// in\n    tag_96:\n      mload(0x40)\n      tag_98\n      swap2\n      swap1\n      tag_45\n      jump\t// in\n    tag_98:\n      mload(0x40)\n      dup1\n      swap2\n      sub\n      swap1\n      return\n        /* \"contracts/Lottery.sol\":10573:10978  function decreaseAllowance(address spender, uint256 subtractedValue) public virtual returns (bool) {... */\n    tag_21:\n      tag_99\n      0x04\n      dup1\n      calldatasize\n      sub\n      dup2\n      add\n      swap1\n      tag_100\n      swap2\n      swap1\n      tag_38\n      jump\t// in\n    tag_100:\n      tag_101\n      jump\t// in\n    tag_99:\n      mload(0x40)\n      tag_102\n      swap2\n      swap1\n      tag_41\n      jump\t// in\n    tag_102:\n      mload(0x40)\n      dup1\n      swap2\n      sub\n      swap1\n      return\n        /* \"contracts/Lottery.sol\":25249:25272  address public mainPool */\n    tag_22:\n      tag_103\n      tag_104\n      jump\t// in\n    tag_103:\n      mload(0x40)\n      tag_105\n      swap2\n      swap1\n      tag_92\n      jump\t// in\n    tag_105:\n      mload(0x40)\n      dup1\n      swap2\n      sub\n      swap1\n      return\n        /* \"contracts/Lottery.sol\":7851:8023  function transfer(address recipient, uint256 amount) public virtual override returns (bool) {... */\n    tag_23:\n      tag_106\n      0x04\n      dup1\n      calldatasize\n      sub\n      dup2\n      add\n      swap1\n      tag_107\n      swap2\n      swap1\n      tag_38\n      jump\t// in\n    tag_107:\n      tag_108\n      jump\t// in\n    tag_106:\n      mload(0x40)\n      tag_109\n      swap2\n      swap1\n      tag_41\n      jump\t// in\n    tag_109:\n      mload(0x40)\n      dup1\n      swap2\n      sub\n      swap1\n      return\n        /* \"contracts/Lottery.sol\":26053:26157  function getNextMintTime() public view returns(uint256) {... */\n    tag_24:\n      tag_110\n      tag_111\n      jump\t// in\n    tag_110:\n      mload(0x40)\n      tag_112\n      swap2\n      swap1\n      tag_45\n      jump\t// in\n    tag_112:\n      mload(0x40)\n      dup1\n      swap2\n      sub\n      swap1\n      return\n        /* \"contracts/Lottery.sol\":25277:25319  uint256 public constant MAX_MINT_TIMES = 5 */\n    tag_25:\n      tag_113\n      tag_114\n      jump\t// in\n    tag_113:\n      mload(0x40)\n      tag_115\n      swap2\n      swap1\n      tag_45\n      jump\t// in\n    tag_115:\n      mload(0x40)\n      dup1\n      swap2\n      sub\n      swap1\n      return\n        /* \"contracts/Lottery.sol\":8081:8230  function allowance(address owner, address spender) public view virtual override returns (uint256) {... */\n    tag_26:\n      tag_116\n      0x04\n      dup1\n      calldatasize\n      sub\n      dup2\n      add\n      swap1\n      tag_117\n      swap2\n      swap1\n      tag_118\n      jump\t// in\n    tag_117:\n      tag_119\n      jump\t// in\n    tag_116:\n      mload(0x40)\n      tag_120\n      swap2\n      swap1\n      tag_45\n      jump\t// in\n    tag_120:\n      mload(0x40)\n      dup1\n      swap2\n      sub\n      swap1\n      return\n        /* \"contracts/Lottery.sol\":17756:17945  function transferOwnership(address newOwner) public virtual onlyOwner {... */\n    tag_27:\n      tag_121\n      0x04\n      dup1\n      calldatasize\n      sub\n      dup2\n      add\n      swap1\n      tag_122\n      swap2\n      swap1\n      tag_53\n      jump\t// in\n    tag_122:\n      tag_123\n      jump\t// in\n    tag_121:\n      stop\n        /* \"contracts/Lottery.sol\":6271:6369  function name() public view virtual override returns (string memory) {... */\n    tag_33:\n        /* \"contracts/Lottery.sol\":6325:6338  string memory */\n      0x60\n        /* \"contracts/Lottery.sol\":6357:6362  _name */\n      0x03\n        /* \"contracts/Lottery.sol\":6350:6362  return _name */\n      dup1\n      sload\n      tag_125\n      swap1\n      tag_126\n      jump\t// in\n    tag_125:\n      dup1\n      0x1f\n      add\n      0x20\n      dup1\n      swap2\n      div\n      mul\n      0x20\n      add\n      mload(0x40)\n      swap1\n      dup2\n      add\n      0x40\n      mstore\n      dup1\n      swap3\n      swap2\n      swap1\n      dup2\n      dup2\n      mstore\n      0x20\n      add\n      dup3\n      dup1\n      sload\n      tag_127\n      swap1\n      tag_126\n      jump\t// in\n    tag_127:\n      dup1\n      iszero\n      tag_128\n      jumpi\n      dup1\n      0x1f\n      lt\n      tag_129\n      jumpi\n      0x0100\n      dup1\n      dup4\n      sload\n      div\n      mul\n      dup4\n      mstore\n      swap2\n      0x20\n      add\n      swap2\n      jump(tag_128)\n    tag_129:\n      dup3\n      add\n      swap2\n      swap1\n      0x00\n      mstore\n      keccak256(0x00, 0x20)\n      swap1\n    tag_130:\n      dup2\n      sload\n      dup2\n      mstore\n      swap1\n      0x01\n      add\n      swap1\n      0x20\n      add\n      dup1\n      dup4\n      gt\n      tag_130\n      jumpi\n      dup3\n      swap1\n      sub\n      0x1f\n      and\n      dup3\n      add\n      swap2\n    tag_128:\n      pop\n      pop\n      pop\n      pop\n      pop\n      swap1\n      pop\n        /* \"contracts/Lottery.sol\":6271:6369  function name() public view virtual override returns (string memory) {... */\n      swap1\n      jump\t// out\n        /* \"contracts/Lottery.sol\":8368:8534  function approve(address spender, uint256 amount) public virtual override returns (bool) {... */\n    tag_39:\n        /* \"contracts/Lottery.sol\":8451:8455  bool */\n      0x00\n        /* \"contracts/Lottery.sol\":8467:8506  _approve(_msgSender(), spender, amount) */\n      tag_132\n        /* \"contracts/Lottery.sol\":8476:8488  _msgSender() */\n      tag_133\n        /* \"contracts/Lottery.sol\":8476:8486  _msgSender */\n      tag_134\n        /* \"contracts/Lottery.sol\":8476:8488  _msgSender() */\n      jump\t// in\n    tag_133:\n        /* \"contracts/Lottery.sol\":8490:8497  spender */\n      dup5\n        /* \"contracts/Lottery.sol\":8499:8505  amount */\n      dup5\n        /* \"contracts/Lottery.sol\":8467:8475  _approve */\n      tag_135\n        /* \"contracts/Lottery.sol\":8467:8506  _approve(_msgSender(), spender, amount) */\n      jump\t// in\n    tag_132:\n        /* \"contracts/Lottery.sol\":8523:8527  true */\n      0x01\n        /* \"contracts/Lottery.sol\":8516:8527  return true */\n      swap1\n      pop\n        /* \"contracts/Lottery.sol\":8368:8534  function approve(address spender, uint256 amount) public virtual override returns (bool) {... */\n      swap3\n      swap2\n      pop\n      pop\n      jump\t// out\n        /* \"contracts/Lottery.sol\":7359:7465  function totalSupply() public view virtual override returns (uint256) {... */\n    tag_43:\n        /* \"contracts/Lottery.sol\":7420:7427  uint256 */\n      0x00\n        /* \"contracts/Lottery.sol\":7446:7458  _totalSupply */\n      sload(0x02)\n        /* \"contracts/Lottery.sol\":7439:7458  return _totalSupply */\n      swap1\n      pop\n        /* \"contracts/Lottery.sol\":7359:7465  function totalSupply() public view virtual override returns (uint256) {... */\n      swap1\n      jump\t// out\n        /* \"contracts/Lottery.sol\":9001:9479  function transferFrom(... */\n    tag_49:\n        /* \"contracts/Lottery.sol\":9137:9141  bool */\n      0x00\n        /* \"contracts/Lottery.sol\":9153:9189  _transfer(sender, recipient, amount) */\n      tag_138\n        /* \"contracts/Lottery.sol\":9163:9169  sender */\n      dup5\n        /* \"contracts/Lottery.sol\":9171:9180  recipient */\n      dup5\n        /* \"contracts/Lottery.sol\":9182:9188  amount */\n      dup5\n        /* \"contracts/Lottery.sol\":9153:9162  _transfer */\n      tag_139\n        /* \"contracts/Lottery.sol\":9153:9189  _transfer(sender, recipient, amount) */\n      jump\t// in\n    tag_138:\n        /* \"contracts/Lottery.sol\":9200:9224  uint256 currentAllowance */\n      0x00\n        /* \"contracts/Lottery.sol\":9227:9238  _allowances */\n      0x01\n        /* \"contracts/Lottery.sol\":9227:9246  _allowances[sender] */\n      0x00\n        /* \"contracts/Lottery.sol\":9239:9245  sender */\n      dup7\n        /* \"contracts/Lottery.sol\":9227:9246  _allowances[sender] */\n      0xffffffffffffffffffffffffffffffffffffffff\n      and\n      0xffffffffffffffffffffffffffffffffffffffff\n      and\n      dup2\n      mstore\n      0x20\n      add\n      swap1\n      dup2\n      mstore\n      0x20\n      add\n      0x00\n      keccak256\n        /* \"contracts/Lottery.sol\":9227:9260  _allowances[sender][_msgSender()] */\n      0x00\n        /* \"contracts/Lottery.sol\":9247:9259  _msgSender() */\n      tag_140\n        /* \"contracts/Lottery.sol\":9247:9257  _msgSender */\n      tag_134\n        /* \"contracts/Lottery.sol\":9247:9259  _msgSender() */\n      jump\t// in\n    tag_140:\n        /* \"contracts/Lottery.sol\":9227:9260  _allowances[sender][_msgSender()] */\n      0xffffffffffffffffffffffffffffffffffffffff\n      and\n      0xffffffffffffffffffffffffffffffffffffffff\n      and\n      dup2\n      mstore\n      0x20\n      add\n      swap1\n      dup2\n      mstore\n      0x20\n      add\n      0x00\n      keccak256\n      sload\n        /* \"contracts/Lottery.sol\":9200:9260  uint256 currentAllowance = _allowances[sender][_msgSender()] */\n      swap1\n      pop\n        /* \"contracts/Lottery.sol\":9298:9304  amount */\n      dup3\n        /* \"contracts/Lottery.sol\":9278:9294  currentAllowance */\n      dup2\n        /* \"contracts/Lottery.sol\":9278:9304  currentAllowance >= amount */\n      lt\n      iszero\n        /* \"contracts/Lottery.sol\":9270:9349  require(currentAllowance >= amount, \"ERC20: transfer amount exceeds allowance\") */\n      tag_141\n      jumpi\n      mload(0x40)\n      0x08c379a000000000000000000000000000000000000000000000000000000000\n      dup2\n      mstore\n      0x04\n      add\n      tag_142\n      swap1\n      tag_143\n      jump\t// in\n    tag_142:\n      mload(0x40)\n      dup1\n      swap2\n      sub\n      swap1\n      revert\n    tag_141:\n        /* \"contracts/Lottery.sol\":9383:9440  _approve(sender, _msgSender(), currentAllowance - amount) */\n      tag_144\n        /* \"contracts/Lottery.sol\":9392:9398  sender */\n      dup6\n        /* \"contracts/Lottery.sol\":9400:9412  _msgSender() */\n      tag_145\n        /* \"contracts/Lottery.sol\":9400:9410  _msgSender */\n      tag_134\n        /* \"contracts/Lottery.sol\":9400:9412  _msgSender() */\n      jump\t// in\n    tag_145:\n        /* \"contracts/Lottery.sol\":9433:9439  amount */\n      dup6\n        /* \"contracts/Lottery.sol\":9414:9430  currentAllowance */\n      dup5\n        /* \"contracts/Lottery.sol\":9414:9439  currentAllowance - amount */\n      sub\n        /* \"contracts/Lottery.sol\":9383:9391  _approve */\n      tag_135\n        /* \"contracts/Lottery.sol\":9383:9440  _approve(sender, _msgSender(), currentAllowance - amount) */\n      jump\t// in\n    tag_144:\n        /* \"contracts/Lottery.sol\":9468:9472  true */\n      0x01\n        /* \"contracts/Lottery.sol\":9461:9472  return true */\n      swap2\n      pop\n      pop\n        /* \"contracts/Lottery.sol\":9001:9479  function transferFrom(... */\n      swap4\n      swap3\n      pop\n      pop\n      pop\n      jump\t// out\n        /* \"contracts/Lottery.sol\":26225:26385  function setMainPool(address _pool) external onlyOwner {... */\n    tag_54:\n        /* \"contracts/Lottery.sol\":17106:17118  _msgSender() */\n      tag_147\n        /* \"contracts/Lottery.sol\":17106:17116  _msgSender */\n      tag_134\n        /* \"contracts/Lottery.sol\":17106:17118  _msgSender() */\n      jump\t// in\n    tag_147:\n        /* \"contracts/Lottery.sol\":17095:17118  owner() == _msgSender() */\n      0xffffffffffffffffffffffffffffffffffffffff\n      and\n        /* \"contracts/Lottery.sol\":17095:17102  owner() */\n      tag_148\n        /* \"contracts/Lottery.sol\":17095:17100  owner */\n      tag_90\n        /* \"contracts/Lottery.sol\":17095:17102  owner() */\n      jump\t// in\n    tag_148:\n        /* \"contracts/Lottery.sol\":17095:17118  owner() == _msgSender() */\n      0xffffffffffffffffffffffffffffffffffffffff\n      and\n      eq\n        /* \"contracts/Lottery.sol\":17087:17155  require(owner() == _msgSender(), \"Ownable: caller is not the owner\") */\n      tag_149\n      jumpi\n      mload(0x40)\n      0x08c379a000000000000000000000000000000000000000000000000000000000\n      dup2\n      mstore\n      0x04\n      add\n      tag_150\n      swap1\n      tag_151\n      jump\t// in\n    tag_150:\n      mload(0x40)\n      dup1\n      swap2\n      sub\n      swap1\n      revert\n    tag_149:\n        /* \"contracts/Lottery.sol\":26313:26314  0 */\n      0x00\n        /* \"contracts/Lottery.sol\":26296:26315  _pool != address(0) */\n      0xffffffffffffffffffffffffffffffffffffffff\n      and\n        /* \"contracts/Lottery.sol\":26296:26301  _pool */\n      dup2\n        /* \"contracts/Lottery.sol\":26296:26315  _pool != address(0) */\n      0xffffffffffffffffffffffffffffffffffffffff\n      and\n      eq\n      iszero\n        /* \"contracts/Lottery.sol\":26288:26356  require(_pool != address(0), \"HWTToken: cannot be the zero address\") */\n      tag_153\n      jumpi\n      mload(0x40)\n      0x08c379a000000000000000000000000000000000000000000000000000000000\n      dup2\n      mstore\n      0x04\n      add\n      tag_154\n      swap1\n      tag_155\n      jump\t// in\n    tag_154:\n      mload(0x40)\n      dup1\n      swap2\n      sub\n      swap1\n      revert\n    tag_153:\n        /* \"contracts/Lottery.sol\":26375:26380  _pool */\n      dup1\n        /* \"contracts/Lottery.sol\":26364:26372  mainPool */\n      0x06\n      0x00\n        /* \"contracts/Lottery.sol\":26364:26380  mainPool = _pool */\n      0x0100\n      exp\n      dup2\n      sload\n      dup2\n      0xffffffffffffffffffffffffffffffffffffffff\n      mul\n      not\n      and\n      swap1\n      dup4\n      0xffffffffffffffffffffffffffffffffffffffff\n      and\n      mul\n      or\n      swap1\n      sstore\n      pop\n        /* \"contracts/Lottery.sol\":26225:26385  function setMainPool(address _pool) external onlyOwner {... */\n      pop\n      jump\t// out\n        /* \"contracts/Lottery.sol\":7208:7299  function decimals() public view virtual override returns (uint8) {... */\n    tag_56:\n        /* \"contracts/Lottery.sol\":7266:7271  uint8 */\n      0x00\n        /* \"contracts/Lottery.sol\":7290:7292  18 */\n      0x12\n        /* \"contracts/Lottery.sol\":7283:7292  return 18 */\n      swap1\n      pop\n        /* \"contracts/Lottery.sol\":7208:7299  function decimals() public view virtual override returns (uint8) {... */\n      swap1\n      jump\t// out\n        /* \"contracts/Lottery.sol\":25354:25399  uint256[MAX_MINT_TIMES] public maxMintAmounts */\n    tag_62:\n      0x08\n      dup2\n      0x05\n      dup2\n      lt\n      tag_157\n      jumpi\n      0x00\n      dup1\n      revert\n    tag_157:\n      add\n      0x00\n      swap2\n      pop\n      swap1\n      pop\n      sload\n      dup2\n      jump\t// out\n        /* \"contracts/Lottery.sol\":9874:10086  function increaseAllowance(address spender, uint256 addedValue) public virtual returns (bool) {... */\n    tag_66:\n        /* \"contracts/Lottery.sol\":9962:9966  bool */\n      0x00\n        /* \"contracts/Lottery.sol\":9978:10058  _approve(_msgSender(), spender, _allowances[_msgSender()][spender] + addedValue) */\n      tag_160\n        /* \"contracts/Lottery.sol\":9987:9999  _msgSender() */\n      tag_161\n        /* \"contracts/Lottery.sol\":9987:9997  _msgSender */\n      tag_134\n        /* \"contracts/Lottery.sol\":9987:9999  _msgSender() */\n      jump\t// in\n    tag_161:\n        /* \"contracts/Lottery.sol\":10001:10008  spender */\n      dup5\n        /* \"contracts/Lottery.sol\":10047:10057  addedValue */\n      dup5\n        /* \"contracts/Lottery.sol\":10010:10021  _allowances */\n      0x01\n        /* \"contracts/Lottery.sol\":10010:10035  _allowances[_msgSender()] */\n      0x00\n        /* \"contracts/Lottery.sol\":10022:10034  _msgSender() */\n      tag_162\n        /* \"contracts/Lottery.sol\":10022:10032  _msgSender */\n      tag_134\n        /* \"contracts/Lottery.sol\":10022:10034  _msgSender() */\n      jump\t// in\n    tag_162:\n        /* \"contracts/Lottery.sol\":10010:10035  _allowances[_msgSender()] */\n      0xffffffffffffffffffffffffffffffffffffffff\n      and\n      0xffffffffffffffffffffffffffffffffffffffff\n      and\n      dup2\n      mstore\n      0x20\n      add\n      swap1\n      dup2\n      mstore\n      0x20\n      add\n      0x00\n      keccak256\n        /* \"contracts/Lottery.sol\":10010:10044  _allowances[_msgSender()][spender] */\n      0x00\n        /* \"contracts/Lottery.sol\":10036:10043  spender */\n      dup9\n        /* \"contracts/Lottery.sol\":10010:10044  _allowances[_msgSender()][spender] */\n      0xffffffffffffffffffffffffffffffffffffffff\n      and\n      0xffffffffffffffffffffffffffffffffffffffff\n      and\n      dup2\n      mstore\n      0x20\n      add\n      swap1\n      dup2\n      mstore\n      0x20\n      add\n      0x00\n      keccak256\n      sload\n        /* \"contracts/Lottery.sol\":10010:10057  _allowances[_msgSender()][spender] + addedValue */\n      tag_163\n      swap2\n      swap1\n      tag_164\n      jump\t// in\n    tag_163:\n        /* \"contracts/Lottery.sol\":9978:9986  _approve */\n      tag_135\n        /* \"contracts/Lottery.sol\":9978:10058  _approve(_msgSender(), spender, _allowances[_msgSender()][spender] + addedValue) */\n      jump\t// in\n    tag_160:\n        /* \"contracts/Lottery.sol\":10075:10079  true */\n      0x01\n        /* \"contracts/Lottery.sol\":10068:10079  return true */\n      swap1\n      pop\n        /* \"contracts/Lottery.sol\":9874:10086  function increaseAllowance(address spender, uint256 addedValue) public virtual returns (bool) {... */\n      swap3\n      swap2\n      pop\n      pop\n      jump\t// out\n        /* \"contracts/Lottery.sol\":26884:26961  function burn(uint256 _amount) external {... */\n    tag_70:\n        /* \"contracts/Lottery.sol\":26930:26956  _burn(msg.sender, _amount) */\n      tag_166\n        /* \"contracts/Lottery.sol\":26936:26946  msg.sender */\n      caller\n        /* \"contracts/Lottery.sol\":26948:26955  _amount */\n      dup3\n        /* \"contracts/Lottery.sol\":26930:26935  _burn */\n      tag_167\n        /* \"contracts/Lottery.sol\":26930:26956  _burn(msg.sender, _amount) */\n      jump\t// in\n    tag_166:\n        /* \"contracts/Lottery.sol\":26884:26961  function burn(uint256 _amount) external {... */\n      pop\n      jump\t// out\n        /* \"contracts/Lottery.sol\":26445:26880  function mint(address _to) external {... */\n    tag_73:\n        /* \"contracts/Lottery.sol\":26509:26517  mainPool */\n      0x06\n      0x00\n      swap1\n      sload\n      swap1\n      0x0100\n      exp\n      swap1\n      div\n      0xffffffffffffffffffffffffffffffffffffffff\n      and\n        /* \"contracts/Lottery.sol\":26495:26517  msg.sender == mainPool */\n      0xffffffffffffffffffffffffffffffffffffffff\n      and\n        /* \"contracts/Lottery.sol\":26495:26505  msg.sender */\n      caller\n        /* \"contracts/Lottery.sol\":26495:26517  msg.sender == mainPool */\n      0xffffffffffffffffffffffffffffffffffffffff\n      and\n      eq\n        /* \"contracts/Lottery.sol\":26487:26546  require(msg.sender == mainPool, \"HWTToken: invalid minter\") */\n      tag_169\n      jumpi\n      mload(0x40)\n      0x08c379a000000000000000000000000000000000000000000000000000000000\n      dup2\n      mstore\n      0x04\n      add\n      tag_170\n      swap1\n      tag_171\n      jump\t// in\n    tag_170:\n      mload(0x40)\n      dup1\n      swap2\n      sub\n      swap1\n      revert\n    tag_169:\n        /* \"contracts/Lottery.sol\":25318:25319  5 */\n      0x05\n        /* \"contracts/Lottery.sol\":26560:26569  mintTimes */\n      sload(0x0d)\n        /* \"contracts/Lottery.sol\":26560:26586  mintTimes < MAX_MINT_TIMES */\n      lt\n        /* \"contracts/Lottery.sol\":26552:26611  require(mintTimes < MAX_MINT_TIMES, \"HWTToken: all minted\") */\n      tag_172\n      jumpi\n      mload(0x40)\n      0x08c379a000000000000000000000000000000000000000000000000000000000\n      dup2\n      mstore\n      0x04\n      add\n      tag_173\n      swap1\n      tag_174\n      jump\t// in\n    tag_173:\n      mload(0x40)\n      dup1\n      swap2\n      sub\n      swap1\n      revert\n    tag_172:\n        /* \"contracts/Lottery.sol\":26636:26637  0 */\n      0x00\n        /* \"contracts/Lottery.sol\":26621:26633  lastMintTime */\n      sload(0x07)\n        /* \"contracts/Lottery.sol\":26621:26637  lastMintTime > 0 */\n      gt\n        /* \"contracts/Lottery.sol\":26617:26735  if (lastMintTime > 0) {... */\n      iszero\n      tag_175\n      jumpi\n        /* \"contracts/Lottery.sol\":26675:26690  block.timestamp */\n      timestamp\n        /* \"contracts/Lottery.sol\":26655:26672  getNextMintTime() */\n      tag_176\n        /* \"contracts/Lottery.sol\":26655:26670  getNextMintTime */\n      tag_111\n        /* \"contracts/Lottery.sol\":26655:26672  getNextMintTime() */\n      jump\t// in\n    tag_176:\n        /* \"contracts/Lottery.sol\":26655:26690  getNextMintTime() < block.timestamp */\n      lt\n        /* \"contracts/Lottery.sol\":26647:26728  require(getNextMintTime() < block.timestamp, \"HWTToken: minting not allowed yet\") */\n      tag_177\n      jumpi\n      mload(0x40)\n      0x08c379a000000000000000000000000000000000000000000000000000000000\n      dup2\n      mstore\n      0x04\n      add\n      tag_178\n      swap1\n      tag_179\n      jump\t// in\n    tag_178:\n      mload(0x40)\n      dup1\n      swap2\n      sub\n      swap1\n      revert\n    tag_177:\n        /* \"contracts/Lottery.sol\":26617:26735  if (lastMintTime > 0) {... */\n    tag_175:\n        /* \"contracts/Lottery.sol\":26745:26763  uint256 mintAmount */\n      0x00\n        /* \"contracts/Lottery.sol\":26766:26780  maxMintAmounts */\n      0x08\n        /* \"contracts/Lottery.sol\":26781:26790  mintTimes */\n      sload(0x0d)\n        /* \"contracts/Lottery.sol\":26766:26791  maxMintAmounts[mintTimes] */\n      0x05\n      dup2\n      lt\n      tag_180\n      jumpi\n      tag_181\n      tag_182\n      jump\t// in\n    tag_181:\n    tag_180:\n      add\n      sload\n        /* \"contracts/Lottery.sol\":26745:26791  uint256 mintAmount = maxMintAmounts[mintTimes] */\n      swap1\n      pop\n        /* \"contracts/Lottery.sol\":26797:26819  _mint(_to, mintAmount) */\n      tag_184\n        /* \"contracts/Lottery.sol\":26803:26806  _to */\n      dup3\n        /* \"contracts/Lottery.sol\":26808:26818  mintAmount */\n      dup3\n        /* \"contracts/Lottery.sol\":26797:26802  _mint */\n      tag_185\n        /* \"contracts/Lottery.sol\":26797:26819  _mint(_to, mintAmount) */\n      jump\t// in\n    tag_184:\n        /* \"contracts/Lottery.sol\":26838:26839  1 */\n      0x01\n        /* \"contracts/Lottery.sol\":26825:26834  mintTimes */\n      0x0d\n      0x00\n        /* \"contracts/Lottery.sol\":26825:26839  mintTimes += 1 */\n      dup3\n      dup3\n      sload\n      tag_186\n      swap2\n      swap1\n      tag_164\n      jump\t// in\n    tag_186:\n      swap3\n      pop\n      pop\n      dup2\n      swap1\n      sstore\n      pop\n        /* \"contracts/Lottery.sol\":26860:26875  block.timestamp */\n      timestamp\n        /* \"contracts/Lottery.sol\":26845:26857  lastMintTime */\n      0x07\n        /* \"contracts/Lottery.sol\":26845:26875  lastMintTime = block.timestamp */\n      dup2\n      swap1\n      sstore\n      pop\n        /* \"contracts/Lottery.sol\":26481:26880  {... */\n      pop\n        /* \"contracts/Lottery.sol\":26445:26880  function mint(address _to) external {... */\n      pop\n      jump\t// out\n        /* \"contracts/Lottery.sol\":7523:7648  function balanceOf(address account) public view virtual override returns (uint256) {... */\n    tag_76:\n        /* \"contracts/Lottery.sol\":7597:7604  uint256 */\n      0x00\n        /* \"contracts/Lottery.sol\":7623:7632  _balances */\n      dup1\n        /* \"contracts/Lottery.sol\":7623:7641  _balances[account] */\n      0x00\n        /* \"contracts/Lottery.sol\":7633:7640  account */\n      dup4\n        /* \"contracts/Lottery.sol\":7623:7641  _balances[account] */\n      0xffffffffffffffffffffffffffffffffffffffff\n      and\n      0xffffffffffffffffffffffffffffffffffffffff\n      and\n      dup2\n      mstore\n      0x20\n      add\n      swap1\n      dup2\n      mstore\n      0x20\n      add\n      0x00\n      keccak256\n      sload\n        /* \"contracts/Lottery.sol\":7616:7641  return _balances[account] */\n      swap1\n      pop\n        /* \"contracts/Lottery.sol\":7523:7648  function balanceOf(address account) public view virtual override returns (uint256) {... */\n      swap2\n      swap1\n      pop\n      jump\t// out\n        /* \"contracts/Lottery.sol\":17515:17607  function renounceOwnership() public virtual onlyOwner {... */\n    tag_79:\n        /* \"contracts/Lottery.sol\":17106:17118  _msgSender() */\n      tag_189\n        /* \"contracts/Lottery.sol\":17106:17116  _msgSender */\n      tag_134\n        /* \"contracts/Lottery.sol\":17106:17118  _msgSender() */\n      jump\t// in\n    tag_189:\n        /* \"contracts/Lottery.sol\":17095:17118  owner() == _msgSender() */\n      0xffffffffffffffffffffffffffffffffffffffff\n      and\n        /* \"contracts/Lottery.sol\":17095:17102  owner() */\n      tag_190\n        /* \"contracts/Lottery.sol\":17095:17100  owner */\n      tag_90\n        /* \"contracts/Lottery.sol\":17095:17102  owner() */\n      jump\t// in\n    tag_190:\n        /* \"contracts/Lottery.sol\":17095:17118  owner() == _msgSender() */\n      0xffffffffffffffffffffffffffffffffffffffff\n      and\n      eq\n        /* \"contracts/Lottery.sol\":17087:17155  require(owner() == _msgSender(), \"Ownable: caller is not the owner\") */\n      tag_191\n      jumpi\n      mload(0x40)\n      0x08c379a000000000000000000000000000000000000000000000000000000000\n      dup2\n      mstore\n      0x04\n      add\n      tag_192\n      swap1\n      tag_151\n      jump\t// in\n    tag_192:\n      mload(0x40)\n      dup1\n      swap2\n      sub\n      swap1\n      revert\n    tag_191:\n        /* \"contracts/Lottery.sol\":17579:17600  _setOwner(address(0)) */\n      tag_194\n        /* \"contracts/Lottery.sol\":17597:17598  0 */\n      0x00\n        /* \"contracts/Lottery.sol\":17579:17588  _setOwner */\n      tag_195\n        /* \"contracts/Lottery.sol\":17579:17600  _setOwner(address(0)) */\n      jump\t// in\n    tag_194:\n        /* \"contracts/Lottery.sol\":17515:17607  function renounceOwnership() public virtual onlyOwner {... */\n      jump\t// out\n        /* \"contracts/Lottery.sol\":25403:25431  uint256 public mintTimes = 0 */\n    tag_81:\n      sload(0x0d)\n      dup2\n      jump\t// out\n        /* \"contracts/Lottery.sol\":26965:27199  function burnFrom(address _from, uint256 _amount) external {... */\n    tag_85:\n        /* \"contracts/Lottery.sol\":27055:27056  0 */\n      0x00\n        /* \"contracts/Lottery.sol\":27038:27057  _from != address(0) */\n      0xffffffffffffffffffffffffffffffffffffffff\n      and\n        /* \"contracts/Lottery.sol\":27038:27043  _from */\n      dup3\n        /* \"contracts/Lottery.sol\":27038:27057  _from != address(0) */\n      0xffffffffffffffffffffffffffffffffffffffff\n      and\n      eq\n      iszero\n        /* \"contracts/Lottery.sol\":27030:27086  require(_from != address(0), \"HWTToken: burn from zero\") */\n      tag_197\n      jumpi\n      mload(0x40)\n      0x08c379a000000000000000000000000000000000000000000000000000000000\n      dup2\n      mstore\n      0x04\n      add\n      tag_198\n      swap1\n      tag_199\n      jump\t// in\n    tag_198:\n      mload(0x40)\n      dup1\n      swap2\n      sub\n      swap1\n      revert\n    tag_197:\n        /* \"contracts/Lottery.sol\":27097:27167  _approve(_from, msg.sender, allowance(_from, msg.sender).sub(_amount)) */\n      tag_200\n        /* \"contracts/Lottery.sol\":27106:27111  _from */\n      dup3\n        /* \"contracts/Lottery.sol\":27113:27123  msg.sender */\n      caller\n        /* \"contracts/Lottery.sol\":27125:27166  allowance(_from, msg.sender).sub(_amount) */\n      tag_201\n        /* \"contracts/Lottery.sol\":27158:27165  _amount */\n      dup5\n        /* \"contracts/Lottery.sol\":27125:27153  allowance(_from, msg.sender) */\n      tag_202\n        /* \"contracts/Lottery.sol\":27135:27140  _from */\n      dup8\n        /* \"contracts/Lottery.sol\":27142:27152  msg.sender */\n      caller\n        /* \"contracts/Lottery.sol\":27125:27134  allowance */\n      tag_119\n        /* \"contracts/Lottery.sol\":27125:27153  allowance(_from, msg.sender) */\n      jump\t// in\n    tag_202:\n        /* \"contracts/Lottery.sol\":27125:27157  allowance(_from, msg.sender).sub */\n      tag_203\n      swap1\n        /* \"contracts/Lottery.sol\":27125:27166  allowance(_from, msg.sender).sub(_amount) */\n      swap2\n      swap1\n      0xffffffff\n      and\n      jump\t// in\n    tag_201:\n        /* \"contracts/Lottery.sol\":27097:27105  _approve */\n      tag_135\n        /* \"contracts/Lottery.sol\":27097:27167  _approve(_from, msg.sender, allowance(_from, msg.sender).sub(_amount)) */\n      jump\t// in\n    tag_200:\n        /* \"contracts/Lottery.sol\":27173:27194  _burn(_from, _amount) */\n      tag_204\n        /* \"contracts/Lottery.sol\":27179:27184  _from */\n      dup3\n        /* \"contracts/Lottery.sol\":27186:27193  _amount */\n      dup3\n        /* \"contracts/Lottery.sol\":27173:27178  _burn */\n      tag_167\n        /* \"contracts/Lottery.sol\":27173:27194  _burn(_from, _amount) */\n      jump\t// in\n    tag_204:\n        /* \"contracts/Lottery.sol\":26965:27199  function burnFrom(address _from, uint256 _amount) external {... */\n      pop\n      pop\n      jump\t// out\n        /* \"contracts/Lottery.sol\":25136:25184  uint256 public constant MINT_INTERVAL = 365 days */\n    tag_87:\n        /* \"contracts/Lottery.sol\":25176:25184  365 days */\n      0x01e13380\n        /* \"contracts/Lottery.sol\":25136:25184  uint256 public constant MINT_INTERVAL = 365 days */\n      dup2\n      jump\t// out\n        /* \"contracts/Lottery.sol\":16883:16968  function owner() public view virtual returns (address) {... */\n    tag_90:\n        /* \"contracts/Lottery.sol\":16929:16936  address */\n      0x00\n        /* \"contracts/Lottery.sol\":16955:16961  _owner */\n      0x05\n      0x00\n      swap1\n      sload\n      swap1\n      0x0100\n      exp\n      swap1\n      div\n      0xffffffffffffffffffffffffffffffffffffffff\n      and\n        /* \"contracts/Lottery.sol\":16948:16961  return _owner */\n      swap1\n      pop\n        /* \"contracts/Lottery.sol\":16883:16968  function owner() public view virtual returns (address) {... */\n      swap1\n      jump\t// out\n        /* \"contracts/Lottery.sol\":6482:6584  function symbol() public view virtual override returns (string memory) {... */\n    tag_94:\n        /* \"contracts/Lottery.sol\":6538:6551  string memory */\n      0x60\n        /* \"contracts/Lottery.sol\":6570:6577  _symbol */\n      0x04\n        /* \"contracts/Lottery.sol\":6563:6577  return _symbol */\n      dup1\n      sload\n      tag_207\n      swap1\n      tag_126\n      jump\t// in\n    tag_207:\n      dup1\n      0x1f\n      add\n      0x20\n      dup1\n      swap2\n      div\n      mul\n      0x20\n      add\n      mload(0x40)\n      swap1\n      dup2\n      add\n      0x40\n      mstore\n      dup1\n      swap3\n      swap2\n      swap1\n      dup2\n      dup2\n      mstore\n      0x20\n      add\n      dup3\n      dup1\n      sload\n      tag_208\n      swap1\n      tag_126\n      jump\t// in\n    tag_208:\n      dup1\n      iszero\n      tag_209\n      jumpi\n      dup1\n      0x1f\n      lt\n      tag_210\n      jumpi\n      0x0100\n      dup1\n      dup4\n      sload\n      div\n      mul\n      dup4\n      mstore\n      swap2\n      0x20\n      add\n      swap2\n      jump(tag_209)\n    tag_210:\n      dup3\n      add\n      swap2\n      swap1\n      0x00\n      mstore\n      keccak256(0x00, 0x20)\n      swap1\n    tag_211:\n      dup2\n      sload\n      dup2\n      mstore\n      swap1\n      0x01\n      add\n      swap1\n      0x20\n      add\n      dup1\n      dup4\n      gt\n      tag_211\n      jumpi\n      dup3\n      swap1\n      sub\n      0x1f\n      and\n      dup3\n      add\n      swap2\n    tag_209:\n      pop\n      pop\n      pop\n      pop\n      pop\n      swap1\n      pop\n        /* \"contracts/Lottery.sol\":6482:6584  function symbol() public view virtual override returns (string memory) {... */\n      swap1\n      jump\t// out\n        /* \"contracts/Lottery.sol\":25323:25350  uint256 public lastMintTime */\n    tag_97:\n      sload(0x07)\n      dup2\n      jump\t// out\n        /* \"contracts/Lottery.sol\":10573:10978  function decreaseAllowance(address spender, uint256 subtractedValue) public virtual returns (bool) {... */\n    tag_101:\n        /* \"contracts/Lottery.sol\":10666:10670  bool */\n      0x00\n        /* \"contracts/Lottery.sol\":10682:10706  uint256 currentAllowance */\n      dup1\n        /* \"contracts/Lottery.sol\":10709:10720  _allowances */\n      0x01\n        /* \"contracts/Lottery.sol\":10709:10734  _allowances[_msgSender()] */\n      0x00\n        /* \"contracts/Lottery.sol\":10721:10733  _msgSender() */\n      tag_213\n        /* \"contracts/Lottery.sol\":10721:10731  _msgSender */\n      tag_134\n        /* \"contracts/Lottery.sol\":10721:10733  _msgSender() */\n      jump\t// in\n    tag_213:\n        /* \"contracts/Lottery.sol\":10709:10734  _allowances[_msgSender()] */\n      0xffffffffffffffffffffffffffffffffffffffff\n      and\n      0xffffffffffffffffffffffffffffffffffffffff\n      and\n      dup2\n      mstore\n      0x20\n      add\n      swap1\n      dup2\n      mstore\n      0x20\n      add\n      0x00\n      keccak256\n        /* \"contracts/Lottery.sol\":10709:10743  _allowances[_msgSender()][spender] */\n      0x00\n        /* \"contracts/Lottery.sol\":10735:10742  spender */\n      dup6\n        /* \"contracts/Lottery.sol\":10709:10743  _allowances[_msgSender()][spender] */\n      0xffffffffffffffffffffffffffffffffffffffff\n      and\n      0xffffffffffffffffffffffffffffffffffffffff\n      and\n      dup2\n      mstore\n      0x20\n      add\n      swap1\n      dup2\n      mstore\n      0x20\n      add\n      0x00\n      keccak256\n      sload\n        /* \"contracts/Lottery.sol\":10682:10743  uint256 currentAllowance = _allowances[_msgSender()][spender] */\n      swap1\n      pop\n        /* \"contracts/Lottery.sol\":10781:10796  subtractedValue */\n      dup3\n        /* \"contracts/Lottery.sol\":10761:10777  currentAllowance */\n      dup2\n        /* \"contracts/Lottery.sol\":10761:10796  currentAllowance >= subtractedValue */\n      lt\n      iszero\n        /* \"contracts/Lottery.sol\":10753:10838  require(currentAllowance >= subtractedValue, \"ERC20: decreased allowance below zero\") */\n      tag_214\n      jumpi\n      mload(0x40)\n      0x08c379a000000000000000000000000000000000000000000000000000000000\n      dup2\n      mstore\n      0x04\n      add\n      tag_215\n      swap1\n      tag_216\n      jump\t// in\n    tag_215:\n      mload(0x40)\n      dup1\n      swap2\n      sub\n      swap1\n      revert\n    tag_214:\n        /* \"contracts/Lottery.sol\":10872:10939  _approve(_msgSender(), spender, currentAllowance - subtractedValue) */\n      tag_217\n        /* \"contracts/Lottery.sol\":10881:10893  _msgSender() */\n      tag_218\n        /* \"contracts/Lottery.sol\":10881:10891  _msgSender */\n      tag_134\n        /* \"contracts/Lottery.sol\":10881:10893  _msgSender() */\n      jump\t// in\n    tag_218:\n        /* \"contracts/Lottery.sol\":10895:10902  spender */\n      dup6\n        /* \"contracts/Lottery.sol\":10923:10938  subtractedValue */\n      dup6\n        /* \"contracts/Lottery.sol\":10904:10920  currentAllowance */\n      dup5\n        /* \"contracts/Lottery.sol\":10904:10938  currentAllowance - subtractedValue */\n      sub\n        /* \"contracts/Lottery.sol\":10872:10880  _approve */\n      tag_135\n        /* \"contracts/Lottery.sol\":10872:10939  _approve(_msgSender(), spender, currentAllowance - subtractedValue) */\n      jump\t// in\n    tag_217:\n        /* \"contracts/Lottery.sol\":10967:10971  true */\n      0x01\n        /* \"contracts/Lottery.sol\":10960:10971  return true */\n      swap2\n      pop\n      pop\n        /* \"contracts/Lottery.sol\":10573:10978  function decreaseAllowance(address spender, uint256 subtractedValue) public virtual returns (bool) {... */\n      swap3\n      swap2\n      pop\n      pop\n      jump\t// out\n        /* \"contracts/Lottery.sol\":25249:25272  address public mainPool */\n    tag_104:\n      0x06\n      0x00\n      swap1\n      sload\n      swap1\n      0x0100\n      exp\n      swap1\n      div\n      0xffffffffffffffffffffffffffffffffffffffff\n      and\n      dup2\n      jump\t// out\n        /* \"contracts/Lottery.sol\":7851:8023  function transfer(address recipient, uint256 amount) public virtual override returns (bool) {... */\n    tag_108:\n        /* \"contracts/Lottery.sol\":7937:7941  bool */\n      0x00\n        /* \"contracts/Lottery.sol\":7953:7995  _transfer(_msgSender(), recipient, amount) */\n      tag_220\n        /* \"contracts/Lottery.sol\":7963:7975  _msgSender() */\n      tag_221\n        /* \"contracts/Lottery.sol\":7963:7973  _msgSender */\n      tag_134\n        /* \"contracts/Lottery.sol\":7963:7975  _msgSender() */\n      jump\t// in\n    tag_221:\n        /* \"contracts/Lottery.sol\":7977:7986  recipient */\n      dup5\n        /* \"contracts/Lottery.sol\":7988:7994  amount */\n      dup5\n        /* \"contracts/Lottery.sol\":7953:7962  _transfer */\n      tag_139\n        /* \"contracts/Lottery.sol\":7953:7995  _transfer(_msgSender(), recipient, amount) */\n      jump\t// in\n    tag_220:\n        /* \"contracts/Lottery.sol\":8012:8016  true */\n      0x01\n        /* \"contracts/Lottery.sol\":8005:8016  return true */\n      swap1\n      pop\n        /* \"contracts/Lottery.sol\":7851:8023  function transfer(address recipient, uint256 amount) public virtual override returns (bool) {... */\n      swap3\n      swap2\n      pop\n      pop\n      jump\t// out\n        /* \"contracts/Lottery.sol\":26053:26157  function getNextMintTime() public view returns(uint256) {... */\n    tag_111:\n        /* \"contracts/Lottery.sol\":26100:26107  uint256 */\n      0x00\n        /* \"contracts/Lottery.sol\":25176:25184  365 days */\n      0x01e13380\n        /* \"contracts/Lottery.sol\":26124:26136  lastMintTime */\n      sload(0x07)\n        /* \"contracts/Lottery.sol\":26124:26152  lastMintTime + MINT_INTERVAL */\n      tag_223\n      swap2\n      swap1\n      tag_164\n      jump\t// in\n    tag_223:\n        /* \"contracts/Lottery.sol\":26117:26152  return lastMintTime + MINT_INTERVAL */\n      swap1\n      pop\n        /* \"contracts/Lottery.sol\":26053:26157  function getNextMintTime() public view returns(uint256) {... */\n      swap1\n      jump\t// out\n        /* \"contracts/Lottery.sol\":25277:25319  uint256 public constant MAX_MINT_TIMES = 5 */\n    tag_114:\n        /* \"contracts/Lottery.sol\":25318:25319  5 */\n      0x05\n        /* \"contracts/Lottery.sol\":25277:25319  uint256 public constant MAX_MINT_TIMES = 5 */\n      dup2\n      jump\t// out\n        /* \"contracts/Lottery.sol\":8081:8230  function allowance(address owner, address spender) public view virtual override returns (uint256) {... */\n    tag_119:\n        /* \"contracts/Lottery.sol\":8170:8177  uint256 */\n      0x00\n        /* \"contracts/Lottery.sol\":8196:8207  _allowances */\n      0x01\n        /* \"contracts/Lottery.sol\":8196:8214  _allowances[owner] */\n      0x00\n        /* \"contracts/Lottery.sol\":8208:8213  owner */\n      dup5\n        /* \"contracts/Lottery.sol\":8196:8214  _allowances[owner] */\n      0xffffffffffffffffffffffffffffffffffffffff\n      and\n      0xffffffffffffffffffffffffffffffffffffffff\n      and\n      dup2\n      mstore\n      0x20\n      add\n      swap1\n      dup2\n      mstore\n      0x20\n      add\n      0x00\n      keccak256\n        /* \"contracts/Lottery.sol\":8196:8223  _allowances[owner][spender] */\n      0x00\n        /* \"contracts/Lottery.sol\":8215:8222  spender */\n      dup4\n        /* \"contracts/Lottery.sol\":8196:8223  _allowances[owner][spender] */\n      0xffffffffffffffffffffffffffffffffffffffff\n      and\n      0xffffffffffffffffffffffffffffffffffffffff\n      and\n      dup2\n      mstore\n      0x20\n      add\n      swap1\n      dup2\n      mstore\n      0x20\n      add\n      0x00\n      keccak256\n      sload\n        /* \"contracts/Lottery.sol\":8189:8223  return _allowances[owner][spender] */\n      swap1\n      pop\n        /* \"contracts/Lottery.sol\":8081:8230  function allowance(address owner, address spender) public view virtual override returns (uint256) {... */\n      swap3\n      swap2\n      pop\n      pop\n      jump\t// out\n        /* \"contracts/Lottery.sol\":17756:17945  function transferOwnership(address newOwner) public virtual onlyOwner {... */\n    tag_123:\n        /* \"contracts/Lottery.sol\":17106:17118  _msgSender() */\n      tag_226\n        /* \"contracts/Lottery.sol\":17106:17116  _msgSender */\n      tag_134\n        /* \"contracts/Lottery.sol\":17106:17118  _msgSender() */\n      jump\t// in\n    tag_226:\n        /* \"contracts/Lottery.sol\":17095:17118  owner() == _msgSender() */\n      0xffffffffffffffffffffffffffffffffffffffff\n      and\n        /* \"contracts/Lottery.sol\":17095:17102  owner() */\n      tag_227\n        /* \"contracts/Lottery.sol\":17095:17100  owner */\n      tag_90\n        /* \"contracts/Lottery.sol\":17095:17102  owner() */\n      jump\t// in\n    tag_227:\n        /* \"contracts/Lottery.sol\":17095:17118  owner() == _msgSender() */\n      0xffffffffffffffffffffffffffffffffffffffff\n      and\n      eq\n        /* \"contracts/Lottery.sol\":17087:17155  require(owner() == _msgSender(), \"Ownable: caller is not the owner\") */\n      tag_228\n      jumpi\n      mload(0x40)\n      0x08c379a000000000000000000000000000000000000000000000000000000000\n      dup2\n      mstore\n      0x04\n      add\n      tag_229\n      swap1\n      tag_151\n      jump\t// in\n    tag_229:\n      mload(0x40)\n      dup1\n      swap2\n      sub\n      swap1\n      revert\n    tag_228:\n        /* \"contracts/Lottery.sol\":17864:17865  0 */\n      0x00\n        /* \"contracts/Lottery.sol\":17844:17866  newOwner != address(0) */\n      0xffffffffffffffffffffffffffffffffffffffff\n      and\n        /* \"contracts/Lottery.sol\":17844:17852  newOwner */\n      dup2\n        /* \"contracts/Lottery.sol\":17844:17866  newOwner != address(0) */\n      0xffffffffffffffffffffffffffffffffffffffff\n      and\n      eq\n      iszero\n        /* \"contracts/Lottery.sol\":17836:17909  require(newOwner != address(0), \"Ownable: new owner is the zero address\") */\n      tag_231\n      jumpi\n      mload(0x40)\n      0x08c379a000000000000000000000000000000000000000000000000000000000\n      dup2\n      mstore\n      0x04\n      add\n      tag_232\n      swap1\n      tag_233\n      jump\t// in\n    tag_232:\n      mload(0x40)\n      dup1\n      swap2\n      sub\n      swap1\n      revert\n    tag_231:\n        /* \"contracts/Lottery.sol\":17919:17938  _setOwner(newOwner) */\n      tag_234\n        /* \"contracts/Lottery.sol\":17929:17937  newOwner */\n      dup2\n        /* \"contracts/Lottery.sol\":17919:17928  _setOwner */\n      tag_195\n        /* \"contracts/Lottery.sol\":17919:17938  _setOwner(newOwner) */\n      jump\t// in\n    tag_234:\n        /* \"contracts/Lottery.sol\":17756:17945  function transferOwnership(address newOwner) public virtual onlyOwner {... */\n      pop\n      jump\t// out\n        /* \"contracts/Lottery.sol\":4076:4172  function _msgSender() internal view virtual returns (address) {... */\n    tag_134:\n        /* \"contracts/Lottery.sol\":4129:4136  address */\n      0x00\n        /* \"contracts/Lottery.sol\":4155:4165  msg.sender */\n      caller\n        /* \"contracts/Lottery.sol\":4148:4165  return msg.sender */\n      swap1\n      pop\n        /* \"contracts/Lottery.sol\":4076:4172  function _msgSender() internal view virtual returns (address) {... */\n      swap1\n      jump\t// out\n        /* \"contracts/Lottery.sol\":14149:14519  function _approve(... */\n    tag_135:\n        /* \"contracts/Lottery.sol\":14297:14298  0 */\n      0x00\n        /* \"contracts/Lottery.sol\":14280:14299  owner != address(0) */\n      0xffffffffffffffffffffffffffffffffffffffff\n      and\n        /* \"contracts/Lottery.sol\":14280:14285  owner */\n      dup4\n        /* \"contracts/Lottery.sol\":14280:14299  owner != address(0) */\n      0xffffffffffffffffffffffffffffffffffffffff\n      and\n      eq\n      iszero\n        /* \"contracts/Lottery.sol\":14272:14340  require(owner != address(0), \"ERC20: approve from the zero address\") */\n      tag_237\n      jumpi\n      mload(0x40)\n      0x08c379a000000000000000000000000000000000000000000000000000000000\n      dup2\n      mstore\n      0x04\n      add\n      tag_238\n      swap1\n      tag_239\n      jump\t// in\n    tag_238:\n      mload(0x40)\n      dup1\n      swap2\n      sub\n      swap1\n      revert\n    tag_237:\n        /* \"contracts/Lottery.sol\":14377:14378  0 */\n      0x00\n        /* \"contracts/Lottery.sol\":14358:14379  spender != address(0) */\n      0xffffffffffffffffffffffffffffffffffffffff\n      and\n        /* \"contracts/Lottery.sol\":14358:14365  spender */\n      dup3\n        /* \"contracts/Lottery.sol\":14358:14379  spender != address(0) */\n      0xffffffffffffffffffffffffffffffffffffffff\n      and\n      eq\n      iszero\n        /* \"contracts/Lottery.sol\":14350:14418  require(spender != address(0), \"ERC20: approve to the zero address\") */\n      tag_240\n      jumpi\n      mload(0x40)\n      0x08c379a000000000000000000000000000000000000000000000000000000000\n      dup2\n      mstore\n      0x04\n      add\n      tag_241\n      swap1\n      tag_242\n      jump\t// in\n    tag_241:\n      mload(0x40)\n      dup1\n      swap2\n      sub\n      swap1\n      revert\n    tag_240:\n        /* \"contracts/Lottery.sol\":14459:14465  amount */\n      dup1\n        /* \"contracts/Lottery.sol\":14429:14440  _allowances */\n      0x01\n        /* \"contracts/Lottery.sol\":14429:14447  _allowances[owner] */\n      0x00\n        /* \"contracts/Lottery.sol\":14441:14446  owner */\n      dup6\n        /* \"contracts/Lottery.sol\":14429:14447  _allowances[owner] */\n      0xffffffffffffffffffffffffffffffffffffffff\n      and\n      0xffffffffffffffffffffffffffffffffffffffff\n      and\n      dup2\n      mstore\n      0x20\n      add\n      swap1\n      dup2\n      mstore\n      0x20\n      add\n      0x00\n      keccak256\n        /* \"contracts/Lottery.sol\":14429:14456  _allowances[owner][spender] */\n      0x00\n        /* \"contracts/Lottery.sol\":14448:14455  spender */\n      dup5\n        /* \"contracts/Lottery.sol\":14429:14456  _allowances[owner][spender] */\n      0xffffffffffffffffffffffffffffffffffffffff\n      and\n      0xffffffffffffffffffffffffffffffffffffffff\n      and\n      dup2\n      mstore\n      0x20\n      add\n      swap1\n      dup2\n      mstore\n      0x20\n      add\n      0x00\n      keccak256\n        /* \"contracts/Lottery.sol\":14429:14465  _allowances[owner][spender] = amount */\n      dup2\n      swap1\n      sstore\n      pop\n        /* \"contracts/Lottery.sol\":14496:14503  spender */\n      dup2\n        /* \"contracts/Lottery.sol\":14480:14512  Approval(owner, spender, amount) */\n      0xffffffffffffffffffffffffffffffffffffffff\n      and\n        /* \"contracts/Lottery.sol\":14489:14494  owner */\n      dup4\n        /* \"contracts/Lottery.sol\":14480:14512  Approval(owner, spender, amount) */\n      0xffffffffffffffffffffffffffffffffffffffff\n      and\n      0x8c5be1e5ebec7d5bd14f71427d1e84f3dd0314c0f7b2291e5b200ac8c7c3b925\n        /* \"contracts/Lottery.sol\":14505:14511  amount */\n      dup4\n        /* \"contracts/Lottery.sol\":14480:14512  Approval(owner, spender, amount) */\n      mload(0x40)\n      tag_243\n      swap2\n      swap1\n      tag_45\n      jump\t// in\n    tag_243:\n      mload(0x40)\n      dup1\n      swap2\n      sub\n      swap1\n      log3\n        /* \"contracts/Lottery.sol\":14149:14519  function _approve(... */\n      pop\n      pop\n      pop\n      jump\t// out\n        /* \"contracts/Lottery.sol\":11452:12165  function _transfer(... */\n    tag_139:\n        /* \"contracts/Lottery.sol\":11605:11606  0 */\n      0x00\n        /* \"contracts/Lottery.sol\":11587:11607  sender != address(0) */\n      0xffffffffffffffffffffffffffffffffffffffff\n      and\n        /* \"contracts/Lottery.sol\":11587:11593  sender */\n      dup4\n        /* \"contracts/Lottery.sol\":11587:11607  sender != address(0) */\n      0xffffffffffffffffffffffffffffffffffffffff\n      and\n      eq\n      iszero\n        /* \"contracts/Lottery.sol\":11579:11649  require(sender != address(0), \"ERC20: transfer from the zero address\") */\n      tag_245\n      jumpi\n      mload(0x40)\n      0x08c379a000000000000000000000000000000000000000000000000000000000\n      dup2\n      mstore\n      0x04\n      add\n      tag_246\n      swap1\n      tag_247\n      jump\t// in\n    tag_246:\n      mload(0x40)\n      dup1\n      swap2\n      sub\n      swap1\n      revert\n    tag_245:\n        /* \"contracts/Lottery.sol\":11688:11689  0 */\n      0x00\n        /* \"contracts/Lottery.sol\":11667:11690  recipient != address(0) */\n      0xffffffffffffffffffffffffffffffffffffffff\n      and\n        /* \"contracts/Lottery.sol\":11667:11676  recipient */\n      dup3\n        /* \"contracts/Lottery.sol\":11667:11690  recipient != address(0) */\n      0xffffffffffffffffffffffffffffffffffffffff\n      and\n      eq\n      iszero\n        /* \"contracts/Lottery.sol\":11659:11730  require(recipient != address(0), \"ERC20: transfer to the zero address\") */\n      tag_248\n      jumpi\n      mload(0x40)\n      0x08c379a000000000000000000000000000000000000000000000000000000000\n      dup2\n      mstore\n      0x04\n      add\n      tag_249\n      swap1\n      tag_250\n      jump\t// in\n    tag_249:\n      mload(0x40)\n      dup1\n      swap2\n      sub\n      swap1\n      revert\n    tag_248:\n        /* \"contracts/Lottery.sol\":11741:11788  _beforeTokenTransfer(sender, recipient, amount) */\n      tag_251\n        /* \"contracts/Lottery.sol\":11762:11768  sender */\n      dup4\n        /* \"contracts/Lottery.sol\":11770:11779  recipient */\n      dup4\n        /* \"contracts/Lottery.sol\":11781:11787  amount */\n      dup4\n        /* \"contracts/Lottery.sol\":11741:11761  _beforeTokenTransfer */\n      tag_252\n        /* \"contracts/Lottery.sol\":11741:11788  _beforeTokenTransfer(sender, recipient, amount) */\n      jump\t// in\n    tag_251:\n        /* \"contracts/Lottery.sol\":11799:11820  uint256 senderBalance */\n      0x00\n        /* \"contracts/Lottery.sol\":11823:11832  _balances */\n      dup1\n        /* \"contracts/Lottery.sol\":11823:11840  _balances[sender] */\n      0x00\n        /* \"contracts/Lottery.sol\":11833:11839  sender */\n      dup6\n        /* \"contracts/Lottery.sol\":11823:11840  _balances[sender] */\n      0xffffffffffffffffffffffffffffffffffffffff\n      and\n      0xffffffffffffffffffffffffffffffffffffffff\n      and\n      dup2\n      mstore\n      0x20\n      add\n      swap1\n      dup2\n      mstore\n      0x20\n      add\n      0x00\n      keccak256\n      sload\n        /* \"contracts/Lottery.sol\":11799:11840  uint256 senderBalance = _balances[sender] */\n      swap1\n      pop\n        /* \"contracts/Lottery.sol\":11875:11881  amount */\n      dup2\n        /* \"contracts/Lottery.sol\":11858:11871  senderBalance */\n      dup2\n        /* \"contracts/Lottery.sol\":11858:11881  senderBalance >= amount */\n      lt\n      iszero\n        /* \"contracts/Lottery.sol\":11850:11924  require(senderBalance >= amount, \"ERC20: transfer amount exceeds balance\") */\n      tag_253\n      jumpi\n      mload(0x40)\n      0x08c379a000000000000000000000000000000000000000000000000000000000\n      dup2\n      mstore\n      0x04\n      add\n      tag_254\n      swap1\n      tag_255\n      jump\t// in\n    tag_254:\n      mload(0x40)\n      dup1\n      swap2\n      sub\n      swap1\n      revert\n    tag_253:\n        /* \"contracts/Lottery.sol\":11994:12000  amount */\n      dup2\n        /* \"contracts/Lottery.sol\":11978:11991  senderBalance */\n      dup2\n        /* \"contracts/Lottery.sol\":11978:12000  senderBalance - amount */\n      sub\n        /* \"contracts/Lottery.sol\":11958:11967  _balances */\n      0x00\n        /* \"contracts/Lottery.sol\":11958:11975  _balances[sender] */\n      dup1\n        /* \"contracts/Lottery.sol\":11968:11974  sender */\n      dup7\n        /* \"contracts/Lottery.sol\":11958:11975  _balances[sender] */\n      0xffffffffffffffffffffffffffffffffffffffff\n      and\n      0xffffffffffffffffffffffffffffffffffffffff\n      and\n      dup2\n      mstore\n      0x20\n      add\n      swap1\n      dup2\n      mstore\n      0x20\n      add\n      0x00\n      keccak256\n        /* \"contracts/Lottery.sol\":11958:12000  _balances[sender] = senderBalance - amount */\n      dup2\n      swap1\n      sstore\n      pop\n        /* \"contracts/Lottery.sol\":12044:12050  amount */\n      dup2\n        /* \"contracts/Lottery.sol\":12020:12029  _balances */\n      0x00\n        /* \"contracts/Lottery.sol\":12020:12040  _balances[recipient] */\n      dup1\n        /* \"contracts/Lottery.sol\":12030:12039  recipient */\n      dup6\n        /* \"contracts/Lottery.sol\":12020:12040  _balances[recipient] */\n      0xffffffffffffffffffffffffffffffffffffffff\n      and\n      0xffffffffffffffffffffffffffffffffffffffff\n      and\n      dup2\n      mstore\n      0x20\n      add\n      swap1\n      dup2\n      mstore\n      0x20\n      add\n      0x00\n      keccak256\n      0x00\n        /* \"contracts/Lottery.sol\":12020:12050  _balances[recipient] += amount */\n      dup3\n      dup3\n      sload\n      tag_256\n      swap2\n      swap1\n      tag_164\n      jump\t// in\n    tag_256:\n      swap3\n      pop\n      pop\n      dup2\n      swap1\n      sstore\n      pop\n        /* \"contracts/Lottery.sol\":12083:12092  recipient */\n      dup3\n        /* \"contracts/Lottery.sol\":12066:12101  Transfer(sender, recipient, amount) */\n      0xffffffffffffffffffffffffffffffffffffffff\n      and\n        /* \"contracts/Lottery.sol\":12075:12081  sender */\n      dup5\n        /* \"contracts/Lottery.sol\":12066:12101  Transfer(sender, recipient, amount) */\n      0xffffffffffffffffffffffffffffffffffffffff\n      and\n      0xddf252ad1be2c89b69c2b068fc378daa952ba7f163c4a11628f55a4df523b3ef\n        /* \"contracts/Lottery.sol\":12094:12100  amount */\n      dup5\n        /* \"contracts/Lottery.sol\":12066:12101  Transfer(sender, recipient, amount) */\n      mload(0x40)\n      tag_257\n      swap2\n      swap1\n      tag_45\n      jump\t// in\n    tag_257:\n      mload(0x40)\n      dup1\n      swap2\n      sub\n      swap1\n      log3\n        /* \"contracts/Lottery.sol\":12112:12158  _afterTokenTransfer(sender, recipient, amount) */\n      tag_258\n        /* \"contracts/Lottery.sol\":12132:12138  sender */\n      dup5\n        /* \"contracts/Lottery.sol\":12140:12149  recipient */\n      dup5\n        /* \"contracts/Lottery.sol\":12151:12157  amount */\n      dup5\n        /* \"contracts/Lottery.sol\":12112:12131  _afterTokenTransfer */\n      tag_259\n        /* \"contracts/Lottery.sol\":12112:12158  _afterTokenTransfer(sender, recipient, amount) */\n      jump\t// in\n    tag_258:\n        /* \"contracts/Lottery.sol\":11569:12165  {... */\n      pop\n        /* \"contracts/Lottery.sol\":11452:12165  function _transfer(... */\n      pop\n      pop\n      pop\n      jump\t// out\n        /* \"contracts/Lottery.sol\":13150:13726  function _burn(address account, uint256 amount) internal virtual {... */\n    tag_167:\n        /* \"contracts/Lottery.sol\":13252:13253  0 */\n      0x00\n        /* \"contracts/Lottery.sol\":13233:13254  account != address(0) */\n      0xffffffffffffffffffffffffffffffffffffffff\n      and\n        /* \"contracts/Lottery.sol\":13233:13240  account */\n      dup3\n        /* \"contracts/Lottery.sol\":13233:13254  account != address(0) */\n      0xffffffffffffffffffffffffffffffffffffffff\n      and\n      eq\n      iszero\n        /* \"contracts/Lottery.sol\":13225:13292  require(account != address(0), \"ERC20: burn from the zero address\") */\n      tag_261\n      jumpi\n      mload(0x40)\n      0x08c379a000000000000000000000000000000000000000000000000000000000\n      dup2\n      mstore\n      0x04\n      add\n      tag_262\n      swap1\n      tag_263\n      jump\t// in\n    tag_262:\n      mload(0x40)\n      dup1\n      swap2\n      sub\n      swap1\n      revert\n    tag_261:\n        /* \"contracts/Lottery.sol\":13303:13352  _beforeTokenTransfer(account, address(0), amount) */\n      tag_264\n        /* \"contracts/Lottery.sol\":13324:13331  account */\n      dup3\n        /* \"contracts/Lottery.sol\":13341:13342  0 */\n      0x00\n        /* \"contracts/Lottery.sol\":13345:13351  amount */\n      dup4\n        /* \"contracts/Lottery.sol\":13303:13323  _beforeTokenTransfer */\n      tag_252\n        /* \"contracts/Lottery.sol\":13303:13352  _beforeTokenTransfer(account, address(0), amount) */\n      jump\t// in\n    tag_264:\n        /* \"contracts/Lottery.sol\":13363:13385  uint256 accountBalance */\n      0x00\n        /* \"contracts/Lottery.sol\":13388:13397  _balances */\n      dup1\n        /* \"contracts/Lottery.sol\":13388:13406  _balances[account] */\n      0x00\n        /* \"contracts/Lottery.sol\":13398:13405  account */\n      dup5\n        /* \"contracts/Lottery.sol\":13388:13406  _balances[account] */\n      0xffffffffffffffffffffffffffffffffffffffff\n      and\n      0xffffffffffffffffffffffffffffffffffffffff\n      and\n      dup2\n      mstore\n      0x20\n      add\n      swap1\n      dup2\n      mstore\n      0x20\n      add\n      0x00\n      keccak256\n      sload\n        /* \"contracts/Lottery.sol\":13363:13406  uint256 accountBalance = _balances[account] */\n      swap1\n      pop\n        /* \"contracts/Lottery.sol\":13442:13448  amount */\n      dup2\n        /* \"contracts/Lottery.sol\":13424:13438  accountBalance */\n      dup2\n        /* \"contracts/Lottery.sol\":13424:13448  accountBalance >= amount */\n      lt\n      iszero\n        /* \"contracts/Lottery.sol\":13416:13487  require(accountBalance >= amount, \"ERC20: burn amount exceeds balance\") */\n      tag_265\n      jumpi\n      mload(0x40)\n      0x08c379a000000000000000000000000000000000000000000000000000000000\n      dup2\n      mstore\n      0x04\n      add\n      tag_266\n      swap1\n      tag_267\n      jump\t// in\n    tag_266:\n      mload(0x40)\n      dup1\n      swap2\n      sub\n      swap1\n      revert\n    tag_265:\n        /* \"contracts/Lottery.sol\":13559:13565  amount */\n      dup2\n        /* \"contracts/Lottery.sol\":13542:13556  accountBalance */\n      dup2\n        /* \"contracts/Lottery.sol\":13542:13565  accountBalance - amount */\n      sub\n        /* \"contracts/Lottery.sol\":13521:13530  _balances */\n      0x00\n        /* \"contracts/Lottery.sol\":13521:13539  _balances[account] */\n      dup1\n        /* \"contracts/Lottery.sol\":13531:13538  account */\n      dup6\n        /* \"contracts/Lottery.sol\":13521:13539  _balances[account] */\n      0xffffffffffffffffffffffffffffffffffffffff\n      and\n      0xffffffffffffffffffffffffffffffffffffffff\n      and\n      dup2\n      mstore\n      0x20\n      add\n      swap1\n      dup2\n      mstore\n      0x20\n      add\n      0x00\n      keccak256\n        /* \"contracts/Lottery.sol\":13521:13565  _balances[account] = accountBalance - amount */\n      dup2\n      swap1\n      sstore\n      pop\n        /* \"contracts/Lottery.sol\":13601:13607  amount */\n      dup2\n        /* \"contracts/Lottery.sol\":13585:13597  _totalSupply */\n      0x02\n      0x00\n        /* \"contracts/Lottery.sol\":13585:13607  _totalSupply -= amount */\n      dup3\n      dup3\n      sload\n      tag_268\n      swap2\n      swap1\n      tag_269\n      jump\t// in\n    tag_268:\n      swap3\n      pop\n      pop\n      dup2\n      swap1\n      sstore\n      pop\n        /* \"contracts/Lottery.sol\":13649:13650  0 */\n      0x00\n        /* \"contracts/Lottery.sol\":13623:13660  Transfer(account, address(0), amount) */\n      0xffffffffffffffffffffffffffffffffffffffff\n      and\n        /* \"contracts/Lottery.sol\":13632:13639  account */\n      dup4\n        /* \"contracts/Lottery.sol\":13623:13660  Transfer(account, address(0), amount) */\n      0xffffffffffffffffffffffffffffffffffffffff\n      and\n      0xddf252ad1be2c89b69c2b068fc378daa952ba7f163c4a11628f55a4df523b3ef\n        /* \"contracts/Lottery.sol\":13653:13659  amount */\n      dup5\n        /* \"contracts/Lottery.sol\":13623:13660  Transfer(account, address(0), amount) */\n      mload(0x40)\n      tag_270\n      swap2\n      swap1\n      tag_45\n      jump\t// in\n    tag_270:\n      mload(0x40)\n      dup1\n      swap2\n      sub\n      swap1\n      log3\n        /* \"contracts/Lottery.sol\":13671:13719  _afterTokenTransfer(account, address(0), amount) */\n      tag_271\n        /* \"contracts/Lottery.sol\":13691:13698  account */\n      dup4\n        /* \"contracts/Lottery.sol\":13708:13709  0 */\n      0x00\n        /* \"contracts/Lottery.sol\":13712:13718  amount */\n      dup5\n        /* \"contracts/Lottery.sol\":13671:13690  _afterTokenTransfer */\n      tag_259\n        /* \"contracts/Lottery.sol\":13671:13719  _afterTokenTransfer(account, address(0), amount) */\n      jump\t// in\n    tag_271:\n        /* \"contracts/Lottery.sol\":13215:13726  {... */\n      pop\n        /* \"contracts/Lottery.sol\":13150:13726  function _burn(address account, uint256 amount) internal virtual {... */\n      pop\n      pop\n      jump\t// out\n        /* \"contracts/Lottery.sol\":12441:12830  function _mint(address account, uint256 amount) internal virtual {... */\n    tag_185:\n        /* \"contracts/Lottery.sol\":12543:12544  0 */\n      0x00\n        /* \"contracts/Lottery.sol\":12524:12545  account != address(0) */\n      0xffffffffffffffffffffffffffffffffffffffff\n      and\n        /* \"contracts/Lottery.sol\":12524:12531  account */\n      dup3\n        /* \"contracts/Lottery.sol\":12524:12545  account != address(0) */\n      0xffffffffffffffffffffffffffffffffffffffff\n      and\n      eq\n      iszero\n        /* \"contracts/Lottery.sol\":12516:12581  require(account != address(0), \"ERC20: mint to the zero address\") */\n      tag_273\n      jumpi\n      mload(0x40)\n      0x08c379a000000000000000000000000000000000000000000000000000000000\n      dup2\n      mstore\n      0x04\n      add\n      tag_274\n      swap1\n      tag_275\n      jump\t// in\n    tag_274:\n      mload(0x40)\n      dup1\n      swap2\n      sub\n      swap1\n      revert\n    tag_273:\n        /* \"contracts/Lottery.sol\":12592:12641  _beforeTokenTransfer(address(0), account, amount) */\n      tag_276\n        /* \"contracts/Lottery.sol\":12621:12622  0 */\n      0x00\n        /* \"contracts/Lottery.sol\":12625:12632  account */\n      dup4\n        /* \"contracts/Lottery.sol\":12634:12640  amount */\n      dup4\n        /* \"contracts/Lottery.sol\":12592:12612  _beforeTokenTransfer */\n      tag_252\n        /* \"contracts/Lottery.sol\":12592:12641  _beforeTokenTransfer(address(0), account, amount) */\n      jump\t// in\n    tag_276:\n        /* \"contracts/Lottery.sol\":12668:12674  amount */\n      dup1\n        /* \"contracts/Lottery.sol\":12652:12664  _totalSupply */\n      0x02\n      0x00\n        /* \"contracts/Lottery.sol\":12652:12674  _totalSupply += amount */\n      dup3\n      dup3\n      sload\n      tag_277\n      swap2\n      swap1\n      tag_164\n      jump\t// in\n    tag_277:\n      swap3\n      pop\n      pop\n      dup2\n      swap1\n      sstore\n      pop\n        /* \"contracts/Lottery.sol\":12706:12712  amount */\n      dup1\n        /* \"contracts/Lottery.sol\":12684:12693  _balances */\n      0x00\n        /* \"contracts/Lottery.sol\":12684:12702  _balances[account] */\n      dup1\n        /* \"contracts/Lottery.sol\":12694:12701  account */\n      dup5\n        /* \"contracts/Lottery.sol\":12684:12702  _balances[account] */\n      0xffffffffffffffffffffffffffffffffffffffff\n      and\n      0xffffffffffffffffffffffffffffffffffffffff\n      and\n      dup2\n      mstore\n      0x20\n      add\n      swap1\n      dup2\n      mstore\n      0x20\n      add\n      0x00\n      keccak256\n      0x00\n        /* \"contracts/Lottery.sol\":12684:12712  _balances[account] += amount */\n      dup3\n      dup3\n      sload\n      tag_278\n      swap2\n      swap1\n      tag_164\n      jump\t// in\n    tag_278:\n      swap3\n      pop\n      pop\n      dup2\n      swap1\n      sstore\n      pop\n        /* \"contracts/Lottery.sol\":12748:12755  account */\n      dup2\n        /* \"contracts/Lottery.sol\":12727:12764  Transfer(address(0), account, amount) */\n      0xffffffffffffffffffffffffffffffffffffffff\n      and\n        /* \"contracts/Lottery.sol\":12744:12745  0 */\n      0x00\n        /* \"contracts/Lottery.sol\":12727:12764  Transfer(address(0), account, amount) */\n      0xffffffffffffffffffffffffffffffffffffffff\n      and\n      0xddf252ad1be2c89b69c2b068fc378daa952ba7f163c4a11628f55a4df523b3ef\n        /* \"contracts/Lottery.sol\":12757:12763  amount */\n      dup4\n        /* \"contracts/Lottery.sol\":12727:12764  Transfer(address(0), account, amount) */\n      mload(0x40)\n      tag_279\n      swap2\n      swap1\n      tag_45\n      jump\t// in\n    tag_279:\n      mload(0x40)\n      dup1\n      swap2\n      sub\n      swap1\n      log3\n        /* \"contracts/Lottery.sol\":12775:12823  _afterTokenTransfer(address(0), account, amount) */\n      tag_280\n        /* \"contracts/Lottery.sol\":12803:12804  0 */\n      0x00\n        /* \"contracts/Lottery.sol\":12807:12814  account */\n      dup4\n        /* \"contracts/Lottery.sol\":12816:12822  amount */\n      dup4\n        /* \"contracts/Lottery.sol\":12775:12794  _afterTokenTransfer */\n      tag_259\n        /* \"contracts/Lottery.sol\":12775:12823  _afterTokenTransfer(address(0), account, amount) */\n      jump\t// in\n    tag_280:\n        /* \"contracts/Lottery.sol\":12441:12830  function _mint(address account, uint256 amount) internal virtual {... */\n      pop\n      pop\n      jump\t// out\n        /* \"contracts/Lottery.sol\":17951:18120  function _setOwner(address newOwner) private {... */\n    tag_195:\n        /* \"contracts/Lottery.sol\":18006:18022  address oldOwner */\n      0x00\n        /* \"contracts/Lottery.sol\":18025:18031  _owner */\n      0x05\n      0x00\n      swap1\n      sload\n      swap1\n      0x0100\n      exp\n      swap1\n      div\n      0xffffffffffffffffffffffffffffffffffffffff\n      and\n        /* \"contracts/Lottery.sol\":18006:18031  address oldOwner = _owner */\n      swap1\n      pop\n        /* \"contracts/Lottery.sol\":18050:18058  newOwner */\n      dup2\n        /* \"contracts/Lottery.sol\":18041:18047  _owner */\n      0x05\n      0x00\n        /* \"contracts/Lottery.sol\":18041:18058  _owner = newOwner */\n      0x0100\n      exp\n      dup2\n      sload\n      dup2\n      0xffffffffffffffffffffffffffffffffffffffff\n      mul\n      not\n      and\n      swap1\n      dup4\n      0xffffffffffffffffffffffffffffffffffffffff\n      and\n      mul\n      or\n      swap1\n      sstore\n      pop\n        /* \"contracts/Lottery.sol\":18104:18112  newOwner */\n      dup2\n        /* \"contracts/Lottery.sol\":18073:18113  OwnershipTransferred(oldOwner, newOwner) */\n      0xffffffffffffffffffffffffffffffffffffffff\n      and\n        /* \"contracts/Lottery.sol\":18094:18102  oldOwner */\n      dup2\n        /* \"contracts/Lottery.sol\":18073:18113  OwnershipTransferred(oldOwner, newOwner) */\n      0xffffffffffffffffffffffffffffffffffffffff\n      and\n      0x8be0079c531659141344cd1fd0a4f28419497f9722a3daafe3b4186f6b6457e0\n      mload(0x40)\n      mload(0x40)\n      dup1\n      swap2\n      sub\n      swap1\n      log3\n        /* \"contracts/Lottery.sol\":17996:18120  {... */\n      pop\n        /* \"contracts/Lottery.sol\":17951:18120  function _setOwner(address newOwner) private {... */\n      pop\n      jump\t// out\n        /* \"contracts/Lottery.sol\":21253:21349  function sub(uint256 a, uint256 b) internal pure returns (uint256) {... */\n    tag_203:\n        /* \"contracts/Lottery.sol\":21311:21318  uint256 */\n      0x00\n        /* \"contracts/Lottery.sol\":21341:21342  b */\n      dup2\n        /* \"contracts/Lottery.sol\":21337:21338  a */\n      dup4\n        /* \"contracts/Lottery.sol\":21337:21342  a - b */\n      tag_283\n      swap2\n      swap1\n      tag_269\n      jump\t// in\n    tag_283:\n        /* \"contracts/Lottery.sol\":21330:21342  return a - b */\n      swap1\n      pop\n        /* \"contracts/Lottery.sol\":21253:21349  function sub(uint256 a, uint256 b) internal pure returns (uint256) {... */\n      swap3\n      swap2\n      pop\n      pop\n      jump\t// out\n        /* \"contracts/Lottery.sol\":15103:15224  function _beforeTokenTransfer(... */\n    tag_252:\n      pop\n      pop\n      pop\n      jump\t// out\n        /* \"contracts/Lottery.sol\":15812:15932  function _afterTokenTransfer(... */\n    tag_259:\n      pop\n      pop\n      pop\n      jump\t// out\n        /* \"#utility.yul\":7:146   */\n    tag_287:\n        /* \"#utility.yul\":53:58   */\n      0x00\n        /* \"#utility.yul\":91:97   */\n      dup2\n        /* \"#utility.yul\":78:98   */\n      calldataload\n        /* \"#utility.yul\":69:98   */\n      swap1\n      pop\n        /* \"#utility.yul\":107:140   */\n      tag_289\n        /* \"#utility.yul\":134:139   */\n      dup2\n        /* \"#utility.yul\":107:140   */\n      tag_290\n      jump\t// in\n    tag_289:\n        /* \"#utility.yul\":7:146   */\n      swap3\n      swap2\n      pop\n      pop\n      jump\t// out\n        /* \"#utility.yul\":152:291   */\n    tag_291:\n        /* \"#utility.yul\":198:203   */\n      0x00\n        /* \"#utility.yul\":236:242   */\n      dup2\n        /* \"#utility.yul\":223:243   */\n      calldataload\n        /* \"#utility.yul\":214:243   */\n      swap1\n      pop\n        /* \"#utility.yul\":252:285   */\n      tag_293\n        /* \"#utility.yul\":279:284   */\n      dup2\n        /* \"#utility.yul\":252:285   */\n      tag_294\n      jump\t// in\n    tag_293:\n        /* \"#utility.yul\":152:291   */\n      swap3\n      swap2\n      pop\n      pop\n      jump\t// out\n        /* \"#utility.yul\":297:626   */\n    tag_53:\n        /* \"#utility.yul\":356:362   */\n      0x00\n        /* \"#utility.yul\":405:407   */\n      0x20\n        /* \"#utility.yul\":393:402   */\n      dup3\n        /* \"#utility.yul\":384:391   */\n      dup5\n        /* \"#utility.yul\":380:403   */\n      sub\n        /* \"#utility.yul\":376:408   */\n      slt\n        /* \"#utility.yul\":373:492   */\n      iszero\n      tag_296\n      jumpi\n        /* \"#utility.yul\":411:490   */\n      tag_297\n      tag_298\n      jump\t// in\n    tag_297:\n        /* \"#utility.yul\":373:492   */\n    tag_296:\n        /* \"#utility.yul\":531:532   */\n      0x00\n        /* \"#utility.yul\":556:609   */\n      tag_299\n        /* \"#utility.yul\":601:608   */\n      dup5\n        /* \"#utility.yul\":592:598   */\n      dup3\n        /* \"#utility.yul\":581:590   */\n      dup6\n        /* \"#utility.yul\":577:599   */\n      add\n        /* \"#utility.yul\":556:609   */\n      tag_287\n      jump\t// in\n    tag_299:\n        /* \"#utility.yul\":546:609   */\n      swap2\n      pop\n        /* \"#utility.yul\":502:619   */\n      pop\n        /* \"#utility.yul\":297:626   */\n      swap3\n      swap2\n      pop\n      pop\n      jump\t// out\n        /* \"#utility.yul\":632:1106   */\n    tag_118:\n        /* \"#utility.yul\":700:706   */\n      0x00\n        /* \"#utility.yul\":708:714   */\n      dup1\n        /* \"#utility.yul\":757:759   */\n      0x40\n        /* \"#utility.yul\":745:754   */\n      dup4\n        /* \"#utility.yul\":736:743   */\n      dup6\n        /* \"#utility.yul\":732:755   */\n      sub\n        /* \"#utility.yul\":728:760   */\n      slt\n        /* \"#utility.yul\":725:844   */\n      iszero\n      tag_301\n      jumpi\n        /* \"#utility.yul\":763:842   */\n      tag_302\n      tag_298\n      jump\t// in\n    tag_302:\n        /* \"#utility.yul\":725:844   */\n    tag_301:\n        /* \"#utility.yul\":883:884   */\n      0x00\n        /* \"#utility.yul\":908:961   */\n      tag_303\n        /* \"#utility.yul\":953:960   */\n      dup6\n        /* \"#utility.yul\":944:950   */\n      dup3\n        /* \"#utility.yul\":933:942   */\n      dup7\n        /* \"#utility.yul\":929:951   */\n      add\n        /* \"#utility.yul\":908:961   */\n      tag_287\n      jump\t// in\n    tag_303:\n        /* \"#utility.yul\":898:961   */\n      swap3\n      pop\n        /* \"#utility.yul\":854:971   */\n      pop\n        /* \"#utility.yul\":1010:1012   */\n      0x20\n        /* \"#utility.yul\":1036:1089   */\n      tag_304\n        /* \"#utility.yul\":1081:1088   */\n      dup6\n        /* \"#utility.yul\":1072:1078   */\n      dup3\n        /* \"#utility.yul\":1061:1070   */\n      dup7\n        /* \"#utility.yul\":1057:1079   */\n      add\n        /* \"#utility.yul\":1036:1089   */\n      tag_287\n      jump\t// in\n    tag_304:\n        /* \"#utility.yul\":1026:1089   */\n      swap2\n      pop\n        /* \"#utility.yul\":981:1099   */\n      pop\n        /* \"#utility.yul\":632:1106   */\n      swap3\n      pop\n      swap3\n      swap1\n      pop\n      jump\t// out\n        /* \"#utility.yul\":1112:1731   */\n    tag_48:\n        /* \"#utility.yul\":1189:1195   */\n      0x00\n        /* \"#utility.yul\":1197:1203   */\n      dup1\n        /* \"#utility.yul\":1205:1211   */\n      0x00\n        /* \"#utility.yul\":1254:1256   */\n      0x60\n        /* \"#utility.yul\":1242:1251   */\n      dup5\n        /* \"#utility.yul\":1233:1240   */\n      dup7\n        /* \"#utility.yul\":1229:1252   */\n      sub\n        /* \"#utility.yul\":1225:1257   */\n      slt\n        /* \"#utility.yul\":1222:1341   */\n      iszero\n      tag_306\n      jumpi\n        /* \"#utility.yul\":1260:1339   */\n      tag_307\n      tag_298\n      jump\t// in\n    tag_307:\n        /* \"#utility.yul\":1222:1341   */\n    tag_306:\n        /* \"#utility.yul\":1380:1381   */\n      0x00\n        /* \"#utility.yul\":1405:1458   */\n      tag_308\n        /* \"#utility.yul\":1450:1457   */\n      dup7\n        /* \"#utility.yul\":1441:1447   */\n      dup3\n        /* \"#utility.yul\":1430:1439   */\n      dup8\n        /* \"#utility.yul\":1426:1448   */\n      add\n        /* \"#utility.yul\":1405:1458   */\n      tag_287\n      jump\t// in\n    tag_308:\n        /* \"#utility.yul\":1395:1458   */\n      swap4\n      pop\n        /* \"#utility.yul\":1351:1468   */\n      pop\n        /* \"#utility.yul\":1507:1509   */\n      0x20\n        /* \"#utility.yul\":1533:1586   */\n      tag_309\n        /* \"#utility.yul\":1578:1585   */\n      dup7\n        /* \"#utility.yul\":1569:1575   */\n      dup3\n        /* \"#utility.yul\":1558:1567   */\n      dup8\n        /* \"#utility.yul\":1554:1576   */\n      add\n        /* \"#utility.yul\":1533:1586   */\n      tag_287\n      jump\t// in\n    tag_309:\n        /* \"#utility.yul\":1523:1586   */\n      swap3\n      pop\n        /* \"#utility.yul\":1478:1596   */\n      pop\n        /* \"#utility.yul\":1635:1637   */\n      0x40\n        /* \"#utility.yul\":1661:1714   */\n      tag_310\n        /* \"#utility.yul\":1706:1713   */\n      dup7\n        /* \"#utility.yul\":1697:1703   */\n      dup3\n        /* \"#utility.yul\":1686:1695   */\n      dup8\n        /* \"#utility.yul\":1682:1704   */\n      add\n        /* \"#utility.yul\":1661:1714   */\n      tag_291\n      jump\t// in\n    tag_310:\n        /* \"#utility.yul\":1651:1714   */\n      swap2\n      pop\n        /* \"#utility.yul\":1606:1724   */\n      pop\n        /* \"#utility.yul\":1112:1731   */\n      swap3\n      pop\n      swap3\n      pop\n      swap3\n      jump\t// out\n        /* \"#utility.yul\":1737:2211   */\n    tag_38:\n        /* \"#utility.yul\":1805:1811   */\n      0x00\n        /* \"#utility.yul\":1813:1819   */\n      dup1\n        /* \"#utility.yul\":1862:1864   */\n      0x40\n        /* \"#utility.yul\":1850:1859   */\n      dup4\n        /* \"#utility.yul\":1841:1848   */\n      dup6\n        /* \"#utility.yul\":1837:1860   */\n      sub\n        /* \"#utility.yul\":1833:1865   */\n      slt\n        /* \"#utility.yul\":1830:1949   */\n      iszero\n      tag_312\n      jumpi\n        /* \"#utility.yul\":1868:1947   */\n      tag_313\n      tag_298\n      jump\t// in\n    tag_313:\n        /* \"#utility.yul\":1830:1949   */\n    tag_312:\n        /* \"#utility.yul\":1988:1989   */\n      0x00\n        /* \"#utility.yul\":2013:2066   */\n      tag_314\n        /* \"#utility.yul\":2058:2065   */\n      dup6\n        /* \"#utility.yul\":2049:2055   */\n      dup3\n        /* \"#utility.yul\":2038:2047   */\n      dup7\n        /* \"#utility.yul\":2034:2056   */\n      add\n        /* \"#utility.yul\":2013:2066   */\n      tag_287\n      jump\t// in\n    tag_314:\n        /* \"#utility.yul\":2003:2066   */\n      swap3\n      pop\n        /* \"#utility.yul\":1959:2076   */\n      pop\n        /* \"#utility.yul\":2115:2117   */\n      0x20\n        /* \"#utility.yul\":2141:2194   */\n      tag_315\n        /* \"#utility.yul\":2186:2193   */\n      dup6\n        /* \"#utility.yul\":2177:2183   */\n      dup3\n        /* \"#utility.yul\":2166:2175   */\n      dup7\n        /* \"#utility.yul\":2162:2184   */\n      add\n        /* \"#utility.yul\":2141:2194   */\n      tag_291\n      jump\t// in\n    tag_315:\n        /* \"#utility.yul\":2131:2194   */\n      swap2\n      pop\n        /* \"#utility.yul\":2086:2204   */\n      pop\n        /* \"#utility.yul\":1737:2211   */\n      swap3\n      pop\n      swap3\n      swap1\n      pop\n      jump\t// out\n        /* \"#utility.yul\":2217:2546   */\n    tag_61:\n        /* \"#utility.yul\":2276:2282   */\n      0x00\n        /* \"#utility.yul\":2325:2327   */\n      0x20\n        /* \"#utility.yul\":2313:2322   */\n      dup3\n        /* \"#utility.yul\":2304:2311   */\n      dup5\n        /* \"#utility.yul\":2300:2323   */\n      sub\n        /* \"#utility.yul\":2296:2328   */\n      slt\n        /* \"#utility.yul\":2293:2412   */\n      iszero\n      tag_317\n      jumpi\n        /* \"#utility.yul\":2331:2410   */\n      tag_318\n      tag_298\n      jump\t// in\n    tag_318:\n        /* \"#utility.yul\":2293:2412   */\n    tag_317:\n        /* \"#utility.yul\":2451:2452   */\n      0x00\n        /* \"#utility.yul\":2476:2529   */\n      tag_319\n        /* \"#utility.yul\":2521:2528   */\n      dup5\n        /* \"#utility.yul\":2512:2518   */\n      dup3\n        /* \"#utility.yul\":2501:2510   */\n      dup6\n        /* \"#utility.yul\":2497:2519   */\n      add\n        /* \"#utility.yul\":2476:2529   */\n      tag_291\n      jump\t// in\n    tag_319:\n        /* \"#utility.yul\":2466:2529   */\n      swap2\n      pop\n        /* \"#utility.yul\":2422:2539   */\n      pop\n        /* \"#utility.yul\":2217:2546   */\n      swap3\n      swap2\n      pop\n      pop\n      jump\t// out\n        /* \"#utility.yul\":2552:2670   */\n    tag_320:\n        /* \"#utility.yul\":2639:2663   */\n      tag_322\n        /* \"#utility.yul\":2657:2662   */\n      dup2\n        /* \"#utility.yul\":2639:2663   */\n      tag_323\n      jump\t// in\n    tag_322:\n        /* \"#utility.yul\":2634:2637   */\n      dup3\n        /* \"#utility.yul\":2627:2664   */\n      mstore\n        /* \"#utility.yul\":2552:2670   */\n      pop\n      pop\n      jump\t// out\n        /* \"#utility.yul\":2676:2785   */\n    tag_324:\n        /* \"#utility.yul\":2757:2778   */\n      tag_326\n        /* \"#utility.yul\":2772:2777   */\n      dup2\n        /* \"#utility.yul\":2757:2778   */\n      tag_327\n      jump\t// in\n    tag_326:\n        /* \"#utility.yul\":2752:2755   */\n      dup3\n        /* \"#utility.yul\":2745:2779   */\n      mstore\n        /* \"#utility.yul\":2676:2785   */\n      pop\n      pop\n      jump\t// out\n        /* \"#utility.yul\":2791:3155   */\n    tag_328:\n        /* \"#utility.yul\":2879:2882   */\n      0x00\n        /* \"#utility.yul\":2907:2946   */\n      tag_330\n        /* \"#utility.yul\":2940:2945   */\n      dup3\n        /* \"#utility.yul\":2907:2946   */\n      tag_331\n      jump\t// in\n    tag_330:\n        /* \"#utility.yul\":2962:3033   */\n      tag_332\n        /* \"#utility.yul\":3026:3032   */\n      dup2\n        /* \"#utility.yul\":3021:3024   */\n      dup6\n        /* \"#utility.yul\":2962:3033   */\n      tag_333\n      jump\t// in\n    tag_332:\n        /* \"#utility.yul\":2955:3033   */\n      swap4\n      pop\n        /* \"#utility.yul\":3042:3094   */\n      tag_334\n        /* \"#utility.yul\":3087:3093   */\n      dup2\n        /* \"#utility.yul\":3082:3085   */\n      dup6\n        /* \"#utility.yul\":3075:3079   */\n      0x20\n        /* \"#utility.yul\":3068:3073   */\n      dup7\n        /* \"#utility.yul\":3064:3080   */\n      add\n        /* \"#utility.yul\":3042:3094   */\n      tag_335\n      jump\t// in\n    tag_334:\n        /* \"#utility.yul\":3119:3148   */\n      tag_336\n        /* \"#utility.yul\":3141:3147   */\n      dup2\n        /* \"#utility.yul\":3119:3148   */\n      tag_337\n      jump\t// in\n    tag_336:\n        /* \"#utility.yul\":3114:3117   */\n      dup5\n        /* \"#utility.yul\":3110:3149   */\n      add\n        /* \"#utility.yul\":3103:3149   */\n      swap2\n      pop\n        /* \"#utility.yul\":2883:3155   */\n      pop\n        /* \"#utility.yul\":2791:3155   */\n      swap3\n      swap2\n      pop\n      pop\n      jump\t// out\n        /* \"#utility.yul\":3161:3527   */\n    tag_338:\n        /* \"#utility.yul\":3303:3306   */\n      0x00\n        /* \"#utility.yul\":3324:3391   */\n      tag_340\n        /* \"#utility.yul\":3388:3390   */\n      0x23\n        /* \"#utility.yul\":3383:3386   */\n      dup4\n        /* \"#utility.yul\":3324:3391   */\n      tag_333\n      jump\t// in\n    tag_340:\n        /* \"#utility.yul\":3317:3391   */\n      swap2\n      pop\n        /* \"#utility.yul\":3400:3493   */\n      tag_341\n        /* \"#utility.yul\":3489:3492   */\n      dup3\n        /* \"#utility.yul\":3400:3493   */\n      tag_342\n      jump\t// in\n    tag_341:\n        /* \"#utility.yul\":3518:3520   */\n      0x40\n        /* \"#utility.yul\":3513:3516   */\n      dup3\n        /* \"#utility.yul\":3509:3521   */\n      add\n        /* \"#utility.yul\":3502:3521   */\n      swap1\n      pop\n        /* \"#utility.yul\":3161:3527   */\n      swap2\n      swap1\n      pop\n      jump\t// out\n        /* \"#utility.yul\":3533:3899   */\n    tag_343:\n        /* \"#utility.yul\":3675:3678   */\n      0x00\n        /* \"#utility.yul\":3696:3763   */\n      tag_345\n        /* \"#utility.yul\":3760:3762   */\n      0x14\n        /* \"#utility.yul\":3755:3758   */\n      dup4\n        /* \"#utility.yul\":3696:3763   */\n      tag_333\n      jump\t// in\n    tag_345:\n        /* \"#utility.yul\":3689:3763   */\n      swap2\n      pop\n        /* \"#utility.yul\":3772:3865   */\n      tag_346\n        /* \"#utility.yul\":3861:3864   */\n      dup3\n        /* \"#utility.yul\":3772:3865   */\n      tag_347\n      jump\t// in\n    tag_346:\n        /* \"#utility.yul\":3890:3892   */\n      0x20\n        /* \"#utility.yul\":3885:3888   */\n      dup3\n        /* \"#utility.yul\":3881:3893   */\n      add\n        /* \"#utility.yul\":3874:3893   */\n      swap1\n      pop\n        /* \"#utility.yul\":3533:3899   */\n      swap2\n      swap1\n      pop\n      jump\t// out\n        /* \"#utility.yul\":3905:4271   */\n    tag_348:\n        /* \"#utility.yul\":4047:4050   */\n      0x00\n        /* \"#utility.yul\":4068:4135   */\n      tag_350\n        /* \"#utility.yul\":4132:4134   */\n      0x22\n        /* \"#utility.yul\":4127:4130   */\n      dup4\n        /* \"#utility.yul\":4068:4135   */\n      tag_333\n      jump\t// in\n    tag_350:\n        /* \"#utility.yul\":4061:4135   */\n      swap2\n      pop\n        /* \"#utility.yul\":4144:4237   */\n      tag_351\n        /* \"#utility.yul\":4233:4236   */\n      dup3\n        /* \"#utility.yul\":4144:4237   */\n      tag_352\n      jump\t// in\n    tag_351:\n        /* \"#utility.yul\":4262:4264   */\n      0x40\n        /* \"#utility.yul\":4257:4260   */\n      dup3\n        /* \"#utility.yul\":4253:4265   */\n      add\n        /* \"#utility.yul\":4246:4265   */\n      swap1\n      pop\n        /* \"#utility.yul\":3905:4271   */\n      swap2\n      swap1\n      pop\n      jump\t// out\n        /* \"#utility.yul\":4277:4643   */\n    tag_353:\n        /* \"#utility.yul\":4419:4422   */\n      0x00\n        /* \"#utility.yul\":4440:4507   */\n      tag_355\n        /* \"#utility.yul\":4504:4506   */\n      0x26\n        /* \"#utility.yul\":4499:4502   */\n      dup4\n        /* \"#utility.yul\":4440:4507   */\n      tag_333\n      jump\t// in\n    tag_355:\n        /* \"#utility.yul\":4433:4507   */\n      swap2\n      pop\n        /* \"#utility.yul\":4516:4609   */\n      tag_356\n        /* \"#utility.yul\":4605:4608   */\n      dup3\n        /* \"#utility.yul\":4516:4609   */\n      tag_357\n      jump\t// in\n    tag_356:\n        /* \"#utility.yul\":4634:4636   */\n      0x40\n        /* \"#utility.yul\":4629:4632   */\n      dup3\n        /* \"#utility.yul\":4625:4637   */\n      add\n        /* \"#utility.yul\":4618:4637   */\n      swap1\n      pop\n        /* \"#utility.yul\":4277:4643   */\n      swap2\n      swap1\n      pop\n      jump\t// out\n        /* \"#utility.yul\":4649:5015   */\n    tag_358:\n        /* \"#utility.yul\":4791:4794   */\n      0x00\n        /* \"#utility.yul\":4812:4879   */\n      tag_360\n        /* \"#utility.yul\":4876:4878   */\n      0x22\n        /* \"#utility.yul\":4871:4874   */\n      dup4\n        /* \"#utility.yul\":4812:4879   */\n      tag_333\n      jump\t// in\n    tag_360:\n        /* \"#utility.yul\":4805:4879   */\n      swap2\n      pop\n        /* \"#utility.yul\":4888:4981   */\n      tag_361\n        /* \"#utility.yul\":4977:4980   */\n      dup3\n        /* \"#utility.yul\":4888:4981   */\n      tag_362\n      jump\t// in\n    tag_361:\n        /* \"#utility.yul\":5006:5008   */\n      0x40\n        /* \"#utility.yul\":5001:5004   */\n      dup3\n        /* \"#utility.yul\":4997:5009   */\n      add\n        /* \"#utility.yul\":4990:5009   */\n      swap1\n      pop\n        /* \"#utility.yul\":4649:5015   */\n      swap2\n      swap1\n      pop\n      jump\t// out\n        /* \"#utility.yul\":5021:5387   */\n    tag_363:\n        /* \"#utility.yul\":5163:5166   */\n      0x00\n        /* \"#utility.yul\":5184:5251   */\n      tag_365\n        /* \"#utility.yul\":5248:5250   */\n      0x21\n        /* \"#utility.yul\":5243:5246   */\n      dup4\n        /* \"#utility.yul\":5184:5251   */\n      tag_333\n      jump\t// in\n    tag_365:\n        /* \"#utility.yul\":5177:5251   */\n      swap2\n      pop\n        /* \"#utility.yul\":5260:5353   */\n      tag_366\n        /* \"#utility.yul\":5349:5352   */\n      dup3\n        /* \"#utility.yul\":5260:5353   */\n      tag_367\n      jump\t// in\n    tag_366:\n        /* \"#utility.yul\":5378:5380   */\n      0x40\n        /* \"#utility.yul\":5373:5376   */\n      dup3\n        /* \"#utility.yul\":5369:5381   */\n      add\n        /* \"#utility.yul\":5362:5381   */\n      swap1\n      pop\n        /* \"#utility.yul\":5021:5387   */\n      swap2\n      swap1\n      pop\n      jump\t// out\n        /* \"#utility.yul\":5393:5759   */\n    tag_368:\n        /* \"#utility.yul\":5535:5538   */\n      0x00\n        /* \"#utility.yul\":5556:5623   */\n      tag_370\n        /* \"#utility.yul\":5620:5622   */\n      0x26\n        /* \"#utility.yul\":5615:5618   */\n      dup4\n        /* \"#utility.yul\":5556:5623   */\n      tag_333\n      jump\t// in\n    tag_370:\n        /* \"#utility.yul\":5549:5623   */\n      swap2\n      pop\n        /* \"#utility.yul\":5632:5725   */\n      tag_371\n        /* \"#utility.yul\":5721:5724   */\n      dup3\n        /* \"#utility.yul\":5632:5725   */\n      tag_372\n      jump\t// in\n    tag_371:\n        /* \"#utility.yul\":5750:5752   */\n      0x40\n        /* \"#utility.yul\":5745:5748   */\n      dup3\n        /* \"#utility.yul\":5741:5753   */\n      add\n        /* \"#utility.yul\":5734:5753   */\n      swap1\n      pop\n        /* \"#utility.yul\":5393:5759   */\n      swap2\n      swap1\n      pop\n      jump\t// out\n        /* \"#utility.yul\":5765:6131   */\n    tag_373:\n        /* \"#utility.yul\":5907:5910   */\n      0x00\n        /* \"#utility.yul\":5928:5995   */\n      tag_375\n        /* \"#utility.yul\":5992:5994   */\n      0x24\n        /* \"#utility.yul\":5987:5990   */\n      dup4\n        /* \"#utility.yul\":5928:5995   */\n      tag_333\n      jump\t// in\n    tag_375:\n        /* \"#utility.yul\":5921:5995   */\n      swap2\n      pop\n        /* \"#utility.yul\":6004:6097   */\n      tag_376\n        /* \"#utility.yul\":6093:6096   */\n      dup3\n        /* \"#utility.yul\":6004:6097   */\n      tag_377\n      jump\t// in\n    tag_376:\n        /* \"#utility.yul\":6122:6124   */\n      0x40\n        /* \"#utility.yul\":6117:6120   */\n      dup3\n        /* \"#utility.yul\":6113:6125   */\n      add\n        /* \"#utility.yul\":6106:6125   */\n      swap1\n      pop\n        /* \"#utility.yul\":5765:6131   */\n      swap2\n      swap1\n      pop\n      jump\t// out\n        /* \"#utility.yul\":6137:6503   */\n    tag_378:\n        /* \"#utility.yul\":6279:6282   */\n      0x00\n        /* \"#utility.yul\":6300:6367   */\n      tag_380\n        /* \"#utility.yul\":6364:6366   */\n      0x28\n        /* \"#utility.yul\":6359:6362   */\n      dup4\n        /* \"#utility.yul\":6300:6367   */\n      tag_333\n      jump\t// in\n    tag_380:\n        /* \"#utility.yul\":6293:6367   */\n      swap2\n      pop\n        /* \"#utility.yul\":6376:6469   */\n      tag_381\n        /* \"#utility.yul\":6465:6468   */\n      dup3\n        /* \"#utility.yul\":6376:6469   */\n      tag_382\n      jump\t// in\n    tag_381:\n        /* \"#utility.yul\":6494:6496   */\n      0x40\n        /* \"#utility.yul\":6489:6492   */\n      dup3\n        /* \"#utility.yul\":6485:6497   */\n      add\n        /* \"#utility.yul\":6478:6497   */\n      swap1\n      pop\n        /* \"#utility.yul\":6137:6503   */\n      swap2\n      swap1\n      pop\n      jump\t// out\n        /* \"#utility.yul\":6509:6875   */\n    tag_383:\n        /* \"#utility.yul\":6651:6654   */\n      0x00\n        /* \"#utility.yul\":6672:6739   */\n      tag_385\n        /* \"#utility.yul\":6736:6738   */\n      0x20\n        /* \"#utility.yul\":6731:6734   */\n      dup4\n        /* \"#utility.yul\":6672:6739   */\n      tag_333\n      jump\t// in\n    tag_385:\n        /* \"#utility.yul\":6665:6739   */\n      swap2\n      pop\n        /* \"#utility.yul\":6748:6841   */\n      tag_386\n        /* \"#utility.yul\":6837:6840   */\n      dup3\n        /* \"#utility.yul\":6748:6841   */\n      tag_387\n      jump\t// in\n    tag_386:\n        /* \"#utility.yul\":6866:6868   */\n      0x20\n        /* \"#utility.yul\":6861:6864   */\n      dup3\n        /* \"#utility.yul\":6857:6869   */\n      add\n        /* \"#utility.yul\":6850:6869   */\n      swap1\n      pop\n        /* \"#utility.yul\":6509:6875   */\n      swap2\n      swap1\n      pop\n      jump\t// out\n        /* \"#utility.yul\":6881:7247   */\n    tag_388:\n        /* \"#utility.yul\":7023:7026   */\n      0x00\n        /* \"#utility.yul\":7044:7111   */\n      tag_390\n        /* \"#utility.yul\":7108:7110   */\n      0x21\n        /* \"#utility.yul\":7103:7106   */\n      dup4\n        /* \"#utility.yul\":7044:7111   */\n      tag_333\n      jump\t// in\n    tag_390:\n        /* \"#utility.yul\":7037:7111   */\n      swap2\n      pop\n        /* \"#utility.yul\":7120:7213   */\n      tag_391\n        /* \"#utility.yul\":7209:7212   */\n      dup3\n        /* \"#utility.yul\":7120:7213   */\n      tag_392\n      jump\t// in\n    tag_391:\n        /* \"#utility.yul\":7238:7240   */\n      0x40\n        /* \"#utility.yul\":7233:7236   */\n      dup3\n        /* \"#utility.yul\":7229:7241   */\n      add\n        /* \"#utility.yul\":7222:7241   */\n      swap1\n      pop\n        /* \"#utility.yul\":6881:7247   */\n      swap2\n      swap1\n      pop\n      jump\t// out\n        /* \"#utility.yul\":7253:7619   */\n    tag_393:\n        /* \"#utility.yul\":7395:7398   */\n      0x00\n        /* \"#utility.yul\":7416:7483   */\n      tag_395\n        /* \"#utility.yul\":7480:7482   */\n      0x25\n        /* \"#utility.yul\":7475:7478   */\n      dup4\n        /* \"#utility.yul\":7416:7483   */\n      tag_333\n      jump\t// in\n    tag_395:\n        /* \"#utility.yul\":7409:7483   */\n      swap2\n      pop\n        /* \"#utility.yul\":7492:7585   */\n      tag_396\n        /* \"#utility.yul\":7581:7584   */\n      dup3\n        /* \"#utility.yul\":7492:7585   */\n      tag_397\n      jump\t// in\n    tag_396:\n        /* \"#utility.yul\":7610:7612   */\n      0x40\n        /* \"#utility.yul\":7605:7608   */\n      dup3\n        /* \"#utility.yul\":7601:7613   */\n      add\n        /* \"#utility.yul\":7594:7613   */\n      swap1\n      pop\n        /* \"#utility.yul\":7253:7619   */\n      swap2\n      swap1\n      pop\n      jump\t// out\n        /* \"#utility.yul\":7625:7991   */\n    tag_398:\n        /* \"#utility.yul\":7767:7770   */\n      0x00\n        /* \"#utility.yul\":7788:7855   */\n      tag_400\n        /* \"#utility.yul\":7852:7854   */\n      0x18\n        /* \"#utility.yul\":7847:7850   */\n      dup4\n        /* \"#utility.yul\":7788:7855   */\n      tag_333\n      jump\t// in\n    tag_400:\n        /* \"#utility.yul\":7781:7855   */\n      swap2\n      pop\n        /* \"#utility.yul\":7864:7957   */\n      tag_401\n        /* \"#utility.yul\":7953:7956   */\n      dup3\n        /* \"#utility.yul\":7864:7957   */\n      tag_402\n      jump\t// in\n    tag_401:\n        /* \"#utility.yul\":7982:7984   */\n      0x20\n        /* \"#utility.yul\":7977:7980   */\n      dup3\n        /* \"#utility.yul\":7973:7985   */\n      add\n        /* \"#utility.yul\":7966:7985   */\n      swap1\n      pop\n        /* \"#utility.yul\":7625:7991   */\n      swap2\n      swap1\n      pop\n      jump\t// out\n        /* \"#utility.yul\":7997:8363   */\n    tag_403:\n        /* \"#utility.yul\":8139:8142   */\n      0x00\n        /* \"#utility.yul\":8160:8227   */\n      tag_405\n        /* \"#utility.yul\":8224:8226   */\n      0x24\n        /* \"#utility.yul\":8219:8222   */\n      dup4\n        /* \"#utility.yul\":8160:8227   */\n      tag_333\n      jump\t// in\n    tag_405:\n        /* \"#utility.yul\":8153:8227   */\n      swap2\n      pop\n        /* \"#utility.yul\":8236:8329   */\n      tag_406\n        /* \"#utility.yul\":8325:8328   */\n      dup3\n        /* \"#utility.yul\":8236:8329   */\n      tag_407\n      jump\t// in\n    tag_406:\n        /* \"#utility.yul\":8354:8356   */\n      0x40\n        /* \"#utility.yul\":8349:8352   */\n      dup3\n        /* \"#utility.yul\":8345:8357   */\n      add\n        /* \"#utility.yul\":8338:8357   */\n      swap1\n      pop\n        /* \"#utility.yul\":7997:8363   */\n      swap2\n      swap1\n      pop\n      jump\t// out\n        /* \"#utility.yul\":8369:8735   */\n    tag_408:\n        /* \"#utility.yul\":8511:8514   */\n      0x00\n        /* \"#utility.yul\":8532:8599   */\n      tag_410\n        /* \"#utility.yul\":8596:8598   */\n      0x18\n        /* \"#utility.yul\":8591:8594   */\n      dup4\n        /* \"#utility.yul\":8532:8599   */\n      tag_333\n      jump\t// in\n    tag_410:\n        /* \"#utility.yul\":8525:8599   */\n      swap2\n      pop\n        /* \"#utility.yul\":8608:8701   */\n      tag_411\n        /* \"#utility.yul\":8697:8700   */\n      dup3\n        /* \"#utility.yul\":8608:8701   */\n      tag_412\n      jump\t// in\n    tag_411:\n        /* \"#utility.yul\":8726:8728   */\n      0x20\n        /* \"#utility.yul\":8721:8724   */\n      dup3\n        /* \"#utility.yul\":8717:8729   */\n      add\n        /* \"#utility.yul\":8710:8729   */\n      swap1\n      pop\n        /* \"#utility.yul\":8369:8735   */\n      swap2\n      swap1\n      pop\n      jump\t// out\n        /* \"#utility.yul\":8741:9107   */\n    tag_413:\n        /* \"#utility.yul\":8883:8886   */\n      0x00\n        /* \"#utility.yul\":8904:8971   */\n      tag_415\n        /* \"#utility.yul\":8968:8970   */\n      0x25\n        /* \"#utility.yul\":8963:8966   */\n      dup4\n        /* \"#utility.yul\":8904:8971   */\n      tag_333\n      jump\t// in\n    tag_415:\n        /* \"#utility.yul\":8897:8971   */\n      swap2\n      pop\n        /* \"#utility.yul\":8980:9073   */\n      tag_416\n        /* \"#utility.yul\":9069:9072   */\n      dup3\n        /* \"#utility.yul\":8980:9073   */\n      tag_417\n      jump\t// in\n    tag_416:\n        /* \"#utility.yul\":9098:9100   */\n      0x40\n        /* \"#utility.yul\":9093:9096   */\n      dup3\n        /* \"#utility.yul\":9089:9101   */\n      add\n        /* \"#utility.yul\":9082:9101   */\n      swap1\n      pop\n        /* \"#utility.yul\":8741:9107   */\n      swap2\n      swap1\n      pop\n      jump\t// out\n        /* \"#utility.yul\":9113:9479   */\n    tag_418:\n        /* \"#utility.yul\":9255:9258   */\n      0x00\n        /* \"#utility.yul\":9276:9343   */\n      tag_420\n        /* \"#utility.yul\":9340:9342   */\n      0x1f\n        /* \"#utility.yul\":9335:9338   */\n      dup4\n        /* \"#utility.yul\":9276:9343   */\n      tag_333\n      jump\t// in\n    tag_420:\n        /* \"#utility.yul\":9269:9343   */\n      swap2\n      pop\n        /* \"#utility.yul\":9352:9445   */\n      tag_421\n        /* \"#utility.yul\":9441:9444   */\n      dup3\n        /* \"#utility.yul\":9352:9445   */\n      tag_422\n      jump\t// in\n    tag_421:\n        /* \"#utility.yul\":9470:9472   */\n      0x20\n        /* \"#utility.yul\":9465:9468   */\n      dup3\n        /* \"#utility.yul\":9461:9473   */\n      add\n        /* \"#utility.yul\":9454:9473   */\n      swap1\n      pop\n        /* \"#utility.yul\":9113:9479   */\n      swap2\n      swap1\n      pop\n      jump\t// out\n        /* \"#utility.yul\":9485:9603   */\n    tag_423:\n        /* \"#utility.yul\":9572:9596   */\n      tag_425\n        /* \"#utility.yul\":9590:9595   */\n      dup2\n        /* \"#utility.yul\":9572:9596   */\n      tag_426\n      jump\t// in\n    tag_425:\n        /* \"#utility.yul\":9567:9570   */\n      dup3\n        /* \"#utility.yul\":9560:9597   */\n      mstore\n        /* \"#utility.yul\":9485:9603   */\n      pop\n      pop\n      jump\t// out\n        /* \"#utility.yul\":9609:9721   */\n    tag_427:\n        /* \"#utility.yul\":9692:9714   */\n      tag_429\n        /* \"#utility.yul\":9708:9713   */\n      dup2\n        /* \"#utility.yul\":9692:9714   */\n      tag_430\n      jump\t// in\n    tag_429:\n        /* \"#utility.yul\":9687:9690   */\n      dup3\n        /* \"#utility.yul\":9680:9715   */\n      mstore\n        /* \"#utility.yul\":9609:9721   */\n      pop\n      pop\n      jump\t// out\n        /* \"#utility.yul\":9727:9949   */\n    tag_92:\n        /* \"#utility.yul\":9820:9824   */\n      0x00\n        /* \"#utility.yul\":9858:9860   */\n      0x20\n        /* \"#utility.yul\":9847:9856   */\n      dup3\n        /* \"#utility.yul\":9843:9861   */\n      add\n        /* \"#utility.yul\":9835:9861   */\n      swap1\n      pop\n        /* \"#utility.yul\":9871:9942   */\n      tag_432\n        /* \"#utility.yul\":9939:9940   */\n      0x00\n        /* \"#utility.yul\":9928:9937   */\n      dup4\n        /* \"#utility.yul\":9924:9941   */\n      add\n        /* \"#utility.yul\":9915:9921   */\n      dup5\n        /* \"#utility.yul\":9871:9942   */\n      tag_320\n      jump\t// in\n    tag_432:\n        /* \"#utility.yul\":9727:9949   */\n      swap3\n      swap2\n      pop\n      pop\n      jump\t// out\n        /* \"#utility.yul\":9955:10165   */\n    tag_41:\n        /* \"#utility.yul\":10042:10046   */\n      0x00\n        /* \"#utility.yul\":10080:10082   */\n      0x20\n        /* \"#utility.yul\":10069:10078   */\n      dup3\n        /* \"#utility.yul\":10065:10083   */\n      add\n        /* \"#utility.yul\":10057:10083   */\n      swap1\n      pop\n        /* \"#utility.yul\":10093:10158   */\n      tag_434\n        /* \"#utility.yul\":10155:10156   */\n      0x00\n        /* \"#utility.yul\":10144:10153   */\n      dup4\n        /* \"#utility.yul\":10140:10157   */\n      add\n        /* \"#utility.yul\":10131:10137   */\n      dup5\n        /* \"#utility.yul\":10093:10158   */\n      tag_324\n      jump\t// in\n    tag_434:\n        /* \"#utility.yul\":9955:10165   */\n      swap3\n      swap2\n      pop\n      pop\n      jump\t// out\n        /* \"#utility.yul\":10171:10484   */\n    tag_35:\n        /* \"#utility.yul\":10284:10288   */\n      0x00\n        /* \"#utility.yul\":10322:10324   */\n      0x20\n        /* \"#utility.yul\":10311:10320   */\n      dup3\n        /* \"#utility.yul\":10307:10325   */\n      add\n        /* \"#utility.yul\":10299:10325   */\n      swap1\n      pop\n        /* \"#utility.yul\":10371:10380   */\n      dup2\n        /* \"#utility.yul\":10365:10369   */\n      dup2\n        /* \"#utility.yul\":10361:10381   */\n      sub\n        /* \"#utility.yul\":10357:10358   */\n      0x00\n        /* \"#utility.yul\":10346:10355   */\n      dup4\n        /* \"#utility.yul\":10342:10359   */\n      add\n        /* \"#utility.yul\":10335:10382   */\n      mstore\n        /* \"#utility.yul\":10399:10477   */\n      tag_436\n        /* \"#utility.yul\":10472:10476   */\n      dup2\n        /* \"#utility.yul\":10463:10469   */\n      dup5\n        /* \"#utility.yul\":10399:10477   */\n      tag_328\n      jump\t// in\n    tag_436:\n        /* \"#utility.yul\":10391:10477   */\n      swap1\n      pop\n        /* \"#utility.yul\":10171:10484   */\n      swap3\n      swap2\n      pop\n      pop\n      jump\t// out\n        /* \"#utility.yul\":10490:10909   */\n    tag_250:\n        /* \"#utility.yul\":10656:10660   */\n      0x00\n        /* \"#utility.yul\":10694:10696   */\n      0x20\n        /* \"#utility.yul\":10683:10692   */\n      dup3\n        /* \"#utility.yul\":10679:10697   */\n      add\n        /* \"#utility.yul\":10671:10697   */\n      swap1\n      pop\n        /* \"#utility.yul\":10743:10752   */\n      dup2\n        /* \"#utility.yul\":10737:10741   */\n      dup2\n        /* \"#utility.yul\":10733:10753   */\n      sub\n        /* \"#utility.yul\":10729:10730   */\n      0x00\n        /* \"#utility.yul\":10718:10727   */\n      dup4\n        /* \"#utility.yul\":10714:10731   */\n      add\n        /* \"#utility.yul\":10707:10754   */\n      mstore\n        /* \"#utility.yul\":10771:10902   */\n      tag_438\n        /* \"#utility.yul\":10897:10901   */\n      dup2\n        /* \"#utility.yul\":10771:10902   */\n      tag_338\n      jump\t// in\n    tag_438:\n        /* \"#utility.yul\":10763:10902   */\n      swap1\n      pop\n        /* \"#utility.yul\":10490:10909   */\n      swap2\n      swap1\n      pop\n      jump\t// out\n        /* \"#utility.yul\":10915:11334   */\n    tag_174:\n        /* \"#utility.yul\":11081:11085   */\n      0x00\n        /* \"#utility.yul\":11119:11121   */\n      0x20\n        /* \"#utility.yul\":11108:11117   */\n      dup3\n        /* \"#utility.yul\":11104:11122   */\n      add\n        /* \"#utility.yul\":11096:11122   */\n      swap1\n      pop\n        /* \"#utility.yul\":11168:11177   */\n      dup2\n        /* \"#utility.yul\":11162:11166   */\n      dup2\n        /* \"#utility.yul\":11158:11178   */\n      sub\n        /* \"#utility.yul\":11154:11155   */\n      0x00\n        /* \"#utility.yul\":11143:11152   */\n      dup4\n        /* \"#utility.yul\":11139:11156   */\n      add\n        /* \"#utility.yul\":11132:11179   */\n      mstore\n        /* \"#utility.yul\":11196:11327   */\n      tag_440\n        /* \"#utility.yul\":11322:11326   */\n      dup2\n        /* \"#utility.yul\":11196:11327   */\n      tag_343\n      jump\t// in\n    tag_440:\n        /* \"#utility.yul\":11188:11327   */\n      swap1\n      pop\n        /* \"#utility.yul\":10915:11334   */\n      swap2\n      swap1\n      pop\n      jump\t// out\n        /* \"#utility.yul\":11340:11759   */\n    tag_267:\n        /* \"#utility.yul\":11506:11510   */\n      0x00\n        /* \"#utility.yul\":11544:11546   */\n      0x20\n        /* \"#utility.yul\":11533:11542   */\n      dup3\n        /* \"#utility.yul\":11529:11547   */\n      add\n        /* \"#utility.yul\":11521:11547   */\n      swap1\n      pop\n        /* \"#utility.yul\":11593:11602   */\n      dup2\n        /* \"#utility.yul\":11587:11591   */\n      dup2\n        /* \"#utility.yul\":11583:11603   */\n      sub\n        /* \"#utility.yul\":11579:11580   */\n      0x00\n        /* \"#utility.yul\":11568:11577   */\n      dup4\n        /* \"#utility.yul\":11564:11581   */\n      add\n        /* \"#utility.yul\":11557:11604   */\n      mstore\n        /* \"#utility.yul\":11621:11752   */\n      tag_442\n        /* \"#utility.yul\":11747:11751   */\n      dup2\n        /* \"#utility.yul\":11621:11752   */\n      tag_348\n      jump\t// in\n    tag_442:\n        /* \"#utility.yul\":11613:11752   */\n      swap1\n      pop\n        /* \"#utility.yul\":11340:11759   */\n      swap2\n      swap1\n      pop\n      jump\t// out\n        /* \"#utility.yul\":11765:12184   */\n    tag_233:\n        /* \"#utility.yul\":11931:11935   */\n      0x00\n        /* \"#utility.yul\":11969:11971   */\n      0x20\n        /* \"#utility.yul\":11958:11967   */\n      dup3\n        /* \"#utility.yul\":11954:11972   */\n      add\n        /* \"#utility.yul\":11946:11972   */\n      swap1\n      pop\n        /* \"#utility.yul\":12018:12027   */\n      dup2\n        /* \"#utility.yul\":12012:12016   */\n      dup2\n        /* \"#utility.yul\":12008:12028   */\n      sub\n        /* \"#utility.yul\":12004:12005   */\n      0x00\n        /* \"#utility.yul\":11993:12002   */\n      dup4\n        /* \"#utility.yul\":11989:12006   */\n      add\n        /* \"#utility.yul\":11982:12029   */\n      mstore\n        /* \"#utility.yul\":12046:12177   */\n      tag_444\n        /* \"#utility.yul\":12172:12176   */\n      dup2\n        /* \"#utility.yul\":12046:12177   */\n      tag_353\n      jump\t// in\n    tag_444:\n        /* \"#utility.yul\":12038:12177   */\n      swap1\n      pop\n        /* \"#utility.yul\":11765:12184   */\n      swap2\n      swap1\n      pop\n      jump\t// out\n        /* \"#utility.yul\":12190:12609   */\n    tag_242:\n        /* \"#utility.yul\":12356:12360   */\n      0x00\n        /* \"#utility.yul\":12394:12396   */\n      0x20\n        /* \"#utility.yul\":12383:12392   */\n      dup3\n        /* \"#utility.yul\":12379:12397   */\n      add\n        /* \"#utility.yul\":12371:12397   */\n      swap1\n      pop\n        /* \"#utility.yul\":12443:12452   */\n      dup2\n        /* \"#utility.yul\":12437:12441   */\n      dup2\n        /* \"#utility.yul\":12433:12453   */\n      sub\n        /* \"#utility.yul\":12429:12430   */\n      0x00\n        /* \"#utility.yul\":12418:12427   */\n      dup4\n        /* \"#utility.yul\":12414:12431   */\n      add\n        /* \"#utility.yul\":12407:12454   */\n      mstore\n        /* \"#utility.yul\":12471:12602   */\n      tag_446\n        /* \"#utility.yul\":12597:12601   */\n      dup2\n        /* \"#utility.yul\":12471:12602   */\n      tag_358\n      jump\t// in\n    tag_446:\n        /* \"#utility.yul\":12463:12602   */\n      swap1\n      pop\n        /* \"#utility.yul\":12190:12609   */\n      swap2\n      swap1\n      pop\n      jump\t// out\n        /* \"#utility.yul\":12615:13034   */\n    tag_179:\n        /* \"#utility.yul\":12781:12785   */\n      0x00\n        /* \"#utility.yul\":12819:12821   */\n      0x20\n        /* \"#utility.yul\":12808:12817   */\n      dup3\n        /* \"#utility.yul\":12804:12822   */\n      add\n        /* \"#utility.yul\":12796:12822   */\n      swap1\n      pop\n        /* \"#utility.yul\":12868:12877   */\n      dup2\n        /* \"#utility.yul\":12862:12866   */\n      dup2\n        /* \"#utility.yul\":12858:12878   */\n      sub\n        /* \"#utility.yul\":12854:12855   */\n      0x00\n        /* \"#utility.yul\":12843:12852   */\n      dup4\n        /* \"#utility.yul\":12839:12856   */\n      add\n        /* \"#utility.yul\":12832:12879   */\n      mstore\n        /* \"#utility.yul\":12896:13027   */\n      tag_448\n        /* \"#utility.yul\":13022:13026   */\n      dup2\n        /* \"#utility.yul\":12896:13027   */\n      tag_363\n      jump\t// in\n    tag_448:\n        /* \"#utility.yul\":12888:13027   */\n      swap1\n      pop\n        /* \"#utility.yul\":12615:13034   */\n      swap2\n      swap1\n      pop\n      jump\t// out\n        /* \"#utility.yul\":13040:13459   */\n    tag_255:\n        /* \"#utility.yul\":13206:13210   */\n      0x00\n        /* \"#utility.yul\":13244:13246   */\n      0x20\n        /* \"#utility.yul\":13233:13242   */\n      dup3\n        /* \"#utility.yul\":13229:13247   */\n      add\n        /* \"#utility.yul\":13221:13247   */\n      swap1\n      pop\n        /* \"#utility.yul\":13293:13302   */\n      dup2\n        /* \"#utility.yul\":13287:13291   */\n      dup2\n        /* \"#utility.yul\":13283:13303   */\n      sub\n        /* \"#utility.yul\":13279:13280   */\n      0x00\n        /* \"#utility.yul\":13268:13277   */\n      dup4\n        /* \"#utility.yul\":13264:13281   */\n      add\n        /* \"#utility.yul\":13257:13304   */\n      mstore\n        /* \"#utility.yul\":13321:13452   */\n      tag_450\n        /* \"#utility.yul\":13447:13451   */\n      dup2\n        /* \"#utility.yul\":13321:13452   */\n      tag_368\n      jump\t// in\n    tag_450:\n        /* \"#utility.yul\":13313:13452   */\n      swap1\n      pop\n        /* \"#utility.yul\":13040:13459   */\n      swap2\n      swap1\n      pop\n      jump\t// out\n        /* \"#utility.yul\":13465:13884   */\n    tag_155:\n        /* \"#utility.yul\":13631:13635   */\n      0x00\n        /* \"#utility.yul\":13669:13671   */\n      0x20\n        /* \"#utility.yul\":13658:13667   */\n      dup3\n        /* \"#utility.yul\":13654:13672   */\n      add\n        /* \"#utility.yul\":13646:13672   */\n      swap1\n      pop\n        /* \"#utility.yul\":13718:13727   */\n      dup2\n        /* \"#utility.yul\":13712:13716   */\n      dup2\n        /* \"#utility.yul\":13708:13728   */\n      sub\n        /* \"#utility.yul\":13704:13705   */\n      0x00\n        /* \"#utility.yul\":13693:13702   */\n      dup4\n        /* \"#utility.yul\":13689:13706   */\n      add\n        /* \"#utility.yul\":13682:13729   */\n      mstore\n        /* \"#utility.yul\":13746:13877   */\n      tag_452\n        /* \"#utility.yul\":13872:13876   */\n      dup2\n        /* \"#utility.yul\":13746:13877   */\n      tag_373\n      jump\t// in\n    tag_452:\n        /* \"#utility.yul\":13738:13877   */\n      swap1\n      pop\n        /* \"#utility.yul\":13465:13884   */\n      swap2\n      swap1\n      pop\n      jump\t// out\n        /* \"#utility.yul\":13890:14309   */\n    tag_143:\n        /* \"#utility.yul\":14056:14060   */\n      0x00\n        /* \"#utility.yul\":14094:14096   */\n      0x20\n        /* \"#utility.yul\":14083:14092   */\n      dup3\n        /* \"#utility.yul\":14079:14097   */\n      add\n        /* \"#utility.yul\":14071:14097   */\n      swap1\n      pop\n        /* \"#utility.yul\":14143:14152   */\n      dup2\n        /* \"#utility.yul\":14137:14141   */\n      dup2\n        /* \"#utility.yul\":14133:14153   */\n      sub\n        /* \"#utility.yul\":14129:14130   */\n      0x00\n        /* \"#utility.yul\":14118:14127   */\n      dup4\n        /* \"#utility.yul\":14114:14131   */\n      add\n        /* \"#utility.yul\":14107:14154   */\n      mstore\n        /* \"#utility.yul\":14171:14302   */\n      tag_454\n        /* \"#utility.yul\":14297:14301   */\n      dup2\n        /* \"#utility.yul\":14171:14302   */\n      tag_378\n      jump\t// in\n    tag_454:\n        /* \"#utility.yul\":14163:14302   */\n      swap1\n      pop\n        /* \"#utility.yul\":13890:14309   */\n      swap2\n      swap1\n      pop\n      jump\t// out\n        /* \"#utility.yul\":14315:14734   */\n    tag_151:\n        /* \"#utility.yul\":14481:14485   */\n      0x00\n        /* \"#utility.yul\":14519:14521   */\n      0x20\n        /* \"#utility.yul\":14508:14517   */\n      dup3\n        /* \"#utility.yul\":14504:14522   */\n      add\n        /* \"#utility.yul\":14496:14522   */\n      swap1\n      pop\n        /* \"#utility.yul\":14568:14577   */\n      dup2\n        /* \"#utility.yul\":14562:14566   */\n      dup2\n        /* \"#utility.yul\":14558:14578   */\n      sub\n        /* \"#utility.yul\":14554:14555   */\n      0x00\n        /* \"#utility.yul\":14543:14552   */\n      dup4\n        /* \"#utility.yul\":14539:14556   */\n      add\n        /* \"#utility.yul\":14532:14579   */\n      mstore\n        /* \"#utility.yul\":14596:14727   */\n      tag_456\n        /* \"#utility.yul\":14722:14726   */\n      dup2\n        /* \"#utility.yul\":14596:14727   */\n      tag_383\n      jump\t// in\n    tag_456:\n        /* \"#utility.yul\":14588:14727   */\n      swap1\n      pop\n        /* \"#utility.yul\":14315:14734   */\n      swap2\n      swap1\n      pop\n      jump\t// out\n        /* \"#utility.yul\":14740:15159   */\n    tag_263:\n        /* \"#utility.yul\":14906:14910   */\n      0x00\n        /* \"#utility.yul\":14944:14946   */\n      0x20\n        /* \"#utility.yul\":14933:14942   */\n      dup3\n        /* \"#utility.yul\":14929:14947   */\n      add\n        /* \"#utility.yul\":14921:14947   */\n      swap1\n      pop\n        /* \"#utility.yul\":14993:15002   */\n      dup2\n        /* \"#utility.yul\":14987:14991   */\n      dup2\n        /* \"#utility.yul\":14983:15003   */\n      sub\n        /* \"#utility.yul\":14979:14980   */\n      0x00\n        /* \"#utility.yul\":14968:14977   */\n      dup4\n        /* \"#utility.yul\":14964:14981   */\n      add\n        /* \"#utility.yul\":14957:15004   */\n      mstore\n        /* \"#utility.yul\":15021:15152   */\n      tag_458\n        /* \"#utility.yul\":15147:15151   */\n      dup2\n        /* \"#utility.yul\":15021:15152   */\n      tag_388\n      jump\t// in\n    tag_458:\n        /* \"#utility.yul\":15013:15152   */\n      swap1\n      pop\n        /* \"#utility.yul\":14740:15159   */\n      swap2\n      swap1\n      pop\n      jump\t// out\n        /* \"#utility.yul\":15165:15584   */\n    tag_247:\n        /* \"#utility.yul\":15331:15335   */\n      0x00\n        /* \"#utility.yul\":15369:15371   */\n      0x20\n        /* \"#utility.yul\":15358:15367   */\n      dup3\n        /* \"#utility.yul\":15354:15372   */\n      add\n        /* \"#utility.yul\":15346:15372   */\n      swap1\n      pop\n        /* \"#utility.yul\":15418:15427   */\n      dup2\n        /* \"#utility.yul\":15412:15416   */\n      dup2\n        /* \"#utility.yul\":15408:15428   */\n      sub\n        /* \"#utility.yul\":15404:15405   */\n      0x00\n        /* \"#utility.yul\":15393:15402   */\n      dup4\n        /* \"#utility.yul\":15389:15406   */\n      add\n        /* \"#utility.yul\":15382:15429   */\n      mstore\n        /* \"#utility.yul\":15446:15577   */\n      tag_460\n        /* \"#utility.yul\":15572:15576   */\n      dup2\n        /* \"#utility.yul\":15446:15577   */\n      tag_393\n      jump\t// in\n    tag_460:\n        /* \"#utility.yul\":15438:15577   */\n      swap1\n      pop\n        /* \"#utility.yul\":15165:15584   */\n      swap2\n      swap1\n      pop\n      jump\t// out\n        /* \"#utility.yul\":15590:16009   */\n    tag_171:\n        /* \"#utility.yul\":15756:15760   */\n      0x00\n        /* \"#utility.yul\":15794:15796   */\n      0x20\n        /* \"#utility.yul\":15783:15792   */\n      dup3\n        /* \"#utility.yul\":15779:15797   */\n      add\n        /* \"#utility.yul\":15771:15797   */\n      swap1\n      pop\n        /* \"#utility.yul\":15843:15852   */\n      dup2\n        /* \"#utility.yul\":15837:15841   */\n      dup2\n        /* \"#utility.yul\":15833:15853   */\n      sub\n        /* \"#utility.yul\":15829:15830   */\n      0x00\n        /* \"#utility.yul\":15818:15827   */\n      dup4\n        /* \"#utility.yul\":15814:15831   */\n      add\n        /* \"#utility.yul\":15807:15854   */\n      mstore\n        /* \"#utility.yul\":15871:16002   */\n      tag_462\n        /* \"#utility.yul\":15997:16001   */\n      dup2\n        /* \"#utility.yul\":15871:16002   */\n      tag_398\n      jump\t// in\n    tag_462:\n        /* \"#utility.yul\":15863:16002   */\n      swap1\n      pop\n        /* \"#utility.yul\":15590:16009   */\n      swap2\n      swap1\n      pop\n      jump\t// out\n        /* \"#utility.yul\":16015:16434   */\n    tag_239:\n        /* \"#utility.yul\":16181:16185   */\n      0x00\n        /* \"#utility.yul\":16219:16221   */\n      0x20\n        /* \"#utility.yul\":16208:16217   */\n      dup3\n        /* \"#utility.yul\":16204:16222   */\n      add\n        /* \"#utility.yul\":16196:16222   */\n      swap1\n      pop\n        /* \"#utility.yul\":16268:16277   */\n      dup2\n        /* \"#utility.yul\":16262:16266   */\n      dup2\n        /* \"#utility.yul\":16258:16278   */\n      sub\n        /* \"#utility.yul\":16254:16255   */\n      0x00\n        /* \"#utility.yul\":16243:16252   */\n      dup4\n        /* \"#utility.yul\":16239:16256   */\n      add\n        /* \"#utility.yul\":16232:16279   */\n      mstore\n        /* \"#utility.yul\":16296:16427   */\n      tag_464\n        /* \"#utility.yul\":16422:16426   */\n      dup2\n        /* \"#utility.yul\":16296:16427   */\n      tag_403\n      jump\t// in\n    tag_464:\n        /* \"#utility.yul\":16288:16427   */\n      swap1\n      pop\n        /* \"#utility.yul\":16015:16434   */\n      swap2\n      swap1\n      pop\n      jump\t// out\n        /* \"#utility.yul\":16440:16859   */\n    tag_199:\n        /* \"#utility.yul\":16606:16610   */\n      0x00\n        /* \"#utility.yul\":16644:16646   */\n      0x20\n        /* \"#utility.yul\":16633:16642   */\n      dup3\n        /* \"#utility.yul\":16629:16647   */\n      add\n        /* \"#utility.yul\":16621:16647   */\n      swap1\n      pop\n        /* \"#utility.yul\":16693:16702   */\n      dup2\n        /* \"#utility.yul\":16687:16691   */\n      dup2\n        /* \"#utility.yul\":16683:16703   */\n      sub\n        /* \"#utility.yul\":16679:16680   */\n      0x00\n        /* \"#utility.yul\":16668:16677   */\n      dup4\n        /* \"#utility.yul\":16664:16681   */\n      add\n        /* \"#utility.yul\":16657:16704   */\n      mstore\n        /* \"#utility.yul\":16721:16852   */\n      tag_466\n        /* \"#utility.yul\":16847:16851   */\n      dup2\n        /* \"#utility.yul\":16721:16852   */\n      tag_408\n      jump\t// in\n    tag_466:\n        /* \"#utility.yul\":16713:16852   */\n      swap1\n      pop\n        /* \"#utility.yul\":16440:16859   */\n      swap2\n      swap1\n      pop\n      jump\t// out\n        /* \"#utility.yul\":16865:17284   */\n    tag_216:\n        /* \"#utility.yul\":17031:17035   */\n      0x00\n        /* \"#utility.yul\":17069:17071   */\n      0x20\n        /* \"#utility.yul\":17058:17067   */\n      dup3\n        /* \"#utility.yul\":17054:17072   */\n      add\n        /* \"#utility.yul\":17046:17072   */\n      swap1\n      pop\n        /* \"#utility.yul\":17118:17127   */\n      dup2\n        /* \"#utility.yul\":17112:17116   */\n      dup2\n        /* \"#utility.yul\":17108:17128   */\n      sub\n        /* \"#utility.yul\":17104:17105   */\n      0x00\n        /* \"#utility.yul\":17093:17102   */\n      dup4\n        /* \"#utility.yul\":17089:17106   */\n      add\n        /* \"#utility.yul\":17082:17129   */\n      mstore\n        /* \"#utility.yul\":17146:17277   */\n      tag_468\n        /* \"#utility.yul\":17272:17276   */\n      dup2\n        /* \"#utility.yul\":17146:17277   */\n      tag_413\n      jump\t// in\n    tag_468:\n        /* \"#utility.yul\":17138:17277   */\n      swap1\n      pop\n        /* \"#utility.yul\":16865:17284   */\n      swap2\n      swap1\n      pop\n      jump\t// out\n        /* \"#utility.yul\":17290:17709   */\n    tag_275:\n        /* \"#utility.yul\":17456:17460   */\n      0x00\n        /* \"#utility.yul\":17494:17496   */\n      0x20\n        /* \"#utility.yul\":17483:17492   */\n      dup3\n        /* \"#utility.yul\":17479:17497   */\n      add\n        /* \"#utility.yul\":17471:17497   */\n      swap1\n      pop\n        /* \"#utility.yul\":17543:17552   */\n      dup2\n        /* \"#utility.yul\":17537:17541   */\n      dup2\n        /* \"#utility.yul\":17533:17553   */\n      sub\n        /* \"#utility.yul\":17529:17530   */\n      0x00\n        /* \"#utility.yul\":17518:17527   */\n      dup4\n        /* \"#utility.yul\":17514:17531   */\n      add\n        /* \"#utility.yul\":17507:17554   */\n      mstore\n        /* \"#utility.yul\":17571:17702   */\n      tag_470\n        /* \"#utility.yul\":17697:17701   */\n      dup2\n        /* \"#utility.yul\":17571:17702   */\n      tag_418\n      jump\t// in\n    tag_470:\n        /* \"#utility.yul\":17563:17702   */\n      swap1\n      pop\n        /* \"#utility.yul\":17290:17709   */\n      swap2\n      swap1\n      pop\n      jump\t// out\n        /* \"#utility.yul\":17715:17937   */\n    tag_45:\n        /* \"#utility.yul\":17808:17812   */\n      0x00\n        /* \"#utility.yul\":17846:17848   */\n      0x20\n        /* \"#utility.yul\":17835:17844   */\n      dup3\n        /* \"#utility.yul\":17831:17849   */\n      add\n        /* \"#utility.yul\":17823:17849   */\n      swap1\n      pop\n        /* \"#utility.yul\":17859:17930   */\n      tag_472\n        /* \"#utility.yul\":17927:17928   */\n      0x00\n        /* \"#utility.yul\":17916:17925   */\n      dup4\n        /* \"#utility.yul\":17912:17929   */\n      add\n        /* \"#utility.yul\":17903:17909   */\n      dup5\n        /* \"#utility.yul\":17859:17930   */\n      tag_423\n      jump\t// in\n    tag_472:\n        /* \"#utility.yul\":17715:17937   */\n      swap3\n      swap2\n      pop\n      pop\n      jump\t// out\n        /* \"#utility.yul\":17943:18157   */\n    tag_58:\n        /* \"#utility.yul\":18032:18036   */\n      0x00\n        /* \"#utility.yul\":18070:18072   */\n      0x20\n        /* \"#utility.yul\":18059:18068   */\n      dup3\n        /* \"#utility.yul\":18055:18073   */\n      add\n        /* \"#utility.yul\":18047:18073   */\n      swap1\n      pop\n        /* \"#utility.yul\":18083:18150   */\n      tag_474\n        /* \"#utility.yul\":18147:18148   */\n      0x00\n        /* \"#utility.yul\":18136:18145   */\n      dup4\n        /* \"#utility.yul\":18132:18149   */\n      add\n        /* \"#utility.yul\":18123:18129   */\n      dup5\n        /* \"#utility.yul\":18083:18150   */\n      tag_427\n      jump\t// in\n    tag_474:\n        /* \"#utility.yul\":17943:18157   */\n      swap3\n      swap2\n      pop\n      pop\n      jump\t// out\n        /* \"#utility.yul\":18244:18343   */\n    tag_331:\n        /* \"#utility.yul\":18296:18302   */\n      0x00\n        /* \"#utility.yul\":18330:18335   */\n      dup2\n        /* \"#utility.yul\":18324:18336   */\n      mload\n        /* \"#utility.yul\":18314:18336   */\n      swap1\n      pop\n        /* \"#utility.yul\":18244:18343   */\n      swap2\n      swap1\n      pop\n      jump\t// out\n        /* \"#utility.yul\":18349:18518   */\n    tag_333:\n        /* \"#utility.yul\":18433:18444   */\n      0x00\n        /* \"#utility.yul\":18467:18473   */\n      dup3\n        /* \"#utility.yul\":18462:18465   */\n      dup3\n        /* \"#utility.yul\":18455:18474   */\n      mstore\n        /* \"#utility.yul\":18507:18511   */\n      0x20\n        /* \"#utility.yul\":18502:18505   */\n      dup3\n        /* \"#utility.yul\":18498:18512   */\n      add\n        /* \"#utility.yul\":18483:18512   */\n      swap1\n      pop\n        /* \"#utility.yul\":18349:18518   */\n      swap3\n      swap2\n      pop\n      pop\n      jump\t// out\n        /* \"#utility.yul\":18524:18829   */\n    tag_164:\n        /* \"#utility.yul\":18564:18567   */\n      0x00\n        /* \"#utility.yul\":18583:18603   */\n      tag_480\n        /* \"#utility.yul\":18601:18602   */\n      dup3\n        /* \"#utility.yul\":18583:18603   */\n      tag_426\n      jump\t// in\n    tag_480:\n        /* \"#utility.yul\":18578:18603   */\n      swap2\n      pop\n        /* \"#utility.yul\":18617:18637   */\n      tag_481\n        /* \"#utility.yul\":18635:18636   */\n      dup4\n        /* \"#utility.yul\":18617:18637   */\n      tag_426\n      jump\t// in\n    tag_481:\n        /* \"#utility.yul\":18612:18637   */\n      swap3\n      pop\n        /* \"#utility.yul\":18771:18772   */\n      dup3\n        /* \"#utility.yul\":18703:18769   */\n      0xffffffffffffffffffffffffffffffffffffffffffffffffffffffffffffffff\n        /* \"#utility.yul\":18699:18773   */\n      sub\n        /* \"#utility.yul\":18696:18697   */\n      dup3\n        /* \"#utility.yul\":18693:18774   */\n      gt\n        /* \"#utility.yul\":18690:18797   */\n      iszero\n      tag_482\n      jumpi\n        /* \"#utility.yul\":18777:18795   */\n      tag_483\n      tag_484\n      jump\t// in\n    tag_483:\n        /* \"#utility.yul\":18690:18797   */\n    tag_482:\n        /* \"#utility.yul\":18821:18822   */\n      dup3\n        /* \"#utility.yul\":18818:18819   */\n      dup3\n        /* \"#utility.yul\":18814:18823   */\n      add\n        /* \"#utility.yul\":18807:18823   */\n      swap1\n      pop\n        /* \"#utility.yul\":18524:18829   */\n      swap3\n      swap2\n      pop\n      pop\n      jump\t// out\n        /* \"#utility.yul\":18835:19026   */\n    tag_269:\n        /* \"#utility.yul\":18875:18879   */\n      0x00\n        /* \"#utility.yul\":18895:18915   */\n      tag_486\n        /* \"#utility.yul\":18913:18914   */\n      dup3\n        /* \"#utility.yul\":18895:18915   */\n      tag_426\n      jump\t// in\n    tag_486:\n        /* \"#utility.yul\":18890:18915   */\n      swap2\n      pop\n        /* \"#utility.yul\":18929:18949   */\n      tag_487\n        /* \"#utility.yul\":18947:18948   */\n      dup4\n        /* \"#utility.yul\":18929:18949   */\n      tag_426\n      jump\t// in\n    tag_487:\n        /* \"#utility.yul\":18924:18949   */\n      swap3\n      pop\n        /* \"#utility.yul\":18968:18969   */\n      dup3\n        /* \"#utility.yul\":18965:18966   */\n      dup3\n        /* \"#utility.yul\":18962:18970   */\n      lt\n        /* \"#utility.yul\":18959:18993   */\n      iszero\n      tag_488\n      jumpi\n        /* \"#utility.yul\":18973:18991   */\n      tag_489\n      tag_484\n      jump\t// in\n    tag_489:\n        /* \"#utility.yul\":18959:18993   */\n    tag_488:\n        /* \"#utility.yul\":19018:19019   */\n      dup3\n        /* \"#utility.yul\":19015:19016   */\n      dup3\n        /* \"#utility.yul\":19011:19020   */\n      sub\n        /* \"#utility.yul\":19003:19020   */\n      swap1\n      pop\n        /* \"#utility.yul\":18835:19026   */\n      swap3\n      swap2\n      pop\n      pop\n      jump\t// out\n        /* \"#utility.yul\":19032:19128   */\n    tag_323:\n        /* \"#utility.yul\":19069:19076   */\n      0x00\n        /* \"#utility.yul\":19098:19122   */\n      tag_491\n        /* \"#utility.yul\":19116:19121   */\n      dup3\n        /* \"#utility.yul\":19098:19122   */\n      tag_492\n      jump\t// in\n    tag_491:\n        /* \"#utility.yul\":19087:19122   */\n      swap1\n      pop\n        /* \"#utility.yul\":19032:19128   */\n      swap2\n      swap1\n      pop\n      jump\t// out\n        /* \"#utility.yul\":19134:19224   */\n    tag_327:\n        /* \"#utility.yul\":19168:19175   */\n      0x00\n        /* \"#utility.yul\":19211:19216   */\n      dup2\n        /* \"#utility.yul\":19204:19217   */\n      iszero\n        /* \"#utility.yul\":19197:19218   */\n      iszero\n        /* \"#utility.yul\":19186:19218   */\n      swap1\n      pop\n        /* \"#utility.yul\":19134:19224   */\n      swap2\n      swap1\n      pop\n      jump\t// out\n        /* \"#utility.yul\":19230:19356   */\n    tag_492:\n        /* \"#utility.yul\":19267:19274   */\n      0x00\n        /* \"#utility.yul\":19307:19349   */\n      0xffffffffffffffffffffffffffffffffffffffff\n        /* \"#utility.yul\":19300:19305   */\n      dup3\n        /* \"#utility.yul\":19296:19350   */\n      and\n        /* \"#utility.yul\":19285:19350   */\n      swap1\n      pop\n        /* \"#utility.yul\":19230:19356   */\n      swap2\n      swap1\n      pop\n      jump\t// out\n        /* \"#utility.yul\":19362:19439   */\n    tag_426:\n        /* \"#utility.yul\":19399:19406   */\n      0x00\n        /* \"#utility.yul\":19428:19433   */\n      dup2\n        /* \"#utility.yul\":19417:19433   */\n      swap1\n      pop\n        /* \"#utility.yul\":19362:19439   */\n      swap2\n      swap1\n      pop\n      jump\t// out\n        /* \"#utility.yul\":19445:19531   */\n    tag_430:\n        /* \"#utility.yul\":19480:19487   */\n      0x00\n        /* \"#utility.yul\":19520:19524   */\n      0xff\n        /* \"#utility.yul\":19513:19518   */\n      dup3\n        /* \"#utility.yul\":19509:19525   */\n      and\n        /* \"#utility.yul\":19498:19525   */\n      swap1\n      pop\n        /* \"#utility.yul\":19445:19531   */\n      swap2\n      swap1\n      pop\n      jump\t// out\n        /* \"#utility.yul\":19537:19844   */\n    tag_335:\n        /* \"#utility.yul\":19605:19606   */\n      0x00\n        /* \"#utility.yul\":19615:19728   */\n    tag_498:\n        /* \"#utility.yul\":19629:19635   */\n      dup4\n        /* \"#utility.yul\":19626:19627   */\n      dup2\n        /* \"#utility.yul\":19623:19636   */\n      lt\n        /* \"#utility.yul\":19615:19728   */\n      iszero\n      tag_500\n      jumpi\n        /* \"#utility.yul\":19714:19715   */\n      dup1\n        /* \"#utility.yul\":19709:19712   */\n      dup3\n        /* \"#utility.yul\":19705:19716   */\n      add\n        /* \"#utility.yul\":19699:19717   */\n      mload\n        /* \"#utility.yul\":19695:19696   */\n      dup2\n        /* \"#utility.yul\":19690:19693   */\n      dup5\n        /* \"#utility.yul\":19686:19697   */\n      add\n        /* \"#utility.yul\":19679:19718   */\n      mstore\n        /* \"#utility.yul\":19651:19653   */\n      0x20\n        /* \"#utility.yul\":19648:19649   */\n      dup2\n        /* \"#utility.yul\":19644:19654   */\n      add\n        /* \"#utility.yul\":19639:19654   */\n      swap1\n      pop\n        /* \"#utility.yul\":19615:19728   */\n      jump(tag_498)\n    tag_500:\n        /* \"#utility.yul\":19746:19752   */\n      dup4\n        /* \"#utility.yul\":19743:19744   */\n      dup2\n        /* \"#utility.yul\":19740:19753   */\n      gt\n        /* \"#utility.yul\":19737:19838   */\n      iszero\n      tag_501\n      jumpi\n        /* \"#utility.yul\":19826:19827   */\n      0x00\n        /* \"#utility.yul\":19817:19823   */\n      dup5\n        /* \"#utility.yul\":19812:19815   */\n      dup5\n        /* \"#utility.yul\":19808:19824   */\n      add\n        /* \"#utility.yul\":19801:19828   */\n      mstore\n        /* \"#utility.yul\":19737:19838   */\n    tag_501:\n        /* \"#utility.yul\":19586:19844   */\n      pop\n        /* \"#utility.yul\":19537:19844   */\n      pop\n      pop\n      pop\n      jump\t// out\n        /* \"#utility.yul\":19850:20170   */\n    tag_126:\n        /* \"#utility.yul\":19894:19900   */\n      0x00\n        /* \"#utility.yul\":19931:19932   */\n      0x02\n        /* \"#utility.yul\":19925:19929   */\n      dup3\n        /* \"#utility.yul\":19921:19933   */\n      div\n        /* \"#utility.yul\":19911:19933   */\n      swap1\n      pop\n        /* \"#utility.yul\":19978:19979   */\n      0x01\n        /* \"#utility.yul\":19972:19976   */\n      dup3\n        /* \"#utility.yul\":19968:19980   */\n      and\n        /* \"#utility.yul\":19999:20017   */\n      dup1\n        /* \"#utility.yul\":19989:20070   */\n      tag_503\n      jumpi\n        /* \"#utility.yul\":20055:20059   */\n      0x7f\n        /* \"#utility.yul\":20047:20053   */\n      dup3\n        /* \"#utility.yul\":20043:20060   */\n      and\n        /* \"#utility.yul\":20033:20060   */\n      swap2\n      pop\n        /* \"#utility.yul\":19989:20070   */\n    tag_503:\n        /* \"#utility.yul\":20117:20119   */\n      0x20\n        /* \"#utility.yul\":20109:20115   */\n      dup3\n        /* \"#utility.yul\":20106:20120   */\n      lt\n        /* \"#utility.yul\":20086:20104   */\n      dup2\n        /* \"#utility.yul\":20083:20121   */\n      eq\n        /* \"#utility.yul\":20080:20164   */\n      iszero\n      tag_504\n      jumpi\n        /* \"#utility.yul\":20136:20154   */\n      tag_505\n      tag_506\n      jump\t// in\n    tag_505:\n        /* \"#utility.yul\":20080:20164   */\n    tag_504:\n        /* \"#utility.yul\":19901:20170   */\n      pop\n        /* \"#utility.yul\":19850:20170   */\n      swap2\n      swap1\n      pop\n      jump\t// out\n        /* \"#utility.yul\":20176:20356   */\n    tag_484:\n        /* \"#utility.yul\":20224:20301   */\n      0x4e487b7100000000000000000000000000000000000000000000000000000000\n        /* \"#utility.yul\":20221:20222   */\n      0x00\n        /* \"#utility.yul\":20214:20302   */\n      mstore\n        /* \"#utility.yul\":20321:20325   */\n      0x11\n        /* \"#utility.yul\":20318:20319   */\n      0x04\n        /* \"#utility.yul\":20311:20326   */\n      mstore\n        /* \"#utility.yul\":20345:20349   */\n      0x24\n        /* \"#utility.yul\":20342:20343   */\n      0x00\n        /* \"#utility.yul\":20335:20350   */\n      revert\n        /* \"#utility.yul\":20362:20542   */\n    tag_506:\n        /* \"#utility.yul\":20410:20487   */\n      0x4e487b7100000000000000000000000000000000000000000000000000000000\n        /* \"#utility.yul\":20407:20408   */\n      0x00\n        /* \"#utility.yul\":20400:20488   */\n      mstore\n        /* \"#utility.yul\":20507:20511   */\n      0x22\n        /* \"#utility.yul\":20504:20505   */\n      0x04\n        /* \"#utility.yul\":20497:20512   */\n      mstore\n        /* \"#utility.yul\":20531:20535   */\n      0x24\n        /* \"#utility.yul\":20528:20529   */\n      0x00\n        /* \"#utility.yul\":20521:20536   */\n      revert\n        /* \"#utility.yul\":20548:20728   */\n    tag_182:\n        /* \"#utility.yul\":20596:20673   */\n      0x4e487b7100000000000000000000000000000000000000000000000000000000\n        /* \"#utility.yul\":20593:20594   */\n      0x00\n        /* \"#utility.yul\":20586:20674   */\n      mstore\n        /* \"#utility.yul\":20693:20697   */\n      0x32\n        /* \"#utility.yul\":20690:20691   */\n      0x04\n        /* \"#utility.yul\":20683:20698   */\n      mstore\n        /* \"#utility.yul\":20717:20721   */\n      0x24\n        /* \"#utility.yul\":20714:20715   */\n      0x00\n        /* \"#utility.yul\":20707:20722   */\n      revert\n        /* \"#utility.yul\":20857:20974   */\n    tag_298:\n        /* \"#utility.yul\":20966:20967   */\n      0x00\n        /* \"#utility.yul\":20963:20964   */\n      dup1\n        /* \"#utility.yul\":20956:20968   */\n      revert\n        /* \"#utility.yul\":20980:21082   */\n    tag_337:\n        /* \"#utility.yul\":21021:21027   */\n      0x00\n        /* \"#utility.yul\":21072:21074   */\n      0x1f\n        /* \"#utility.yul\":21068:21075   */\n      not\n        /* \"#utility.yul\":21063:21065   */\n      0x1f\n        /* \"#utility.yul\":21056:21061   */\n      dup4\n        /* \"#utility.yul\":21052:21066   */\n      add\n        /* \"#utility.yul\":21048:21076   */\n      and\n        /* \"#utility.yul\":21038:21076   */\n      swap1\n      pop\n        /* \"#utility.yul\":20980:21082   */\n      swap2\n      swap1\n      pop\n      jump\t// out\n        /* \"#utility.yul\":21088:21310   */\n    tag_342:\n        /* \"#utility.yul\":21228:21262   */\n      0x45524332303a207472616e7366657220746f20746865207a65726f2061646472\n        /* \"#utility.yul\":21224:21225   */\n      0x00\n        /* \"#utility.yul\":21216:21222   */\n      dup3\n        /* \"#utility.yul\":21212:21226   */\n      add\n        /* \"#utility.yul\":21205:21263   */\n      mstore\n        /* \"#utility.yul\":21297:21302   */\n      0x6573730000000000000000000000000000000000000000000000000000000000\n        /* \"#utility.yul\":21292:21294   */\n      0x20\n        /* \"#utility.yul\":21284:21290   */\n      dup3\n        /* \"#utility.yul\":21280:21295   */\n      add\n        /* \"#utility.yul\":21273:21303   */\n      mstore\n        /* \"#utility.yul\":21088:21310   */\n      pop\n      jump\t// out\n        /* \"#utility.yul\":21316:21486   */\n    tag_347:\n        /* \"#utility.yul\":21456:21478   */\n      0x485754546f6b656e3a20616c6c206d696e746564000000000000000000000000\n        /* \"#utility.yul\":21452:21453   */\n      0x00\n        /* \"#utility.yul\":21444:21450   */\n      dup3\n        /* \"#utility.yul\":21440:21454   */\n      add\n        /* \"#utility.yul\":21433:21479   */\n      mstore\n        /* \"#utility.yul\":21316:21486   */\n      pop\n      jump\t// out\n        /* \"#utility.yul\":21492:21713   */\n    tag_352:\n        /* \"#utility.yul\":21632:21666   */\n      0x45524332303a206275726e20616d6f756e7420657863656564732062616c616e\n        /* \"#utility.yul\":21628:21629   */\n      0x00\n        /* \"#utility.yul\":21620:21626   */\n      dup3\n        /* \"#utility.yul\":21616:21630   */\n      add\n        /* \"#utility.yul\":21609:21667   */\n      mstore\n        /* \"#utility.yul\":21701:21705   */\n      0x6365000000000000000000000000000000000000000000000000000000000000\n        /* \"#utility.yul\":21696:21698   */\n      0x20\n        /* \"#utility.yul\":21688:21694   */\n      dup3\n        /* \"#utility.yul\":21684:21699   */\n      add\n        /* \"#utility.yul\":21677:21706   */\n      mstore\n        /* \"#utility.yul\":21492:21713   */\n      pop\n      jump\t// out\n        /* \"#utility.yul\":21719:21944   */\n    tag_357:\n        /* \"#utility.yul\":21859:21893   */\n      0x4f776e61626c653a206e6577206f776e657220697320746865207a65726f2061\n        /* \"#utility.yul\":21855:21856   */\n      0x00\n        /* \"#utility.yul\":21847:21853   */\n      dup3\n        /* \"#utility.yul\":21843:21857   */\n      add\n        /* \"#utility.yul\":21836:21894   */\n      mstore\n        /* \"#utility.yul\":21928:21936   */\n      0x6464726573730000000000000000000000000000000000000000000000000000\n        /* \"#utility.yul\":21923:21925   */\n      0x20\n        /* \"#utility.yul\":21915:21921   */\n      dup3\n        /* \"#utility.yul\":21911:21926   */\n      add\n        /* \"#utility.yul\":21904:21937   */\n      mstore\n        /* \"#utility.yul\":21719:21944   */\n      pop\n      jump\t// out\n        /* \"#utility.yul\":21950:22171   */\n    tag_362:\n        /* \"#utility.yul\":22090:22124   */\n      0x45524332303a20617070726f766520746f20746865207a65726f206164647265\n        /* \"#utility.yul\":22086:22087   */\n      0x00\n        /* \"#utility.yul\":22078:22084   */\n      dup3\n        /* \"#utility.yul\":22074:22088   */\n      add\n        /* \"#utility.yul\":22067:22125   */\n      mstore\n        /* \"#utility.yul\":22159:22163   */\n      0x7373000000000000000000000000000000000000000000000000000000000000\n        /* \"#utility.yul\":22154:22156   */\n      0x20\n        /* \"#utility.yul\":22146:22152   */\n      dup3\n        /* \"#utility.yul\":22142:22157   */\n      add\n        /* \"#utility.yul\":22135:22164   */\n      mstore\n        /* \"#utility.yul\":21950:22171   */\n      pop\n      jump\t// out\n        /* \"#utility.yul\":22177:22397   */\n    tag_367:\n        /* \"#utility.yul\":22317:22351   */\n      0x485754546f6b656e3a206d696e74696e67206e6f7420616c6c6f776564207965\n        /* \"#utility.yul\":22313:22314   */\n      0x00\n        /* \"#utility.yul\":22305:22311   */\n      dup3\n        /* \"#utility.yul\":22301:22315   */\n      add\n        /* \"#utility.yul\":22294:22352   */\n      mstore\n        /* \"#utility.yul\":22386:22389   */\n      0x7400000000000000000000000000000000000000000000000000000000000000\n        /* \"#utility.yul\":22381:22383   */\n      0x20\n        /* \"#utility.yul\":22373:22379   */\n      dup3\n        /* \"#utility.yul\":22369:22384   */\n      add\n        /* \"#utility.yul\":22362:22390   */\n      mstore\n        /* \"#utility.yul\":22177:22397   */\n      pop\n      jump\t// out\n        /* \"#utility.yul\":22403:22628   */\n    tag_372:\n        /* \"#utility.yul\":22543:22577   */\n      0x45524332303a207472616e7366657220616d6f756e7420657863656564732062\n        /* \"#utility.yul\":22539:22540   */\n      0x00\n        /* \"#utility.yul\":22531:22537   */\n      dup3\n        /* \"#utility.yul\":22527:22541   */\n      add\n        /* \"#utility.yul\":22520:22578   */\n      mstore\n        /* \"#utility.yul\":22612:22620   */\n      0x616c616e63650000000000000000000000000000000000000000000000000000\n        /* \"#utility.yul\":22607:22609   */\n      0x20\n        /* \"#utility.yul\":22599:22605   */\n      dup3\n        /* \"#utility.yul\":22595:22610   */\n      add\n        /* \"#utility.yul\":22588:22621   */\n      mstore\n        /* \"#utility.yul\":22403:22628   */\n      pop\n      jump\t// out\n        /* \"#utility.yul\":22634:22857   */\n    tag_377:\n        /* \"#utility.yul\":22774:22808   */\n      0x485754546f6b656e3a2063616e6e6f7420626520746865207a65726f20616464\n        /* \"#utility.yul\":22770:22771   */\n      0x00\n        /* \"#utility.yul\":22762:22768   */\n      dup3\n        /* \"#utility.yul\":22758:22772   */\n      add\n        /* \"#utility.yul\":22751:22809   */\n      mstore\n        /* \"#utility.yul\":22843:22849   */\n      0x7265737300000000000000000000000000000000000000000000000000000000\n        /* \"#utility.yul\":22838:22840   */\n      0x20\n        /* \"#utility.yul\":22830:22836   */\n      dup3\n        /* \"#utility.yul\":22826:22841   */\n      add\n        /* \"#utility.yul\":22819:22850   */\n      mstore\n        /* \"#utility.yul\":22634:22857   */\n      pop\n      jump\t// out\n        /* \"#utility.yul\":22863:23090   */\n    tag_382:\n        /* \"#utility.yul\":23003:23037   */\n      0x45524332303a207472616e7366657220616d6f756e7420657863656564732061\n        /* \"#utility.yul\":22999:23000   */\n      0x00\n        /* \"#utility.yul\":22991:22997   */\n      dup3\n        /* \"#utility.yul\":22987:23001   */\n      add\n        /* \"#utility.yul\":22980:23038   */\n      mstore\n        /* \"#utility.yul\":23072:23082   */\n      0x6c6c6f77616e6365000000000000000000000000000000000000000000000000\n        /* \"#utility.yul\":23067:23069   */\n      0x20\n        /* \"#utility.yul\":23059:23065   */\n      dup3\n        /* \"#utility.yul\":23055:23070   */\n      add\n        /* \"#utility.yul\":23048:23083   */\n      mstore\n        /* \"#utility.yul\":22863:23090   */\n      pop\n      jump\t// out\n        /* \"#utility.yul\":23096:23278   */\n    tag_387:\n        /* \"#utility.yul\":23236:23270   */\n      0x4f776e61626c653a2063616c6c6572206973206e6f7420746865206f776e6572\n        /* \"#utility.yul\":23232:23233   */\n      0x00\n        /* \"#utility.yul\":23224:23230   */\n      dup3\n        /* \"#utility.yul\":23220:23234   */\n      add\n        /* \"#utility.yul\":23213:23271   */\n      mstore\n        /* \"#utility.yul\":23096:23278   */\n      pop\n      jump\t// out\n        /* \"#utility.yul\":23284:23504   */\n    tag_392:\n        /* \"#utility.yul\":23424:23458   */\n      0x45524332303a206275726e2066726f6d20746865207a65726f20616464726573\n        /* \"#utility.yul\":23420:23421   */\n      0x00\n        /* \"#utility.yul\":23412:23418   */\n      dup3\n        /* \"#utility.yul\":23408:23422   */\n      add\n        /* \"#utility.yul\":23401:23459   */\n      mstore\n        /* \"#utility.yul\":23493:23496   */\n      0x7300000000000000000000000000000000000000000000000000000000000000\n        /* \"#utility.yul\":23488:23490   */\n      0x20\n        /* \"#utility.yul\":23480:23486   */\n      dup3\n        /* \"#utility.yul\":23476:23491   */\n      add\n        /* \"#utility.yul\":23469:23497   */\n      mstore\n        /* \"#utility.yul\":23284:23504   */\n      pop\n      jump\t// out\n        /* \"#utility.yul\":23510:23734   */\n    tag_397:\n        /* \"#utility.yul\":23650:23684   */\n      0x45524332303a207472616e736665722066726f6d20746865207a65726f206164\n        /* \"#utility.yul\":23646:23647   */\n      0x00\n        /* \"#utility.yul\":23638:23644   */\n      dup3\n        /* \"#utility.yul\":23634:23648   */\n      add\n        /* \"#utility.yul\":23627:23685   */\n      mstore\n        /* \"#utility.yul\":23719:23726   */\n      0x6472657373000000000000000000000000000000000000000000000000000000\n        /* \"#utility.yul\":23714:23716   */\n      0x20\n        /* \"#utility.yul\":23706:23712   */\n      dup3\n        /* \"#utility.yul\":23702:23717   */\n      add\n        /* \"#utility.yul\":23695:23727   */\n      mstore\n        /* \"#utility.yul\":23510:23734   */\n      pop\n      jump\t// out\n        /* \"#utility.yul\":23740:23914   */\n    tag_402:\n        /* \"#utility.yul\":23880:23906   */\n      0x485754546f6b656e3a20696e76616c6964206d696e7465720000000000000000\n        /* \"#utility.yul\":23876:23877   */\n      0x00\n        /* \"#utility.yul\":23868:23874   */\n      dup3\n        /* \"#utility.yul\":23864:23878   */\n      add\n        /* \"#utility.yul\":23857:23907   */\n      mstore\n        /* \"#utility.yul\":23740:23914   */\n      pop\n      jump\t// out\n        /* \"#utility.yul\":23920:24143   */\n    tag_407:\n        /* \"#utility.yul\":24060:24094   */\n      0x45524332303a20617070726f76652066726f6d20746865207a65726f20616464\n        /* \"#utility.yul\":24056:24057   */\n      0x00\n        /* \"#utility.yul\":24048:24054   */\n      dup3\n        /* \"#utility.yul\":24044:24058   */\n      add\n        /* \"#utility.yul\":24037:24095   */\n      mstore\n        /* \"#utility.yul\":24129:24135   */\n      0x7265737300000000000000000000000000000000000000000000000000000000\n        /* \"#utility.yul\":24124:24126   */\n      0x20\n        /* \"#utility.yul\":24116:24122   */\n      dup3\n        /* \"#utility.yul\":24112:24127   */\n      add\n        /* \"#utility.yul\":24105:24136   */\n      mstore\n        /* \"#utility.yul\":23920:24143   */\n      pop\n      jump\t// out\n        /* \"#utility.yul\":24149:24323   */\n    tag_412:\n        /* \"#utility.yul\":24289:24315   */\n      0x485754546f6b656e3a206275726e2066726f6d207a65726f0000000000000000\n        /* \"#utility.yul\":24285:24286   */\n      0x00\n        /* \"#utility.yul\":24277:24283   */\n      dup3\n        /* \"#utility.yul\":24273:24287   */\n      add\n        /* \"#utility.yul\":24266:24316   */\n      mstore\n        /* \"#utility.yul\":24149:24323   */\n      pop\n      jump\t// out\n        /* \"#utility.yul\":24329:24553   */\n    tag_417:\n        /* \"#utility.yul\":24469:24503   */\n      0x45524332303a2064656372656173656420616c6c6f77616e63652062656c6f77\n        /* \"#utility.yul\":24465:24466   */\n      0x00\n        /* \"#utility.yul\":24457:24463   */\n      dup3\n        /* \"#utility.yul\":24453:24467   */\n      add\n        /* \"#utility.yul\":24446:24504   */\n      mstore\n        /* \"#utility.yul\":24538:24545   */\n      0x207a65726f000000000000000000000000000000000000000000000000000000\n        /* \"#utility.yul\":24533:24535   */\n      0x20\n        /* \"#utility.yul\":24525:24531   */\n      dup3\n        /* \"#utility.yul\":24521:24536   */\n      add\n        /* \"#utility.yul\":24514:24546   */\n      mstore\n        /* \"#utility.yul\":24329:24553   */\n      pop\n      jump\t// out\n        /* \"#utility.yul\":24559:24740   */\n    tag_422:\n        /* \"#utility.yul\":24699:24732   */\n      0x45524332303a206d696e7420746f20746865207a65726f206164647265737300\n        /* \"#utility.yul\":24695:24696   */\n      0x00\n        /* \"#utility.yul\":24687:24693   */\n      dup3\n        /* \"#utility.yul\":24683:24697   */\n      add\n        /* \"#utility.yul\":24676:24733   */\n      mstore\n        /* \"#utility.yul\":24559:24740   */\n      pop\n      jump\t// out\n        /* \"#utility.yul\":24746:24868   */\n    tag_290:\n        /* \"#utility.yul\":24819:24843   */\n      tag_532\n        /* \"#utility.yul\":24837:24842   */\n      dup2\n        /* \"#utility.yul\":24819:24843   */\n      tag_323\n      jump\t// in\n    tag_532:\n        /* \"#utility.yul\":24812:24817   */\n      dup2\n        /* \"#utility.yul\":24809:24844   */\n      eq\n        /* \"#utility.yul\":24799:24862   */\n      tag_533\n      jumpi\n        /* \"#utility.yul\":24858:24859   */\n      0x00\n        /* \"#utility.yul\":24855:24856   */\n      dup1\n        /* \"#utility.yul\":24848:24860   */\n      revert\n        /* \"#utility.yul\":24799:24862   */\n    tag_533:\n        /* \"#utility.yul\":24746:24868   */\n      pop\n      jump\t// out\n        /* \"#utility.yul\":24874:24996   */\n    tag_294:\n        /* \"#utility.yul\":24947:24971   */\n      tag_535\n        /* \"#utility.yul\":24965:24970   */\n      dup2\n        /* \"#utility.yul\":24947:24971   */\n      tag_426\n      jump\t// in\n    tag_535:\n        /* \"#utility.yul\":24940:24945   */\n      dup2\n        /* \"#utility.yul\":24937:24972   */\n      eq\n        /* \"#utility.yul\":24927:24990   */\n      tag_536\n      jumpi\n        /* \"#utility.yul\":24986:24987   */\n      0x00\n        /* \"#utility.yul\":24983:24984   */\n      dup1\n        /* \"#utility.yul\":24976:24988   */\n      revert\n        /* \"#utility.yul\":24927:24990   */\n    tag_536:\n        /* \"#utility.yul\":24874:24996   */\n      pop\n      jump\t// out\n\n    auxdata: 0xa2646970667358221220c81aa32dbf6b44ccac5124efe52fd583930da8ef845861c3e374fd3c934cc8b464736f6c63430008070033\n}\n",
				"bytecode": {
					"linkReferences": {},
					"object": "60806040526000600d553480156200001657600080fd5b506040518060400160405280601081526020017f486f6e6f72576f726c6420546f6b656e000000000000000000000000000000008152506040518060400160405280600381526020017f485754000000000000000000000000000000000000000000000000000000000081525081600390805190602001906200009b929190620002c5565b508060049080519060200190620000b4929190620002c5565b505050620000d7620000cb620001ee60201b60201c565b620001f660201b60201c565b6000620000e9620002bc60201b60201c565b60ff16600a620000fa9190620003d0565b9050806317d784006200010e91906200050d565b60086000600581106200012657620001256200060c565b5b018190555080630d693a406200013d91906200050d565b60086001600581106200015557620001546200060c565b5b018190555080630a6e49c06200016c91906200050d565b60086002600581106200018457620001836200060c565b5b01819055508063077359406200019b91906200050d565b6008600360058110620001b357620001b26200060c565b5b01819055508063047868c0620001ca91906200050d565b6008600460058110620001e257620001e16200060c565b5b01819055505062000648565b600033905090565b6000600560009054906101000a900473ffffffffffffffffffffffffffffffffffffffff16905081600560006101000a81548173ffffffffffffffffffffffffffffffffffffffff021916908373ffffffffffffffffffffffffffffffffffffffff1602179055508173ffffffffffffffffffffffffffffffffffffffff168173ffffffffffffffffffffffffffffffffffffffff167f8be0079c531659141344cd1fd0a4f28419497f9722a3daafe3b4186f6b6457e060405160405180910390a35050565b60006012905090565b828054620002d39062000578565b90600052602060002090601f016020900481019282620002f7576000855562000343565b82601f106200031257805160ff191683800117855562000343565b8280016001018555821562000343579182015b828111156200034257825182559160200191906001019062000325565b5b50905062000352919062000356565b5090565b5b808211156200037157600081600090555060010162000357565b5090565b6000808291508390505b6001851115620003c7578086048111156200039f576200039e620005ae565b5b6001851615620003af5780820291505b8081029050620003bf856200063b565b94506200037f565b94509492505050565b6000620003dd826200056e565b9150620003ea836200056e565b9250620004197fffffffffffffffffffffffffffffffffffffffffffffffffffffffffffffffff848462000421565b905092915050565b60008262000433576001905062000506565b8162000443576000905062000506565b81600181146200045c576002811462000467576200049d565b600191505062000506565b60ff8411156200047c576200047b620005ae565b5b8360020a915084821115620004965762000495620005ae565b5b5062000506565b5060208310610133831016604e8410600b8410161715620004d75782820a905083811115620004d157620004d0620005ae565b5b62000506565b620004e6848484600162000375565b925090508184048111156200050057620004ff620005ae565b5b81810290505b9392505050565b60006200051a826200056e565b915062000527836200056e565b9250817fffffffffffffffffffffffffffffffffffffffffffffffffffffffffffffffff0483118215151615620005635762000562620005ae565b5b828202905092915050565b6000819050919050565b600060028204905060018216806200059157607f821691505b60208210811415620005a857620005a7620005dd565b5b50919050565b7f4e487b7100000000000000000000000000000000000000000000000000000000600052601160045260246000fd5b7f4e487b7100000000000000000000000000000000000000000000000000000000600052602260045260246000fd5b7f4e487b7100000000000000000000000000000000000000000000000000000000600052603260045260246000fd5b60008160011c9050919050565b61254280620006586000396000f3fe608060405234801561001057600080fd5b50600436106101735760003560e01c8063755cc41e116100de578063a457c2d711610097578063be146adc11610071578063be146adc14610450578063c0972cc41461046e578063dd62ed3e1461048c578063f2fde38b146104bc57610173565b8063a457c2d7146103d2578063a5a302d314610402578063a9059cbb1461042057610173565b8063755cc41e1461032057806379cc67901461033e57806384e7e3d31461035a5780638da5cb5b1461037857806395d89b41146103965780639d463520146103b457610173565b806336031a461161013057806336031a461461024e578063395093511461027e57806342966c68146102ae5780636a627842146102ca57806370a08231146102e6578063715018a61461031657610173565b806306fdde0314610178578063095ea7b31461019657806318160ddd146101c657806323b872dd146101e457806329dbecb114610214578063313ce56714610230575b600080fd5b6101806104d8565b60405161018d9190611be2565b60405180910390f35b6101b060048036038101906101ab9190611877565b61056a565b6040516101bd9190611bc7565b60405180910390f35b6101ce610588565b6040516101db9190611e24565b60405180910390f35b6101fe60048036038101906101f99190611824565b610592565b60405161020b9190611bc7565b60405180910390f35b61022e600480360381019061022991906117b7565b61068a565b005b6102386107ba565b6040516102459190611e3f565b60405180910390f35b610268600480360381019061026391906118b7565b6107c3565b6040516102759190611e24565b60405180910390f35b61029860048036038101906102939190611877565b6107de565b6040516102a59190611bc7565b60405180910390f35b6102c860048036038101906102c391906118b7565b61088a565b005b6102e460048036038101906102df91906117b7565b610897565b005b61030060048036038101906102fb91906117b7565b610a0c565b60405161030d9190611e24565b60405180910390f35b61031e610a54565b005b610328610adc565b6040516103359190611e24565b60405180910390f35b61035860048036038101906103539190611877565b610ae2565b005b610362610b86565b60405161036f9190611e24565b60405180910390f35b610380610b8e565b60405161038d9190611bac565b60405180910390f35b61039e610bb8565b6040516103ab9190611be2565b60405180910390f35b6103bc610c4a565b6040516103c99190611e24565b60405180910390f35b6103ec60048036038101906103e79190611877565b610c50565b6040516103f99190611bc7565b60405180910390f35b61040a610d3b565b6040516104179190611bac565b60405180910390f35b61043a60048036038101906104359190611877565b610d61565b6040516104479190611bc7565b60405180910390f35b610458610d7f565b6040516104659190611e24565b60405180910390f35b610476610d98565b6040516104839190611e24565b60405180910390f35b6104a660048036038101906104a191906117e4565b610d9d565b6040516104b39190611e24565b60405180910390f35b6104d660048036038101906104d191906117b7565b610e24565b005b6060600380546104e790611f88565b80601f016020809104026020016040519081016040528092919081815260200182805461051390611f88565b80156105605780601f1061053557610100808354040283529160200191610560565b820191906000526020600020905b81548152906001019060200180831161054357829003601f168201915b5050505050905090565b600061057e610577610f1c565b8484610f24565b6001905092915050565b6000600254905090565b600061059f8484846110ef565b6000600160008673ffffffffffffffffffffffffffffffffffffffff1673ffffffffffffffffffffffffffffffffffffffff16815260200190815260200160002060006105ea610f1c565b73ffffffffffffffffffffffffffffffffffffffff1673ffffffffffffffffffffffffffffffffffffffff1681526020019081526020016000205490508281101561066a576040517f08c379a000000000000000000000000000000000000000000000000000000000815260040161066190611d04565b60405180910390fd5b61067e85610676610f1c565b858403610f24565b60019150509392505050565b610692610f1c565b73ffffffffffffffffffffffffffffffffffffffff166106b0610b8e565b73ffffffffffffffffffffffffffffffffffffffff1614610706576040517f08c379a00000000000000000000000000000000000000000000000000000000081526004016106fd90611d24565b60405180910390fd5b600073ffffffffffffffffffffffffffffffffffffffff168173ffffffffffffffffffffffffffffffffffffffff161415610776576040517f08c379a000000000000000000000000000000000000000000000000000000000815260040161076d90611ce4565b60405180910390fd5b80600660006101000a81548173ffffffffffffffffffffffffffffffffffffffff021916908373ffffffffffffffffffffffffffffffffffffffff16021790555050565b60006012905090565b600881600581106107d357600080fd5b016000915090505481565b60006108806107eb610f1c565b8484600160006107f9610f1c565b73ffffffffffffffffffffffffffffffffffffffff1673ffffffffffffffffffffffffffffffffffffffff16815260200190815260200160002060008873ffffffffffffffffffffffffffffffffffffffff1673ffffffffffffffffffffffffffffffffffffffff1681526020019081526020016000205461087b9190611e76565b610f24565b6001905092915050565b6108943382611370565b50565b600660009054906101000a900473ffffffffffffffffffffffffffffffffffffffff1673ffffffffffffffffffffffffffffffffffffffff163373ffffffffffffffffffffffffffffffffffffffff1614610927576040517f08c379a000000000000000000000000000000000000000000000000000000000815260040161091e90611d84565b60405180910390fd5b6005600d541061096c576040517f08c379a000000000000000000000000000000000000000000000000000000000815260040161096390611c24565b60405180910390fd5b600060075411156109c15742610980610d7f565b106109c0576040517f08c379a00000000000000000000000000000000000000000000000000000000081526004016109b790611ca4565b60405180910390fd5b5b60006008600d54600581106109d9576109d8612018565b5b015490506109e78282611547565b6001600d60008282546109fa9190611e76565b92505081905550426007819055505050565b60008060008373ffffffffffffffffffffffffffffffffffffffff1673ffffffffffffffffffffffffffffffffffffffff168152602001908152602001600020549050919050565b610a5c610f1c565b73ffffffffffffffffffffffffffffffffffffffff16610a7a610b8e565b73ffffffffffffffffffffffffffffffffffffffff1614610ad0576040517f08c379a0000000000000000000000000000000000000000000000000000000008152600401610ac790611d24565b60405180910390fd5b610ada60006116a7565b565b600d5481565b600073ffffffffffffffffffffffffffffffffffffffff168273ffffffffffffffffffffffffffffffffffffffff161415610b52576040517f08c379a0000000000000000000000000000000000000000000000000000000008152600401610b4990611dc4565b60405180910390fd5b610b788233610b7384610b658733610d9d565b61176d90919063ffffffff16565b610f24565b610b828282611370565b5050565b6301e1338081565b6000600560009054906101000a900473ffffffffffffffffffffffffffffffffffffffff16905090565b606060048054610bc790611f88565b80601f0160208091040260200160405190810160405280929190818152602001828054610bf390611f88565b8015610c405780601f10610c1557610100808354040283529160200191610c40565b820191906000526020600020905b815481529060010190602001808311610c2357829003601f168201915b5050505050905090565b60075481565b60008060016000610c5f610f1c565b73ffffffffffffffffffffffffffffffffffffffff1673ffffffffffffffffffffffffffffffffffffffff16815260200190815260200160002060008573ffffffffffffffffffffffffffffffffffffffff1673ffffffffffffffffffffffffffffffffffffffff16815260200190815260200160002054905082811015610d1c576040517f08c379a0000000000000000000000000000000000000000000000000000000008152600401610d1390611de4565b60405180910390fd5b610d30610d27610f1c565b85858403610f24565b600191505092915050565b600660009054906101000a900473ffffffffffffffffffffffffffffffffffffffff1681565b6000610d75610d6e610f1c565b84846110ef565b6001905092915050565b60006301e13380600754610d939190611e76565b905090565b600581565b6000600160008473ffffffffffffffffffffffffffffffffffffffff1673ffffffffffffffffffffffffffffffffffffffff16815260200190815260200160002060008373ffffffffffffffffffffffffffffffffffffffff1673ffffffffffffffffffffffffffffffffffffffff16815260200190815260200160002054905092915050565b610e2c610f1c565b73ffffffffffffffffffffffffffffffffffffffff16610e4a610b8e565b73ffffffffffffffffffffffffffffffffffffffff1614610ea0576040517f08c379a0000000000000000000000000000000000000000000000000000000008152600401610e9790611d24565b60405180910390fd5b600073ffffffffffffffffffffffffffffffffffffffff168173ffffffffffffffffffffffffffffffffffffffff161415610f10576040517f08c379a0000000000000000000000000000000000000000000000000000000008152600401610f0790611c64565b60405180910390fd5b610f19816116a7565b50565b600033905090565b600073ffffffffffffffffffffffffffffffffffffffff168373ffffffffffffffffffffffffffffffffffffffff161415610f94576040517f08c379a0000000000000000000000000000000000000000000000000000000008152600401610f8b90611da4565b60405180910390fd5b600073ffffffffffffffffffffffffffffffffffffffff168273ffffffffffffffffffffffffffffffffffffffff161415611004576040517f08c379a0000000000000000000000000000000000000000000000000000000008152600401610ffb90611c84565b60405180910390fd5b80600160008573ffffffffffffffffffffffffffffffffffffffff1673ffffffffffffffffffffffffffffffffffffffff16815260200190815260200160002060008473ffffffffffffffffffffffffffffffffffffffff1673ffffffffffffffffffffffffffffffffffffffff168152602001908152602001600020819055508173ffffffffffffffffffffffffffffffffffffffff168373ffffffffffffffffffffffffffffffffffffffff167f8c5be1e5ebec7d5bd14f71427d1e84f3dd0314c0f7b2291e5b200ac8c7c3b925836040516110e29190611e24565b60405180910390a3505050565b600073ffffffffffffffffffffffffffffffffffffffff168373ffffffffffffffffffffffffffffffffffffffff16141561115f576040517f08c379a000000000000000000000000000000000000000000000000000000000815260040161115690611d64565b60405180910390fd5b600073ffffffffffffffffffffffffffffffffffffffff168273ffffffffffffffffffffffffffffffffffffffff1614156111cf576040517f08c379a00000000000000000000000000000000000000000000000000000000081526004016111c690611c04565b60405180910390fd5b6111da838383611783565b60008060008573ffffffffffffffffffffffffffffffffffffffff1673ffffffffffffffffffffffffffffffffffffffff16815260200190815260200160002054905081811015611260576040517f08c379a000000000000000000000000000000000000000000000000000000000815260040161125790611cc4565b60405180910390fd5b8181036000808673ffffffffffffffffffffffffffffffffffffffff1673ffffffffffffffffffffffffffffffffffffffff16815260200190815260200160002081905550816000808573ffffffffffffffffffffffffffffffffffffffff1673ffffffffffffffffffffffffffffffffffffffff16815260200190815260200160002060008282546112f39190611e76565b925050819055508273ffffffffffffffffffffffffffffffffffffffff168473ffffffffffffffffffffffffffffffffffffffff167fddf252ad1be2c89b69c2b068fc378daa952ba7f163c4a11628f55a4df523b3ef846040516113579190611e24565b60405180910390a361136a848484611788565b50505050565b600073ffffffffffffffffffffffffffffffffffffffff168273ffffffffffffffffffffffffffffffffffffffff1614156113e0576040517f08c379a00000000000000000000000000000000000000000000000000000000081526004016113d790611d44565b60405180910390fd5b6113ec82600083611783565b60008060008473ffffffffffffffffffffffffffffffffffffffff1673ffffffffffffffffffffffffffffffffffffffff16815260200190815260200160002054905081811015611472576040517f08c379a000000000000000000000000000000000000000000000000000000000815260040161146990611c44565b60405180910390fd5b8181036000808573ffffffffffffffffffffffffffffffffffffffff1673ffffffffffffffffffffffffffffffffffffffff1681526020019081526020016000208190555081600260008282546114c99190611ecc565b92505081905550600073ffffffffffffffffffffffffffffffffffffffff168373ffffffffffffffffffffffffffffffffffffffff167fddf252ad1be2c89b69c2b068fc378daa952ba7f163c4a11628f55a4df523b3ef8460405161152e9190611e24565b60405180910390a361154283600084611788565b505050565b600073ffffffffffffffffffffffffffffffffffffffff168273ffffffffffffffffffffffffffffffffffffffff1614156115b7576040517f08c379a00000000000000000000000000000000000000000000000000000000081526004016115ae90611e04565b60405180910390fd5b6115c360008383611783565b80600260008282546115d59190611e76565b92505081905550806000808473ffffffffffffffffffffffffffffffffffffffff1673ffffffffffffffffffffffffffffffffffffffff168152602001908152602001600020600082825461162a9190611e76565b925050819055508173ffffffffffffffffffffffffffffffffffffffff16600073ffffffffffffffffffffffffffffffffffffffff167fddf252ad1be2c89b69c2b068fc378daa952ba7f163c4a11628f55a4df523b3ef8360405161168f9190611e24565b60405180910390a36116a360008383611788565b5050565b6000600560009054906101000a900473ffffffffffffffffffffffffffffffffffffffff16905081600560006101000a81548173ffffffffffffffffffffffffffffffffffffffff021916908373ffffffffffffffffffffffffffffffffffffffff1602179055508173ffffffffffffffffffffffffffffffffffffffff168173ffffffffffffffffffffffffffffffffffffffff167f8be0079c531659141344cd1fd0a4f28419497f9722a3daafe3b4186f6b6457e060405160405180910390a35050565b6000818361177b9190611ecc565b905092915050565b505050565b505050565b60008135905061179c816124de565b92915050565b6000813590506117b1816124f5565b92915050565b6000602082840312156117cd576117cc612047565b5b60006117db8482850161178d565b91505092915050565b600080604083850312156117fb576117fa612047565b5b60006118098582860161178d565b925050602061181a8582860161178d565b9150509250929050565b60008060006060848603121561183d5761183c612047565b5b600061184b8682870161178d565b935050602061185c8682870161178d565b925050604061186d868287016117a2565b9150509250925092565b6000806040838503121561188e5761188d612047565b5b600061189c8582860161178d565b92505060206118ad858286016117a2565b9150509250929050565b6000602082840312156118cd576118cc612047565b5b60006118db848285016117a2565b91505092915050565b6118ed81611f00565b82525050565b6118fc81611f12565b82525050565b600061190d82611e5a565b6119178185611e65565b9350611927818560208601611f55565b6119308161204c565b840191505092915050565b6000611948602383611e65565b91506119538261205d565b604082019050919050565b600061196b601483611e65565b9150611976826120ac565b602082019050919050565b600061198e602283611e65565b9150611999826120d5565b604082019050919050565b60006119b1602683611e65565b91506119bc82612124565b604082019050919050565b60006119d4602283611e65565b91506119df82612173565b604082019050919050565b60006119f7602183611e65565b9150611a02826121c2565b604082019050919050565b6000611a1a602683611e65565b9150611a2582612211565b604082019050919050565b6000611a3d602483611e65565b9150611a4882612260565b604082019050919050565b6000611a60602883611e65565b9150611a6b826122af565b604082019050919050565b6000611a83602083611e65565b9150611a8e826122fe565b602082019050919050565b6000611aa6602183611e65565b9150611ab182612327565b604082019050919050565b6000611ac9602583611e65565b9150611ad482612376565b604082019050919050565b6000611aec601883611e65565b9150611af7826123c5565b602082019050919050565b6000611b0f602483611e65565b9150611b1a826123ee565b604082019050919050565b6000611b32601883611e65565b9150611b3d8261243d565b602082019050919050565b6000611b55602583611e65565b9150611b6082612466565b604082019050919050565b6000611b78601f83611e65565b9150611b83826124b5565b602082019050919050565b611b9781611f3e565b82525050565b611ba681611f48565b82525050565b6000602082019050611bc160008301846118e4565b92915050565b6000602082019050611bdc60008301846118f3565b92915050565b60006020820190508181036000830152611bfc8184611902565b905092915050565b60006020820190508181036000830152611c1d8161193b565b9050919050565b60006020820190508181036000830152611c3d8161195e565b9050919050565b60006020820190508181036000830152611c5d81611981565b9050919050565b60006020820190508181036000830152611c7d816119a4565b9050919050565b60006020820190508181036000830152611c9d816119c7565b9050919050565b60006020820190508181036000830152611cbd816119ea565b9050919050565b60006020820190508181036000830152611cdd81611a0d565b9050919050565b60006020820190508181036000830152611cfd81611a30565b9050919050565b60006020820190508181036000830152611d1d81611a53565b9050919050565b60006020820190508181036000830152611d3d81611a76565b9050919050565b60006020820190508181036000830152611d5d81611a99565b9050919050565b60006020820190508181036000830152611d7d81611abc565b9050919050565b60006020820190508181036000830152611d9d81611adf565b9050919050565b60006020820190508181036000830152611dbd81611b02565b9050919050565b60006020820190508181036000830152611ddd81611b25565b9050919050565b60006020820190508181036000830152611dfd81611b48565b9050919050565b60006020820190508181036000830152611e1d81611b6b565b9050919050565b6000602082019050611e396000830184611b8e565b92915050565b6000602082019050611e546000830184611b9d565b92915050565b600081519050919050565b600082825260208201905092915050565b6000611e8182611f3e565b9150611e8c83611f3e565b9250827fffffffffffffffffffffffffffffffffffffffffffffffffffffffffffffffff03821115611ec157611ec0611fba565b5b828201905092915050565b6000611ed782611f3e565b9150611ee283611f3e565b925082821015611ef557611ef4611fba565b5b828203905092915050565b6000611f0b82611f1e565b9050919050565b60008115159050919050565b600073ffffffffffffffffffffffffffffffffffffffff82169050919050565b6000819050919050565b600060ff82169050919050565b60005b83811015611f73578082015181840152602081019050611f58565b83811115611f82576000848401525b50505050565b60006002820490506001821680611fa057607f821691505b60208210811415611fb457611fb3611fe9565b5b50919050565b7f4e487b7100000000000000000000000000000000000000000000000000000000600052601160045260246000fd5b7f4e487b7100000000000000000000000000000000000000000000000000000000600052602260045260246000fd5b7f4e487b7100000000000000000000000000000000000000000000000000000000600052603260045260246000fd5b600080fd5b6000601f19601f8301169050919050565b7f45524332303a207472616e7366657220746f20746865207a65726f206164647260008201527f6573730000000000000000000000000000000000000000000000000000000000602082015250565b7f485754546f6b656e3a20616c6c206d696e746564000000000000000000000000600082015250565b7f45524332303a206275726e20616d6f756e7420657863656564732062616c616e60008201527f6365000000000000000000000000000000000000000000000000000000000000602082015250565b7f4f776e61626c653a206e6577206f776e657220697320746865207a65726f206160008201527f6464726573730000000000000000000000000000000000000000000000000000602082015250565b7f45524332303a20617070726f766520746f20746865207a65726f20616464726560008201527f7373000000000000000000000000000000000000000000000000000000000000602082015250565b7f485754546f6b656e3a206d696e74696e67206e6f7420616c6c6f77656420796560008201527f7400000000000000000000000000000000000000000000000000000000000000602082015250565b7f45524332303a207472616e7366657220616d6f756e742065786365656473206260008201527f616c616e63650000000000000000000000000000000000000000000000000000602082015250565b7f485754546f6b656e3a2063616e6e6f7420626520746865207a65726f2061646460008201527f7265737300000000000000000000000000000000000000000000000000000000602082015250565b7f45524332303a207472616e7366657220616d6f756e742065786365656473206160008201527f6c6c6f77616e6365000000000000000000000000000000000000000000000000602082015250565b7f4f776e61626c653a2063616c6c6572206973206e6f7420746865206f776e6572600082015250565b7f45524332303a206275726e2066726f6d20746865207a65726f2061646472657360008201527f7300000000000000000000000000000000000000000000000000000000000000602082015250565b7f45524332303a207472616e736665722066726f6d20746865207a65726f20616460008201527f6472657373000000000000000000000000000000000000000000000000000000602082015250565b7f485754546f6b656e3a20696e76616c6964206d696e7465720000000000000000600082015250565b7f45524332303a20617070726f76652066726f6d20746865207a65726f2061646460008201527f7265737300000000000000000000000000000000000000000000000000000000602082015250565b7f485754546f6b656e3a206275726e2066726f6d207a65726f0000000000000000600082015250565b7f45524332303a2064656372656173656420616c6c6f77616e63652062656c6f7760008201527f207a65726f000000000000000000000000000000000000000000000000000000602082015250565b7f45524332303a206d696e7420746f20746865207a65726f206164647265737300600082015250565b6124e781611f00565b81146124f257600080fd5b50565b6124fe81611f3e565b811461250957600080fd5b5056fea2646970667358221220c81aa32dbf6b44ccac5124efe52fd583930da8ef845861c3e374fd3c934cc8b464736f6c63430008070033",
					"opcodes": "PUSH1 0x80 PUSH1 0x40 MSTORE PUSH1 0x0 PUSH1 0xD SSTORE CALLVALUE DUP1 ISZERO PUSH3 0x16 JUMPI PUSH1 0x0 DUP1 REVERT JUMPDEST POP PUSH1 0x40 MLOAD DUP1 PUSH1 0x40 ADD PUSH1 0x40 MSTORE DUP1 PUSH1 0x10 DUP2 MSTORE PUSH1 0x20 ADD PUSH32 0x486F6E6F72576F726C6420546F6B656E00000000000000000000000000000000 DUP2 MSTORE POP PUSH1 0x40 MLOAD DUP1 PUSH1 0x40 ADD PUSH1 0x40 MSTORE DUP1 PUSH1 0x3 DUP2 MSTORE PUSH1 0x20 ADD PUSH32 0x4857540000000000000000000000000000000000000000000000000000000000 DUP2 MSTORE POP DUP2 PUSH1 0x3 SWAP1 DUP1 MLOAD SWAP1 PUSH1 0x20 ADD SWAP1 PUSH3 0x9B SWAP3 SWAP2 SWAP1 PUSH3 0x2C5 JUMP JUMPDEST POP DUP1 PUSH1 0x4 SWAP1 DUP1 MLOAD SWAP1 PUSH1 0x20 ADD SWAP1 PUSH3 0xB4 SWAP3 SWAP2 SWAP1 PUSH3 0x2C5 JUMP JUMPDEST POP POP POP PUSH3 0xD7 PUSH3 0xCB PUSH3 0x1EE PUSH1 0x20 SHL PUSH1 0x20 SHR JUMP JUMPDEST PUSH3 0x1F6 PUSH1 0x20 SHL PUSH1 0x20 SHR JUMP JUMPDEST PUSH1 0x0 PUSH3 0xE9 PUSH3 0x2BC PUSH1 0x20 SHL PUSH1 0x20 SHR JUMP JUMPDEST PUSH1 0xFF AND PUSH1 0xA PUSH3 0xFA SWAP2 SWAP1 PUSH3 0x3D0 JUMP JUMPDEST SWAP1 POP DUP1 PUSH4 0x17D78400 PUSH3 0x10E SWAP2 SWAP1 PUSH3 0x50D JUMP JUMPDEST PUSH1 0x8 PUSH1 0x0 PUSH1 0x5 DUP2 LT PUSH3 0x126 JUMPI PUSH3 0x125 PUSH3 0x60C JUMP JUMPDEST JUMPDEST ADD DUP2 SWAP1 SSTORE POP DUP1 PUSH4 0xD693A40 PUSH3 0x13D SWAP2 SWAP1 PUSH3 0x50D JUMP JUMPDEST PUSH1 0x8 PUSH1 0x1 PUSH1 0x5 DUP2 LT PUSH3 0x155 JUMPI PUSH3 0x154 PUSH3 0x60C JUMP JUMPDEST JUMPDEST ADD DUP2 SWAP1 SSTORE POP DUP1 PUSH4 0xA6E49C0 PUSH3 0x16C SWAP2 SWAP1 PUSH3 0x50D JUMP JUMPDEST PUSH1 0x8 PUSH1 0x2 PUSH1 0x5 DUP2 LT PUSH3 0x184 JUMPI PUSH3 0x183 PUSH3 0x60C JUMP JUMPDEST JUMPDEST ADD DUP2 SWAP1 SSTORE POP DUP1 PUSH4 0x7735940 PUSH3 0x19B SWAP2 SWAP1 PUSH3 0x50D JUMP JUMPDEST PUSH1 0x8 PUSH1 0x3 PUSH1 0x5 DUP2 LT PUSH3 0x1B3 JUMPI PUSH3 0x1B2 PUSH3 0x60C JUMP JUMPDEST JUMPDEST ADD DUP2 SWAP1 SSTORE POP DUP1 PUSH4 0x47868C0 PUSH3 0x1CA SWAP2 SWAP1 PUSH3 0x50D JUMP JUMPDEST PUSH1 0x8 PUSH1 0x4 PUSH1 0x5 DUP2 LT PUSH3 0x1E2 JUMPI PUSH3 0x1E1 PUSH3 0x60C JUMP JUMPDEST JUMPDEST ADD DUP2 SWAP1 SSTORE POP POP PUSH3 0x648 JUMP JUMPDEST PUSH1 0x0 CALLER SWAP1 POP SWAP1 JUMP JUMPDEST PUSH1 0x0 PUSH1 0x5 PUSH1 0x0 SWAP1 SLOAD SWAP1 PUSH2 0x100 EXP SWAP1 DIV PUSH20 0xFFFFFFFFFFFFFFFFFFFFFFFFFFFFFFFFFFFFFFFF AND SWAP1 POP DUP2 PUSH1 0x5 PUSH1 0x0 PUSH2 0x100 EXP DUP2 SLOAD DUP2 PUSH20 0xFFFFFFFFFFFFFFFFFFFFFFFFFFFFFFFFFFFFFFFF MUL NOT AND SWAP1 DUP4 PUSH20 0xFFFFFFFFFFFFFFFFFFFFFFFFFFFFFFFFFFFFFFFF AND MUL OR SWAP1 SSTORE POP DUP2 PUSH20 0xFFFFFFFFFFFFFFFFFFFFFFFFFFFFFFFFFFFFFFFF AND DUP2 PUSH20 0xFFFFFFFFFFFFFFFFFFFFFFFFFFFFFFFFFFFFFFFF AND PUSH32 0x8BE0079C531659141344CD1FD0A4F28419497F9722A3DAAFE3B4186F6B6457E0 PUSH1 0x40 MLOAD PUSH1 0x40 MLOAD DUP1 SWAP2 SUB SWAP1 LOG3 POP POP JUMP JUMPDEST PUSH1 0x0 PUSH1 0x12 SWAP1 POP SWAP1 JUMP JUMPDEST DUP3 DUP1 SLOAD PUSH3 0x2D3 SWAP1 PUSH3 0x578 JUMP JUMPDEST SWAP1 PUSH1 0x0 MSTORE PUSH1 0x20 PUSH1 0x0 KECCAK256 SWAP1 PUSH1 0x1F ADD PUSH1 0x20 SWAP1 DIV DUP2 ADD SWAP3 DUP3 PUSH3 0x2F7 JUMPI PUSH1 0x0 DUP6 SSTORE PUSH3 0x343 JUMP JUMPDEST DUP3 PUSH1 0x1F LT PUSH3 0x312 JUMPI DUP1 MLOAD PUSH1 0xFF NOT AND DUP4 DUP1 ADD OR DUP6 SSTORE PUSH3 0x343 JUMP JUMPDEST DUP3 DUP1 ADD PUSH1 0x1 ADD DUP6 SSTORE DUP3 ISZERO PUSH3 0x343 JUMPI SWAP2 DUP3 ADD JUMPDEST DUP3 DUP2 GT ISZERO PUSH3 0x342 JUMPI DUP3 MLOAD DUP3 SSTORE SWAP2 PUSH1 0x20 ADD SWAP2 SWAP1 PUSH1 0x1 ADD SWAP1 PUSH3 0x325 JUMP JUMPDEST JUMPDEST POP SWAP1 POP PUSH3 0x352 SWAP2 SWAP1 PUSH3 0x356 JUMP JUMPDEST POP SWAP1 JUMP JUMPDEST JUMPDEST DUP1 DUP3 GT ISZERO PUSH3 0x371 JUMPI PUSH1 0x0 DUP2 PUSH1 0x0 SWAP1 SSTORE POP PUSH1 0x1 ADD PUSH3 0x357 JUMP JUMPDEST POP SWAP1 JUMP JUMPDEST PUSH1 0x0 DUP1 DUP3 SWAP2 POP DUP4 SWAP1 POP JUMPDEST PUSH1 0x1 DUP6 GT ISZERO PUSH3 0x3C7 JUMPI DUP1 DUP7 DIV DUP2 GT ISZERO PUSH3 0x39F JUMPI PUSH3 0x39E PUSH3 0x5AE JUMP JUMPDEST JUMPDEST PUSH1 0x1 DUP6 AND ISZERO PUSH3 0x3AF JUMPI DUP1 DUP3 MUL SWAP2 POP JUMPDEST DUP1 DUP2 MUL SWAP1 POP PUSH3 0x3BF DUP6 PUSH3 0x63B JUMP JUMPDEST SWAP5 POP PUSH3 0x37F JUMP JUMPDEST SWAP5 POP SWAP5 SWAP3 POP POP POP JUMP JUMPDEST PUSH1 0x0 PUSH3 0x3DD DUP3 PUSH3 0x56E JUMP JUMPDEST SWAP2 POP PUSH3 0x3EA DUP4 PUSH3 0x56E JUMP JUMPDEST SWAP3 POP PUSH3 0x419 PUSH32 0xFFFFFFFFFFFFFFFFFFFFFFFFFFFFFFFFFFFFFFFFFFFFFFFFFFFFFFFFFFFFFFFF DUP5 DUP5 PUSH3 0x421 JUMP JUMPDEST SWAP1 POP SWAP3 SWAP2 POP POP JUMP JUMPDEST PUSH1 0x0 DUP3 PUSH3 0x433 JUMPI PUSH1 0x1 SWAP1 POP PUSH3 0x506 JUMP JUMPDEST DUP2 PUSH3 0x443 JUMPI PUSH1 0x0 SWAP1 POP PUSH3 0x506 JUMP JUMPDEST DUP2 PUSH1 0x1 DUP2 EQ PUSH3 0x45C JUMPI PUSH1 0x2 DUP2 EQ PUSH3 0x467 JUMPI PUSH3 0x49D JUMP JUMPDEST PUSH1 0x1 SWAP2 POP POP PUSH3 0x506 JUMP JUMPDEST PUSH1 0xFF DUP5 GT ISZERO PUSH3 0x47C JUMPI PUSH3 0x47B PUSH3 0x5AE JUMP JUMPDEST JUMPDEST DUP4 PUSH1 0x2 EXP SWAP2 POP DUP5 DUP3 GT ISZERO PUSH3 0x496 JUMPI PUSH3 0x495 PUSH3 0x5AE JUMP JUMPDEST JUMPDEST POP PUSH3 0x506 JUMP JUMPDEST POP PUSH1 0x20 DUP4 LT PUSH2 0x133 DUP4 LT AND PUSH1 0x4E DUP5 LT PUSH1 0xB DUP5 LT AND OR ISZERO PUSH3 0x4D7 JUMPI DUP3 DUP3 EXP SWAP1 POP DUP4 DUP2 GT ISZERO PUSH3 0x4D1 JUMPI PUSH3 0x4D0 PUSH3 0x5AE JUMP JUMPDEST JUMPDEST PUSH3 0x506 JUMP JUMPDEST PUSH3 0x4E6 DUP5 DUP5 DUP5 PUSH1 0x1 PUSH3 0x375 JUMP JUMPDEST SWAP3 POP SWAP1 POP DUP2 DUP5 DIV DUP2 GT ISZERO PUSH3 0x500 JUMPI PUSH3 0x4FF PUSH3 0x5AE JUMP JUMPDEST JUMPDEST DUP2 DUP2 MUL SWAP1 POP JUMPDEST SWAP4 SWAP3 POP POP POP JUMP JUMPDEST PUSH1 0x0 PUSH3 0x51A DUP3 PUSH3 0x56E JUMP JUMPDEST SWAP2 POP PUSH3 0x527 DUP4 PUSH3 0x56E JUMP JUMPDEST SWAP3 POP DUP2 PUSH32 0xFFFFFFFFFFFFFFFFFFFFFFFFFFFFFFFFFFFFFFFFFFFFFFFFFFFFFFFFFFFFFFFF DIV DUP4 GT DUP3 ISZERO ISZERO AND ISZERO PUSH3 0x563 JUMPI PUSH3 0x562 PUSH3 0x5AE JUMP JUMPDEST JUMPDEST DUP3 DUP3 MUL SWAP1 POP SWAP3 SWAP2 POP POP JUMP JUMPDEST PUSH1 0x0 DUP2 SWAP1 POP SWAP2 SWAP1 POP JUMP JUMPDEST PUSH1 0x0 PUSH1 0x2 DUP3 DIV SWAP1 POP PUSH1 0x1 DUP3 AND DUP1 PUSH3 0x591 JUMPI PUSH1 0x7F DUP3 AND SWAP2 POP JUMPDEST PUSH1 0x20 DUP3 LT DUP2 EQ ISZERO PUSH3 0x5A8 JUMPI PUSH3 0x5A7 PUSH3 0x5DD JUMP JUMPDEST JUMPDEST POP SWAP2 SWAP1 POP JUMP JUMPDEST PUSH32 0x4E487B7100000000000000000000000000000000000000000000000000000000 PUSH1 0x0 MSTORE PUSH1 0x11 PUSH1 0x4 MSTORE PUSH1 0x24 PUSH1 0x0 REVERT JUMPDEST PUSH32 0x4E487B7100000000000000000000000000000000000000000000000000000000 PUSH1 0x0 MSTORE PUSH1 0x22 PUSH1 0x4 MSTORE PUSH1 0x24 PUSH1 0x0 REVERT JUMPDEST PUSH32 0x4E487B7100000000000000000000000000000000000000000000000000000000 PUSH1 0x0 MSTORE PUSH1 0x32 PUSH1 0x4 MSTORE PUSH1 0x24 PUSH1 0x0 REVERT JUMPDEST PUSH1 0x0 DUP2 PUSH1 0x1 SHR SWAP1 POP SWAP2 SWAP1 POP JUMP JUMPDEST PUSH2 0x2542 DUP1 PUSH3 0x658 PUSH1 0x0 CODECOPY PUSH1 0x0 RETURN INVALID PUSH1 0x80 PUSH1 0x40 MSTORE CALLVALUE DUP1 ISZERO PUSH2 0x10 JUMPI PUSH1 0x0 DUP1 REVERT JUMPDEST POP PUSH1 0x4 CALLDATASIZE LT PUSH2 0x173 JUMPI PUSH1 0x0 CALLDATALOAD PUSH1 0xE0 SHR DUP1 PUSH4 0x755CC41E GT PUSH2 0xDE JUMPI DUP1 PUSH4 0xA457C2D7 GT PUSH2 0x97 JUMPI DUP1 PUSH4 0xBE146ADC GT PUSH2 0x71 JUMPI DUP1 PUSH4 0xBE146ADC EQ PUSH2 0x450 JUMPI DUP1 PUSH4 0xC0972CC4 EQ PUSH2 0x46E JUMPI DUP1 PUSH4 0xDD62ED3E EQ PUSH2 0x48C JUMPI DUP1 PUSH4 0xF2FDE38B EQ PUSH2 0x4BC JUMPI PUSH2 0x173 JUMP JUMPDEST DUP1 PUSH4 0xA457C2D7 EQ PUSH2 0x3D2 JUMPI DUP1 PUSH4 0xA5A302D3 EQ PUSH2 0x402 JUMPI DUP1 PUSH4 0xA9059CBB EQ PUSH2 0x420 JUMPI PUSH2 0x173 JUMP JUMPDEST DUP1 PUSH4 0x755CC41E EQ PUSH2 0x320 JUMPI DUP1 PUSH4 0x79CC6790 EQ PUSH2 0x33E JUMPI DUP1 PUSH4 0x84E7E3D3 EQ PUSH2 0x35A JUMPI DUP1 PUSH4 0x8DA5CB5B EQ PUSH2 0x378 JUMPI DUP1 PUSH4 0x95D89B41 EQ PUSH2 0x396 JUMPI DUP1 PUSH4 0x9D463520 EQ PUSH2 0x3B4 JUMPI PUSH2 0x173 JUMP JUMPDEST DUP1 PUSH4 0x36031A46 GT PUSH2 0x130 JUMPI DUP1 PUSH4 0x36031A46 EQ PUSH2 0x24E JUMPI DUP1 PUSH4 0x39509351 EQ PUSH2 0x27E JUMPI DUP1 PUSH4 0x42966C68 EQ PUSH2 0x2AE JUMPI DUP1 PUSH4 0x6A627842 EQ PUSH2 0x2CA JUMPI DUP1 PUSH4 0x70A08231 EQ PUSH2 0x2E6 JUMPI DUP1 PUSH4 0x715018A6 EQ PUSH2 0x316 JUMPI PUSH2 0x173 JUMP JUMPDEST DUP1 PUSH4 0x6FDDE03 EQ PUSH2 0x178 JUMPI DUP1 PUSH4 0x95EA7B3 EQ PUSH2 0x196 JUMPI DUP1 PUSH4 0x18160DDD EQ PUSH2 0x1C6 JUMPI DUP1 PUSH4 0x23B872DD EQ PUSH2 0x1E4 JUMPI DUP1 PUSH4 0x29DBECB1 EQ PUSH2 0x214 JUMPI DUP1 PUSH4 0x313CE567 EQ PUSH2 0x230 JUMPI JUMPDEST PUSH1 0x0 DUP1 REVERT JUMPDEST PUSH2 0x180 PUSH2 0x4D8 JUMP JUMPDEST PUSH1 0x40 MLOAD PUSH2 0x18D SWAP2 SWAP1 PUSH2 0x1BE2 JUMP JUMPDEST PUSH1 0x40 MLOAD DUP1 SWAP2 SUB SWAP1 RETURN JUMPDEST PUSH2 0x1B0 PUSH1 0x4 DUP1 CALLDATASIZE SUB DUP2 ADD SWAP1 PUSH2 0x1AB SWAP2 SWAP1 PUSH2 0x1877 JUMP JUMPDEST PUSH2 0x56A JUMP JUMPDEST PUSH1 0x40 MLOAD PUSH2 0x1BD SWAP2 SWAP1 PUSH2 0x1BC7 JUMP JUMPDEST PUSH1 0x40 MLOAD DUP1 SWAP2 SUB SWAP1 RETURN JUMPDEST PUSH2 0x1CE PUSH2 0x588 JUMP JUMPDEST PUSH1 0x40 MLOAD PUSH2 0x1DB SWAP2 SWAP1 PUSH2 0x1E24 JUMP JUMPDEST PUSH1 0x40 MLOAD DUP1 SWAP2 SUB SWAP1 RETURN JUMPDEST PUSH2 0x1FE PUSH1 0x4 DUP1 CALLDATASIZE SUB DUP2 ADD SWAP1 PUSH2 0x1F9 SWAP2 SWAP1 PUSH2 0x1824 JUMP JUMPDEST PUSH2 0x592 JUMP JUMPDEST PUSH1 0x40 MLOAD PUSH2 0x20B SWAP2 SWAP1 PUSH2 0x1BC7 JUMP JUMPDEST PUSH1 0x40 MLOAD DUP1 SWAP2 SUB SWAP1 RETURN JUMPDEST PUSH2 0x22E PUSH1 0x4 DUP1 CALLDATASIZE SUB DUP2 ADD SWAP1 PUSH2 0x229 SWAP2 SWAP1 PUSH2 0x17B7 JUMP JUMPDEST PUSH2 0x68A JUMP JUMPDEST STOP JUMPDEST PUSH2 0x238 PUSH2 0x7BA JUMP JUMPDEST PUSH1 0x40 MLOAD PUSH2 0x245 SWAP2 SWAP1 PUSH2 0x1E3F JUMP JUMPDEST PUSH1 0x40 MLOAD DUP1 SWAP2 SUB SWAP1 RETURN JUMPDEST PUSH2 0x268 PUSH1 0x4 DUP1 CALLDATASIZE SUB DUP2 ADD SWAP1 PUSH2 0x263 SWAP2 SWAP1 PUSH2 0x18B7 JUMP JUMPDEST PUSH2 0x7C3 JUMP JUMPDEST PUSH1 0x40 MLOAD PUSH2 0x275 SWAP2 SWAP1 PUSH2 0x1E24 JUMP JUMPDEST PUSH1 0x40 MLOAD DUP1 SWAP2 SUB SWAP1 RETURN JUMPDEST PUSH2 0x298 PUSH1 0x4 DUP1 CALLDATASIZE SUB DUP2 ADD SWAP1 PUSH2 0x293 SWAP2 SWAP1 PUSH2 0x1877 JUMP JUMPDEST PUSH2 0x7DE JUMP JUMPDEST PUSH1 0x40 MLOAD PUSH2 0x2A5 SWAP2 SWAP1 PUSH2 0x1BC7 JUMP JUMPDEST PUSH1 0x40 MLOAD DUP1 SWAP2 SUB SWAP1 RETURN JUMPDEST PUSH2 0x2C8 PUSH1 0x4 DUP1 CALLDATASIZE SUB DUP2 ADD SWAP1 PUSH2 0x2C3 SWAP2 SWAP1 PUSH2 0x18B7 JUMP JUMPDEST PUSH2 0x88A JUMP JUMPDEST STOP JUMPDEST PUSH2 0x2E4 PUSH1 0x4 DUP1 CALLDATASIZE SUB DUP2 ADD SWAP1 PUSH2 0x2DF SWAP2 SWAP1 PUSH2 0x17B7 JUMP JUMPDEST PUSH2 0x897 JUMP JUMPDEST STOP JUMPDEST PUSH2 0x300 PUSH1 0x4 DUP1 CALLDATASIZE SUB DUP2 ADD SWAP1 PUSH2 0x2FB SWAP2 SWAP1 PUSH2 0x17B7 JUMP JUMPDEST PUSH2 0xA0C JUMP JUMPDEST PUSH1 0x40 MLOAD PUSH2 0x30D SWAP2 SWAP1 PUSH2 0x1E24 JUMP JUMPDEST PUSH1 0x40 MLOAD DUP1 SWAP2 SUB SWAP1 RETURN JUMPDEST PUSH2 0x31E PUSH2 0xA54 JUMP JUMPDEST STOP JUMPDEST PUSH2 0x328 PUSH2 0xADC JUMP JUMPDEST PUSH1 0x40 MLOAD PUSH2 0x335 SWAP2 SWAP1 PUSH2 0x1E24 JUMP JUMPDEST PUSH1 0x40 MLOAD DUP1 SWAP2 SUB SWAP1 RETURN JUMPDEST PUSH2 0x358 PUSH1 0x4 DUP1 CALLDATASIZE SUB DUP2 ADD SWAP1 PUSH2 0x353 SWAP2 SWAP1 PUSH2 0x1877 JUMP JUMPDEST PUSH2 0xAE2 JUMP JUMPDEST STOP JUMPDEST PUSH2 0x362 PUSH2 0xB86 JUMP JUMPDEST PUSH1 0x40 MLOAD PUSH2 0x36F SWAP2 SWAP1 PUSH2 0x1E24 JUMP JUMPDEST PUSH1 0x40 MLOAD DUP1 SWAP2 SUB SWAP1 RETURN JUMPDEST PUSH2 0x380 PUSH2 0xB8E JUMP JUMPDEST PUSH1 0x40 MLOAD PUSH2 0x38D SWAP2 SWAP1 PUSH2 0x1BAC JUMP JUMPDEST PUSH1 0x40 MLOAD DUP1 SWAP2 SUB SWAP1 RETURN JUMPDEST PUSH2 0x39E PUSH2 0xBB8 JUMP JUMPDEST PUSH1 0x40 MLOAD PUSH2 0x3AB SWAP2 SWAP1 PUSH2 0x1BE2 JUMP JUMPDEST PUSH1 0x40 MLOAD DUP1 SWAP2 SUB SWAP1 RETURN JUMPDEST PUSH2 0x3BC PUSH2 0xC4A JUMP JUMPDEST PUSH1 0x40 MLOAD PUSH2 0x3C9 SWAP2 SWAP1 PUSH2 0x1E24 JUMP JUMPDEST PUSH1 0x40 MLOAD DUP1 SWAP2 SUB SWAP1 RETURN JUMPDEST PUSH2 0x3EC PUSH1 0x4 DUP1 CALLDATASIZE SUB DUP2 ADD SWAP1 PUSH2 0x3E7 SWAP2 SWAP1 PUSH2 0x1877 JUMP JUMPDEST PUSH2 0xC50 JUMP JUMPDEST PUSH1 0x40 MLOAD PUSH2 0x3F9 SWAP2 SWAP1 PUSH2 0x1BC7 JUMP JUMPDEST PUSH1 0x40 MLOAD DUP1 SWAP2 SUB SWAP1 RETURN JUMPDEST PUSH2 0x40A PUSH2 0xD3B JUMP JUMPDEST PUSH1 0x40 MLOAD PUSH2 0x417 SWAP2 SWAP1 PUSH2 0x1BAC JUMP JUMPDEST PUSH1 0x40 MLOAD DUP1 SWAP2 SUB SWAP1 RETURN JUMPDEST PUSH2 0x43A PUSH1 0x4 DUP1 CALLDATASIZE SUB DUP2 ADD SWAP1 PUSH2 0x435 SWAP2 SWAP1 PUSH2 0x1877 JUMP JUMPDEST PUSH2 0xD61 JUMP JUMPDEST PUSH1 0x40 MLOAD PUSH2 0x447 SWAP2 SWAP1 PUSH2 0x1BC7 JUMP JUMPDEST PUSH1 0x40 MLOAD DUP1 SWAP2 SUB SWAP1 RETURN JUMPDEST PUSH2 0x458 PUSH2 0xD7F JUMP JUMPDEST PUSH1 0x40 MLOAD PUSH2 0x465 SWAP2 SWAP1 PUSH2 0x1E24 JUMP JUMPDEST PUSH1 0x40 MLOAD DUP1 SWAP2 SUB SWAP1 RETURN JUMPDEST PUSH2 0x476 PUSH2 0xD98 JUMP JUMPDEST PUSH1 0x40 MLOAD PUSH2 0x483 SWAP2 SWAP1 PUSH2 0x1E24 JUMP JUMPDEST PUSH1 0x40 MLOAD DUP1 SWAP2 SUB SWAP1 RETURN JUMPDEST PUSH2 0x4A6 PUSH1 0x4 DUP1 CALLDATASIZE SUB DUP2 ADD SWAP1 PUSH2 0x4A1 SWAP2 SWAP1 PUSH2 0x17E4 JUMP JUMPDEST PUSH2 0xD9D JUMP JUMPDEST PUSH1 0x40 MLOAD PUSH2 0x4B3 SWAP2 SWAP1 PUSH2 0x1E24 JUMP JUMPDEST PUSH1 0x40 MLOAD DUP1 SWAP2 SUB SWAP1 RETURN JUMPDEST PUSH2 0x4D6 PUSH1 0x4 DUP1 CALLDATASIZE SUB DUP2 ADD SWAP1 PUSH2 0x4D1 SWAP2 SWAP1 PUSH2 0x17B7 JUMP JUMPDEST PUSH2 0xE24 JUMP JUMPDEST STOP JUMPDEST PUSH1 0x60 PUSH1 0x3 DUP1 SLOAD PUSH2 0x4E7 SWAP1 PUSH2 0x1F88 JUMP JUMPDEST DUP1 PUSH1 0x1F ADD PUSH1 0x20 DUP1 SWAP2 DIV MUL PUSH1 0x20 ADD PUSH1 0x40 MLOAD SWAP1 DUP2 ADD PUSH1 0x40 MSTORE DUP1 SWAP3 SWAP2 SWAP1 DUP2 DUP2 MSTORE PUSH1 0x20 ADD DUP3 DUP1 SLOAD PUSH2 0x513 SWAP1 PUSH2 0x1F88 JUMP JUMPDEST DUP1 ISZERO PUSH2 0x560 JUMPI DUP1 PUSH1 0x1F LT PUSH2 0x535 JUMPI PUSH2 0x100 DUP1 DUP4 SLOAD DIV MUL DUP4 MSTORE SWAP2 PUSH1 0x20 ADD SWAP2 PUSH2 0x560 JUMP JUMPDEST DUP3 ADD SWAP2 SWAP1 PUSH1 0x0 MSTORE PUSH1 0x20 PUSH1 0x0 KECCAK256 SWAP1 JUMPDEST DUP2 SLOAD DUP2 MSTORE SWAP1 PUSH1 0x1 ADD SWAP1 PUSH1 0x20 ADD DUP1 DUP4 GT PUSH2 0x543 JUMPI DUP3 SWAP1 SUB PUSH1 0x1F AND DUP3 ADD SWAP2 JUMPDEST POP POP POP POP POP SWAP1 POP SWAP1 JUMP JUMPDEST PUSH1 0x0 PUSH2 0x57E PUSH2 0x577 PUSH2 0xF1C JUMP JUMPDEST DUP5 DUP5 PUSH2 0xF24 JUMP JUMPDEST PUSH1 0x1 SWAP1 POP SWAP3 SWAP2 POP POP JUMP JUMPDEST PUSH1 0x0 PUSH1 0x2 SLOAD SWAP1 POP SWAP1 JUMP JUMPDEST PUSH1 0x0 PUSH2 0x59F DUP5 DUP5 DUP5 PUSH2 0x10EF JUMP JUMPDEST PUSH1 0x0 PUSH1 0x1 PUSH1 0x0 DUP7 PUSH20 0xFFFFFFFFFFFFFFFFFFFFFFFFFFFFFFFFFFFFFFFF AND PUSH20 0xFFFFFFFFFFFFFFFFFFFFFFFFFFFFFFFFFFFFFFFF AND DUP2 MSTORE PUSH1 0x20 ADD SWAP1 DUP2 MSTORE PUSH1 0x20 ADD PUSH1 0x0 KECCAK256 PUSH1 0x0 PUSH2 0x5EA PUSH2 0xF1C JUMP JUMPDEST PUSH20 0xFFFFFFFFFFFFFFFFFFFFFFFFFFFFFFFFFFFFFFFF AND PUSH20 0xFFFFFFFFFFFFFFFFFFFFFFFFFFFFFFFFFFFFFFFF AND DUP2 MSTORE PUSH1 0x20 ADD SWAP1 DUP2 MSTORE PUSH1 0x20 ADD PUSH1 0x0 KECCAK256 SLOAD SWAP1 POP DUP3 DUP2 LT ISZERO PUSH2 0x66A JUMPI PUSH1 0x40 MLOAD PUSH32 0x8C379A000000000000000000000000000000000000000000000000000000000 DUP2 MSTORE PUSH1 0x4 ADD PUSH2 0x661 SWAP1 PUSH2 0x1D04 JUMP JUMPDEST PUSH1 0x40 MLOAD DUP1 SWAP2 SUB SWAP1 REVERT JUMPDEST PUSH2 0x67E DUP6 PUSH2 0x676 PUSH2 0xF1C JUMP JUMPDEST DUP6 DUP5 SUB PUSH2 0xF24 JUMP JUMPDEST PUSH1 0x1 SWAP2 POP POP SWAP4 SWAP3 POP POP POP JUMP JUMPDEST PUSH2 0x692 PUSH2 0xF1C JUMP JUMPDEST PUSH20 0xFFFFFFFFFFFFFFFFFFFFFFFFFFFFFFFFFFFFFFFF AND PUSH2 0x6B0 PUSH2 0xB8E JUMP JUMPDEST PUSH20 0xFFFFFFFFFFFFFFFFFFFFFFFFFFFFFFFFFFFFFFFF AND EQ PUSH2 0x706 JUMPI PUSH1 0x40 MLOAD PUSH32 0x8C379A000000000000000000000000000000000000000000000000000000000 DUP2 MSTORE PUSH1 0x4 ADD PUSH2 0x6FD SWAP1 PUSH2 0x1D24 JUMP JUMPDEST PUSH1 0x40 MLOAD DUP1 SWAP2 SUB SWAP1 REVERT JUMPDEST PUSH1 0x0 PUSH20 0xFFFFFFFFFFFFFFFFFFFFFFFFFFFFFFFFFFFFFFFF AND DUP2 PUSH20 0xFFFFFFFFFFFFFFFFFFFFFFFFFFFFFFFFFFFFFFFF AND EQ ISZERO PUSH2 0x776 JUMPI PUSH1 0x40 MLOAD PUSH32 0x8C379A000000000000000000000000000000000000000000000000000000000 DUP2 MSTORE PUSH1 0x4 ADD PUSH2 0x76D SWAP1 PUSH2 0x1CE4 JUMP JUMPDEST PUSH1 0x40 MLOAD DUP1 SWAP2 SUB SWAP1 REVERT JUMPDEST DUP1 PUSH1 0x6 PUSH1 0x0 PUSH2 0x100 EXP DUP2 SLOAD DUP2 PUSH20 0xFFFFFFFFFFFFFFFFFFFFFFFFFFFFFFFFFFFFFFFF MUL NOT AND SWAP1 DUP4 PUSH20 0xFFFFFFFFFFFFFFFFFFFFFFFFFFFFFFFFFFFFFFFF AND MUL OR SWAP1 SSTORE POP POP JUMP JUMPDEST PUSH1 0x0 PUSH1 0x12 SWAP1 POP SWAP1 JUMP JUMPDEST PUSH1 0x8 DUP2 PUSH1 0x5 DUP2 LT PUSH2 0x7D3 JUMPI PUSH1 0x0 DUP1 REVERT JUMPDEST ADD PUSH1 0x0 SWAP2 POP SWAP1 POP SLOAD DUP2 JUMP JUMPDEST PUSH1 0x0 PUSH2 0x880 PUSH2 0x7EB PUSH2 0xF1C JUMP JUMPDEST DUP5 DUP5 PUSH1 0x1 PUSH1 0x0 PUSH2 0x7F9 PUSH2 0xF1C JUMP JUMPDEST PUSH20 0xFFFFFFFFFFFFFFFFFFFFFFFFFFFFFFFFFFFFFFFF AND PUSH20 0xFFFFFFFFFFFFFFFFFFFFFFFFFFFFFFFFFFFFFFFF AND DUP2 MSTORE PUSH1 0x20 ADD SWAP1 DUP2 MSTORE PUSH1 0x20 ADD PUSH1 0x0 KECCAK256 PUSH1 0x0 DUP9 PUSH20 0xFFFFFFFFFFFFFFFFFFFFFFFFFFFFFFFFFFFFFFFF AND PUSH20 0xFFFFFFFFFFFFFFFFFFFFFFFFFFFFFFFFFFFFFFFF AND DUP2 MSTORE PUSH1 0x20 ADD SWAP1 DUP2 MSTORE PUSH1 0x20 ADD PUSH1 0x0 KECCAK256 SLOAD PUSH2 0x87B SWAP2 SWAP1 PUSH2 0x1E76 JUMP JUMPDEST PUSH2 0xF24 JUMP JUMPDEST PUSH1 0x1 SWAP1 POP SWAP3 SWAP2 POP POP JUMP JUMPDEST PUSH2 0x894 CALLER DUP3 PUSH2 0x1370 JUMP JUMPDEST POP JUMP JUMPDEST PUSH1 0x6 PUSH1 0x0 SWAP1 SLOAD SWAP1 PUSH2 0x100 EXP SWAP1 DIV PUSH20 0xFFFFFFFFFFFFFFFFFFFFFFFFFFFFFFFFFFFFFFFF AND PUSH20 0xFFFFFFFFFFFFFFFFFFFFFFFFFFFFFFFFFFFFFFFF AND CALLER PUSH20 0xFFFFFFFFFFFFFFFFFFFFFFFFFFFFFFFFFFFFFFFF AND EQ PUSH2 0x927 JUMPI PUSH1 0x40 MLOAD PUSH32 0x8C379A000000000000000000000000000000000000000000000000000000000 DUP2 MSTORE PUSH1 0x4 ADD PUSH2 0x91E SWAP1 PUSH2 0x1D84 JUMP JUMPDEST PUSH1 0x40 MLOAD DUP1 SWAP2 SUB SWAP1 REVERT JUMPDEST PUSH1 0x5 PUSH1 0xD SLOAD LT PUSH2 0x96C JUMPI PUSH1 0x40 MLOAD PUSH32 0x8C379A000000000000000000000000000000000000000000000000000000000 DUP2 MSTORE PUSH1 0x4 ADD PUSH2 0x963 SWAP1 PUSH2 0x1C24 JUMP JUMPDEST PUSH1 0x40 MLOAD DUP1 SWAP2 SUB SWAP1 REVERT JUMPDEST PUSH1 0x0 PUSH1 0x7 SLOAD GT ISZERO PUSH2 0x9C1 JUMPI TIMESTAMP PUSH2 0x980 PUSH2 0xD7F JUMP JUMPDEST LT PUSH2 0x9C0 JUMPI PUSH1 0x40 MLOAD PUSH32 0x8C379A000000000000000000000000000000000000000000000000000000000 DUP2 MSTORE PUSH1 0x4 ADD PUSH2 0x9B7 SWAP1 PUSH2 0x1CA4 JUMP JUMPDEST PUSH1 0x40 MLOAD DUP1 SWAP2 SUB SWAP1 REVERT JUMPDEST JUMPDEST PUSH1 0x0 PUSH1 0x8 PUSH1 0xD SLOAD PUSH1 0x5 DUP2 LT PUSH2 0x9D9 JUMPI PUSH2 0x9D8 PUSH2 0x2018 JUMP JUMPDEST JUMPDEST ADD SLOAD SWAP1 POP PUSH2 0x9E7 DUP3 DUP3 PUSH2 0x1547 JUMP JUMPDEST PUSH1 0x1 PUSH1 0xD PUSH1 0x0 DUP3 DUP3 SLOAD PUSH2 0x9FA SWAP2 SWAP1 PUSH2 0x1E76 JUMP JUMPDEST SWAP3 POP POP DUP2 SWAP1 SSTORE POP TIMESTAMP PUSH1 0x7 DUP2 SWAP1 SSTORE POP POP POP JUMP JUMPDEST PUSH1 0x0 DUP1 PUSH1 0x0 DUP4 PUSH20 0xFFFFFFFFFFFFFFFFFFFFFFFFFFFFFFFFFFFFFFFF AND PUSH20 0xFFFFFFFFFFFFFFFFFFFFFFFFFFFFFFFFFFFFFFFF AND DUP2 MSTORE PUSH1 0x20 ADD SWAP1 DUP2 MSTORE PUSH1 0x20 ADD PUSH1 0x0 KECCAK256 SLOAD SWAP1 POP SWAP2 SWAP1 POP JUMP JUMPDEST PUSH2 0xA5C PUSH2 0xF1C JUMP JUMPDEST PUSH20 0xFFFFFFFFFFFFFFFFFFFFFFFFFFFFFFFFFFFFFFFF AND PUSH2 0xA7A PUSH2 0xB8E JUMP JUMPDEST PUSH20 0xFFFFFFFFFFFFFFFFFFFFFFFFFFFFFFFFFFFFFFFF AND EQ PUSH2 0xAD0 JUMPI PUSH1 0x40 MLOAD PUSH32 0x8C379A000000000000000000000000000000000000000000000000000000000 DUP2 MSTORE PUSH1 0x4 ADD PUSH2 0xAC7 SWAP1 PUSH2 0x1D24 JUMP JUMPDEST PUSH1 0x40 MLOAD DUP1 SWAP2 SUB SWAP1 REVERT JUMPDEST PUSH2 0xADA PUSH1 0x0 PUSH2 0x16A7 JUMP JUMPDEST JUMP JUMPDEST PUSH1 0xD SLOAD DUP2 JUMP JUMPDEST PUSH1 0x0 PUSH20 0xFFFFFFFFFFFFFFFFFFFFFFFFFFFFFFFFFFFFFFFF AND DUP3 PUSH20 0xFFFFFFFFFFFFFFFFFFFFFFFFFFFFFFFFFFFFFFFF AND EQ ISZERO PUSH2 0xB52 JUMPI PUSH1 0x40 MLOAD PUSH32 0x8C379A000000000000000000000000000000000000000000000000000000000 DUP2 MSTORE PUSH1 0x4 ADD PUSH2 0xB49 SWAP1 PUSH2 0x1DC4 JUMP JUMPDEST PUSH1 0x40 MLOAD DUP1 SWAP2 SUB SWAP1 REVERT JUMPDEST PUSH2 0xB78 DUP3 CALLER PUSH2 0xB73 DUP5 PUSH2 0xB65 DUP8 CALLER PUSH2 0xD9D JUMP JUMPDEST PUSH2 0x176D SWAP1 SWAP2 SWAP1 PUSH4 0xFFFFFFFF AND JUMP JUMPDEST PUSH2 0xF24 JUMP JUMPDEST PUSH2 0xB82 DUP3 DUP3 PUSH2 0x1370 JUMP JUMPDEST POP POP JUMP JUMPDEST PUSH4 0x1E13380 DUP2 JUMP JUMPDEST PUSH1 0x0 PUSH1 0x5 PUSH1 0x0 SWAP1 SLOAD SWAP1 PUSH2 0x100 EXP SWAP1 DIV PUSH20 0xFFFFFFFFFFFFFFFFFFFFFFFFFFFFFFFFFFFFFFFF AND SWAP1 POP SWAP1 JUMP JUMPDEST PUSH1 0x60 PUSH1 0x4 DUP1 SLOAD PUSH2 0xBC7 SWAP1 PUSH2 0x1F88 JUMP JUMPDEST DUP1 PUSH1 0x1F ADD PUSH1 0x20 DUP1 SWAP2 DIV MUL PUSH1 0x20 ADD PUSH1 0x40 MLOAD SWAP1 DUP2 ADD PUSH1 0x40 MSTORE DUP1 SWAP3 SWAP2 SWAP1 DUP2 DUP2 MSTORE PUSH1 0x20 ADD DUP3 DUP1 SLOAD PUSH2 0xBF3 SWAP1 PUSH2 0x1F88 JUMP JUMPDEST DUP1 ISZERO PUSH2 0xC40 JUMPI DUP1 PUSH1 0x1F LT PUSH2 0xC15 JUMPI PUSH2 0x100 DUP1 DUP4 SLOAD DIV MUL DUP4 MSTORE SWAP2 PUSH1 0x20 ADD SWAP2 PUSH2 0xC40 JUMP JUMPDEST DUP3 ADD SWAP2 SWAP1 PUSH1 0x0 MSTORE PUSH1 0x20 PUSH1 0x0 KECCAK256 SWAP1 JUMPDEST DUP2 SLOAD DUP2 MSTORE SWAP1 PUSH1 0x1 ADD SWAP1 PUSH1 0x20 ADD DUP1 DUP4 GT PUSH2 0xC23 JUMPI DUP3 SWAP1 SUB PUSH1 0x1F AND DUP3 ADD SWAP2 JUMPDEST POP POP POP POP POP SWAP1 POP SWAP1 JUMP JUMPDEST PUSH1 0x7 SLOAD DUP2 JUMP JUMPDEST PUSH1 0x0 DUP1 PUSH1 0x1 PUSH1 0x0 PUSH2 0xC5F PUSH2 0xF1C JUMP JUMPDEST PUSH20 0xFFFFFFFFFFFFFFFFFFFFFFFFFFFFFFFFFFFFFFFF AND PUSH20 0xFFFFFFFFFFFFFFFFFFFFFFFFFFFFFFFFFFFFFFFF AND DUP2 MSTORE PUSH1 0x20 ADD SWAP1 DUP2 MSTORE PUSH1 0x20 ADD PUSH1 0x0 KECCAK256 PUSH1 0x0 DUP6 PUSH20 0xFFFFFFFFFFFFFFFFFFFFFFFFFFFFFFFFFFFFFFFF AND PUSH20 0xFFFFFFFFFFFFFFFFFFFFFFFFFFFFFFFFFFFFFFFF AND DUP2 MSTORE PUSH1 0x20 ADD SWAP1 DUP2 MSTORE PUSH1 0x20 ADD PUSH1 0x0 KECCAK256 SLOAD SWAP1 POP DUP3 DUP2 LT ISZERO PUSH2 0xD1C JUMPI PUSH1 0x40 MLOAD PUSH32 0x8C379A000000000000000000000000000000000000000000000000000000000 DUP2 MSTORE PUSH1 0x4 ADD PUSH2 0xD13 SWAP1 PUSH2 0x1DE4 JUMP JUMPDEST PUSH1 0x40 MLOAD DUP1 SWAP2 SUB SWAP1 REVERT JUMPDEST PUSH2 0xD30 PUSH2 0xD27 PUSH2 0xF1C JUMP JUMPDEST DUP6 DUP6 DUP5 SUB PUSH2 0xF24 JUMP JUMPDEST PUSH1 0x1 SWAP2 POP POP SWAP3 SWAP2 POP POP JUMP JUMPDEST PUSH1 0x6 PUSH1 0x0 SWAP1 SLOAD SWAP1 PUSH2 0x100 EXP SWAP1 DIV PUSH20 0xFFFFFFFFFFFFFFFFFFFFFFFFFFFFFFFFFFFFFFFF AND DUP2 JUMP JUMPDEST PUSH1 0x0 PUSH2 0xD75 PUSH2 0xD6E PUSH2 0xF1C JUMP JUMPDEST DUP5 DUP5 PUSH2 0x10EF JUMP JUMPDEST PUSH1 0x1 SWAP1 POP SWAP3 SWAP2 POP POP JUMP JUMPDEST PUSH1 0x0 PUSH4 0x1E13380 PUSH1 0x7 SLOAD PUSH2 0xD93 SWAP2 SWAP1 PUSH2 0x1E76 JUMP JUMPDEST SWAP1 POP SWAP1 JUMP JUMPDEST PUSH1 0x5 DUP2 JUMP JUMPDEST PUSH1 0x0 PUSH1 0x1 PUSH1 0x0 DUP5 PUSH20 0xFFFFFFFFFFFFFFFFFFFFFFFFFFFFFFFFFFFFFFFF AND PUSH20 0xFFFFFFFFFFFFFFFFFFFFFFFFFFFFFFFFFFFFFFFF AND DUP2 MSTORE PUSH1 0x20 ADD SWAP1 DUP2 MSTORE PUSH1 0x20 ADD PUSH1 0x0 KECCAK256 PUSH1 0x0 DUP4 PUSH20 0xFFFFFFFFFFFFFFFFFFFFFFFFFFFFFFFFFFFFFFFF AND PUSH20 0xFFFFFFFFFFFFFFFFFFFFFFFFFFFFFFFFFFFFFFFF AND DUP2 MSTORE PUSH1 0x20 ADD SWAP1 DUP2 MSTORE PUSH1 0x20 ADD PUSH1 0x0 KECCAK256 SLOAD SWAP1 POP SWAP3 SWAP2 POP POP JUMP JUMPDEST PUSH2 0xE2C PUSH2 0xF1C JUMP JUMPDEST PUSH20 0xFFFFFFFFFFFFFFFFFFFFFFFFFFFFFFFFFFFFFFFF AND PUSH2 0xE4A PUSH2 0xB8E JUMP JUMPDEST PUSH20 0xFFFFFFFFFFFFFFFFFFFFFFFFFFFFFFFFFFFFFFFF AND EQ PUSH2 0xEA0 JUMPI PUSH1 0x40 MLOAD PUSH32 0x8C379A000000000000000000000000000000000000000000000000000000000 DUP2 MSTORE PUSH1 0x4 ADD PUSH2 0xE97 SWAP1 PUSH2 0x1D24 JUMP JUMPDEST PUSH1 0x40 MLOAD DUP1 SWAP2 SUB SWAP1 REVERT JUMPDEST PUSH1 0x0 PUSH20 0xFFFFFFFFFFFFFFFFFFFFFFFFFFFFFFFFFFFFFFFF AND DUP2 PUSH20 0xFFFFFFFFFFFFFFFFFFFFFFFFFFFFFFFFFFFFFFFF AND EQ ISZERO PUSH2 0xF10 JUMPI PUSH1 0x40 MLOAD PUSH32 0x8C379A000000000000000000000000000000000000000000000000000000000 DUP2 MSTORE PUSH1 0x4 ADD PUSH2 0xF07 SWAP1 PUSH2 0x1C64 JUMP JUMPDEST PUSH1 0x40 MLOAD DUP1 SWAP2 SUB SWAP1 REVERT JUMPDEST PUSH2 0xF19 DUP2 PUSH2 0x16A7 JUMP JUMPDEST POP JUMP JUMPDEST PUSH1 0x0 CALLER SWAP1 POP SWAP1 JUMP JUMPDEST PUSH1 0x0 PUSH20 0xFFFFFFFFFFFFFFFFFFFFFFFFFFFFFFFFFFFFFFFF AND DUP4 PUSH20 0xFFFFFFFFFFFFFFFFFFFFFFFFFFFFFFFFFFFFFFFF AND EQ ISZERO PUSH2 0xF94 JUMPI PUSH1 0x40 MLOAD PUSH32 0x8C379A000000000000000000000000000000000000000000000000000000000 DUP2 MSTORE PUSH1 0x4 ADD PUSH2 0xF8B SWAP1 PUSH2 0x1DA4 JUMP JUMPDEST PUSH1 0x40 MLOAD DUP1 SWAP2 SUB SWAP1 REVERT JUMPDEST PUSH1 0x0 PUSH20 0xFFFFFFFFFFFFFFFFFFFFFFFFFFFFFFFFFFFFFFFF AND DUP3 PUSH20 0xFFFFFFFFFFFFFFFFFFFFFFFFFFFFFFFFFFFFFFFF AND EQ ISZERO PUSH2 0x1004 JUMPI PUSH1 0x40 MLOAD PUSH32 0x8C379A000000000000000000000000000000000000000000000000000000000 DUP2 MSTORE PUSH1 0x4 ADD PUSH2 0xFFB SWAP1 PUSH2 0x1C84 JUMP JUMPDEST PUSH1 0x40 MLOAD DUP1 SWAP2 SUB SWAP1 REVERT JUMPDEST DUP1 PUSH1 0x1 PUSH1 0x0 DUP6 PUSH20 0xFFFFFFFFFFFFFFFFFFFFFFFFFFFFFFFFFFFFFFFF AND PUSH20 0xFFFFFFFFFFFFFFFFFFFFFFFFFFFFFFFFFFFFFFFF AND DUP2 MSTORE PUSH1 0x20 ADD SWAP1 DUP2 MSTORE PUSH1 0x20 ADD PUSH1 0x0 KECCAK256 PUSH1 0x0 DUP5 PUSH20 0xFFFFFFFFFFFFFFFFFFFFFFFFFFFFFFFFFFFFFFFF AND PUSH20 0xFFFFFFFFFFFFFFFFFFFFFFFFFFFFFFFFFFFFFFFF AND DUP2 MSTORE PUSH1 0x20 ADD SWAP1 DUP2 MSTORE PUSH1 0x20 ADD PUSH1 0x0 KECCAK256 DUP2 SWAP1 SSTORE POP DUP2 PUSH20 0xFFFFFFFFFFFFFFFFFFFFFFFFFFFFFFFFFFFFFFFF AND DUP4 PUSH20 0xFFFFFFFFFFFFFFFFFFFFFFFFFFFFFFFFFFFFFFFF AND PUSH32 0x8C5BE1E5EBEC7D5BD14F71427D1E84F3DD0314C0F7B2291E5B200AC8C7C3B925 DUP4 PUSH1 0x40 MLOAD PUSH2 0x10E2 SWAP2 SWAP1 PUSH2 0x1E24 JUMP JUMPDEST PUSH1 0x40 MLOAD DUP1 SWAP2 SUB SWAP1 LOG3 POP POP POP JUMP JUMPDEST PUSH1 0x0 PUSH20 0xFFFFFFFFFFFFFFFFFFFFFFFFFFFFFFFFFFFFFFFF AND DUP4 PUSH20 0xFFFFFFFFFFFFFFFFFFFFFFFFFFFFFFFFFFFFFFFF AND EQ ISZERO PUSH2 0x115F JUMPI PUSH1 0x40 MLOAD PUSH32 0x8C379A000000000000000000000000000000000000000000000000000000000 DUP2 MSTORE PUSH1 0x4 ADD PUSH2 0x1156 SWAP1 PUSH2 0x1D64 JUMP JUMPDEST PUSH1 0x40 MLOAD DUP1 SWAP2 SUB SWAP1 REVERT JUMPDEST PUSH1 0x0 PUSH20 0xFFFFFFFFFFFFFFFFFFFFFFFFFFFFFFFFFFFFFFFF AND DUP3 PUSH20 0xFFFFFFFFFFFFFFFFFFFFFFFFFFFFFFFFFFFFFFFF AND EQ ISZERO PUSH2 0x11CF JUMPI PUSH1 0x40 MLOAD PUSH32 0x8C379A000000000000000000000000000000000000000000000000000000000 DUP2 MSTORE PUSH1 0x4 ADD PUSH2 0x11C6 SWAP1 PUSH2 0x1C04 JUMP JUMPDEST PUSH1 0x40 MLOAD DUP1 SWAP2 SUB SWAP1 REVERT JUMPDEST PUSH2 0x11DA DUP4 DUP4 DUP4 PUSH2 0x1783 JUMP JUMPDEST PUSH1 0x0 DUP1 PUSH1 0x0 DUP6 PUSH20 0xFFFFFFFFFFFFFFFFFFFFFFFFFFFFFFFFFFFFFFFF AND PUSH20 0xFFFFFFFFFFFFFFFFFFFFFFFFFFFFFFFFFFFFFFFF AND DUP2 MSTORE PUSH1 0x20 ADD SWAP1 DUP2 MSTORE PUSH1 0x20 ADD PUSH1 0x0 KECCAK256 SLOAD SWAP1 POP DUP2 DUP2 LT ISZERO PUSH2 0x1260 JUMPI PUSH1 0x40 MLOAD PUSH32 0x8C379A000000000000000000000000000000000000000000000000000000000 DUP2 MSTORE PUSH1 0x4 ADD PUSH2 0x1257 SWAP1 PUSH2 0x1CC4 JUMP JUMPDEST PUSH1 0x40 MLOAD DUP1 SWAP2 SUB SWAP1 REVERT JUMPDEST DUP2 DUP2 SUB PUSH1 0x0 DUP1 DUP7 PUSH20 0xFFFFFFFFFFFFFFFFFFFFFFFFFFFFFFFFFFFFFFFF AND PUSH20 0xFFFFFFFFFFFFFFFFFFFFFFFFFFFFFFFFFFFFFFFF AND DUP2 MSTORE PUSH1 0x20 ADD SWAP1 DUP2 MSTORE PUSH1 0x20 ADD PUSH1 0x0 KECCAK256 DUP2 SWAP1 SSTORE POP DUP2 PUSH1 0x0 DUP1 DUP6 PUSH20 0xFFFFFFFFFFFFFFFFFFFFFFFFFFFFFFFFFFFFFFFF AND PUSH20 0xFFFFFFFFFFFFFFFFFFFFFFFFFFFFFFFFFFFFFFFF AND DUP2 MSTORE PUSH1 0x20 ADD SWAP1 DUP2 MSTORE PUSH1 0x20 ADD PUSH1 0x0 KECCAK256 PUSH1 0x0 DUP3 DUP3 SLOAD PUSH2 0x12F3 SWAP2 SWAP1 PUSH2 0x1E76 JUMP JUMPDEST SWAP3 POP POP DUP2 SWAP1 SSTORE POP DUP3 PUSH20 0xFFFFFFFFFFFFFFFFFFFFFFFFFFFFFFFFFFFFFFFF AND DUP5 PUSH20 0xFFFFFFFFFFFFFFFFFFFFFFFFFFFFFFFFFFFFFFFF AND PUSH32 0xDDF252AD1BE2C89B69C2B068FC378DAA952BA7F163C4A11628F55A4DF523B3EF DUP5 PUSH1 0x40 MLOAD PUSH2 0x1357 SWAP2 SWAP1 PUSH2 0x1E24 JUMP JUMPDEST PUSH1 0x40 MLOAD DUP1 SWAP2 SUB SWAP1 LOG3 PUSH2 0x136A DUP5 DUP5 DUP5 PUSH2 0x1788 JUMP JUMPDEST POP POP POP POP JUMP JUMPDEST PUSH1 0x0 PUSH20 0xFFFFFFFFFFFFFFFFFFFFFFFFFFFFFFFFFFFFFFFF AND DUP3 PUSH20 0xFFFFFFFFFFFFFFFFFFFFFFFFFFFFFFFFFFFFFFFF AND EQ ISZERO PUSH2 0x13E0 JUMPI PUSH1 0x40 MLOAD PUSH32 0x8C379A000000000000000000000000000000000000000000000000000000000 DUP2 MSTORE PUSH1 0x4 ADD PUSH2 0x13D7 SWAP1 PUSH2 0x1D44 JUMP JUMPDEST PUSH1 0x40 MLOAD DUP1 SWAP2 SUB SWAP1 REVERT JUMPDEST PUSH2 0x13EC DUP3 PUSH1 0x0 DUP4 PUSH2 0x1783 JUMP JUMPDEST PUSH1 0x0 DUP1 PUSH1 0x0 DUP5 PUSH20 0xFFFFFFFFFFFFFFFFFFFFFFFFFFFFFFFFFFFFFFFF AND PUSH20 0xFFFFFFFFFFFFFFFFFFFFFFFFFFFFFFFFFFFFFFFF AND DUP2 MSTORE PUSH1 0x20 ADD SWAP1 DUP2 MSTORE PUSH1 0x20 ADD PUSH1 0x0 KECCAK256 SLOAD SWAP1 POP DUP2 DUP2 LT ISZERO PUSH2 0x1472 JUMPI PUSH1 0x40 MLOAD PUSH32 0x8C379A000000000000000000000000000000000000000000000000000000000 DUP2 MSTORE PUSH1 0x4 ADD PUSH2 0x1469 SWAP1 PUSH2 0x1C44 JUMP JUMPDEST PUSH1 0x40 MLOAD DUP1 SWAP2 SUB SWAP1 REVERT JUMPDEST DUP2 DUP2 SUB PUSH1 0x0 DUP1 DUP6 PUSH20 0xFFFFFFFFFFFFFFFFFFFFFFFFFFFFFFFFFFFFFFFF AND PUSH20 0xFFFFFFFFFFFFFFFFFFFFFFFFFFFFFFFFFFFFFFFF AND DUP2 MSTORE PUSH1 0x20 ADD SWAP1 DUP2 MSTORE PUSH1 0x20 ADD PUSH1 0x0 KECCAK256 DUP2 SWAP1 SSTORE POP DUP2 PUSH1 0x2 PUSH1 0x0 DUP3 DUP3 SLOAD PUSH2 0x14C9 SWAP2 SWAP1 PUSH2 0x1ECC JUMP JUMPDEST SWAP3 POP POP DUP2 SWAP1 SSTORE POP PUSH1 0x0 PUSH20 0xFFFFFFFFFFFFFFFFFFFFFFFFFFFFFFFFFFFFFFFF AND DUP4 PUSH20 0xFFFFFFFFFFFFFFFFFFFFFFFFFFFFFFFFFFFFFFFF AND PUSH32 0xDDF252AD1BE2C89B69C2B068FC378DAA952BA7F163C4A11628F55A4DF523B3EF DUP5 PUSH1 0x40 MLOAD PUSH2 0x152E SWAP2 SWAP1 PUSH2 0x1E24 JUMP JUMPDEST PUSH1 0x40 MLOAD DUP1 SWAP2 SUB SWAP1 LOG3 PUSH2 0x1542 DUP4 PUSH1 0x0 DUP5 PUSH2 0x1788 JUMP JUMPDEST POP POP POP JUMP JUMPDEST PUSH1 0x0 PUSH20 0xFFFFFFFFFFFFFFFFFFFFFFFFFFFFFFFFFFFFFFFF AND DUP3 PUSH20 0xFFFFFFFFFFFFFFFFFFFFFFFFFFFFFFFFFFFFFFFF AND EQ ISZERO PUSH2 0x15B7 JUMPI PUSH1 0x40 MLOAD PUSH32 0x8C379A000000000000000000000000000000000000000000000000000000000 DUP2 MSTORE PUSH1 0x4 ADD PUSH2 0x15AE SWAP1 PUSH2 0x1E04 JUMP JUMPDEST PUSH1 0x40 MLOAD DUP1 SWAP2 SUB SWAP1 REVERT JUMPDEST PUSH2 0x15C3 PUSH1 0x0 DUP4 DUP4 PUSH2 0x1783 JUMP JUMPDEST DUP1 PUSH1 0x2 PUSH1 0x0 DUP3 DUP3 SLOAD PUSH2 0x15D5 SWAP2 SWAP1 PUSH2 0x1E76 JUMP JUMPDEST SWAP3 POP POP DUP2 SWAP1 SSTORE POP DUP1 PUSH1 0x0 DUP1 DUP5 PUSH20 0xFFFFFFFFFFFFFFFFFFFFFFFFFFFFFFFFFFFFFFFF AND PUSH20 0xFFFFFFFFFFFFFFFFFFFFFFFFFFFFFFFFFFFFFFFF AND DUP2 MSTORE PUSH1 0x20 ADD SWAP1 DUP2 MSTORE PUSH1 0x20 ADD PUSH1 0x0 KECCAK256 PUSH1 0x0 DUP3 DUP3 SLOAD PUSH2 0x162A SWAP2 SWAP1 PUSH2 0x1E76 JUMP JUMPDEST SWAP3 POP POP DUP2 SWAP1 SSTORE POP DUP2 PUSH20 0xFFFFFFFFFFFFFFFFFFFFFFFFFFFFFFFFFFFFFFFF AND PUSH1 0x0 PUSH20 0xFFFFFFFFFFFFFFFFFFFFFFFFFFFFFFFFFFFFFFFF AND PUSH32 0xDDF252AD1BE2C89B69C2B068FC378DAA952BA7F163C4A11628F55A4DF523B3EF DUP4 PUSH1 0x40 MLOAD PUSH2 0x168F SWAP2 SWAP1 PUSH2 0x1E24 JUMP JUMPDEST PUSH1 0x40 MLOAD DUP1 SWAP2 SUB SWAP1 LOG3 PUSH2 0x16A3 PUSH1 0x0 DUP4 DUP4 PUSH2 0x1788 JUMP JUMPDEST POP POP JUMP JUMPDEST PUSH1 0x0 PUSH1 0x5 PUSH1 0x0 SWAP1 SLOAD SWAP1 PUSH2 0x100 EXP SWAP1 DIV PUSH20 0xFFFFFFFFFFFFFFFFFFFFFFFFFFFFFFFFFFFFFFFF AND SWAP1 POP DUP2 PUSH1 0x5 PUSH1 0x0 PUSH2 0x100 EXP DUP2 SLOAD DUP2 PUSH20 0xFFFFFFFFFFFFFFFFFFFFFFFFFFFFFFFFFFFFFFFF MUL NOT AND SWAP1 DUP4 PUSH20 0xFFFFFFFFFFFFFFFFFFFFFFFFFFFFFFFFFFFFFFFF AND MUL OR SWAP1 SSTORE POP DUP2 PUSH20 0xFFFFFFFFFFFFFFFFFFFFFFFFFFFFFFFFFFFFFFFF AND DUP2 PUSH20 0xFFFFFFFFFFFFFFFFFFFFFFFFFFFFFFFFFFFFFFFF AND PUSH32 0x8BE0079C531659141344CD1FD0A4F28419497F9722A3DAAFE3B4186F6B6457E0 PUSH1 0x40 MLOAD PUSH1 0x40 MLOAD DUP1 SWAP2 SUB SWAP1 LOG3 POP POP JUMP JUMPDEST PUSH1 0x0 DUP2 DUP4 PUSH2 0x177B SWAP2 SWAP1 PUSH2 0x1ECC JUMP JUMPDEST SWAP1 POP SWAP3 SWAP2 POP POP JUMP JUMPDEST POP POP POP JUMP JUMPDEST POP POP POP JUMP JUMPDEST PUSH1 0x0 DUP2 CALLDATALOAD SWAP1 POP PUSH2 0x179C DUP2 PUSH2 0x24DE JUMP JUMPDEST SWAP3 SWAP2 POP POP JUMP JUMPDEST PUSH1 0x0 DUP2 CALLDATALOAD SWAP1 POP PUSH2 0x17B1 DUP2 PUSH2 0x24F5 JUMP JUMPDEST SWAP3 SWAP2 POP POP JUMP JUMPDEST PUSH1 0x0 PUSH1 0x20 DUP3 DUP5 SUB SLT ISZERO PUSH2 0x17CD JUMPI PUSH2 0x17CC PUSH2 0x2047 JUMP JUMPDEST JUMPDEST PUSH1 0x0 PUSH2 0x17DB DUP5 DUP3 DUP6 ADD PUSH2 0x178D JUMP JUMPDEST SWAP2 POP POP SWAP3 SWAP2 POP POP JUMP JUMPDEST PUSH1 0x0 DUP1 PUSH1 0x40 DUP4 DUP6 SUB SLT ISZERO PUSH2 0x17FB JUMPI PUSH2 0x17FA PUSH2 0x2047 JUMP JUMPDEST JUMPDEST PUSH1 0x0 PUSH2 0x1809 DUP6 DUP3 DUP7 ADD PUSH2 0x178D JUMP JUMPDEST SWAP3 POP POP PUSH1 0x20 PUSH2 0x181A DUP6 DUP3 DUP7 ADD PUSH2 0x178D JUMP JUMPDEST SWAP2 POP POP SWAP3 POP SWAP3 SWAP1 POP JUMP JUMPDEST PUSH1 0x0 DUP1 PUSH1 0x0 PUSH1 0x60 DUP5 DUP7 SUB SLT ISZERO PUSH2 0x183D JUMPI PUSH2 0x183C PUSH2 0x2047 JUMP JUMPDEST JUMPDEST PUSH1 0x0 PUSH2 0x184B DUP7 DUP3 DUP8 ADD PUSH2 0x178D JUMP JUMPDEST SWAP4 POP POP PUSH1 0x20 PUSH2 0x185C DUP7 DUP3 DUP8 ADD PUSH2 0x178D JUMP JUMPDEST SWAP3 POP POP PUSH1 0x40 PUSH2 0x186D DUP7 DUP3 DUP8 ADD PUSH2 0x17A2 JUMP JUMPDEST SWAP2 POP POP SWAP3 POP SWAP3 POP SWAP3 JUMP JUMPDEST PUSH1 0x0 DUP1 PUSH1 0x40 DUP4 DUP6 SUB SLT ISZERO PUSH2 0x188E JUMPI PUSH2 0x188D PUSH2 0x2047 JUMP JUMPDEST JUMPDEST PUSH1 0x0 PUSH2 0x189C DUP6 DUP3 DUP7 ADD PUSH2 0x178D JUMP JUMPDEST SWAP3 POP POP PUSH1 0x20 PUSH2 0x18AD DUP6 DUP3 DUP7 ADD PUSH2 0x17A2 JUMP JUMPDEST SWAP2 POP POP SWAP3 POP SWAP3 SWAP1 POP JUMP JUMPDEST PUSH1 0x0 PUSH1 0x20 DUP3 DUP5 SUB SLT ISZERO PUSH2 0x18CD JUMPI PUSH2 0x18CC PUSH2 0x2047 JUMP JUMPDEST JUMPDEST PUSH1 0x0 PUSH2 0x18DB DUP5 DUP3 DUP6 ADD PUSH2 0x17A2 JUMP JUMPDEST SWAP2 POP POP SWAP3 SWAP2 POP POP JUMP JUMPDEST PUSH2 0x18ED DUP2 PUSH2 0x1F00 JUMP JUMPDEST DUP3 MSTORE POP POP JUMP JUMPDEST PUSH2 0x18FC DUP2 PUSH2 0x1F12 JUMP JUMPDEST DUP3 MSTORE POP POP JUMP JUMPDEST PUSH1 0x0 PUSH2 0x190D DUP3 PUSH2 0x1E5A JUMP JUMPDEST PUSH2 0x1917 DUP2 DUP6 PUSH2 0x1E65 JUMP JUMPDEST SWAP4 POP PUSH2 0x1927 DUP2 DUP6 PUSH1 0x20 DUP7 ADD PUSH2 0x1F55 JUMP JUMPDEST PUSH2 0x1930 DUP2 PUSH2 0x204C JUMP JUMPDEST DUP5 ADD SWAP2 POP POP SWAP3 SWAP2 POP POP JUMP JUMPDEST PUSH1 0x0 PUSH2 0x1948 PUSH1 0x23 DUP4 PUSH2 0x1E65 JUMP JUMPDEST SWAP2 POP PUSH2 0x1953 DUP3 PUSH2 0x205D JUMP JUMPDEST PUSH1 0x40 DUP3 ADD SWAP1 POP SWAP2 SWAP1 POP JUMP JUMPDEST PUSH1 0x0 PUSH2 0x196B PUSH1 0x14 DUP4 PUSH2 0x1E65 JUMP JUMPDEST SWAP2 POP PUSH2 0x1976 DUP3 PUSH2 0x20AC JUMP JUMPDEST PUSH1 0x20 DUP3 ADD SWAP1 POP SWAP2 SWAP1 POP JUMP JUMPDEST PUSH1 0x0 PUSH2 0x198E PUSH1 0x22 DUP4 PUSH2 0x1E65 JUMP JUMPDEST SWAP2 POP PUSH2 0x1999 DUP3 PUSH2 0x20D5 JUMP JUMPDEST PUSH1 0x40 DUP3 ADD SWAP1 POP SWAP2 SWAP1 POP JUMP JUMPDEST PUSH1 0x0 PUSH2 0x19B1 PUSH1 0x26 DUP4 PUSH2 0x1E65 JUMP JUMPDEST SWAP2 POP PUSH2 0x19BC DUP3 PUSH2 0x2124 JUMP JUMPDEST PUSH1 0x40 DUP3 ADD SWAP1 POP SWAP2 SWAP1 POP JUMP JUMPDEST PUSH1 0x0 PUSH2 0x19D4 PUSH1 0x22 DUP4 PUSH2 0x1E65 JUMP JUMPDEST SWAP2 POP PUSH2 0x19DF DUP3 PUSH2 0x2173 JUMP JUMPDEST PUSH1 0x40 DUP3 ADD SWAP1 POP SWAP2 SWAP1 POP JUMP JUMPDEST PUSH1 0x0 PUSH2 0x19F7 PUSH1 0x21 DUP4 PUSH2 0x1E65 JUMP JUMPDEST SWAP2 POP PUSH2 0x1A02 DUP3 PUSH2 0x21C2 JUMP JUMPDEST PUSH1 0x40 DUP3 ADD SWAP1 POP SWAP2 SWAP1 POP JUMP JUMPDEST PUSH1 0x0 PUSH2 0x1A1A PUSH1 0x26 DUP4 PUSH2 0x1E65 JUMP JUMPDEST SWAP2 POP PUSH2 0x1A25 DUP3 PUSH2 0x2211 JUMP JUMPDEST PUSH1 0x40 DUP3 ADD SWAP1 POP SWAP2 SWAP1 POP JUMP JUMPDEST PUSH1 0x0 PUSH2 0x1A3D PUSH1 0x24 DUP4 PUSH2 0x1E65 JUMP JUMPDEST SWAP2 POP PUSH2 0x1A48 DUP3 PUSH2 0x2260 JUMP JUMPDEST PUSH1 0x40 DUP3 ADD SWAP1 POP SWAP2 SWAP1 POP JUMP JUMPDEST PUSH1 0x0 PUSH2 0x1A60 PUSH1 0x28 DUP4 PUSH2 0x1E65 JUMP JUMPDEST SWAP2 POP PUSH2 0x1A6B DUP3 PUSH2 0x22AF JUMP JUMPDEST PUSH1 0x40 DUP3 ADD SWAP1 POP SWAP2 SWAP1 POP JUMP JUMPDEST PUSH1 0x0 PUSH2 0x1A83 PUSH1 0x20 DUP4 PUSH2 0x1E65 JUMP JUMPDEST SWAP2 POP PUSH2 0x1A8E DUP3 PUSH2 0x22FE JUMP JUMPDEST PUSH1 0x20 DUP3 ADD SWAP1 POP SWAP2 SWAP1 POP JUMP JUMPDEST PUSH1 0x0 PUSH2 0x1AA6 PUSH1 0x21 DUP4 PUSH2 0x1E65 JUMP JUMPDEST SWAP2 POP PUSH2 0x1AB1 DUP3 PUSH2 0x2327 JUMP JUMPDEST PUSH1 0x40 DUP3 ADD SWAP1 POP SWAP2 SWAP1 POP JUMP JUMPDEST PUSH1 0x0 PUSH2 0x1AC9 PUSH1 0x25 DUP4 PUSH2 0x1E65 JUMP JUMPDEST SWAP2 POP PUSH2 0x1AD4 DUP3 PUSH2 0x2376 JUMP JUMPDEST PUSH1 0x40 DUP3 ADD SWAP1 POP SWAP2 SWAP1 POP JUMP JUMPDEST PUSH1 0x0 PUSH2 0x1AEC PUSH1 0x18 DUP4 PUSH2 0x1E65 JUMP JUMPDEST SWAP2 POP PUSH2 0x1AF7 DUP3 PUSH2 0x23C5 JUMP JUMPDEST PUSH1 0x20 DUP3 ADD SWAP1 POP SWAP2 SWAP1 POP JUMP JUMPDEST PUSH1 0x0 PUSH2 0x1B0F PUSH1 0x24 DUP4 PUSH2 0x1E65 JUMP JUMPDEST SWAP2 POP PUSH2 0x1B1A DUP3 PUSH2 0x23EE JUMP JUMPDEST PUSH1 0x40 DUP3 ADD SWAP1 POP SWAP2 SWAP1 POP JUMP JUMPDEST PUSH1 0x0 PUSH2 0x1B32 PUSH1 0x18 DUP4 PUSH2 0x1E65 JUMP JUMPDEST SWAP2 POP PUSH2 0x1B3D DUP3 PUSH2 0x243D JUMP JUMPDEST PUSH1 0x20 DUP3 ADD SWAP1 POP SWAP2 SWAP1 POP JUMP JUMPDEST PUSH1 0x0 PUSH2 0x1B55 PUSH1 0x25 DUP4 PUSH2 0x1E65 JUMP JUMPDEST SWAP2 POP PUSH2 0x1B60 DUP3 PUSH2 0x2466 JUMP JUMPDEST PUSH1 0x40 DUP3 ADD SWAP1 POP SWAP2 SWAP1 POP JUMP JUMPDEST PUSH1 0x0 PUSH2 0x1B78 PUSH1 0x1F DUP4 PUSH2 0x1E65 JUMP JUMPDEST SWAP2 POP PUSH2 0x1B83 DUP3 PUSH2 0x24B5 JUMP JUMPDEST PUSH1 0x20 DUP3 ADD SWAP1 POP SWAP2 SWAP1 POP JUMP JUMPDEST PUSH2 0x1B97 DUP2 PUSH2 0x1F3E JUMP JUMPDEST DUP3 MSTORE POP POP JUMP JUMPDEST PUSH2 0x1BA6 DUP2 PUSH2 0x1F48 JUMP JUMPDEST DUP3 MSTORE POP POP JUMP JUMPDEST PUSH1 0x0 PUSH1 0x20 DUP3 ADD SWAP1 POP PUSH2 0x1BC1 PUSH1 0x0 DUP4 ADD DUP5 PUSH2 0x18E4 JUMP JUMPDEST SWAP3 SWAP2 POP POP JUMP JUMPDEST PUSH1 0x0 PUSH1 0x20 DUP3 ADD SWAP1 POP PUSH2 0x1BDC PUSH1 0x0 DUP4 ADD DUP5 PUSH2 0x18F3 JUMP JUMPDEST SWAP3 SWAP2 POP POP JUMP JUMPDEST PUSH1 0x0 PUSH1 0x20 DUP3 ADD SWAP1 POP DUP2 DUP2 SUB PUSH1 0x0 DUP4 ADD MSTORE PUSH2 0x1BFC DUP2 DUP5 PUSH2 0x1902 JUMP JUMPDEST SWAP1 POP SWAP3 SWAP2 POP POP JUMP JUMPDEST PUSH1 0x0 PUSH1 0x20 DUP3 ADD SWAP1 POP DUP2 DUP2 SUB PUSH1 0x0 DUP4 ADD MSTORE PUSH2 0x1C1D DUP2 PUSH2 0x193B JUMP JUMPDEST SWAP1 POP SWAP2 SWAP1 POP JUMP JUMPDEST PUSH1 0x0 PUSH1 0x20 DUP3 ADD SWAP1 POP DUP2 DUP2 SUB PUSH1 0x0 DUP4 ADD MSTORE PUSH2 0x1C3D DUP2 PUSH2 0x195E JUMP JUMPDEST SWAP1 POP SWAP2 SWAP1 POP JUMP JUMPDEST PUSH1 0x0 PUSH1 0x20 DUP3 ADD SWAP1 POP DUP2 DUP2 SUB PUSH1 0x0 DUP4 ADD MSTORE PUSH2 0x1C5D DUP2 PUSH2 0x1981 JUMP JUMPDEST SWAP1 POP SWAP2 SWAP1 POP JUMP JUMPDEST PUSH1 0x0 PUSH1 0x20 DUP3 ADD SWAP1 POP DUP2 DUP2 SUB PUSH1 0x0 DUP4 ADD MSTORE PUSH2 0x1C7D DUP2 PUSH2 0x19A4 JUMP JUMPDEST SWAP1 POP SWAP2 SWAP1 POP JUMP JUMPDEST PUSH1 0x0 PUSH1 0x20 DUP3 ADD SWAP1 POP DUP2 DUP2 SUB PUSH1 0x0 DUP4 ADD MSTORE PUSH2 0x1C9D DUP2 PUSH2 0x19C7 JUMP JUMPDEST SWAP1 POP SWAP2 SWAP1 POP JUMP JUMPDEST PUSH1 0x0 PUSH1 0x20 DUP3 ADD SWAP1 POP DUP2 DUP2 SUB PUSH1 0x0 DUP4 ADD MSTORE PUSH2 0x1CBD DUP2 PUSH2 0x19EA JUMP JUMPDEST SWAP1 POP SWAP2 SWAP1 POP JUMP JUMPDEST PUSH1 0x0 PUSH1 0x20 DUP3 ADD SWAP1 POP DUP2 DUP2 SUB PUSH1 0x0 DUP4 ADD MSTORE PUSH2 0x1CDD DUP2 PUSH2 0x1A0D JUMP JUMPDEST SWAP1 POP SWAP2 SWAP1 POP JUMP JUMPDEST PUSH1 0x0 PUSH1 0x20 DUP3 ADD SWAP1 POP DUP2 DUP2 SUB PUSH1 0x0 DUP4 ADD MSTORE PUSH2 0x1CFD DUP2 PUSH2 0x1A30 JUMP JUMPDEST SWAP1 POP SWAP2 SWAP1 POP JUMP JUMPDEST PUSH1 0x0 PUSH1 0x20 DUP3 ADD SWAP1 POP DUP2 DUP2 SUB PUSH1 0x0 DUP4 ADD MSTORE PUSH2 0x1D1D DUP2 PUSH2 0x1A53 JUMP JUMPDEST SWAP1 POP SWAP2 SWAP1 POP JUMP JUMPDEST PUSH1 0x0 PUSH1 0x20 DUP3 ADD SWAP1 POP DUP2 DUP2 SUB PUSH1 0x0 DUP4 ADD MSTORE PUSH2 0x1D3D DUP2 PUSH2 0x1A76 JUMP JUMPDEST SWAP1 POP SWAP2 SWAP1 POP JUMP JUMPDEST PUSH1 0x0 PUSH1 0x20 DUP3 ADD SWAP1 POP DUP2 DUP2 SUB PUSH1 0x0 DUP4 ADD MSTORE PUSH2 0x1D5D DUP2 PUSH2 0x1A99 JUMP JUMPDEST SWAP1 POP SWAP2 SWAP1 POP JUMP JUMPDEST PUSH1 0x0 PUSH1 0x20 DUP3 ADD SWAP1 POP DUP2 DUP2 SUB PUSH1 0x0 DUP4 ADD MSTORE PUSH2 0x1D7D DUP2 PUSH2 0x1ABC JUMP JUMPDEST SWAP1 POP SWAP2 SWAP1 POP JUMP JUMPDEST PUSH1 0x0 PUSH1 0x20 DUP3 ADD SWAP1 POP DUP2 DUP2 SUB PUSH1 0x0 DUP4 ADD MSTORE PUSH2 0x1D9D DUP2 PUSH2 0x1ADF JUMP JUMPDEST SWAP1 POP SWAP2 SWAP1 POP JUMP JUMPDEST PUSH1 0x0 PUSH1 0x20 DUP3 ADD SWAP1 POP DUP2 DUP2 SUB PUSH1 0x0 DUP4 ADD MSTORE PUSH2 0x1DBD DUP2 PUSH2 0x1B02 JUMP JUMPDEST SWAP1 POP SWAP2 SWAP1 POP JUMP JUMPDEST PUSH1 0x0 PUSH1 0x20 DUP3 ADD SWAP1 POP DUP2 DUP2 SUB PUSH1 0x0 DUP4 ADD MSTORE PUSH2 0x1DDD DUP2 PUSH2 0x1B25 JUMP JUMPDEST SWAP1 POP SWAP2 SWAP1 POP JUMP JUMPDEST PUSH1 0x0 PUSH1 0x20 DUP3 ADD SWAP1 POP DUP2 DUP2 SUB PUSH1 0x0 DUP4 ADD MSTORE PUSH2 0x1DFD DUP2 PUSH2 0x1B48 JUMP JUMPDEST SWAP1 POP SWAP2 SWAP1 POP JUMP JUMPDEST PUSH1 0x0 PUSH1 0x20 DUP3 ADD SWAP1 POP DUP2 DUP2 SUB PUSH1 0x0 DUP4 ADD MSTORE PUSH2 0x1E1D DUP2 PUSH2 0x1B6B JUMP JUMPDEST SWAP1 POP SWAP2 SWAP1 POP JUMP JUMPDEST PUSH1 0x0 PUSH1 0x20 DUP3 ADD SWAP1 POP PUSH2 0x1E39 PUSH1 0x0 DUP4 ADD DUP5 PUSH2 0x1B8E JUMP JUMPDEST SWAP3 SWAP2 POP POP JUMP JUMPDEST PUSH1 0x0 PUSH1 0x20 DUP3 ADD SWAP1 POP PUSH2 0x1E54 PUSH1 0x0 DUP4 ADD DUP5 PUSH2 0x1B9D JUMP JUMPDEST SWAP3 SWAP2 POP POP JUMP JUMPDEST PUSH1 0x0 DUP2 MLOAD SWAP1 POP SWAP2 SWAP1 POP JUMP JUMPDEST PUSH1 0x0 DUP3 DUP3 MSTORE PUSH1 0x20 DUP3 ADD SWAP1 POP SWAP3 SWAP2 POP POP JUMP JUMPDEST PUSH1 0x0 PUSH2 0x1E81 DUP3 PUSH2 0x1F3E JUMP JUMPDEST SWAP2 POP PUSH2 0x1E8C DUP4 PUSH2 0x1F3E JUMP JUMPDEST SWAP3 POP DUP3 PUSH32 0xFFFFFFFFFFFFFFFFFFFFFFFFFFFFFFFFFFFFFFFFFFFFFFFFFFFFFFFFFFFFFFFF SUB DUP3 GT ISZERO PUSH2 0x1EC1 JUMPI PUSH2 0x1EC0 PUSH2 0x1FBA JUMP JUMPDEST JUMPDEST DUP3 DUP3 ADD SWAP1 POP SWAP3 SWAP2 POP POP JUMP JUMPDEST PUSH1 0x0 PUSH2 0x1ED7 DUP3 PUSH2 0x1F3E JUMP JUMPDEST SWAP2 POP PUSH2 0x1EE2 DUP4 PUSH2 0x1F3E JUMP JUMPDEST SWAP3 POP DUP3 DUP3 LT ISZERO PUSH2 0x1EF5 JUMPI PUSH2 0x1EF4 PUSH2 0x1FBA JUMP JUMPDEST JUMPDEST DUP3 DUP3 SUB SWAP1 POP SWAP3 SWAP2 POP POP JUMP JUMPDEST PUSH1 0x0 PUSH2 0x1F0B DUP3 PUSH2 0x1F1E JUMP JUMPDEST SWAP1 POP SWAP2 SWAP1 POP JUMP JUMPDEST PUSH1 0x0 DUP2 ISZERO ISZERO SWAP1 POP SWAP2 SWAP1 POP JUMP JUMPDEST PUSH1 0x0 PUSH20 0xFFFFFFFFFFFFFFFFFFFFFFFFFFFFFFFFFFFFFFFF DUP3 AND SWAP1 POP SWAP2 SWAP1 POP JUMP JUMPDEST PUSH1 0x0 DUP2 SWAP1 POP SWAP2 SWAP1 POP JUMP JUMPDEST PUSH1 0x0 PUSH1 0xFF DUP3 AND SWAP1 POP SWAP2 SWAP1 POP JUMP JUMPDEST PUSH1 0x0 JUMPDEST DUP4 DUP2 LT ISZERO PUSH2 0x1F73 JUMPI DUP1 DUP3 ADD MLOAD DUP2 DUP5 ADD MSTORE PUSH1 0x20 DUP2 ADD SWAP1 POP PUSH2 0x1F58 JUMP JUMPDEST DUP4 DUP2 GT ISZERO PUSH2 0x1F82 JUMPI PUSH1 0x0 DUP5 DUP5 ADD MSTORE JUMPDEST POP POP POP POP JUMP JUMPDEST PUSH1 0x0 PUSH1 0x2 DUP3 DIV SWAP1 POP PUSH1 0x1 DUP3 AND DUP1 PUSH2 0x1FA0 JUMPI PUSH1 0x7F DUP3 AND SWAP2 POP JUMPDEST PUSH1 0x20 DUP3 LT DUP2 EQ ISZERO PUSH2 0x1FB4 JUMPI PUSH2 0x1FB3 PUSH2 0x1FE9 JUMP JUMPDEST JUMPDEST POP SWAP2 SWAP1 POP JUMP JUMPDEST PUSH32 0x4E487B7100000000000000000000000000000000000000000000000000000000 PUSH1 0x0 MSTORE PUSH1 0x11 PUSH1 0x4 MSTORE PUSH1 0x24 PUSH1 0x0 REVERT JUMPDEST PUSH32 0x4E487B7100000000000000000000000000000000000000000000000000000000 PUSH1 0x0 MSTORE PUSH1 0x22 PUSH1 0x4 MSTORE PUSH1 0x24 PUSH1 0x0 REVERT JUMPDEST PUSH32 0x4E487B7100000000000000000000000000000000000000000000000000000000 PUSH1 0x0 MSTORE PUSH1 0x32 PUSH1 0x4 MSTORE PUSH1 0x24 PUSH1 0x0 REVERT JUMPDEST PUSH1 0x0 DUP1 REVERT JUMPDEST PUSH1 0x0 PUSH1 0x1F NOT PUSH1 0x1F DUP4 ADD AND SWAP1 POP SWAP2 SWAP1 POP JUMP JUMPDEST PUSH32 0x45524332303A207472616E7366657220746F20746865207A65726F2061646472 PUSH1 0x0 DUP3 ADD MSTORE PUSH32 0x6573730000000000000000000000000000000000000000000000000000000000 PUSH1 0x20 DUP3 ADD MSTORE POP JUMP JUMPDEST PUSH32 0x485754546F6B656E3A20616C6C206D696E746564000000000000000000000000 PUSH1 0x0 DUP3 ADD MSTORE POP JUMP JUMPDEST PUSH32 0x45524332303A206275726E20616D6F756E7420657863656564732062616C616E PUSH1 0x0 DUP3 ADD MSTORE PUSH32 0x6365000000000000000000000000000000000000000000000000000000000000 PUSH1 0x20 DUP3 ADD MSTORE POP JUMP JUMPDEST PUSH32 0x4F776E61626C653A206E6577206F776E657220697320746865207A65726F2061 PUSH1 0x0 DUP3 ADD MSTORE PUSH32 0x6464726573730000000000000000000000000000000000000000000000000000 PUSH1 0x20 DUP3 ADD MSTORE POP JUMP JUMPDEST PUSH32 0x45524332303A20617070726F766520746F20746865207A65726F206164647265 PUSH1 0x0 DUP3 ADD MSTORE PUSH32 0x7373000000000000000000000000000000000000000000000000000000000000 PUSH1 0x20 DUP3 ADD MSTORE POP JUMP JUMPDEST PUSH32 0x485754546F6B656E3A206D696E74696E67206E6F7420616C6C6F776564207965 PUSH1 0x0 DUP3 ADD MSTORE PUSH32 0x7400000000000000000000000000000000000000000000000000000000000000 PUSH1 0x20 DUP3 ADD MSTORE POP JUMP JUMPDEST PUSH32 0x45524332303A207472616E7366657220616D6F756E7420657863656564732062 PUSH1 0x0 DUP3 ADD MSTORE PUSH32 0x616C616E63650000000000000000000000000000000000000000000000000000 PUSH1 0x20 DUP3 ADD MSTORE POP JUMP JUMPDEST PUSH32 0x485754546F6B656E3A2063616E6E6F7420626520746865207A65726F20616464 PUSH1 0x0 DUP3 ADD MSTORE PUSH32 0x7265737300000000000000000000000000000000000000000000000000000000 PUSH1 0x20 DUP3 ADD MSTORE POP JUMP JUMPDEST PUSH32 0x45524332303A207472616E7366657220616D6F756E7420657863656564732061 PUSH1 0x0 DUP3 ADD MSTORE PUSH32 0x6C6C6F77616E6365000000000000000000000000000000000000000000000000 PUSH1 0x20 DUP3 ADD MSTORE POP JUMP JUMPDEST PUSH32 0x4F776E61626C653A2063616C6C6572206973206E6F7420746865206F776E6572 PUSH1 0x0 DUP3 ADD MSTORE POP JUMP JUMPDEST PUSH32 0x45524332303A206275726E2066726F6D20746865207A65726F20616464726573 PUSH1 0x0 DUP3 ADD MSTORE PUSH32 0x7300000000000000000000000000000000000000000000000000000000000000 PUSH1 0x20 DUP3 ADD MSTORE POP JUMP JUMPDEST PUSH32 0x45524332303A207472616E736665722066726F6D20746865207A65726F206164 PUSH1 0x0 DUP3 ADD MSTORE PUSH32 0x6472657373000000000000000000000000000000000000000000000000000000 PUSH1 0x20 DUP3 ADD MSTORE POP JUMP JUMPDEST PUSH32 0x485754546F6B656E3A20696E76616C6964206D696E7465720000000000000000 PUSH1 0x0 DUP3 ADD MSTORE POP JUMP JUMPDEST PUSH32 0x45524332303A20617070726F76652066726F6D20746865207A65726F20616464 PUSH1 0x0 DUP3 ADD MSTORE PUSH32 0x7265737300000000000000000000000000000000000000000000000000000000 PUSH1 0x20 DUP3 ADD MSTORE POP JUMP JUMPDEST PUSH32 0x485754546F6B656E3A206275726E2066726F6D207A65726F0000000000000000 PUSH1 0x0 DUP3 ADD MSTORE POP JUMP JUMPDEST PUSH32 0x45524332303A2064656372656173656420616C6C6F77616E63652062656C6F77 PUSH1 0x0 DUP3 ADD MSTORE PUSH32 0x207A65726F000000000000000000000000000000000000000000000000000000 PUSH1 0x20 DUP3 ADD MSTORE POP JUMP JUMPDEST PUSH32 0x45524332303A206D696E7420746F20746865207A65726F206164647265737300 PUSH1 0x0 DUP3 ADD MSTORE POP JUMP JUMPDEST PUSH2 0x24E7 DUP2 PUSH2 0x1F00 JUMP JUMPDEST DUP2 EQ PUSH2 0x24F2 JUMPI PUSH1 0x0 DUP1 REVERT JUMPDEST POP JUMP JUMPDEST PUSH2 0x24FE DUP2 PUSH2 0x1F3E JUMP JUMPDEST DUP2 EQ PUSH2 0x2509 JUMPI PUSH1 0x0 DUP1 REVERT JUMPDEST POP JUMP INVALID LOG2 PUSH5 0x6970667358 0x22 SLT KECCAK256 0xC8 BYTE LOG3 0x2D 0xBF PUSH12 0x44CCAC5124EFE52FD583930D 0xA8 0xEF DUP5 PC PUSH2 0xC3E3 PUSH21 0xFD3C934CC8B464736F6C6343000807003300000000 "
				},
				"gasEstimates": {
					"creation": {
						"codeDepositCost": "1907600",
						"executionCost": "infinite",
						"totalCost": "infinite"
					},
					"external": {
						"MAX_MINT_TIMES()": "395",
						"MINT_INTERVAL()": "396",
						"allowance(address,address)": "infinite",
						"approve(address,uint256)": "infinite",
						"balanceOf(address)": "2952",
						"burn(uint256)": "infinite",
						"burnFrom(address,uint256)": "infinite",
						"decimals()": "477",
						"decreaseAllowance(address,uint256)": "infinite",
						"getNextMintTime()": "infinite",
						"increaseAllowance(address,uint256)": "infinite",
						"lastMintTime()": "2562",
						"mainPool()": "2581",
						"maxMintAmounts(uint256)": "infinite",
						"mint(address)": "infinite",
						"mintTimes()": "2452",
						"name()": "infinite",
						"owner()": "2611",
						"renounceOwnership()": "30507",
						"setMainPool(address)": "27112",
						"symbol()": "infinite",
						"totalSupply()": "2505",
						"transfer(address,uint256)": "infinite",
						"transferFrom(address,address,uint256)": "infinite",
						"transferOwnership(address)": "30833"
					}
				},
				"methodIdentifiers": {
					"MAX_MINT_TIMES()": "c0972cc4",
					"MINT_INTERVAL()": "84e7e3d3",
					"allowance(address,address)": "dd62ed3e",
					"approve(address,uint256)": "095ea7b3",
					"balanceOf(address)": "70a08231",
					"burn(uint256)": "42966c68",
					"burnFrom(address,uint256)": "79cc6790",
					"decimals()": "313ce567",
					"decreaseAllowance(address,uint256)": "a457c2d7",
					"getNextMintTime()": "be146adc",
					"increaseAllowance(address,uint256)": "39509351",
					"lastMintTime()": "9d463520",
					"mainPool()": "a5a302d3",
					"maxMintAmounts(uint256)": "36031a46",
					"mint(address)": "6a627842",
					"mintTimes()": "755cc41e",
					"name()": "06fdde03",
					"owner()": "8da5cb5b",
					"renounceOwnership()": "715018a6",
					"setMainPool(address)": "29dbecb1",
					"symbol()": "95d89b41",
					"totalSupply()": "18160ddd",
					"transfer(address,uint256)": "a9059cbb",
					"transferFrom(address,address,uint256)": "23b872dd",
					"transferOwnership(address)": "f2fde38b"
				}
			},
			"storageLayout": {
				"storage": [
					{
						"astId": 133,
						"contract": "contracts/Lottery.sol:HWTToken",
						"label": "_balances",
						"offset": 0,
						"slot": "0",
						"type": "t_mapping(t_address,t_uint256)"
					},
					{
						"astId": 139,
						"contract": "contracts/Lottery.sol:HWTToken",
						"label": "_allowances",
						"offset": 0,
						"slot": "1",
						"type": "t_mapping(t_address,t_mapping(t_address,t_uint256))"
					},
					{
						"astId": 141,
						"contract": "contracts/Lottery.sol:HWTToken",
						"label": "_totalSupply",
						"offset": 0,
						"slot": "2",
						"type": "t_uint256"
					},
					{
						"astId": 143,
						"contract": "contracts/Lottery.sol:HWTToken",
						"label": "_name",
						"offset": 0,
						"slot": "3",
						"type": "t_string_storage"
					},
					{
						"astId": 145,
						"contract": "contracts/Lottery.sol:HWTToken",
						"label": "_symbol",
						"offset": 0,
						"slot": "4",
						"type": "t_string_storage"
					},
					{
						"astId": 669,
						"contract": "contracts/Lottery.sol:HWTToken",
						"label": "_owner",
						"offset": 0,
						"slot": "5",
						"type": "t_address"
					},
					{
						"astId": 1089,
						"contract": "contracts/Lottery.sol:HWTToken",
						"label": "mainPool",
						"offset": 0,
						"slot": "6",
						"type": "t_address"
					},
					{
						"astId": 1094,
						"contract": "contracts/Lottery.sol:HWTToken",
						"label": "lastMintTime",
						"offset": 0,
						"slot": "7",
						"type": "t_uint256"
					},
					{
						"astId": 1098,
						"contract": "contracts/Lottery.sol:HWTToken",
						"label": "maxMintAmounts",
						"offset": 0,
						"slot": "8",
						"type": "t_array(t_uint256)5_storage"
					},
					{
						"astId": 1101,
						"contract": "contracts/Lottery.sol:HWTToken",
						"label": "mintTimes",
						"offset": 0,
						"slot": "13",
						"type": "t_uint256"
					}
				],
				"types": {
					"t_address": {
						"encoding": "inplace",
						"label": "address",
						"numberOfBytes": "20"
					},
					"t_array(t_uint256)5_storage": {
						"base": "t_uint256",
						"encoding": "inplace",
						"label": "uint256[5]",
						"numberOfBytes": "160"
					},
					"t_mapping(t_address,t_mapping(t_address,t_uint256))": {
						"encoding": "mapping",
						"key": "t_address",
						"label": "mapping(address => mapping(address => uint256))",
						"numberOfBytes": "32",
						"value": "t_mapping(t_address,t_uint256)"
					},
					"t_mapping(t_address,t_uint256)": {
						"encoding": "mapping",
						"key": "t_address",
						"label": "mapping(address => uint256)",
						"numberOfBytes": "32",
						"value": "t_uint256"
					},
					"t_string_storage": {
						"encoding": "bytes",
						"label": "string",
						"numberOfBytes": "32"
					},
					"t_uint256": {
						"encoding": "inplace",
						"label": "uint256",
						"numberOfBytes": "32"
					}
				}
			},
			"userdoc": {
				"kind": "user",
				"methods": {
					"mint(address)": {
						"notice": "Mint HWT to the main pool every year"
					},
					"setMainPool(address)": {
						"notice": "Set the target mining pool contract for minting"
					}
				},
				"version": 1
			}
		}
	}
}