{
	"contracts/FishRings.sol": {
		"PiratesCoins": {
			"abi": [
				{
					"inputs": [],
					"stateMutability": "nonpayable",
					"type": "constructor"
				},
				{
					"anonymous": false,
					"inputs": [
						{
							"indexed": true,
							"internalType": "address",
							"name": "owner",
							"type": "address"
						},
						{
							"indexed": true,
							"internalType": "address",
							"name": "spender",
							"type": "address"
						},
						{
							"indexed": false,
							"internalType": "uint256",
							"name": "value",
							"type": "uint256"
						}
					],
					"name": "Approval",
					"type": "event"
				},
				{
					"anonymous": false,
					"inputs": [
						{
							"indexed": true,
							"internalType": "address",
							"name": "previousOwner",
							"type": "address"
						},
						{
							"indexed": true,
							"internalType": "address",
							"name": "newOwner",
							"type": "address"
						}
					],
					"name": "OwnershipTransferred",
					"type": "event"
				},
				{
					"anonymous": false,
					"inputs": [
						{
							"indexed": true,
							"internalType": "address",
							"name": "from",
							"type": "address"
						},
						{
							"indexed": true,
							"internalType": "address",
							"name": "to",
							"type": "address"
						},
						{
							"indexed": false,
							"internalType": "uint256",
							"name": "value",
							"type": "uint256"
						}
					],
					"name": "Transfer",
					"type": "event"
				},
				{
					"inputs": [],
					"name": "acceptOwnership",
					"outputs": [],
					"stateMutability": "nonpayable",
					"type": "function"
				},
				{
					"inputs": [
						{
							"internalType": "address",
							"name": "owner",
							"type": "address"
						},
						{
							"internalType": "address",
							"name": "spender",
							"type": "address"
						}
					],
					"name": "allowance",
					"outputs": [
						{
							"internalType": "uint256",
							"name": "",
							"type": "uint256"
						}
					],
					"stateMutability": "view",
					"type": "function"
				},
				{
					"inputs": [
						{
							"internalType": "address",
							"name": "spender",
							"type": "address"
						},
						{
							"internalType": "uint256",
							"name": "amount",
							"type": "uint256"
						}
					],
					"name": "approve",
					"outputs": [
						{
							"internalType": "bool",
							"name": "",
							"type": "bool"
						}
					],
					"stateMutability": "nonpayable",
					"type": "function"
				},
				{
					"inputs": [
						{
							"internalType": "address",
							"name": "account",
							"type": "address"
						}
					],
					"name": "balanceOf",
					"outputs": [
						{
							"internalType": "uint256",
							"name": "",
							"type": "uint256"
						}
					],
					"stateMutability": "view",
					"type": "function"
				},
				{
					"inputs": [
						{
							"internalType": "uint256",
							"name": "amount",
							"type": "uint256"
						}
					],
					"name": "burn",
					"outputs": [],
					"stateMutability": "nonpayable",
					"type": "function"
				},
				{
					"inputs": [
						{
							"internalType": "address",
							"name": "account",
							"type": "address"
						},
						{
							"internalType": "uint256",
							"name": "amount",
							"type": "uint256"
						}
					],
					"name": "burnFrom",
					"outputs": [],
					"stateMutability": "nonpayable",
					"type": "function"
				},
				{
					"inputs": [],
					"name": "decimals",
					"outputs": [
						{
							"internalType": "uint8",
							"name": "",
							"type": "uint8"
						}
					],
					"stateMutability": "view",
					"type": "function"
				},
				{
					"inputs": [
						{
							"internalType": "address",
							"name": "spender",
							"type": "address"
						},
						{
							"internalType": "uint256",
							"name": "addedValue",
							"type": "uint256"
						}
					],
					"name": "decreaseAllowance",
					"outputs": [
						{
							"internalType": "bool",
							"name": "",
							"type": "bool"
						}
					],
					"stateMutability": "nonpayable",
					"type": "function"
				},
				{
					"inputs": [
						{
							"internalType": "address",
							"name": "spender",
							"type": "address"
						},
						{
							"internalType": "uint256",
							"name": "addedValue",
							"type": "uint256"
						}
					],
					"name": "increaseAllowance",
					"outputs": [
						{
							"internalType": "bool",
							"name": "",
							"type": "bool"
						}
					],
					"stateMutability": "nonpayable",
					"type": "function"
				},
				{
					"inputs": [
						{
							"internalType": "address",
							"name": "account",
							"type": "address"
						},
						{
							"internalType": "uint256",
							"name": "amount",
							"type": "uint256"
						}
					],
					"name": "mint",
					"outputs": [],
					"stateMutability": "nonpayable",
					"type": "function"
				},
				{
					"inputs": [],
					"name": "name",
					"outputs": [
						{
							"internalType": "string",
							"name": "",
							"type": "string"
						}
					],
					"stateMutability": "view",
					"type": "function"
				},
				{
					"inputs": [],
					"name": "owner",
					"outputs": [
						{
							"internalType": "address",
							"name": "",
							"type": "address"
						}
					],
					"stateMutability": "view",
					"type": "function"
				},
				{
					"inputs": [],
					"name": "symbol",
					"outputs": [
						{
							"internalType": "string",
							"name": "",
							"type": "string"
						}
					],
					"stateMutability": "view",
					"type": "function"
				},
				{
					"inputs": [],
					"name": "totalSupply",
					"outputs": [
						{
							"internalType": "uint256",
							"name": "",
							"type": "uint256"
						}
					],
					"stateMutability": "view",
					"type": "function"
				},
				{
					"inputs": [
						{
							"internalType": "address",
							"name": "recipient",
							"type": "address"
						},
						{
							"internalType": "uint256",
							"name": "amount",
							"type": "uint256"
						}
					],
					"name": "transfer",
					"outputs": [
						{
							"internalType": "bool",
							"name": "",
							"type": "bool"
						}
					],
					"stateMutability": "nonpayable",
					"type": "function"
				},
				{
					"inputs": [
						{
							"internalType": "address",
							"name": "sender",
							"type": "address"
						},
						{
							"internalType": "address",
							"name": "recipient",
							"type": "address"
						},
						{
							"internalType": "uint256",
							"name": "amount",
							"type": "uint256"
						}
					],
					"name": "transferFrom",
					"outputs": [
						{
							"internalType": "bool",
							"name": "",
							"type": "bool"
						}
					],
					"stateMutability": "nonpayable",
					"type": "function"
				},
				{
					"inputs": [
						{
							"internalType": "address",
							"name": "newOwner",
							"type": "address"
						}
					],
					"name": "transferOwnership",
					"outputs": [],
					"stateMutability": "nonpayable",
					"type": "function"
				}
			],
			"devdoc": {
				"details": "Implementation of the {IERC20} interface. This implementation is agnostic to the way tokens are created. This means that a supply mechanism has to be added in a derived contract using {_mint}. For a generic mechanism see {ERC20PresetMinterPauser}. TIP: For a detailed writeup see our guide https://forum.zeppelin.solutions/t/how-to-implement-erc20-supply-mechanisms/226[How to implement supply mechanisms]. We have followed general OpenZeppelin guidelines: functions revert instead of returning `false` on failure. This behavior is nonetheless conventional and does not conflict with the expectations of ERC20 applications. Additionally, an {Approval} event is emitted on calls to {transferFrom}. This allows applications to reconstruct the allowance for all accounts just by listening to said events. Other implementations of the EIP may not emit these events, as it isn't required by the specification. Finally, the non-standard {decreaseAllowance} and {increaseAllowance} functions have been added to mitigate the well-known issues around setting allowances. See {IERC20-approve}.",
				"kind": "dev",
				"methods": {
					"acceptOwnership()": {
						"details": "Accept the ownership transfer. This is to make sure that the contract is transferred to a working address Can only be called by the newly transfered owner."
					},
					"allowance(address,address)": {
						"details": "See {IERC20-allowance}."
					},
					"approve(address,uint256)": {
						"details": "See {IERC20-approve}. Requirements: - `spender` cannot be the zero address."
					},
					"balanceOf(address)": {
						"details": "See {IERC20-balanceOf}."
					},
					"burn(uint256)": {
						"details": "Destroys `amount` tokens from the caller. See {ERC20-_burn}."
					},
					"burnFrom(address,uint256)": {
						"details": "Destroys `amount` tokens from `account`, deducting from the caller's allowance. See {ERC20-_burn} and {ERC20-allowance}. Requirements: - the caller must have allowance for ``accounts``'s tokens of at least `amount`."
					},
					"constructor": {
						"details": "Sets the values for {name} and {symbol}, initializes {decimals} with a default value of 18 To select a different value for {decimals}, use {_setupDecimals}. All three of these values are immutable: they can only be set once during construction."
					},
					"decimals()": {
						"details": "Returns the number of decimals used to get its user representation. For example, if `decimals` equals `2`, a balance of `505` tokens should be displayed to a user as `5,05` (`505 / 10 ** 2`). Tokens usually opt for a value of 18, imitating the relationship between Ether and Wei. This is the value {ERC20} uses, unless {_setupDecimals} is called. NOTE: This information is only used for _display_ purposes: it in no way affects any of the arithmetic of the contract, including {IERC20-balanceOf} and {IERC20-transfer}."
					},
					"decreaseAllowance(address,uint256)": {
						"details": "Atomically decreases the allowance granted to `spender` by the caller. This is an alternative to {approve} that can be used as a mitigation for problems described in {IERC20-approve}. Emits an {Approval} event indicating the updated allowance. Requirements: - `spender` cannot be the zero address. - `spender` must have allowance for the caller of at least `subtractedValue`."
					},
					"increaseAllowance(address,uint256)": {
						"details": "Atomically increases the allowance granted to `spender` by the caller. This is an alternative to {approve} that can be used as a mitigation for problems described in {IERC20-approve}. Emits an {Approval} event indicating the updated allowance. Requirements: - `spender` cannot be the zero address."
					},
					"mint(address,uint256)": {
						"details": "Issues `amount` tokens to the designated `address`. Can only be called by the current owner. See {ERC20-_mint}."
					},
					"name()": {
						"details": "Returns the name of the token."
					},
					"owner()": {
						"details": "Returns the address of the current owner."
					},
					"symbol()": {
						"details": "Returns the symbol of the token, usually a shorter version of the name."
					},
					"totalSupply()": {
						"details": "See {IERC20-totalSupply}."
					},
					"transfer(address,uint256)": {
						"details": "See {IERC20-transfer}. Requirements: - `recipient` cannot be the zero address. - the caller must have a balance of at least `amount`."
					},
					"transferFrom(address,address,uint256)": {
						"details": "See {IERC20-transferFrom}. Emits an {Approval} event indicating the updated allowance. This is not required by the EIP. See the note at the beginning of {ERC20}. Requirements: - `sender` and `recipient` cannot be the zero address. - `sender` must have a balance of at least `amount`. - the caller must have allowance for ``sender``'s tokens of at least `amount`."
					},
					"transferOwnership(address)": {
						"details": "Transfers ownership of the contract to a new account (`newOwner`). Can only be called by the current owner."
					}
				},
				"version": 1
			},
			"evm": {
				"assembly": "    /* \"contracts/FishRings.sol\":13671:23135  contract PiratesCoins is Context, Ownable, IERC20 {... */\n  mstore(0x40, 0x80)\n    /* \"contracts/FishRings.sol\":14349:14541  constructor() {... */\n  callvalue\n  dup1\n  iszero\n  tag_1\n  jumpi\n  0x00\n  dup1\n  revert\ntag_1:\n  pop\n    /* \"contracts/FishRings.sol\":11236:11253  address msgSender */\n  0x00\n    /* \"contracts/FishRings.sol\":11256:11268  _msgSender() */\n  tag_5\n    /* \"contracts/FishRings.sol\":11256:11266  _msgSender */\n  shl(0x20, tag_6)\n    /* \"contracts/FishRings.sol\":11256:11268  _msgSender() */\n  0x20\n  shr\n  jump\t// in\ntag_5:\n    /* \"contracts/FishRings.sol\":11236:11268  address msgSender = _msgSender() */\n  swap1\n  pop\n    /* \"contracts/FishRings.sol\":11287:11296  msgSender */\n  dup1\n    /* \"contracts/FishRings.sol\":11278:11284  _owner */\n  0x00\n  dup1\n    /* \"contracts/FishRings.sol\":11278:11296  _owner = msgSender */\n  0x0100\n  exp\n  dup2\n  sload\n  dup2\n  0xffffffffffffffffffffffffffffffffffffffff\n  mul\n  not\n  and\n  swap1\n  dup4\n  0xffffffffffffffffffffffffffffffffffffffff\n  and\n  mul\n  or\n  swap1\n  sstore\n  pop\n    /* \"contracts/FishRings.sol\":11344:11353  msgSender */\n  dup1\n    /* \"contracts/FishRings.sol\":11311:11354  OwnershipTransferred(address(0), msgSender) */\n  0xffffffffffffffffffffffffffffffffffffffff\n  and\n    /* \"contracts/FishRings.sol\":11340:11341  0 */\n  0x00\n    /* \"contracts/FishRings.sol\":11311:11354  OwnershipTransferred(address(0), msgSender) */\n  0xffffffffffffffffffffffffffffffffffffffff\n  and\n  0x8be0079c531659141344cd1fd0a4f28419497f9722a3daafe3b4186f6b6457e0\n  mload(0x40)\n  mload(0x40)\n  dup1\n  swap2\n  sub\n  swap1\n  log3\n    /* \"contracts/FishRings.sol\":11211:11361  constructor () {... */\n  pop\n    /* \"contracts/FishRings.sol\":14373:14390  uint256 fractions */\n  0x00\n    /* \"contracts/FishRings.sol\":14407:14409  18 */\n  0x12\n    /* \"contracts/FishRings.sol\":14393:14395  10 */\n  0x0a\n    /* \"contracts/FishRings.sol\":14393:14410  10 ** uint256(18) */\n  exp\n    /* \"contracts/FishRings.sol\":14373:14410  uint256 fractions = 10 ** uint256(18) */\n  swap1\n  pop\n    /* \"contracts/FishRings.sol\":14420:14440  _name = \"Fish Rings\" */\n  mload(0x40)\n  dup1\n  0x40\n  add\n  0x40\n  mstore\n  dup1\n  0x0a\n  dup2\n  mstore\n  0x20\n  add\n  0x466973682052696e677300000000000000000000000000000000000000000000\n  dup2\n  mstore\n  pop\n    /* \"contracts/FishRings.sol\":14420:14425  _name */\n  0x06\n    /* \"contracts/FishRings.sol\":14420:14440  _name = \"Fish Rings\" */\n  swap1\n  dup1\n  mload\n  swap1\n  0x20\n  add\n  swap1\n  tag_8\n  swap3\n  swap2\n  swap1\n  tag_9\n  jump\t// in\ntag_8:\n  pop\n    /* \"contracts/FishRings.sol\":14450:14465  _symbol = \"FSR\" */\n  mload(0x40)\n  dup1\n  0x40\n  add\n  0x40\n  mstore\n  dup1\n  0x03\n  dup2\n  mstore\n  0x20\n  add\n  0x4653520000000000000000000000000000000000000000000000000000000000\n  dup2\n  mstore\n  pop\n    /* \"contracts/FishRings.sol\":14450:14457  _symbol */\n  0x07\n    /* \"contracts/FishRings.sol\":14450:14465  _symbol = \"FSR\" */\n  swap1\n  dup1\n  mload\n  swap1\n  0x20\n  add\n  swap1\n  tag_10\n  swap3\n  swap2\n  swap1\n  tag_9\n  jump\t// in\ntag_10:\n  pop\n    /* \"contracts/FishRings.sol\":14487:14489  18 */\n  0x12\n    /* \"contracts/FishRings.sol\":14475:14484  _decimals */\n  0x08\n  0x00\n    /* \"contracts/FishRings.sol\":14475:14489  _decimals = 18 */\n  0x0100\n  exp\n  dup2\n  sload\n  dup2\n  0xff\n  mul\n  not\n  and\n  swap1\n  dup4\n  0xff\n  and\n  mul\n  or\n  swap1\n  sstore\n  pop\n    /* \"contracts/FishRings.sol\":14525:14534  fractions */\n  dup1\n    /* \"contracts/FishRings.sol\":14512:14522  1000000000 */\n  0x3b9aca00\n    /* \"contracts/FishRings.sol\":14512:14534  1000000000 * fractions */\n  mul\n    /* \"contracts/FishRings.sol\":14499:14509  _maxSupply */\n  0x04\n    /* \"contracts/FishRings.sol\":14499:14534  _maxSupply = 1000000000 * fractions */\n  dup2\n  swap1\n  sstore\n  pop\n    /* \"contracts/FishRings.sol\":14349:14541  constructor() {... */\n  pop\n    /* \"contracts/FishRings.sol\":13671:23135  contract PiratesCoins is Context, Ownable, IERC20 {... */\n  jump(tag_11)\n    /* \"contracts/FishRings.sol\":10095:10191  function _msgSender() internal view returns (address payable) {... */\ntag_6:\n    /* \"contracts/FishRings.sol\":10140:10155  address payable */\n  0x00\n    /* \"contracts/FishRings.sol\":10174:10184  msg.sender */\n  caller\n    /* \"contracts/FishRings.sol\":10167:10184  return msg.sender */\n  swap1\n  pop\n    /* \"contracts/FishRings.sol\":10095:10191  function _msgSender() internal view returns (address payable) {... */\n  swap1\n  jump\t// out\n    /* \"contracts/FishRings.sol\":13671:23135  contract PiratesCoins is Context, Ownable, IERC20 {... */\ntag_9:\n  dup3\n  dup1\n  sload\n  0x01\n  dup2\n  0x01\n  and\n  iszero\n  0x0100\n  mul\n  sub\n  and\n  0x02\n  swap1\n  div\n  swap1\n  0x00\n  mstore\n  keccak256(0x00, 0x20)\n  swap1\n  0x1f\n  add\n  0x20\n  swap1\n  div\n  dup2\n  add\n  swap3\n  dup3\n  tag_14\n  jumpi\n  0x00\n  dup6\n  sstore\n  jump(tag_13)\ntag_14:\n  dup3\n  0x1f\n  lt\n  tag_15\n  jumpi\n  dup1\n  mload\n  not(0xff)\n  and\n  dup4\n  dup1\n  add\n  or\n  dup6\n  sstore\n  jump(tag_13)\ntag_15:\n  dup3\n  dup1\n  add\n  0x01\n  add\n  dup6\n  sstore\n  dup3\n  iszero\n  tag_13\n  jumpi\n  swap2\n  dup3\n  add\ntag_16:\n  dup3\n  dup2\n  gt\n  iszero\n  tag_17\n  jumpi\n  dup3\n  mload\n  dup3\n  sstore\n  swap2\n  0x20\n  add\n  swap2\n  swap1\n  0x01\n  add\n  swap1\n  jump(tag_16)\ntag_17:\ntag_13:\n  pop\n  swap1\n  pop\n  tag_18\n  swap2\n  swap1\n  tag_19\n  jump\t// in\ntag_18:\n  pop\n  swap1\n  jump\t// out\ntag_19:\ntag_20:\n  dup1\n  dup3\n  gt\n  iszero\n  tag_21\n  jumpi\n  0x00\n  dup2\n  0x00\n  swap1\n  sstore\n  pop\n  0x01\n  add\n  jump(tag_20)\ntag_21:\n  pop\n  swap1\n  jump\t// out\ntag_11:\n  dataSize(sub_0)\n  dup1\n  dataOffset(sub_0)\n  0x00\n  codecopy\n  0x00\n  return\nstop\n\nsub_0: assembly {\n        /* \"contracts/FishRings.sol\":13671:23135  contract PiratesCoins is Context, Ownable, IERC20 {... */\n      mstore(0x40, 0x80)\n      callvalue\n      dup1\n      iszero\n      tag_1\n      jumpi\n      0x00\n      dup1\n      revert\n    tag_1:\n      pop\n      jumpi(tag_2, lt(calldatasize, 0x04))\n      shr(0xe0, calldataload(0x00))\n      dup1\n      0x70a08231\n      gt\n      tag_20\n      jumpi\n      dup1\n      0x95d89b41\n      gt\n      tag_21\n      jumpi\n      dup1\n      0x95d89b41\n      eq\n      tag_15\n      jumpi\n      dup1\n      0xa457c2d7\n      eq\n      tag_16\n      jumpi\n      dup1\n      0xa9059cbb\n      eq\n      tag_17\n      jumpi\n      dup1\n      0xdd62ed3e\n      eq\n      tag_18\n      jumpi\n      dup1\n      0xf2fde38b\n      eq\n      tag_19\n      jumpi\n      jump(tag_2)\n    tag_21:\n      dup1\n      0x70a08231\n      eq\n      tag_11\n      jumpi\n      dup1\n      0x79ba5097\n      eq\n      tag_12\n      jumpi\n      dup1\n      0x79cc6790\n      eq\n      tag_13\n      jumpi\n      dup1\n      0x8da5cb5b\n      eq\n      tag_14\n      jumpi\n      jump(tag_2)\n    tag_20:\n      dup1\n      0x313ce567\n      gt\n      tag_22\n      jumpi\n      dup1\n      0x313ce567\n      eq\n      tag_7\n      jumpi\n      dup1\n      0x39509351\n      eq\n      tag_8\n      jumpi\n      dup1\n      0x40c10f19\n      eq\n      tag_9\n      jumpi\n      dup1\n      0x42966c68\n      eq\n      tag_10\n      jumpi\n      jump(tag_2)\n    tag_22:\n      dup1\n      0x06fdde03\n      eq\n      tag_3\n      jumpi\n      dup1\n      0x095ea7b3\n      eq\n      tag_4\n      jumpi\n      dup1\n      0x18160ddd\n      eq\n      tag_5\n      jumpi\n      dup1\n      0x23b872dd\n      eq\n      tag_6\n      jumpi\n    tag_2:\n      0x00\n      dup1\n      revert\n        /* \"contracts/FishRings.sol\":14604:14685  function name() public view returns (string memory) {... */\n    tag_3:\n      tag_23\n      tag_24\n      jump\t// in\n    tag_23:\n      mload(0x40)\n      dup1\n      dup1\n      0x20\n      add\n      dup3\n      dup2\n      sub\n      dup3\n      mstore\n      dup4\n      dup2\n      dup2\n      mload\n      dup2\n      mstore\n      0x20\n      add\n      swap2\n      pop\n      dup1\n      mload\n      swap1\n      0x20\n      add\n      swap1\n      dup1\n      dup4\n      dup4\n      0x00\n    tag_25:\n      dup4\n      dup2\n      lt\n      iszero\n      tag_27\n      jumpi\n      dup1\n      dup3\n      add\n      mload\n      dup2\n      dup5\n      add\n      mstore\n      0x20\n      dup2\n      add\n      swap1\n      pop\n      jump(tag_25)\n    tag_27:\n      pop\n      pop\n      pop\n      pop\n      swap1\n      pop\n      swap1\n      dup2\n      add\n      swap1\n      0x1f\n      and\n      dup1\n      iszero\n      tag_28\n      jumpi\n      dup1\n      dup3\n      sub\n      dup1\n      mload\n      0x01\n      dup4\n      0x20\n      sub\n      0x0100\n      exp\n      sub\n      not\n      and\n      dup2\n      mstore\n      0x20\n      add\n      swap2\n      pop\n    tag_28:\n      pop\n      swap3\n      pop\n      pop\n      pop\n      mload(0x40)\n      dup1\n      swap2\n      sub\n      swap1\n      return\n        /* \"contracts/FishRings.sol\":16591:16748  function approve(address spender, uint256 amount) public override returns (bool) {... */\n    tag_4:\n      tag_29\n      0x04\n      dup1\n      calldatasize\n      sub\n      0x40\n      dup2\n      lt\n      iszero\n      tag_30\n      jumpi\n      0x00\n      dup1\n      revert\n    tag_30:\n      dup2\n      add\n      swap1\n      dup1\n      dup1\n      calldataload\n      0xffffffffffffffffffffffffffffffffffffffff\n      and\n      swap1\n      0x20\n      add\n      swap1\n      swap3\n      swap2\n      swap1\n      dup1\n      calldataload\n      swap1\n      0x20\n      add\n      swap1\n      swap3\n      swap2\n      swap1\n      pop\n      pop\n      pop\n      tag_31\n      jump\t// in\n    tag_29:\n      mload(0x40)\n      dup1\n      dup3\n      iszero\n      iszero\n      dup2\n      mstore\n      0x20\n      add\n      swap2\n      pop\n      pop\n      mload(0x40)\n      dup1\n      swap2\n      sub\n      swap1\n      return\n        /* \"contracts/FishRings.sol\":15629:15727  function totalSupply() public view override returns (uint256) {... */\n    tag_5:\n      tag_32\n      tag_33\n      jump\t// in\n    tag_32:\n      mload(0x40)\n      dup1\n      dup3\n      dup2\n      mstore\n      0x20\n      add\n      swap2\n      pop\n      pop\n      mload(0x40)\n      dup1\n      swap2\n      sub\n      swap1\n      return\n        /* \"contracts/FishRings.sol\":17203:17490  function transferFrom(address sender, address recipient, uint256 amount) public override returns (bool){... */\n    tag_6:\n      tag_34\n      0x04\n      dup1\n      calldatasize\n      sub\n      0x60\n      dup2\n      lt\n      iszero\n      tag_35\n      jumpi\n      0x00\n      dup1\n      revert\n    tag_35:\n      dup2\n      add\n      swap1\n      dup1\n      dup1\n      calldataload\n      0xffffffffffffffffffffffffffffffffffffffff\n      and\n      swap1\n      0x20\n      add\n      swap1\n      swap3\n      swap2\n      swap1\n      dup1\n      calldataload\n      0xffffffffffffffffffffffffffffffffffffffff\n      and\n      swap1\n      0x20\n      add\n      swap1\n      swap3\n      swap2\n      swap1\n      dup1\n      calldataload\n      swap1\n      0x20\n      add\n      swap1\n      swap3\n      swap2\n      swap1\n      pop\n      pop\n      pop\n      tag_36\n      jump\t// in\n    tag_34:\n      mload(0x40)\n      dup1\n      dup3\n      iszero\n      iszero\n      dup2\n      mstore\n      0x20\n      add\n      swap2\n      pop\n      pop\n      mload(0x40)\n      dup1\n      swap2\n      sub\n      swap1\n      return\n        /* \"contracts/FishRings.sol\":15490:15571  function decimals() public view returns (uint8) {... */\n    tag_7:\n      tag_37\n      tag_38\n      jump\t// in\n    tag_37:\n      mload(0x40)\n      dup1\n      dup3\n      0xff\n      and\n      dup2\n      mstore\n      0x20\n      add\n      swap2\n      pop\n      pop\n      mload(0x40)\n      dup1\n      swap2\n      sub\n      swap1\n      return\n        /* \"contracts/FishRings.sol\":17874:18081  function increaseAllowance(address spender, uint256 addedValue) public returns (bool) {... */\n    tag_8:\n      tag_39\n      0x04\n      dup1\n      calldatasize\n      sub\n      0x40\n      dup2\n      lt\n      iszero\n      tag_40\n      jumpi\n      0x00\n      dup1\n      revert\n    tag_40:\n      dup2\n      add\n      swap1\n      dup1\n      dup1\n      calldataload\n      0xffffffffffffffffffffffffffffffffffffffff\n      and\n      swap1\n      0x20\n      add\n      swap1\n      swap3\n      swap2\n      swap1\n      dup1\n      calldataload\n      swap1\n      0x20\n      add\n      swap1\n      swap3\n      swap2\n      swap1\n      pop\n      pop\n      pop\n      tag_41\n      jump\t// in\n    tag_39:\n      mload(0x40)\n      dup1\n      dup3\n      iszero\n      iszero\n      dup2\n      mstore\n      0x20\n      add\n      swap2\n      pop\n      pop\n      mload(0x40)\n      dup1\n      swap2\n      sub\n      swap1\n      return\n        /* \"contracts/FishRings.sol\":18967:19069  function mint(address account, uint256 amount) public onlyOwner {... */\n    tag_9:\n      tag_42\n      0x04\n      dup1\n      calldatasize\n      sub\n      0x40\n      dup2\n      lt\n      iszero\n      tag_43\n      jumpi\n      0x00\n      dup1\n      revert\n    tag_43:\n      dup2\n      add\n      swap1\n      dup1\n      dup1\n      calldataload\n      0xffffffffffffffffffffffffffffffffffffffff\n      and\n      swap1\n      0x20\n      add\n      swap1\n      swap3\n      swap2\n      swap1\n      dup1\n      calldataload\n      swap1\n      0x20\n      add\n      swap1\n      swap3\n      swap2\n      swap1\n      pop\n      pop\n      pop\n      tag_44\n      jump\t// in\n    tag_42:\n      stop\n        /* \"contracts/FishRings.sol\":19174:19254  function burn(uint256 amount) public {... */\n    tag_10:\n      tag_45\n      0x04\n      dup1\n      calldatasize\n      sub\n      0x20\n      dup2\n      lt\n      iszero\n      tag_46\n      jumpi\n      0x00\n      dup1\n      revert\n    tag_46:\n      dup2\n      add\n      swap1\n      dup1\n      dup1\n      calldataload\n      swap1\n      0x20\n      add\n      swap1\n      swap3\n      swap2\n      swap1\n      pop\n      pop\n      pop\n      tag_47\n      jump\t// in\n    tag_45:\n      stop\n        /* \"contracts/FishRings.sol\":15783:15899  function balanceOf(address account) public view override returns (uint256){... */\n    tag_11:\n      tag_48\n      0x04\n      dup1\n      calldatasize\n      sub\n      0x20\n      dup2\n      lt\n      iszero\n      tag_49\n      jumpi\n      0x00\n      dup1\n      revert\n    tag_49:\n      dup2\n      add\n      swap1\n      dup1\n      dup1\n      calldataload\n      0xffffffffffffffffffffffffffffffffffffffff\n      and\n      swap1\n      0x20\n      add\n      swap1\n      swap3\n      swap2\n      swap1\n      pop\n      pop\n      pop\n      tag_50\n      jump\t// in\n    tag_48:\n      mload(0x40)\n      dup1\n      dup3\n      dup2\n      mstore\n      0x20\n      add\n      swap2\n      pop\n      pop\n      mload(0x40)\n      dup1\n      swap2\n      sub\n      swap1\n      return\n        /* \"contracts/FishRings.sol\":11913:12194  function acceptOwnership() public {... */\n    tag_12:\n      tag_51\n      tag_52\n      jump\t// in\n    tag_51:\n      stop\n        /* \"contracts/FishRings.sol\":19550:19820  function burnFrom(address account, uint256 amount) public {... */\n    tag_13:\n      tag_53\n      0x04\n      dup1\n      calldatasize\n      sub\n      0x40\n      dup2\n      lt\n      iszero\n      tag_54\n      jumpi\n      0x00\n      dup1\n      revert\n    tag_54:\n      dup2\n      add\n      swap1\n      dup1\n      dup1\n      calldataload\n      0xffffffffffffffffffffffffffffffffffffffff\n      and\n      swap1\n      0x20\n      add\n      swap1\n      swap3\n      swap2\n      swap1\n      dup1\n      calldataload\n      swap1\n      0x20\n      add\n      swap1\n      swap3\n      swap2\n      swap1\n      pop\n      pop\n      pop\n      tag_55\n      jump\t// in\n    tag_53:\n      stop\n        /* \"contracts/FishRings.sol\":11435:11512  function owner() public view returns (address) {... */\n    tag_14:\n      tag_56\n      tag_57\n      jump\t// in\n    tag_56:\n      mload(0x40)\n      dup1\n      dup3\n      0xffffffffffffffffffffffffffffffffffffffff\n      and\n      dup2\n      mstore\n      0x20\n      add\n      swap2\n      pop\n      pop\n      mload(0x40)\n      dup1\n      swap2\n      sub\n      swap1\n      return\n        /* \"contracts/FishRings.sol\":14795:14879  function symbol() public view returns (string memory){... */\n    tag_15:\n      tag_58\n      tag_59\n      jump\t// in\n    tag_58:\n      mload(0x40)\n      dup1\n      dup1\n      0x20\n      add\n      dup3\n      dup2\n      sub\n      dup3\n      mstore\n      dup4\n      dup2\n      dup2\n      mload\n      dup2\n      mstore\n      0x20\n      add\n      swap2\n      pop\n      dup1\n      mload\n      swap1\n      0x20\n      add\n      swap1\n      dup1\n      dup4\n      dup4\n      0x00\n    tag_60:\n      dup4\n      dup2\n      lt\n      iszero\n      tag_62\n      jumpi\n      dup1\n      dup3\n      add\n      mload\n      dup2\n      dup5\n      add\n      mstore\n      0x20\n      dup2\n      add\n      swap1\n      pop\n      jump(tag_60)\n    tag_62:\n      pop\n      pop\n      pop\n      pop\n      swap1\n      pop\n      swap1\n      dup2\n      add\n      swap1\n      0x1f\n      and\n      dup1\n      iszero\n      tag_63\n      jumpi\n      dup1\n      dup3\n      sub\n      dup1\n      mload\n      0x01\n      dup4\n      0x20\n      sub\n      0x0100\n      exp\n      sub\n      not\n      and\n      dup2\n      mstore\n      0x20\n      add\n      swap2\n      pop\n    tag_63:\n      pop\n      swap3\n      pop\n      pop\n      pop\n      mload(0x40)\n      dup1\n      swap2\n      sub\n      swap1\n      return\n        /* \"contracts/FishRings.sol\":18555:18805  function decreaseAllowance(address spender, uint256 addedValue) public returns (bool) {... */\n    tag_16:\n      tag_64\n      0x04\n      dup1\n      calldatasize\n      sub\n      0x40\n      dup2\n      lt\n      iszero\n      tag_65\n      jumpi\n      0x00\n      dup1\n      revert\n    tag_65:\n      dup2\n      add\n      swap1\n      dup1\n      dup1\n      calldataload\n      0xffffffffffffffffffffffffffffffffffffffff\n      and\n      swap1\n      0x20\n      add\n      swap1\n      swap3\n      swap2\n      swap1\n      dup1\n      calldataload\n      swap1\n      0x20\n      add\n      swap1\n      swap3\n      swap2\n      swap1\n      pop\n      pop\n      pop\n      tag_66\n      jump\t// in\n    tag_64:\n      mload(0x40)\n      dup1\n      dup3\n      iszero\n      iszero\n      dup2\n      mstore\n      0x20\n      add\n      swap2\n      pop\n      pop\n      mload(0x40)\n      dup1\n      swap2\n      sub\n      swap1\n      return\n        /* \"contracts/FishRings.sol\":16096:16259  function transfer(address recipient, uint256 amount) public override returns (bool){... */\n    tag_17:\n      tag_67\n      0x04\n      dup1\n      calldatasize\n      sub\n      0x40\n      dup2\n      lt\n      iszero\n      tag_68\n      jumpi\n      0x00\n      dup1\n      revert\n    tag_68:\n      dup2\n      add\n      swap1\n      dup1\n      dup1\n      calldataload\n      0xffffffffffffffffffffffffffffffffffffffff\n      and\n      swap1\n      0x20\n      add\n      swap1\n      swap3\n      swap2\n      swap1\n      dup1\n      calldataload\n      swap1\n      0x20\n      add\n      swap1\n      swap3\n      swap2\n      swap1\n      pop\n      pop\n      pop\n      tag_69\n      jump\t// in\n    tag_67:\n      mload(0x40)\n      dup1\n      dup3\n      iszero\n      iszero\n      dup2\n      mstore\n      0x20\n      add\n      swap2\n      pop\n      pop\n      mload(0x40)\n      dup1\n      swap2\n      sub\n      swap1\n      return\n        /* \"contracts/FishRings.sol\":16319:16459  function allowance(address owner, address spender) public view override returns (uint256){... */\n    tag_18:\n      tag_70\n      0x04\n      dup1\n      calldatasize\n      sub\n      0x40\n      dup2\n      lt\n      iszero\n      tag_71\n      jumpi\n      0x00\n      dup1\n      revert\n    tag_71:\n      dup2\n      add\n      swap1\n      dup1\n      dup1\n      calldataload\n      0xffffffffffffffffffffffffffffffffffffffff\n      and\n      swap1\n      0x20\n      add\n      swap1\n      swap3\n      swap2\n      swap1\n      dup1\n      calldataload\n      0xffffffffffffffffffffffffffffffffffffffff\n      and\n      swap1\n      0x20\n      add\n      swap1\n      swap3\n      swap2\n      swap1\n      pop\n      pop\n      pop\n      tag_72\n      jump\t// in\n    tag_70:\n      mload(0x40)\n      dup1\n      dup3\n      dup2\n      mstore\n      0x20\n      add\n      swap2\n      pop\n      pop\n      mload(0x40)\n      dup1\n      swap2\n      sub\n      swap1\n      return\n        /* \"contracts/FishRings.sol\":12345:12527  function transferOwnership(address newOwner) public onlyOwner {... */\n    tag_19:\n      tag_73\n      0x04\n      dup1\n      calldatasize\n      sub\n      0x20\n      dup2\n      lt\n      iszero\n      tag_74\n      jumpi\n      0x00\n      dup1\n      revert\n    tag_74:\n      dup2\n      add\n      swap1\n      dup1\n      dup1\n      calldataload\n      0xffffffffffffffffffffffffffffffffffffffff\n      and\n      swap1\n      0x20\n      add\n      swap1\n      swap3\n      swap2\n      swap1\n      pop\n      pop\n      pop\n      tag_75\n      jump\t// in\n    tag_73:\n      stop\n        /* \"contracts/FishRings.sol\":14604:14685  function name() public view returns (string memory) {... */\n    tag_24:\n        /* \"contracts/FishRings.sol\":14641:14654  string memory */\n      0x60\n        /* \"contracts/FishRings.sol\":14673:14678  _name */\n      0x06\n        /* \"contracts/FishRings.sol\":14666:14678  return _name */\n      dup1\n      sload\n      0x01\n      dup2\n      0x01\n      and\n      iszero\n      0x0100\n      mul\n      sub\n      and\n      0x02\n      swap1\n      div\n      dup1\n      0x1f\n      add\n      0x20\n      dup1\n      swap2\n      div\n      mul\n      0x20\n      add\n      mload(0x40)\n      swap1\n      dup2\n      add\n      0x40\n      mstore\n      dup1\n      swap3\n      swap2\n      swap1\n      dup2\n      dup2\n      mstore\n      0x20\n      add\n      dup3\n      dup1\n      sload\n      0x01\n      dup2\n      0x01\n      and\n      iszero\n      0x0100\n      mul\n      sub\n      and\n      0x02\n      swap1\n      div\n      dup1\n      iszero\n      tag_77\n      jumpi\n      dup1\n      0x1f\n      lt\n      tag_78\n      jumpi\n      0x0100\n      dup1\n      dup4\n      sload\n      div\n      mul\n      dup4\n      mstore\n      swap2\n      0x20\n      add\n      swap2\n      jump(tag_77)\n    tag_78:\n      dup3\n      add\n      swap2\n      swap1\n      0x00\n      mstore\n      keccak256(0x00, 0x20)\n      swap1\n    tag_79:\n      dup2\n      sload\n      dup2\n      mstore\n      swap1\n      0x01\n      add\n      swap1\n      0x20\n      add\n      dup1\n      dup4\n      gt\n      tag_79\n      jumpi\n      dup3\n      swap1\n      sub\n      0x1f\n      and\n      dup3\n      add\n      swap2\n    tag_77:\n      pop\n      pop\n      pop\n      pop\n      pop\n      swap1\n      pop\n        /* \"contracts/FishRings.sol\":14604:14685  function name() public view returns (string memory) {... */\n      swap1\n      jump\t// out\n        /* \"contracts/FishRings.sol\":16591:16748  function approve(address spender, uint256 amount) public override returns (bool) {... */\n    tag_31:\n        /* \"contracts/FishRings.sol\":16666:16670  bool */\n      0x00\n        /* \"contracts/FishRings.sol\":16682:16720  _approve(_msgSender(),spender, amount) */\n      tag_81\n        /* \"contracts/FishRings.sol\":16691:16703  _msgSender() */\n      tag_82\n        /* \"contracts/FishRings.sol\":16691:16701  _msgSender */\n      tag_83\n        /* \"contracts/FishRings.sol\":16691:16703  _msgSender() */\n      jump\t// in\n    tag_82:\n        /* \"contracts/FishRings.sol\":16704:16711  spender */\n      dup5\n        /* \"contracts/FishRings.sol\":16713:16719  amount */\n      dup5\n        /* \"contracts/FishRings.sol\":16682:16690  _approve */\n      tag_84\n        /* \"contracts/FishRings.sol\":16682:16720  _approve(_msgSender(),spender, amount) */\n      jump\t// in\n    tag_81:\n        /* \"contracts/FishRings.sol\":16737:16741  true */\n      0x01\n        /* \"contracts/FishRings.sol\":16730:16741  return true */\n      swap1\n      pop\n        /* \"contracts/FishRings.sol\":16591:16748  function approve(address spender, uint256 amount) public override returns (bool) {... */\n      swap3\n      swap2\n      pop\n      pop\n      jump\t// out\n        /* \"contracts/FishRings.sol\":15629:15727  function totalSupply() public view override returns (uint256) {... */\n    tag_33:\n        /* \"contracts/FishRings.sol\":15682:15689  uint256 */\n      0x00\n        /* \"contracts/FishRings.sol\":15708:15720  _totalSupply */\n      sload(0x05)\n        /* \"contracts/FishRings.sol\":15701:15720  return _totalSupply */\n      swap1\n      pop\n        /* \"contracts/FishRings.sol\":15629:15727  function totalSupply() public view override returns (uint256) {... */\n      swap1\n      jump\t// out\n        /* \"contracts/FishRings.sol\":17203:17490  function transferFrom(address sender, address recipient, uint256 amount) public override returns (bool){... */\n    tag_36:\n        /* \"contracts/FishRings.sol\":17301:17305  bool */\n      0x00\n        /* \"contracts/FishRings.sol\":17316:17350  _transfer(sender,recipient,amount) */\n      tag_87\n        /* \"contracts/FishRings.sol\":17326:17332  sender */\n      dup5\n        /* \"contracts/FishRings.sol\":17333:17342  recipient */\n      dup5\n        /* \"contracts/FishRings.sol\":17343:17349  amount */\n      dup5\n        /* \"contracts/FishRings.sol\":17316:17325  _transfer */\n      tag_88\n        /* \"contracts/FishRings.sol\":17316:17350  _transfer(sender,recipient,amount) */\n      jump\t// in\n    tag_87:\n        /* \"contracts/FishRings.sol\":17360:17462  _approve(sender, _msgSender(), _allowances[sender][_msgSender()].sub(amount,\"ERC20: transfer amount\")) */\n      tag_89\n        /* \"contracts/FishRings.sol\":17369:17375  sender */\n      dup5\n        /* \"contracts/FishRings.sol\":17377:17389  _msgSender() */\n      tag_90\n        /* \"contracts/FishRings.sol\":17377:17387  _msgSender */\n      tag_83\n        /* \"contracts/FishRings.sol\":17377:17389  _msgSender() */\n      jump\t// in\n    tag_90:\n        /* \"contracts/FishRings.sol\":17391:17461  _allowances[sender][_msgSender()].sub(amount,\"ERC20: transfer amount\") */\n      tag_91\n        /* \"contracts/FishRings.sol\":17429:17435  amount */\n      dup6\n        /* \"contracts/FishRings.sol\":17391:17461  _allowances[sender][_msgSender()].sub(amount,\"ERC20: transfer amount\") */\n      mload(0x40)\n      dup1\n      0x40\n      add\n      0x40\n      mstore\n      dup1\n      0x16\n      dup2\n      mstore\n      0x20\n      add\n      0x45524332303a207472616e7366657220616d6f756e7400000000000000000000\n      dup2\n      mstore\n      pop\n        /* \"contracts/FishRings.sol\":17391:17402  _allowances */\n      0x03\n        /* \"contracts/FishRings.sol\":17391:17410  _allowances[sender] */\n      0x00\n        /* \"contracts/FishRings.sol\":17403:17409  sender */\n      dup12\n        /* \"contracts/FishRings.sol\":17391:17410  _allowances[sender] */\n      0xffffffffffffffffffffffffffffffffffffffff\n      and\n      0xffffffffffffffffffffffffffffffffffffffff\n      and\n      dup2\n      mstore\n      0x20\n      add\n      swap1\n      dup2\n      mstore\n      0x20\n      add\n      0x00\n      keccak256\n        /* \"contracts/FishRings.sol\":17391:17424  _allowances[sender][_msgSender()] */\n      0x00\n        /* \"contracts/FishRings.sol\":17411:17423  _msgSender() */\n      tag_92\n        /* \"contracts/FishRings.sol\":17411:17421  _msgSender */\n      tag_83\n        /* \"contracts/FishRings.sol\":17411:17423  _msgSender() */\n      jump\t// in\n    tag_92:\n        /* \"contracts/FishRings.sol\":17391:17424  _allowances[sender][_msgSender()] */\n      0xffffffffffffffffffffffffffffffffffffffff\n      and\n      0xffffffffffffffffffffffffffffffffffffffff\n      and\n      dup2\n      mstore\n      0x20\n      add\n      swap1\n      dup2\n      mstore\n      0x20\n      add\n      0x00\n      keccak256\n      sload\n        /* \"contracts/FishRings.sol\":17391:17428  _allowances[sender][_msgSender()].sub */\n      tag_93\n      swap1\n        /* \"contracts/FishRings.sol\":17391:17461  _allowances[sender][_msgSender()].sub(amount,\"ERC20: transfer amount\") */\n      swap3\n      swap2\n      swap1\n      0xffffffff\n      and\n      jump\t// in\n    tag_91:\n        /* \"contracts/FishRings.sol\":17360:17368  _approve */\n      tag_84\n        /* \"contracts/FishRings.sol\":17360:17462  _approve(sender, _msgSender(), _allowances[sender][_msgSender()].sub(amount,\"ERC20: transfer amount\")) */\n      jump\t// in\n    tag_89:\n        /* \"contracts/FishRings.sol\":17479:17483  true */\n      0x01\n        /* \"contracts/FishRings.sol\":17472:17483  return true */\n      swap1\n      pop\n        /* \"contracts/FishRings.sol\":17203:17490  function transferFrom(address sender, address recipient, uint256 amount) public override returns (bool){... */\n      swap4\n      swap3\n      pop\n      pop\n      pop\n      jump\t// out\n        /* \"contracts/FishRings.sol\":15490:15571  function decimals() public view returns (uint8) {... */\n    tag_38:\n        /* \"contracts/FishRings.sol\":15531:15536  uint8 */\n      0x00\n        /* \"contracts/FishRings.sol\":15555:15564  _decimals */\n      0x08\n      0x00\n      swap1\n      sload\n      swap1\n      0x0100\n      exp\n      swap1\n      div\n      0xff\n      and\n        /* \"contracts/FishRings.sol\":15548:15564  return _decimals */\n      swap1\n      pop\n        /* \"contracts/FishRings.sol\":15490:15571  function decimals() public view returns (uint8) {... */\n      swap1\n      jump\t// out\n        /* \"contracts/FishRings.sol\":17874:18081  function increaseAllowance(address spender, uint256 addedValue) public returns (bool) {... */\n    tag_41:\n        /* \"contracts/FishRings.sol\":17954:17958  bool */\n      0x00\n        /* \"contracts/FishRings.sol\":17970:18053  _approve(_msgSender(), spender, _allowances[_msgSender()][spender].add(addedValue)) */\n      tag_96\n        /* \"contracts/FishRings.sol\":17979:17991  _msgSender() */\n      tag_97\n        /* \"contracts/FishRings.sol\":17979:17989  _msgSender */\n      tag_83\n        /* \"contracts/FishRings.sol\":17979:17991  _msgSender() */\n      jump\t// in\n    tag_97:\n        /* \"contracts/FishRings.sol\":17993:18000  spender */\n      dup5\n        /* \"contracts/FishRings.sol\":18002:18052  _allowances[_msgSender()][spender].add(addedValue) */\n      tag_98\n        /* \"contracts/FishRings.sol\":18041:18051  addedValue */\n      dup6\n        /* \"contracts/FishRings.sol\":18002:18013  _allowances */\n      0x03\n        /* \"contracts/FishRings.sol\":18002:18027  _allowances[_msgSender()] */\n      0x00\n        /* \"contracts/FishRings.sol\":18014:18026  _msgSender() */\n      tag_99\n        /* \"contracts/FishRings.sol\":18014:18024  _msgSender */\n      tag_83\n        /* \"contracts/FishRings.sol\":18014:18026  _msgSender() */\n      jump\t// in\n    tag_99:\n        /* \"contracts/FishRings.sol\":18002:18027  _allowances[_msgSender()] */\n      0xffffffffffffffffffffffffffffffffffffffff\n      and\n      0xffffffffffffffffffffffffffffffffffffffff\n      and\n      dup2\n      mstore\n      0x20\n      add\n      swap1\n      dup2\n      mstore\n      0x20\n      add\n      0x00\n      keccak256\n        /* \"contracts/FishRings.sol\":18002:18036  _allowances[_msgSender()][spender] */\n      0x00\n        /* \"contracts/FishRings.sol\":18028:18035  spender */\n      dup10\n        /* \"contracts/FishRings.sol\":18002:18036  _allowances[_msgSender()][spender] */\n      0xffffffffffffffffffffffffffffffffffffffff\n      and\n      0xffffffffffffffffffffffffffffffffffffffff\n      and\n      dup2\n      mstore\n      0x20\n      add\n      swap1\n      dup2\n      mstore\n      0x20\n      add\n      0x00\n      keccak256\n      sload\n        /* \"contracts/FishRings.sol\":18002:18040  _allowances[_msgSender()][spender].add */\n      tag_100\n      swap1\n        /* \"contracts/FishRings.sol\":18002:18052  _allowances[_msgSender()][spender].add(addedValue) */\n      swap2\n      swap1\n      0xffffffff\n      and\n      jump\t// in\n    tag_98:\n        /* \"contracts/FishRings.sol\":17970:17978  _approve */\n      tag_84\n        /* \"contracts/FishRings.sol\":17970:18053  _approve(_msgSender(), spender, _allowances[_msgSender()][spender].add(addedValue)) */\n      jump\t// in\n    tag_96:\n        /* \"contracts/FishRings.sol\":18070:18074  true */\n      0x01\n        /* \"contracts/FishRings.sol\":18063:18074  return true */\n      swap1\n      pop\n        /* \"contracts/FishRings.sol\":17874:18081  function increaseAllowance(address spender, uint256 addedValue) public returns (bool) {... */\n      swap3\n      swap2\n      pop\n      pop\n      jump\t// out\n        /* \"contracts/FishRings.sol\":18967:19069  function mint(address account, uint256 amount) public onlyOwner {... */\n    tag_44:\n        /* \"contracts/FishRings.sol\":11644:11656  _msgSender() */\n      tag_102\n        /* \"contracts/FishRings.sol\":11644:11654  _msgSender */\n      tag_83\n        /* \"contracts/FishRings.sol\":11644:11656  _msgSender() */\n      jump\t// in\n    tag_102:\n        /* \"contracts/FishRings.sol\":11633:11656  owner() == _msgSender() */\n      0xffffffffffffffffffffffffffffffffffffffff\n      and\n        /* \"contracts/FishRings.sol\":11633:11640  owner() */\n      tag_103\n        /* \"contracts/FishRings.sol\":11633:11638  owner */\n      tag_57\n        /* \"contracts/FishRings.sol\":11633:11640  owner() */\n      jump\t// in\n    tag_103:\n        /* \"contracts/FishRings.sol\":11633:11656  owner() == _msgSender() */\n      0xffffffffffffffffffffffffffffffffffffffff\n      and\n      eq\n        /* \"contracts/FishRings.sol\":11625:11693  require(owner() == _msgSender(), \"Ownable: caller is not the owner\") */\n      tag_104\n      jumpi\n      mload(0x40)\n      0x08c379a000000000000000000000000000000000000000000000000000000000\n      dup2\n      mstore\n      0x04\n      add\n      dup1\n      dup1\n      0x20\n      add\n      dup3\n      dup2\n      sub\n      dup3\n      mstore\n      0x20\n      dup2\n      mstore\n      0x20\n      add\n      dup1\n      0x4f776e61626c653a2063616c6c6572206973206e6f7420746865206f776e6572\n      dup2\n      mstore\n      pop\n      0x20\n      add\n      swap2\n      pop\n      pop\n      mload(0x40)\n      dup1\n      swap2\n      sub\n      swap1\n      revert\n    tag_104:\n        /* \"contracts/FishRings.sol\":19041:19062  _mint(account,amount) */\n      tag_106\n        /* \"contracts/FishRings.sol\":19047:19054  account */\n      dup3\n        /* \"contracts/FishRings.sol\":19055:19061  amount */\n      dup3\n        /* \"contracts/FishRings.sol\":19041:19046  _mint */\n      tag_107\n        /* \"contracts/FishRings.sol\":19041:19062  _mint(account,amount) */\n      jump\t// in\n    tag_106:\n        /* \"contracts/FishRings.sol\":18967:19069  function mint(address account, uint256 amount) public onlyOwner {... */\n      pop\n      pop\n      jump\t// out\n        /* \"contracts/FishRings.sol\":19174:19254  function burn(uint256 amount) public {... */\n    tag_47:\n        /* \"contracts/FishRings.sol\":19221:19247  _burn(_msgSender(),amount) */\n      tag_109\n        /* \"contracts/FishRings.sol\":19227:19239  _msgSender() */\n      tag_110\n        /* \"contracts/FishRings.sol\":19227:19237  _msgSender */\n      tag_83\n        /* \"contracts/FishRings.sol\":19227:19239  _msgSender() */\n      jump\t// in\n    tag_110:\n        /* \"contracts/FishRings.sol\":19240:19246  amount */\n      dup3\n        /* \"contracts/FishRings.sol\":19221:19226  _burn */\n      tag_111\n        /* \"contracts/FishRings.sol\":19221:19247  _burn(_msgSender(),amount) */\n      jump\t// in\n    tag_109:\n        /* \"contracts/FishRings.sol\":19174:19254  function burn(uint256 amount) public {... */\n      pop\n      jump\t// out\n        /* \"contracts/FishRings.sol\":15783:15899  function balanceOf(address account) public view override returns (uint256){... */\n    tag_50:\n        /* \"contracts/FishRings.sol\":15849:15856  uint256 */\n      0x00\n        /* \"contracts/FishRings.sol\":15874:15883  _balances */\n      0x02\n        /* \"contracts/FishRings.sol\":15874:15892  _balances[account] */\n      0x00\n        /* \"contracts/FishRings.sol\":15884:15891  account */\n      dup4\n        /* \"contracts/FishRings.sol\":15874:15892  _balances[account] */\n      0xffffffffffffffffffffffffffffffffffffffff\n      and\n      0xffffffffffffffffffffffffffffffffffffffff\n      and\n      dup2\n      mstore\n      0x20\n      add\n      swap1\n      dup2\n      mstore\n      0x20\n      add\n      0x00\n      keccak256\n      sload\n        /* \"contracts/FishRings.sol\":15867:15892  return _balances[account] */\n      swap1\n      pop\n        /* \"contracts/FishRings.sol\":15783:15899  function balanceOf(address account) public view override returns (uint256){... */\n      swap2\n      swap1\n      pop\n      jump\t// out\n        /* \"contracts/FishRings.sol\":11913:12194  function acceptOwnership() public {... */\n    tag_52:\n        /* \"contracts/FishRings.sol\":11981:11990  _newOwner */\n      0x01\n      0x00\n      swap1\n      sload\n      swap1\n      0x0100\n      exp\n      swap1\n      div\n      0xffffffffffffffffffffffffffffffffffffffff\n      and\n        /* \"contracts/FishRings.sol\":11965:11990  _msgSender() == _newOwner */\n      0xffffffffffffffffffffffffffffffffffffffff\n      and\n        /* \"contracts/FishRings.sol\":11965:11977  _msgSender() */\n      tag_114\n        /* \"contracts/FishRings.sol\":11965:11975  _msgSender */\n      tag_83\n        /* \"contracts/FishRings.sol\":11965:11977  _msgSender() */\n      jump\t// in\n    tag_114:\n        /* \"contracts/FishRings.sol\":11965:11990  _msgSender() == _newOwner */\n      0xffffffffffffffffffffffffffffffffffffffff\n      and\n      eq\n        /* \"contracts/FishRings.sol\":11957:12039  require(_msgSender() == _newOwner, \"Ownable: only new owner can accept ownership\") */\n      tag_115\n      jumpi\n      mload(0x40)\n      0x08c379a000000000000000000000000000000000000000000000000000000000\n      dup2\n      mstore\n      0x04\n      add\n      dup1\n      dup1\n      0x20\n      add\n      dup3\n      dup2\n      sub\n      dup3\n      mstore\n      0x2c\n      dup2\n      mstore\n      0x20\n      add\n      dup1\n      data_f7737555abf4f07fa9a8e7458b0ba564ac4d7d05336cdbec0c72ad29c2541514\n      0x2c\n      swap2\n      codecopy\n      0x40\n      add\n      swap2\n      pop\n      pop\n      mload(0x40)\n      dup1\n      swap2\n      sub\n      swap1\n      revert\n    tag_115:\n        /* \"contracts/FishRings.sol\":12049:12065  address oldOwner */\n      0x00\n        /* \"contracts/FishRings.sol\":12068:12074  _owner */\n      dup1\n      0x00\n      swap1\n      sload\n      swap1\n      0x0100\n      exp\n      swap1\n      div\n      0xffffffffffffffffffffffffffffffffffffffff\n      and\n        /* \"contracts/FishRings.sol\":12049:12074  address oldOwner = _owner */\n      swap1\n      pop\n        /* \"contracts/FishRings.sol\":12093:12102  _newOwner */\n      0x01\n      0x00\n      swap1\n      sload\n      swap1\n      0x0100\n      exp\n      swap1\n      div\n      0xffffffffffffffffffffffffffffffffffffffff\n      and\n        /* \"contracts/FishRings.sol\":12084:12090  _owner */\n      0x00\n      dup1\n        /* \"contracts/FishRings.sol\":12084:12102  _owner = _newOwner */\n      0x0100\n      exp\n      dup2\n      sload\n      dup2\n      0xffffffffffffffffffffffffffffffffffffffff\n      mul\n      not\n      and\n      swap1\n      dup4\n      0xffffffffffffffffffffffffffffffffffffffff\n      and\n      mul\n      or\n      swap1\n      sstore\n      pop\n        /* \"contracts/FishRings.sol\":12132:12133  0 */\n      0x00\n        /* \"contracts/FishRings.sol\":12112:12121  _newOwner */\n      0x01\n      0x00\n        /* \"contracts/FishRings.sol\":12112:12134  _newOwner = address(0) */\n      0x0100\n      exp\n      dup2\n      sload\n      dup2\n      0xffffffffffffffffffffffffffffffffffffffff\n      mul\n      not\n      and\n      swap1\n      dup4\n      0xffffffffffffffffffffffffffffffffffffffff\n      and\n      mul\n      or\n      swap1\n      sstore\n      pop\n        /* \"contracts/FishRings.sol\":12180:12186  _owner */\n      0x00\n      dup1\n      sload\n      swap1\n      0x0100\n      exp\n      swap1\n      div\n      0xffffffffffffffffffffffffffffffffffffffff\n      and\n        /* \"contracts/FishRings.sol\":12149:12187  OwnershipTransferred(oldOwner, _owner) */\n      0xffffffffffffffffffffffffffffffffffffffff\n      and\n        /* \"contracts/FishRings.sol\":12170:12178  oldOwner */\n      dup2\n        /* \"contracts/FishRings.sol\":12149:12187  OwnershipTransferred(oldOwner, _owner) */\n      0xffffffffffffffffffffffffffffffffffffffff\n      and\n      0x8be0079c531659141344cd1fd0a4f28419497f9722a3daafe3b4186f6b6457e0\n      mload(0x40)\n      mload(0x40)\n      dup1\n      swap2\n      sub\n      swap1\n      log3\n        /* \"contracts/FishRings.sol\":11913:12194  function acceptOwnership() public {... */\n      pop\n      jump\t// out\n        /* \"contracts/FishRings.sol\":19550:19820  function burnFrom(address account, uint256 amount) public {... */\n    tag_55:\n        /* \"contracts/FishRings.sol\":19618:19644  uint256 _decreaseAllowance */\n      0x00\n        /* \"contracts/FishRings.sol\":19647:19719  allowance(account, _msgSender()).sub(amount,\"ERC20: Burn amount excute\") */\n      tag_117\n        /* \"contracts/FishRings.sol\":19684:19690  amount */\n      dup3\n        /* \"contracts/FishRings.sol\":19647:19719  allowance(account, _msgSender()).sub(amount,\"ERC20: Burn amount excute\") */\n      mload(0x40)\n      dup1\n      0x40\n      add\n      0x40\n      mstore\n      dup1\n      0x19\n      dup2\n      mstore\n      0x20\n      add\n      0x45524332303a204275726e20616d6f756e742065786375746500000000000000\n      dup2\n      mstore\n      pop\n        /* \"contracts/FishRings.sol\":19647:19679  allowance(account, _msgSender()) */\n      tag_118\n        /* \"contracts/FishRings.sol\":19657:19664  account */\n      dup7\n        /* \"contracts/FishRings.sol\":19666:19678  _msgSender() */\n      tag_119\n        /* \"contracts/FishRings.sol\":19666:19676  _msgSender */\n      tag_83\n        /* \"contracts/FishRings.sol\":19666:19678  _msgSender() */\n      jump\t// in\n    tag_119:\n        /* \"contracts/FishRings.sol\":19647:19656  allowance */\n      tag_72\n        /* \"contracts/FishRings.sol\":19647:19679  allowance(account, _msgSender()) */\n      jump\t// in\n    tag_118:\n        /* \"contracts/FishRings.sol\":19647:19683  allowance(account, _msgSender()).sub */\n      tag_93\n      swap1\n        /* \"contracts/FishRings.sol\":19647:19719  allowance(account, _msgSender()).sub(amount,\"ERC20: Burn amount excute\") */\n      swap3\n      swap2\n      swap1\n      0xffffffff\n      and\n      jump\t// in\n    tag_117:\n        /* \"contracts/FishRings.sol\":19618:19719  uint256 _decreaseAllowance = allowance(account, _msgSender()).sub(amount,\"ERC20: Burn amount excute\") */\n      swap1\n      pop\n        /* \"contracts/FishRings.sol\":19730:19781  _approve(account, _msgSender(), _decreaseAllowance) */\n      tag_120\n        /* \"contracts/FishRings.sol\":19739:19746  account */\n      dup4\n        /* \"contracts/FishRings.sol\":19748:19760  _msgSender() */\n      tag_121\n        /* \"contracts/FishRings.sol\":19748:19758  _msgSender */\n      tag_83\n        /* \"contracts/FishRings.sol\":19748:19760  _msgSender() */\n      jump\t// in\n    tag_121:\n        /* \"contracts/FishRings.sol\":19762:19780  _decreaseAllowance */\n      dup4\n        /* \"contracts/FishRings.sol\":19730:19738  _approve */\n      tag_84\n        /* \"contracts/FishRings.sol\":19730:19781  _approve(account, _msgSender(), _decreaseAllowance) */\n      jump\t// in\n    tag_120:\n        /* \"contracts/FishRings.sol\":19791:19813  _burn(account, amount) */\n      tag_122\n        /* \"contracts/FishRings.sol\":19797:19804  account */\n      dup4\n        /* \"contracts/FishRings.sol\":19806:19812  amount */\n      dup4\n        /* \"contracts/FishRings.sol\":19791:19796  _burn */\n      tag_111\n        /* \"contracts/FishRings.sol\":19791:19813  _burn(account, amount) */\n      jump\t// in\n    tag_122:\n        /* \"contracts/FishRings.sol\":19550:19820  function burnFrom(address account, uint256 amount) public {... */\n      pop\n      pop\n      pop\n      jump\t// out\n        /* \"contracts/FishRings.sol\":11435:11512  function owner() public view returns (address) {... */\n    tag_57:\n        /* \"contracts/FishRings.sol\":11473:11480  address */\n      0x00\n        /* \"contracts/FishRings.sol\":11499:11505  _owner */\n      dup1\n      0x00\n      swap1\n      sload\n      swap1\n      0x0100\n      exp\n      swap1\n      div\n      0xffffffffffffffffffffffffffffffffffffffff\n      and\n        /* \"contracts/FishRings.sol\":11492:11505  return _owner */\n      swap1\n      pop\n        /* \"contracts/FishRings.sol\":11435:11512  function owner() public view returns (address) {... */\n      swap1\n      jump\t// out\n        /* \"contracts/FishRings.sol\":14795:14879  function symbol() public view returns (string memory){... */\n    tag_59:\n        /* \"contracts/FishRings.sol\":14834:14847  string memory */\n      0x60\n        /* \"contracts/FishRings.sol\":14865:14872  _symbol */\n      0x07\n        /* \"contracts/FishRings.sol\":14858:14872  return _symbol */\n      dup1\n      sload\n      0x01\n      dup2\n      0x01\n      and\n      iszero\n      0x0100\n      mul\n      sub\n      and\n      0x02\n      swap1\n      div\n      dup1\n      0x1f\n      add\n      0x20\n      dup1\n      swap2\n      div\n      mul\n      0x20\n      add\n      mload(0x40)\n      swap1\n      dup2\n      add\n      0x40\n      mstore\n      dup1\n      swap3\n      swap2\n      swap1\n      dup2\n      dup2\n      mstore\n      0x20\n      add\n      dup3\n      dup1\n      sload\n      0x01\n      dup2\n      0x01\n      and\n      iszero\n      0x0100\n      mul\n      sub\n      and\n      0x02\n      swap1\n      div\n      dup1\n      iszero\n      tag_125\n      jumpi\n      dup1\n      0x1f\n      lt\n      tag_126\n      jumpi\n      0x0100\n      dup1\n      dup4\n      sload\n      div\n      mul\n      dup4\n      mstore\n      swap2\n      0x20\n      add\n      swap2\n      jump(tag_125)\n    tag_126:\n      dup3\n      add\n      swap2\n      swap1\n      0x00\n      mstore\n      keccak256(0x00, 0x20)\n      swap1\n    tag_127:\n      dup2\n      sload\n      dup2\n      mstore\n      swap1\n      0x01\n      add\n      swap1\n      0x20\n      add\n      dup1\n      dup4\n      gt\n      tag_127\n      jumpi\n      dup3\n      swap1\n      sub\n      0x1f\n      and\n      dup3\n      add\n      swap2\n    tag_125:\n      pop\n      pop\n      pop\n      pop\n      pop\n      swap1\n      pop\n        /* \"contracts/FishRings.sol\":14795:14879  function symbol() public view returns (string memory){... */\n      swap1\n      jump\t// out\n        /* \"contracts/FishRings.sol\":18555:18805  function decreaseAllowance(address spender, uint256 addedValue) public returns (bool) {... */\n    tag_66:\n        /* \"contracts/FishRings.sol\":18635:18639  bool */\n      0x00\n        /* \"contracts/FishRings.sol\":18651:18777  _approve(_msgSender(), spender, _allowances[_msgSender()][spender].sub(addedValue,\"ERC20: decrease amount exceeds allowance\")) */\n      tag_129\n        /* \"contracts/FishRings.sol\":18660:18672  _msgSender() */\n      tag_130\n        /* \"contracts/FishRings.sol\":18660:18670  _msgSender */\n      tag_83\n        /* \"contracts/FishRings.sol\":18660:18672  _msgSender() */\n      jump\t// in\n    tag_130:\n        /* \"contracts/FishRings.sol\":18674:18681  spender */\n      dup5\n        /* \"contracts/FishRings.sol\":18683:18776  _allowances[_msgSender()][spender].sub(addedValue,\"ERC20: decrease amount exceeds allowance\") */\n      tag_131\n        /* \"contracts/FishRings.sol\":18722:18732  addedValue */\n      dup6\n        /* \"contracts/FishRings.sol\":18683:18776  _allowances[_msgSender()][spender].sub(addedValue,\"ERC20: decrease amount exceeds allowance\") */\n      mload(0x40)\n      dup1\n      0x60\n      add\n      0x40\n      mstore\n      dup1\n      0x28\n      dup2\n      mstore\n      0x20\n      add\n      data_76ef47d3cac10bdd88984936fbabf838a95158c824f2256c2b05b83385232484\n      0x28\n      swap2\n      codecopy\n        /* \"contracts/FishRings.sol\":18683:18694  _allowances */\n      0x03\n        /* \"contracts/FishRings.sol\":18683:18708  _allowances[_msgSender()] */\n      0x00\n        /* \"contracts/FishRings.sol\":18695:18707  _msgSender() */\n      tag_132\n        /* \"contracts/FishRings.sol\":18695:18705  _msgSender */\n      tag_83\n        /* \"contracts/FishRings.sol\":18695:18707  _msgSender() */\n      jump\t// in\n    tag_132:\n        /* \"contracts/FishRings.sol\":18683:18708  _allowances[_msgSender()] */\n      0xffffffffffffffffffffffffffffffffffffffff\n      and\n      0xffffffffffffffffffffffffffffffffffffffff\n      and\n      dup2\n      mstore\n      0x20\n      add\n      swap1\n      dup2\n      mstore\n      0x20\n      add\n      0x00\n      keccak256\n        /* \"contracts/FishRings.sol\":18683:18717  _allowances[_msgSender()][spender] */\n      0x00\n        /* \"contracts/FishRings.sol\":18709:18716  spender */\n      dup11\n        /* \"contracts/FishRings.sol\":18683:18717  _allowances[_msgSender()][spender] */\n      0xffffffffffffffffffffffffffffffffffffffff\n      and\n      0xffffffffffffffffffffffffffffffffffffffff\n      and\n      dup2\n      mstore\n      0x20\n      add\n      swap1\n      dup2\n      mstore\n      0x20\n      add\n      0x00\n      keccak256\n      sload\n        /* \"contracts/FishRings.sol\":18683:18721  _allowances[_msgSender()][spender].sub */\n      tag_93\n      swap1\n        /* \"contracts/FishRings.sol\":18683:18776  _allowances[_msgSender()][spender].sub(addedValue,\"ERC20: decrease amount exceeds allowance\") */\n      swap3\n      swap2\n      swap1\n      0xffffffff\n      and\n      jump\t// in\n    tag_131:\n        /* \"contracts/FishRings.sol\":18651:18659  _approve */\n      tag_84\n        /* \"contracts/FishRings.sol\":18651:18777  _approve(_msgSender(), spender, _allowances[_msgSender()][spender].sub(addedValue,\"ERC20: decrease amount exceeds allowance\")) */\n      jump\t// in\n    tag_129:\n        /* \"contracts/FishRings.sol\":18794:18798  true */\n      0x01\n        /* \"contracts/FishRings.sol\":18787:18798  return true */\n      swap1\n      pop\n        /* \"contracts/FishRings.sol\":18555:18805  function decreaseAllowance(address spender, uint256 addedValue) public returns (bool) {... */\n      swap3\n      swap2\n      pop\n      pop\n      jump\t// out\n        /* \"contracts/FishRings.sol\":16096:16259  function transfer(address recipient, uint256 amount) public override returns (bool){... */\n    tag_69:\n        /* \"contracts/FishRings.sol\":16174:16178  bool */\n      0x00\n        /* \"contracts/FishRings.sol\":16189:16231  _transfer(_msgSender(), recipient, amount) */\n      tag_134\n        /* \"contracts/FishRings.sol\":16199:16211  _msgSender() */\n      tag_135\n        /* \"contracts/FishRings.sol\":16199:16209  _msgSender */\n      tag_83\n        /* \"contracts/FishRings.sol\":16199:16211  _msgSender() */\n      jump\t// in\n    tag_135:\n        /* \"contracts/FishRings.sol\":16213:16222  recipient */\n      dup5\n        /* \"contracts/FishRings.sol\":16224:16230  amount */\n      dup5\n        /* \"contracts/FishRings.sol\":16189:16198  _transfer */\n      tag_88\n        /* \"contracts/FishRings.sol\":16189:16231  _transfer(_msgSender(), recipient, amount) */\n      jump\t// in\n    tag_134:\n        /* \"contracts/FishRings.sol\":16248:16252  true */\n      0x01\n        /* \"contracts/FishRings.sol\":16241:16252  return true */\n      swap1\n      pop\n        /* \"contracts/FishRings.sol\":16096:16259  function transfer(address recipient, uint256 amount) public override returns (bool){... */\n      swap3\n      swap2\n      pop\n      pop\n      jump\t// out\n        /* \"contracts/FishRings.sol\":16319:16459  function allowance(address owner, address spender) public view override returns (uint256){... */\n    tag_72:\n        /* \"contracts/FishRings.sol\":16400:16407  uint256 */\n      0x00\n        /* \"contracts/FishRings.sol\":16425:16436  _allowances */\n      0x03\n        /* \"contracts/FishRings.sol\":16425:16443  _allowances[owner] */\n      0x00\n        /* \"contracts/FishRings.sol\":16437:16442  owner */\n      dup5\n        /* \"contracts/FishRings.sol\":16425:16443  _allowances[owner] */\n      0xffffffffffffffffffffffffffffffffffffffff\n      and\n      0xffffffffffffffffffffffffffffffffffffffff\n      and\n      dup2\n      mstore\n      0x20\n      add\n      swap1\n      dup2\n      mstore\n      0x20\n      add\n      0x00\n      keccak256\n        /* \"contracts/FishRings.sol\":16425:16452  _allowances[owner][spender] */\n      0x00\n        /* \"contracts/FishRings.sol\":16444:16451  spender */\n      dup4\n        /* \"contracts/FishRings.sol\":16425:16452  _allowances[owner][spender] */\n      0xffffffffffffffffffffffffffffffffffffffff\n      and\n      0xffffffffffffffffffffffffffffffffffffffff\n      and\n      dup2\n      mstore\n      0x20\n      add\n      swap1\n      dup2\n      mstore\n      0x20\n      add\n      0x00\n      keccak256\n      sload\n        /* \"contracts/FishRings.sol\":16418:16452  return _allowances[owner][spender] */\n      swap1\n      pop\n        /* \"contracts/FishRings.sol\":16319:16459  function allowance(address owner, address spender) public view override returns (uint256){... */\n      swap3\n      swap2\n      pop\n      pop\n      jump\t// out\n        /* \"contracts/FishRings.sol\":12345:12527  function transferOwnership(address newOwner) public onlyOwner {... */\n    tag_75:\n        /* \"contracts/FishRings.sol\":11644:11656  _msgSender() */\n      tag_138\n        /* \"contracts/FishRings.sol\":11644:11654  _msgSender */\n      tag_83\n        /* \"contracts/FishRings.sol\":11644:11656  _msgSender() */\n      jump\t// in\n    tag_138:\n        /* \"contracts/FishRings.sol\":11633:11656  owner() == _msgSender() */\n      0xffffffffffffffffffffffffffffffffffffffff\n      and\n        /* \"contracts/FishRings.sol\":11633:11640  owner() */\n      tag_139\n        /* \"contracts/FishRings.sol\":11633:11638  owner */\n      tag_57\n        /* \"contracts/FishRings.sol\":11633:11640  owner() */\n      jump\t// in\n    tag_139:\n        /* \"contracts/FishRings.sol\":11633:11656  owner() == _msgSender() */\n      0xffffffffffffffffffffffffffffffffffffffff\n      and\n      eq\n        /* \"contracts/FishRings.sol\":11625:11693  require(owner() == _msgSender(), \"Ownable: caller is not the owner\") */\n      tag_140\n      jumpi\n      mload(0x40)\n      0x08c379a000000000000000000000000000000000000000000000000000000000\n      dup2\n      mstore\n      0x04\n      add\n      dup1\n      dup1\n      0x20\n      add\n      dup3\n      dup2\n      sub\n      dup3\n      mstore\n      0x20\n      dup2\n      mstore\n      0x20\n      add\n      dup1\n      0x4f776e61626c653a2063616c6c6572206973206e6f7420746865206f776e6572\n      dup2\n      mstore\n      pop\n      0x20\n      add\n      swap2\n      pop\n      pop\n      mload(0x40)\n      dup1\n      swap2\n      sub\n      swap1\n      revert\n    tag_140:\n        /* \"contracts/FishRings.sol\":12445:12446  0 */\n      0x00\n        /* \"contracts/FishRings.sol\":12425:12447  newOwner != address(0) */\n      0xffffffffffffffffffffffffffffffffffffffff\n      and\n        /* \"contracts/FishRings.sol\":12425:12433  newOwner */\n      dup2\n        /* \"contracts/FishRings.sol\":12425:12447  newOwner != address(0) */\n      0xffffffffffffffffffffffffffffffffffffffff\n      and\n      eq\n      iszero\n        /* \"contracts/FishRings.sol\":12417:12490  require(newOwner != address(0), \"Ownable: new owner is the zero address\") */\n      tag_142\n      jumpi\n      mload(0x40)\n      0x08c379a000000000000000000000000000000000000000000000000000000000\n      dup2\n      mstore\n      0x04\n      add\n      dup1\n      dup1\n      0x20\n      add\n      dup3\n      dup2\n      sub\n      dup3\n      mstore\n      0x26\n      dup2\n      mstore\n      0x20\n      add\n      dup1\n      data_245f15ff17f551913a7a18385165551503906a406f905ac1c2437281a7cd0cfe\n      0x26\n      swap2\n      codecopy\n      0x40\n      add\n      swap2\n      pop\n      pop\n      mload(0x40)\n      dup1\n      swap2\n      sub\n      swap1\n      revert\n    tag_142:\n        /* \"contracts/FishRings.sol\":12512:12520  newOwner */\n      dup1\n        /* \"contracts/FishRings.sol\":12500:12509  _newOwner */\n      0x01\n      0x00\n        /* \"contracts/FishRings.sol\":12500:12520  _newOwner = newOwner */\n      0x0100\n      exp\n      dup2\n      sload\n      dup2\n      0xffffffffffffffffffffffffffffffffffffffff\n      mul\n      not\n      and\n      swap1\n      dup4\n      0xffffffffffffffffffffffffffffffffffffffff\n      and\n      mul\n      or\n      swap1\n      sstore\n      pop\n        /* \"contracts/FishRings.sol\":12345:12527  function transferOwnership(address newOwner) public onlyOwner {... */\n      pop\n      jump\t// out\n        /* \"contracts/FishRings.sol\":10095:10191  function _msgSender() internal view returns (address payable) {... */\n    tag_83:\n        /* \"contracts/FishRings.sol\":10140:10155  address payable */\n      0x00\n        /* \"contracts/FishRings.sol\":10174:10184  msg.sender */\n      caller\n        /* \"contracts/FishRings.sol\":10167:10184  return msg.sender */\n      swap1\n      pop\n        /* \"contracts/FishRings.sol\":10095:10191  function _msgSender() internal view returns (address payable) {... */\n      swap1\n      jump\t// out\n        /* \"contracts/FishRings.sol\":22623:22955  function _approve(address owner, address spender, uint256 amount) internal {... */\n    tag_84:\n        /* \"contracts/FishRings.sol\":22733:22734  0 */\n      0x00\n        /* \"contracts/FishRings.sol\":22716:22735  owner != address(0) */\n      0xffffffffffffffffffffffffffffffffffffffff\n      and\n        /* \"contracts/FishRings.sol\":22716:22721  owner */\n      dup4\n        /* \"contracts/FishRings.sol\":22716:22735  owner != address(0) */\n      0xffffffffffffffffffffffffffffffffffffffff\n      and\n      eq\n      iszero\n        /* \"contracts/FishRings.sol\":22708:22776  require(owner != address(0), \"ERC20: approve from the zero address\") */\n      tag_145\n      jumpi\n      mload(0x40)\n      0x08c379a000000000000000000000000000000000000000000000000000000000\n      dup2\n      mstore\n      0x04\n      add\n      dup1\n      dup1\n      0x20\n      add\n      dup3\n      dup2\n      sub\n      dup3\n      mstore\n      0x24\n      dup2\n      mstore\n      0x20\n      add\n      dup1\n      data_c953f4879035ed60e766b34720f656aab5c697b141d924c283124ecedb91c208\n      0x24\n      swap2\n      codecopy\n      0x40\n      add\n      swap2\n      pop\n      pop\n      mload(0x40)\n      dup1\n      swap2\n      sub\n      swap1\n      revert\n    tag_145:\n        /* \"contracts/FishRings.sol\":22813:22814  0 */\n      0x00\n        /* \"contracts/FishRings.sol\":22794:22815  spender != address(0) */\n      0xffffffffffffffffffffffffffffffffffffffff\n      and\n        /* \"contracts/FishRings.sol\":22794:22801  spender */\n      dup3\n        /* \"contracts/FishRings.sol\":22794:22815  spender != address(0) */\n      0xffffffffffffffffffffffffffffffffffffffff\n      and\n      eq\n      iszero\n        /* \"contracts/FishRings.sol\":22786:22854  require(spender != address(0), \"ERC20: approve to the zero address\") */\n      tag_146\n      jumpi\n      mload(0x40)\n      0x08c379a000000000000000000000000000000000000000000000000000000000\n      dup2\n      mstore\n      0x04\n      add\n      dup1\n      dup1\n      0x20\n      add\n      dup3\n      dup2\n      sub\n      dup3\n      mstore\n      0x22\n      dup2\n      mstore\n      0x20\n      add\n      dup1\n      data_24883cc5fe64ace9d0df1893501ecb93c77180f0ff69cca79affb3c316dc8029\n      0x22\n      swap2\n      codecopy\n      0x40\n      add\n      swap2\n      pop\n      pop\n      mload(0x40)\n      dup1\n      swap2\n      sub\n      swap1\n      revert\n    tag_146:\n        /* \"contracts/FishRings.sol\":22895:22901  amount */\n      dup1\n        /* \"contracts/FishRings.sol\":22865:22876  _allowances */\n      0x03\n        /* \"contracts/FishRings.sol\":22865:22883  _allowances[owner] */\n      0x00\n        /* \"contracts/FishRings.sol\":22877:22882  owner */\n      dup6\n        /* \"contracts/FishRings.sol\":22865:22883  _allowances[owner] */\n      0xffffffffffffffffffffffffffffffffffffffff\n      and\n      0xffffffffffffffffffffffffffffffffffffffff\n      and\n      dup2\n      mstore\n      0x20\n      add\n      swap1\n      dup2\n      mstore\n      0x20\n      add\n      0x00\n      keccak256\n        /* \"contracts/FishRings.sol\":22865:22892  _allowances[owner][spender] */\n      0x00\n        /* \"contracts/FishRings.sol\":22884:22891  spender */\n      dup5\n        /* \"contracts/FishRings.sol\":22865:22892  _allowances[owner][spender] */\n      0xffffffffffffffffffffffffffffffffffffffff\n      and\n      0xffffffffffffffffffffffffffffffffffffffff\n      and\n      dup2\n      mstore\n      0x20\n      add\n      swap1\n      dup2\n      mstore\n      0x20\n      add\n      0x00\n      keccak256\n        /* \"contracts/FishRings.sol\":22865:22901  _allowances[owner][spender] = amount */\n      dup2\n      swap1\n      sstore\n      pop\n        /* \"contracts/FishRings.sol\":22932:22939  spender */\n      dup2\n        /* \"contracts/FishRings.sol\":22916:22948  Approval(owner, spender, amount) */\n      0xffffffffffffffffffffffffffffffffffffffff\n      and\n        /* \"contracts/FishRings.sol\":22925:22930  owner */\n      dup4\n        /* \"contracts/FishRings.sol\":22916:22948  Approval(owner, spender, amount) */\n      0xffffffffffffffffffffffffffffffffffffffff\n      and\n      0x8c5be1e5ebec7d5bd14f71427d1e84f3dd0314c0f7b2291e5b200ac8c7c3b925\n        /* \"contracts/FishRings.sol\":22941:22947  amount */\n      dup4\n        /* \"contracts/FishRings.sol\":22916:22948  Approval(owner, spender, amount) */\n      mload(0x40)\n      dup1\n      dup3\n      dup2\n      mstore\n      0x20\n      add\n      swap2\n      pop\n      pop\n      mload(0x40)\n      dup1\n      swap2\n      sub\n      swap1\n      log3\n        /* \"contracts/FishRings.sol\":22623:22955  function _approve(address owner, address spender, uint256 amount) internal {... */\n      pop\n      pop\n      pop\n      jump\t// out\n        /* \"contracts/FishRings.sol\":20281:20790  function _transfer(address sender, address recipient, uint256 amount) internal{... */\n    tag_88:\n        /* \"contracts/FishRings.sol\":20395:20396  0 */\n      0x00\n        /* \"contracts/FishRings.sol\":20377:20397  sender != address(0) */\n      0xffffffffffffffffffffffffffffffffffffffff\n      and\n        /* \"contracts/FishRings.sol\":20377:20383  sender */\n      dup4\n        /* \"contracts/FishRings.sol\":20377:20397  sender != address(0) */\n      0xffffffffffffffffffffffffffffffffffffffff\n      and\n      eq\n      iszero\n        /* \"contracts/FishRings.sol\":20369:20435  require(sender != address(0), \"ERC20: transfer from zero address\") */\n      tag_148\n      jumpi\n      mload(0x40)\n      0x08c379a000000000000000000000000000000000000000000000000000000000\n      dup2\n      mstore\n      0x04\n      add\n      dup1\n      dup1\n      0x20\n      add\n      dup3\n      dup2\n      sub\n      dup3\n      mstore\n      0x21\n      dup2\n      mstore\n      0x20\n      add\n      dup1\n      data_367728d6f44731c16c559c0217fff6d163e627732494d917a99a19fd59fa9611\n      0x21\n      swap2\n      codecopy\n      0x40\n      add\n      swap2\n      pop\n      pop\n      mload(0x40)\n      dup1\n      swap2\n      sub\n      swap1\n      revert\n    tag_148:\n        /* \"contracts/FishRings.sol\":20474:20475  0 */\n      0x00\n        /* \"contracts/FishRings.sol\":20453:20476  recipient != address(0) */\n      0xffffffffffffffffffffffffffffffffffffffff\n      and\n        /* \"contracts/FishRings.sol\":20453:20462  recipient */\n      dup3\n        /* \"contracts/FishRings.sol\":20453:20476  recipient != address(0) */\n      0xffffffffffffffffffffffffffffffffffffffff\n      and\n      eq\n      iszero\n        /* \"contracts/FishRings.sol\":20445:20512  require(recipient != address(0), \"ERC20: transfer to zero address\") */\n      tag_149\n      jumpi\n      mload(0x40)\n      0x08c379a000000000000000000000000000000000000000000000000000000000\n      dup2\n      mstore\n      0x04\n      add\n      dup1\n      dup1\n      0x20\n      add\n      dup3\n      dup2\n      sub\n      dup3\n      mstore\n      0x1f\n      dup2\n      mstore\n      0x20\n      add\n      dup1\n      0x45524332303a207472616e7366657220746f207a65726f206164647265737300\n      dup2\n      mstore\n      pop\n      0x20\n      add\n      swap2\n      pop\n      pop\n      mload(0x40)\n      dup1\n      swap2\n      sub\n      swap1\n      revert\n    tag_149:\n        /* \"contracts/FishRings.sol\":20523:20568  _beforeTokenTransfer(sender,recipient,amount) */\n      tag_150\n        /* \"contracts/FishRings.sol\":20544:20550  sender */\n      dup4\n        /* \"contracts/FishRings.sol\":20551:20560  recipient */\n      dup4\n        /* \"contracts/FishRings.sol\":20561:20567  amount */\n      dup4\n        /* \"contracts/FishRings.sol\":20523:20543  _beforeTokenTransfer */\n      tag_151\n        /* \"contracts/FishRings.sol\":20523:20568  _beforeTokenTransfer(sender,recipient,amount) */\n      jump\t// in\n    tag_150:\n        /* \"contracts/FishRings.sol\":20599:20669  _balances[sender].sub(amount,\"ERC20: transfer amount exceeds balance\") */\n      tag_152\n        /* \"contracts/FishRings.sol\":20621:20627  amount */\n      dup2\n        /* \"contracts/FishRings.sol\":20599:20669  _balances[sender].sub(amount,\"ERC20: transfer amount exceeds balance\") */\n      mload(0x40)\n      dup1\n      0x60\n      add\n      0x40\n      mstore\n      dup1\n      0x26\n      dup2\n      mstore\n      0x20\n      add\n      data_4107e8a8b9e94bf8ff83080ddec1c0bffe897ebc2241b89d44f66b3d274088b6\n      0x26\n      swap2\n      codecopy\n        /* \"contracts/FishRings.sol\":20599:20608  _balances */\n      0x02\n        /* \"contracts/FishRings.sol\":20599:20616  _balances[sender] */\n      0x00\n        /* \"contracts/FishRings.sol\":20609:20615  sender */\n      dup8\n        /* \"contracts/FishRings.sol\":20599:20616  _balances[sender] */\n      0xffffffffffffffffffffffffffffffffffffffff\n      and\n      0xffffffffffffffffffffffffffffffffffffffff\n      and\n      dup2\n      mstore\n      0x20\n      add\n      swap1\n      dup2\n      mstore\n      0x20\n      add\n      0x00\n      keccak256\n      sload\n        /* \"contracts/FishRings.sol\":20599:20620  _balances[sender].sub */\n      tag_93\n      swap1\n        /* \"contracts/FishRings.sol\":20599:20669  _balances[sender].sub(amount,\"ERC20: transfer amount exceeds balance\") */\n      swap3\n      swap2\n      swap1\n      0xffffffff\n      and\n      jump\t// in\n    tag_152:\n        /* \"contracts/FishRings.sol\":20579:20588  _balances */\n      0x02\n        /* \"contracts/FishRings.sol\":20579:20596  _balances[sender] */\n      0x00\n        /* \"contracts/FishRings.sol\":20589:20595  sender */\n      dup6\n        /* \"contracts/FishRings.sol\":20579:20596  _balances[sender] */\n      0xffffffffffffffffffffffffffffffffffffffff\n      and\n      0xffffffffffffffffffffffffffffffffffffffff\n      and\n      dup2\n      mstore\n      0x20\n      add\n      swap1\n      dup2\n      mstore\n      0x20\n      add\n      0x00\n      keccak256\n        /* \"contracts/FishRings.sol\":20579:20669  _balances[sender] = _balances[sender].sub(amount,\"ERC20: transfer amount exceeds balance\") */\n      dup2\n      swap1\n      sstore\n      pop\n        /* \"contracts/FishRings.sol\":20702:20734  _balances[recipient].add(amount) */\n      tag_153\n        /* \"contracts/FishRings.sol\":20727:20733  amount */\n      dup2\n        /* \"contracts/FishRings.sol\":20702:20711  _balances */\n      0x02\n        /* \"contracts/FishRings.sol\":20702:20722  _balances[recipient] */\n      0x00\n        /* \"contracts/FishRings.sol\":20712:20721  recipient */\n      dup6\n        /* \"contracts/FishRings.sol\":20702:20722  _balances[recipient] */\n      0xffffffffffffffffffffffffffffffffffffffff\n      and\n      0xffffffffffffffffffffffffffffffffffffffff\n      and\n      dup2\n      mstore\n      0x20\n      add\n      swap1\n      dup2\n      mstore\n      0x20\n      add\n      0x00\n      keccak256\n      sload\n        /* \"contracts/FishRings.sol\":20702:20726  _balances[recipient].add */\n      tag_100\n      swap1\n        /* \"contracts/FishRings.sol\":20702:20734  _balances[recipient].add(amount) */\n      swap2\n      swap1\n      0xffffffff\n      and\n      jump\t// in\n    tag_153:\n        /* \"contracts/FishRings.sol\":20679:20688  _balances */\n      0x02\n        /* \"contracts/FishRings.sol\":20679:20699  _balances[recipient] */\n      0x00\n        /* \"contracts/FishRings.sol\":20689:20698  recipient */\n      dup5\n        /* \"contracts/FishRings.sol\":20679:20699  _balances[recipient] */\n      0xffffffffffffffffffffffffffffffffffffffff\n      and\n      0xffffffffffffffffffffffffffffffffffffffff\n      and\n      dup2\n      mstore\n      0x20\n      add\n      swap1\n      dup2\n      mstore\n      0x20\n      add\n      0x00\n      keccak256\n        /* \"contracts/FishRings.sol\":20679:20734  _balances[recipient] = _balances[recipient].add(amount) */\n      dup2\n      swap1\n      sstore\n      pop\n        /* \"contracts/FishRings.sol\":20765:20774  recipient */\n      dup2\n        /* \"contracts/FishRings.sol\":20749:20783  Transfer(sender,recipient, amount) */\n      0xffffffffffffffffffffffffffffffffffffffff\n      and\n        /* \"contracts/FishRings.sol\":20758:20764  sender */\n      dup4\n        /* \"contracts/FishRings.sol\":20749:20783  Transfer(sender,recipient, amount) */\n      0xffffffffffffffffffffffffffffffffffffffff\n      and\n      0xddf252ad1be2c89b69c2b068fc378daa952ba7f163c4a11628f55a4df523b3ef\n        /* \"contracts/FishRings.sol\":20776:20782  amount */\n      dup4\n        /* \"contracts/FishRings.sol\":20749:20783  Transfer(sender,recipient, amount) */\n      mload(0x40)\n      dup1\n      dup3\n      dup2\n      mstore\n      0x20\n      add\n      swap2\n      pop\n      pop\n      mload(0x40)\n      dup1\n      swap2\n      sub\n      swap1\n      log3\n        /* \"contracts/FishRings.sol\":20281:20790  function _transfer(address sender, address recipient, uint256 amount) internal{... */\n      pop\n      pop\n      pop\n      jump\t// out\n        /* \"contracts/FishRings.sol\":5183:5345  function sub(uint256 a, uint256 b, string memory errorMessage) internal pure returns (uint256){... */\n    tag_93:\n        /* \"contracts/FishRings.sol\":5269:5276  uint256 */\n      0x00\n        /* \"contracts/FishRings.sol\":5300:5301  a */\n      dup4\n        /* \"contracts/FishRings.sol\":5295:5296  b */\n      dup4\n        /* \"contracts/FishRings.sol\":5295:5301  b <= a */\n      gt\n      iszero\n        /* \"contracts/FishRings.sol\":5303:5315  errorMessage */\n      dup3\n        /* \"contracts/FishRings.sol\":5287:5316  require(b <= a, errorMessage) */\n      swap1\n      tag_155\n      jumpi\n      mload(0x40)\n      0x08c379a000000000000000000000000000000000000000000000000000000000\n      dup2\n      mstore\n      0x04\n      add\n      dup1\n      dup1\n      0x20\n      add\n      dup3\n      dup2\n      sub\n      dup3\n      mstore\n      dup4\n      dup2\n      dup2\n      mload\n      dup2\n      mstore\n      0x20\n      add\n      swap2\n      pop\n      dup1\n      mload\n      swap1\n      0x20\n      add\n      swap1\n      dup1\n      dup4\n      dup4\n      0x00\n    tag_156:\n      dup4\n      dup2\n      lt\n      iszero\n      tag_158\n      jumpi\n      dup1\n      dup3\n      add\n      mload\n      dup2\n      dup5\n      add\n      mstore\n      0x20\n      dup2\n      add\n      swap1\n      pop\n      jump(tag_156)\n    tag_158:\n      pop\n      pop\n      pop\n      pop\n      swap1\n      pop\n      swap1\n      dup2\n      add\n      swap1\n      0x1f\n      and\n      dup1\n      iszero\n      tag_159\n      jumpi\n      dup1\n      dup3\n      sub\n      dup1\n      mload\n      0x01\n      dup4\n      0x20\n      sub\n      0x0100\n      exp\n      sub\n      not\n      and\n      dup2\n      mstore\n      0x20\n      add\n      swap2\n      pop\n    tag_159:\n      pop\n      swap3\n      pop\n      pop\n      pop\n      mload(0x40)\n      dup1\n      swap2\n      sub\n      swap1\n      revert\n    tag_155:\n      pop\n        /* \"contracts/FishRings.sol\":5337:5338  b */\n      dup3\n        /* \"contracts/FishRings.sol\":5333:5334  a */\n      dup5\n        /* \"contracts/FishRings.sol\":5333:5338  a - b */\n      sub\n        /* \"contracts/FishRings.sol\":5326:5338  return a - b */\n      swap1\n      pop\n        /* \"contracts/FishRings.sol\":5183:5345  function sub(uint256 a, uint256 b, string memory errorMessage) internal pure returns (uint256){... */\n      swap4\n      swap3\n      pop\n      pop\n      pop\n      jump\t// out\n        /* \"contracts/FishRings.sol\":2492:2669  function add(uint256 a, uint256 b) internal pure returns (uint256){... */\n    tag_100:\n        /* \"contracts/FishRings.sol\":2550:2557  uint256 */\n      0x00\n        /* \"contracts/FishRings.sol\":2568:2577  uint256 c */\n      dup1\n        /* \"contracts/FishRings.sol\":2583:2584  b */\n      dup3\n        /* \"contracts/FishRings.sol\":2580:2581  a */\n      dup5\n        /* \"contracts/FishRings.sol\":2580:2584  a +b */\n      add\n        /* \"contracts/FishRings.sol\":2568:2584  uint256 c = a +b */\n      swap1\n      pop\n        /* \"contracts/FishRings.sol\":2611:2612  b */\n      dup3\n        /* \"contracts/FishRings.sol\":2607:2608  a */\n      dup5\n        /* \"contracts/FishRings.sol\":2607:2612  a + b */\n      add\n        /* \"contracts/FishRings.sol\":2602:2603  c */\n      dup2\n        /* \"contracts/FishRings.sol\":2602:2612  c >= a + b */\n      lt\n      iszero\n        /* \"contracts/FishRings.sol\":2594:2644  require(c >= a + b, \"SafeMath: addition overflow\") */\n      tag_161\n      jumpi\n      mload(0x40)\n      0x08c379a000000000000000000000000000000000000000000000000000000000\n      dup2\n      mstore\n      0x04\n      add\n      dup1\n      dup1\n      0x20\n      add\n      dup3\n      dup2\n      sub\n      dup3\n      mstore\n      0x1b\n      dup2\n      mstore\n      0x20\n      add\n      dup1\n      0x536166654d6174683a206164646974696f6e206f766572666c6f770000000000\n      dup2\n      mstore\n      pop\n      0x20\n      add\n      swap2\n      pop\n      pop\n      mload(0x40)\n      dup1\n      swap2\n      sub\n      swap1\n      revert\n    tag_161:\n        /* \"contracts/FishRings.sol\":2661:2662  c */\n      dup1\n        /* \"contracts/FishRings.sol\":2654:2662  return c */\n      swap2\n      pop\n      pop\n        /* \"contracts/FishRings.sol\":2492:2669  function add(uint256 a, uint256 b) internal pure returns (uint256){... */\n      swap3\n      swap2\n      pop\n      pop\n      jump\t// out\n        /* \"contracts/FishRings.sol\":21053:21502  function _mint(address account, uint256 amount) internal {... */\n    tag_107:\n        /* \"contracts/FishRings.sol\":21147:21148  0 */\n      0x00\n        /* \"contracts/FishRings.sol\":21128:21149  account != address(0) */\n      0xffffffffffffffffffffffffffffffffffffffff\n      and\n        /* \"contracts/FishRings.sol\":21128:21135  account */\n      dup3\n        /* \"contracts/FishRings.sol\":21128:21149  account != address(0) */\n      0xffffffffffffffffffffffffffffffffffffffff\n      and\n      eq\n      iszero\n        /* \"contracts/FishRings.sol\":21120:21180  require(account != address(0),\"ERC20: mint to zero address\") */\n      tag_163\n      jumpi\n      mload(0x40)\n      0x08c379a000000000000000000000000000000000000000000000000000000000\n      dup2\n      mstore\n      0x04\n      add\n      dup1\n      dup1\n      0x20\n      add\n      dup3\n      dup2\n      sub\n      dup3\n      mstore\n      0x1b\n      dup2\n      mstore\n      0x20\n      add\n      dup1\n      0x45524332303a206d696e7420746f207a65726f20616464726573730000000000\n      dup2\n      mstore\n      pop\n      0x20\n      add\n      swap2\n      pop\n      pop\n      mload(0x40)\n      dup1\n      swap2\n      sub\n      swap1\n      revert\n    tag_163:\n        /* \"contracts/FishRings.sol\":21223:21233  _maxSupply */\n      sload(0x04)\n        /* \"contracts/FishRings.sol\":21213:21219  amount */\n      dup2\n        /* \"contracts/FishRings.sol\":21198:21210  _totalSupply */\n      sload(0x05)\n        /* \"contracts/FishRings.sol\":21198:21219  _totalSupply + amount */\n      add\n        /* \"contracts/FishRings.sol\":21198:21233  _totalSupply + amount <= _maxSupply */\n      gt\n      iszero\n        /* \"contracts/FishRings.sol\":21190:21275  require(_totalSupply + amount <= _maxSupply, \"ERC20: mint amount exceeds max supply\") */\n      tag_164\n      jumpi\n      mload(0x40)\n      0x08c379a000000000000000000000000000000000000000000000000000000000\n      dup2\n      mstore\n      0x04\n      add\n      dup1\n      dup1\n      0x20\n      add\n      dup3\n      dup2\n      sub\n      dup3\n      mstore\n      0x25\n      dup2\n      mstore\n      0x20\n      add\n      dup1\n      data_6bf41de9cf55d9f78df11038d6f93de2fb046c6c44aecc2c46b28a24d62dde23\n      0x25\n      swap2\n      codecopy\n      0x40\n      add\n      swap2\n      pop\n      pop\n      mload(0x40)\n      dup1\n      swap2\n      sub\n      swap1\n      revert\n    tag_164:\n        /* \"contracts/FishRings.sol\":21286:21334  _beforeTokenTransfer(address(0),account, amount) */\n      tag_165\n        /* \"contracts/FishRings.sol\":21315:21316  0 */\n      0x00\n        /* \"contracts/FishRings.sol\":21318:21325  account */\n      dup4\n        /* \"contracts/FishRings.sol\":21327:21333  amount */\n      dup4\n        /* \"contracts/FishRings.sol\":21286:21306  _beforeTokenTransfer */\n      tag_151\n        /* \"contracts/FishRings.sol\":21286:21334  _beforeTokenTransfer(address(0),account, amount) */\n      jump\t// in\n    tag_165:\n        /* \"contracts/FishRings.sol\":21360:21384  _totalSupply.add(amount) */\n      tag_166\n        /* \"contracts/FishRings.sol\":21377:21383  amount */\n      dup2\n        /* \"contracts/FishRings.sol\":21360:21372  _totalSupply */\n      sload(0x05)\n        /* \"contracts/FishRings.sol\":21360:21376  _totalSupply.add */\n      tag_100\n      swap1\n        /* \"contracts/FishRings.sol\":21360:21384  _totalSupply.add(amount) */\n      swap2\n      swap1\n      0xffffffff\n      and\n      jump\t// in\n    tag_166:\n        /* \"contracts/FishRings.sol\":21345:21357  _totalSupply */\n      0x05\n        /* \"contracts/FishRings.sol\":21345:21384  _totalSupply = _totalSupply.add(amount) */\n      dup2\n      swap1\n      sstore\n      pop\n        /* \"contracts/FishRings.sol\":21415:21445  _balances[account].add(amount) */\n      tag_167\n        /* \"contracts/FishRings.sol\":21438:21444  amount */\n      dup2\n        /* \"contracts/FishRings.sol\":21415:21424  _balances */\n      0x02\n        /* \"contracts/FishRings.sol\":21415:21433  _balances[account] */\n      0x00\n        /* \"contracts/FishRings.sol\":21425:21432  account */\n      dup6\n        /* \"contracts/FishRings.sol\":21415:21433  _balances[account] */\n      0xffffffffffffffffffffffffffffffffffffffff\n      and\n      0xffffffffffffffffffffffffffffffffffffffff\n      and\n      dup2\n      mstore\n      0x20\n      add\n      swap1\n      dup2\n      mstore\n      0x20\n      add\n      0x00\n      keccak256\n      sload\n        /* \"contracts/FishRings.sol\":21415:21437  _balances[account].add */\n      tag_100\n      swap1\n        /* \"contracts/FishRings.sol\":21415:21445  _balances[account].add(amount) */\n      swap2\n      swap1\n      0xffffffff\n      and\n      jump\t// in\n    tag_167:\n        /* \"contracts/FishRings.sol\":21394:21403  _balances */\n      0x02\n        /* \"contracts/FishRings.sol\":21394:21412  _balances[account] */\n      0x00\n        /* \"contracts/FishRings.sol\":21404:21411  account */\n      dup5\n        /* \"contracts/FishRings.sol\":21394:21412  _balances[account] */\n      0xffffffffffffffffffffffffffffffffffffffff\n      and\n      0xffffffffffffffffffffffffffffffffffffffff\n      and\n      dup2\n      mstore\n      0x20\n      add\n      swap1\n      dup2\n      mstore\n      0x20\n      add\n      0x00\n      keccak256\n        /* \"contracts/FishRings.sol\":21394:21445  _balances[account] = _balances[account].add(amount) */\n      dup2\n      swap1\n      sstore\n      pop\n        /* \"contracts/FishRings.sol\":21480:21487  account */\n      dup2\n        /* \"contracts/FishRings.sol\":21460:21495  Transfer(address(0),account,amount) */\n      0xffffffffffffffffffffffffffffffffffffffff\n      and\n        /* \"contracts/FishRings.sol\":21477:21478  0 */\n      0x00\n        /* \"contracts/FishRings.sol\":21460:21495  Transfer(address(0),account,amount) */\n      0xffffffffffffffffffffffffffffffffffffffff\n      and\n      0xddf252ad1be2c89b69c2b068fc378daa952ba7f163c4a11628f55a4df523b3ef\n        /* \"contracts/FishRings.sol\":21488:21494  amount */\n      dup4\n        /* \"contracts/FishRings.sol\":21460:21495  Transfer(address(0),account,amount) */\n      mload(0x40)\n      dup1\n      dup3\n      dup2\n      mstore\n      0x20\n      add\n      swap2\n      pop\n      pop\n      mload(0x40)\n      dup1\n      swap2\n      sub\n      swap1\n      log3\n        /* \"contracts/FishRings.sol\":21053:21502  function _mint(address account, uint256 amount) internal {... */\n      pop\n      pop\n      jump\t// out\n        /* \"contracts/FishRings.sol\":21812:22208  function _burn(address account, uint256 amount) internal{... */\n    tag_111:\n        /* \"contracts/FishRings.sol\":21905:21906  0 */\n      0x00\n        /* \"contracts/FishRings.sol\":21886:21907  account != address(0) */\n      0xffffffffffffffffffffffffffffffffffffffff\n      and\n        /* \"contracts/FishRings.sol\":21886:21893  account */\n      dup3\n        /* \"contracts/FishRings.sol\":21886:21907  account != address(0) */\n      0xffffffffffffffffffffffffffffffffffffffff\n      and\n      eq\n      iszero\n        /* \"contracts/FishRings.sol\":21878:21945  require(account != address(0), \"ERC20: burn from the zero address\") */\n      tag_169\n      jumpi\n      mload(0x40)\n      0x08c379a000000000000000000000000000000000000000000000000000000000\n      dup2\n      mstore\n      0x04\n      add\n      dup1\n      dup1\n      0x20\n      add\n      dup3\n      dup2\n      sub\n      dup3\n      mstore\n      0x21\n      dup2\n      mstore\n      0x20\n      add\n      dup1\n      data_b16788493b576042bb52c50ed56189e0b250db113c7bfb1c3897d25cf9632d7f\n      0x21\n      swap2\n      codecopy\n      0x40\n      add\n      swap2\n      pop\n      pop\n      mload(0x40)\n      dup1\n      swap2\n      sub\n      swap1\n      revert\n    tag_169:\n        /* \"contracts/FishRings.sol\":21956:22003  _beforeTokenTransfer(account,address(0),amount) */\n      tag_170\n        /* \"contracts/FishRings.sol\":21977:21984  account */\n      dup3\n        /* \"contracts/FishRings.sol\":21993:21994  0 */\n      0x00\n        /* \"contracts/FishRings.sol\":21996:22002  amount */\n      dup4\n        /* \"contracts/FishRings.sol\":21956:21976  _beforeTokenTransfer */\n      tag_151\n        /* \"contracts/FishRings.sol\":21956:22003  _beforeTokenTransfer(account,address(0),amount) */\n      jump\t// in\n    tag_170:\n        /* \"contracts/FishRings.sol\":22035:22102  _balances[account].sub(amount,\"ERC20: burn amount exceeds balance\") */\n      tag_171\n        /* \"contracts/FishRings.sol\":22058:22064  amount */\n      dup2\n        /* \"contracts/FishRings.sol\":22035:22102  _balances[account].sub(amount,\"ERC20: burn amount exceeds balance\") */\n      mload(0x40)\n      dup1\n      0x60\n      add\n      0x40\n      mstore\n      dup1\n      0x22\n      dup2\n      mstore\n      0x20\n      add\n      data_149b126e7125232b4200af45303d04fba8b74653b1a295a6a561a528c33fefdd\n      0x22\n      swap2\n      codecopy\n        /* \"contracts/FishRings.sol\":22035:22044  _balances */\n      0x02\n        /* \"contracts/FishRings.sol\":22035:22053  _balances[account] */\n      0x00\n        /* \"contracts/FishRings.sol\":22045:22052  account */\n      dup7\n        /* \"contracts/FishRings.sol\":22035:22053  _balances[account] */\n      0xffffffffffffffffffffffffffffffffffffffff\n      and\n      0xffffffffffffffffffffffffffffffffffffffff\n      and\n      dup2\n      mstore\n      0x20\n      add\n      swap1\n      dup2\n      mstore\n      0x20\n      add\n      0x00\n      keccak256\n      sload\n        /* \"contracts/FishRings.sol\":22035:22057  _balances[account].sub */\n      tag_93\n      swap1\n        /* \"contracts/FishRings.sol\":22035:22102  _balances[account].sub(amount,\"ERC20: burn amount exceeds balance\") */\n      swap3\n      swap2\n      swap1\n      0xffffffff\n      and\n      jump\t// in\n    tag_171:\n        /* \"contracts/FishRings.sol\":22014:22023  _balances */\n      0x02\n        /* \"contracts/FishRings.sol\":22014:22032  _balances[account] */\n      0x00\n        /* \"contracts/FishRings.sol\":22024:22031  account */\n      dup5\n        /* \"contracts/FishRings.sol\":22014:22032  _balances[account] */\n      0xffffffffffffffffffffffffffffffffffffffff\n      and\n      0xffffffffffffffffffffffffffffffffffffffff\n      and\n      dup2\n      mstore\n      0x20\n      add\n      swap1\n      dup2\n      mstore\n      0x20\n      add\n      0x00\n      keccak256\n        /* \"contracts/FishRings.sol\":22014:22102  _balances[account] = _balances[account].sub(amount,\"ERC20: burn amount exceeds balance\") */\n      dup2\n      swap1\n      sstore\n      pop\n        /* \"contracts/FishRings.sol\":22127:22151  _totalSupply.sub(amount) */\n      tag_172\n        /* \"contracts/FishRings.sol\":22144:22150  amount */\n      dup2\n        /* \"contracts/FishRings.sol\":22127:22139  _totalSupply */\n      sload(0x05)\n        /* \"contracts/FishRings.sol\":22127:22143  _totalSupply.sub */\n      tag_173\n      swap1\n        /* \"contracts/FishRings.sol\":22127:22151  _totalSupply.sub(amount) */\n      swap2\n      swap1\n      0xffffffff\n      and\n      jump\t// in\n    tag_172:\n        /* \"contracts/FishRings.sol\":22112:22124  _totalSupply */\n      0x05\n        /* \"contracts/FishRings.sol\":22112:22151  _totalSupply = _totalSupply.sub(amount) */\n      dup2\n      swap1\n      sstore\n      pop\n        /* \"contracts/FishRings.sol\":22191:22192  0 */\n      0x00\n        /* \"contracts/FishRings.sol\":22166:22201  Transfer(account,address(0),amount) */\n      0xffffffffffffffffffffffffffffffffffffffff\n      and\n        /* \"contracts/FishRings.sol\":22175:22182  account */\n      dup3\n        /* \"contracts/FishRings.sol\":22166:22201  Transfer(account,address(0),amount) */\n      0xffffffffffffffffffffffffffffffffffffffff\n      and\n      0xddf252ad1be2c89b69c2b068fc378daa952ba7f163c4a11628f55a4df523b3ef\n        /* \"contracts/FishRings.sol\":22194:22200  amount */\n      dup4\n        /* \"contracts/FishRings.sol\":22166:22201  Transfer(account,address(0),amount) */\n      mload(0x40)\n      dup1\n      dup3\n      dup2\n      mstore\n      0x20\n      add\n      swap2\n      pop\n      pop\n      mload(0x40)\n      dup1\n      swap2\n      sub\n      swap1\n      log3\n        /* \"contracts/FishRings.sol\":21812:22208  function _burn(address account, uint256 amount) internal{... */\n      pop\n      pop\n      jump\t// out\n        /* \"contracts/FishRings.sol\":22962:23045  function _beforeTokenTransfer(address from, address to, uint256 amount) internal {} */\n    tag_151:\n      pop\n      pop\n      pop\n      jump\t// out\n        /* \"contracts/FishRings.sol\":2931:3085  function sub(uint256 a, uint256 b) internal pure returns (uint256){... */\n    tag_173:\n        /* \"contracts/FishRings.sol\":2989:2996  uint256 */\n      0x00\n        /* \"contracts/FishRings.sol\":3020:3021  a */\n      dup3\n        /* \"contracts/FishRings.sol\":3015:3016  b */\n      dup3\n        /* \"contracts/FishRings.sol\":3015:3021  b <= a */\n      gt\n      iszero\n        /* \"contracts/FishRings.sol\":3007:3056  require(b <= a, \"SafeMath: subtraction overflow\") */\n      tag_176\n      jumpi\n      mload(0x40)\n      0x08c379a000000000000000000000000000000000000000000000000000000000\n      dup2\n      mstore\n      0x04\n      add\n      dup1\n      dup1\n      0x20\n      add\n      dup3\n      dup2\n      sub\n      dup3\n      mstore\n      0x1e\n      dup2\n      mstore\n      0x20\n      add\n      dup1\n      0x536166654d6174683a207375627472616374696f6e206f766572666c6f770000\n      dup2\n      mstore\n      pop\n      0x20\n      add\n      swap2\n      pop\n      pop\n      mload(0x40)\n      dup1\n      swap2\n      sub\n      swap1\n      revert\n    tag_176:\n        /* \"contracts/FishRings.sol\":3077:3078  b */\n      dup2\n        /* \"contracts/FishRings.sol\":3073:3074  a */\n      dup4\n        /* \"contracts/FishRings.sol\":3073:3078  a - b */\n      sub\n        /* \"contracts/FishRings.sol\":3066:3078  return a - b */\n      swap1\n      pop\n        /* \"contracts/FishRings.sol\":2931:3085  function sub(uint256 a, uint256 b) internal pure returns (uint256){... */\n      swap3\n      swap2\n      pop\n      pop\n      jump\t// out\n    stop\n    data_149b126e7125232b4200af45303d04fba8b74653b1a295a6a561a528c33fefdd 45524332303a206275726e20616d6f756e7420657863656564732062616c616e6365\n    data_245f15ff17f551913a7a18385165551503906a406f905ac1c2437281a7cd0cfe 4f776e61626c653a206e6577206f776e657220697320746865207a65726f2061646472657373\n    data_24883cc5fe64ace9d0df1893501ecb93c77180f0ff69cca79affb3c316dc8029 45524332303a20617070726f766520746f20746865207a65726f2061646472657373\n    data_367728d6f44731c16c559c0217fff6d163e627732494d917a99a19fd59fa9611 45524332303a207472616e736665722066726f6d207a65726f2061646472657373\n    data_4107e8a8b9e94bf8ff83080ddec1c0bffe897ebc2241b89d44f66b3d274088b6 45524332303a207472616e7366657220616d6f756e7420657863656564732062616c616e6365\n    data_6bf41de9cf55d9f78df11038d6f93de2fb046c6c44aecc2c46b28a24d62dde23 45524332303a206d696e7420616d6f756e742065786365656473206d617820737570706c79\n    data_76ef47d3cac10bdd88984936fbabf838a95158c824f2256c2b05b83385232484 45524332303a20646563726561736520616d6f756e74206578636565647320616c6c6f77616e6365\n    data_b16788493b576042bb52c50ed56189e0b250db113c7bfb1c3897d25cf9632d7f 45524332303a206275726e2066726f6d20746865207a65726f2061646472657373\n    data_c953f4879035ed60e766b34720f656aab5c697b141d924c283124ecedb91c208 45524332303a20617070726f76652066726f6d20746865207a65726f2061646472657373\n    data_f7737555abf4f07fa9a8e7458b0ba564ac4d7d05336cdbec0c72ad29c2541514 4f776e61626c653a206f6e6c79206e6577206f776e65722063616e20616363657074206f776e657273686970\n\n    auxdata: 0xa2646970667358221220650678ac3000797f5dac2dacfad63ec89602f7107d187fd7d07d4f8d9a2b69fa64736f6c63430007060033\n}\n",
				"bytecode": {
					"linkReferences": {},
					"object": "60806040523480156200001157600080fd5b506000620000246200019760201b60201c565b9050806000806101000a81548173ffffffffffffffffffffffffffffffffffffffff021916908373ffffffffffffffffffffffffffffffffffffffff1602179055508073ffffffffffffffffffffffffffffffffffffffff16600073ffffffffffffffffffffffffffffffffffffffff167f8be0079c531659141344cd1fd0a4f28419497f9722a3daafe3b4186f6b6457e060405160405180910390a35060006012600a0a90506040518060400160405280600a81526020017f466973682052696e67730000000000000000000000000000000000000000000081525060069080519060200190620001189291906200019f565b506040518060400160405280600381526020017f465352000000000000000000000000000000000000000000000000000000000081525060079080519060200190620001669291906200019f565b506012600860006101000a81548160ff021916908360ff16021790555080633b9aca00026004819055505062000255565b600033905090565b828054600181600116156101000203166002900490600052602060002090601f016020900481019282620001d7576000855562000223565b82601f10620001f257805160ff191683800117855562000223565b8280016001018555821562000223579182015b828111156200022257825182559160200191906001019062000205565b5b50905062000232919062000236565b5090565b5b808211156200025157600081600090555060010162000237565b5090565b611c9280620002656000396000f3fe608060405234801561001057600080fd5b506004361061010b5760003560e01c806370a08231116100a257806395d89b411161007157806395d89b411461047e578063a457c2d714610501578063a9059cbb14610565578063dd62ed3e146105c9578063f2fde38b146106415761010b565b806370a082311461039a57806379ba5097146103f257806379cc6790146103fc5780638da5cb5b1461044a5761010b565b8063313ce567116100de578063313ce5671461029957806339509351146102ba57806340c10f191461031e57806342966c681461036c5761010b565b806306fdde0314610110578063095ea7b31461019357806318160ddd146101f757806323b872dd14610215575b600080fd5b610118610685565b6040518080602001828103825283818151815260200191508051906020019080838360005b8381101561015857808201518184015260208101905061013d565b50505050905090810190601f1680156101855780820380516001836020036101000a031916815260200191505b509250505060405180910390f35b6101df600480360360408110156101a957600080fd5b81019080803573ffffffffffffffffffffffffffffffffffffffff16906020019092919080359060200190929190505050610727565b60405180821515815260200191505060405180910390f35b6101ff610745565b6040518082815260200191505060405180910390f35b6102816004803603606081101561022b57600080fd5b81019080803573ffffffffffffffffffffffffffffffffffffffff169060200190929190803573ffffffffffffffffffffffffffffffffffffffff1690602001909291908035906020019092919050505061074f565b60405180821515815260200191505060405180910390f35b6102a1610845565b604051808260ff16815260200191505060405180910390f35b610306600480360360408110156102d057600080fd5b81019080803573ffffffffffffffffffffffffffffffffffffffff1690602001909291908035906020019092919050505061085c565b60405180821515815260200191505060405180910390f35b61036a6004803603604081101561033457600080fd5b81019080803573ffffffffffffffffffffffffffffffffffffffff1690602001909291908035906020019092919050505061090f565b005b6103986004803603602081101561038257600080fd5b81019080803590602001909291905050506109cc565b005b6103dc600480360360208110156103b057600080fd5b81019080803573ffffffffffffffffffffffffffffffffffffffff1690602001909291905050506109e0565b6040518082815260200191505060405180910390f35b6103fa610a29565b005b6104486004803603604081101561041257600080fd5b81019080803573ffffffffffffffffffffffffffffffffffffffff16906020019092919080359060200190929190505050610c1d565b005b610452610c9c565b604051808273ffffffffffffffffffffffffffffffffffffffff16815260200191505060405180910390f35b610486610cc5565b6040518080602001828103825283818151815260200191508051906020019080838360005b838110156104c65780820151818401526020810190506104ab565b50505050905090810190601f1680156104f35780820380516001836020036101000a031916815260200191505b509250505060405180910390f35b61054d6004803603604081101561051757600080fd5b81019080803573ffffffffffffffffffffffffffffffffffffffff16906020019092919080359060200190929190505050610d67565b60405180821515815260200191505060405180910390f35b6105b16004803603604081101561057b57600080fd5b81019080803573ffffffffffffffffffffffffffffffffffffffff16906020019092919080359060200190929190505050610e34565b60405180821515815260200191505060405180910390f35b61062b600480360360408110156105df57600080fd5b81019080803573ffffffffffffffffffffffffffffffffffffffff169060200190929190803573ffffffffffffffffffffffffffffffffffffffff169060200190929190505050610e52565b6040518082815260200191505060405180910390f35b6106836004803603602081101561065757600080fd5b81019080803573ffffffffffffffffffffffffffffffffffffffff169060200190929190505050610ed9565b005b606060068054600181600116156101000203166002900480601f01602080910402602001604051908101604052809291908181526020018280546001816001161561010002031660029004801561071d5780601f106106f25761010080835404028352916020019161071d565b820191906000526020600020905b81548152906001019060200180831161070057829003601f168201915b5050505050905090565b600061073b610734611052565b848461105a565b6001905092915050565b6000600554905090565b600061075c848484611251565b61083a84610768611052565b610835856040518060400160405280601681526020017f45524332303a207472616e7366657220616d6f756e7400000000000000000000815250600360008b73ffffffffffffffffffffffffffffffffffffffff1673ffffffffffffffffffffffffffffffffffffffff16815260200190815260200160002060006107eb611052565b73ffffffffffffffffffffffffffffffffffffffff1673ffffffffffffffffffffffffffffffffffffffff168152602001908152602001600020546115339092919063ffffffff16565b61105a565b600190509392505050565b6000600860009054906101000a900460ff16905090565b6000610905610869611052565b84610900856003600061087a611052565b73ffffffffffffffffffffffffffffffffffffffff1673ffffffffffffffffffffffffffffffffffffffff16815260200190815260200160002060008973ffffffffffffffffffffffffffffffffffffffff1673ffffffffffffffffffffffffffffffffffffffff168152602001908152602001600020546115ed90919063ffffffff16565b61105a565b6001905092915050565b610917611052565b73ffffffffffffffffffffffffffffffffffffffff16610935610c9c565b73ffffffffffffffffffffffffffffffffffffffff16146109be576040517f08c379a00000000000000000000000000000000000000000000000000000000081526004018080602001828103825260208152602001807f4f776e61626c653a2063616c6c6572206973206e6f7420746865206f776e657281525060200191505060405180910390fd5b6109c88282611677565b5050565b6109dd6109d7611052565b8261189f565b50565b6000600260008373ffffffffffffffffffffffffffffffffffffffff1673ffffffffffffffffffffffffffffffffffffffff168152602001908152602001600020549050919050565b600160009054906101000a900473ffffffffffffffffffffffffffffffffffffffff1673ffffffffffffffffffffffffffffffffffffffff16610a6a611052565b73ffffffffffffffffffffffffffffffffffffffff1614610ad6576040517f08c379a000000000000000000000000000000000000000000000000000000000815260040180806020018281038252602c815260200180611c31602c913960400191505060405180910390fd5b60008060009054906101000a900473ffffffffffffffffffffffffffffffffffffffff169050600160009054906101000a900473ffffffffffffffffffffffffffffffffffffffff166000806101000a81548173ffffffffffffffffffffffffffffffffffffffff021916908373ffffffffffffffffffffffffffffffffffffffff1602179055506000600160006101000a81548173ffffffffffffffffffffffffffffffffffffffff021916908373ffffffffffffffffffffffffffffffffffffffff16021790555060008054906101000a900473ffffffffffffffffffffffffffffffffffffffff1673ffffffffffffffffffffffffffffffffffffffff168173ffffffffffffffffffffffffffffffffffffffff167f8be0079c531659141344cd1fd0a4f28419497f9722a3daafe3b4186f6b6457e060405160405180910390a350565b6000610c79826040518060400160405280601981526020017f45524332303a204275726e20616d6f756e742065786375746500000000000000815250610c6a86610c65611052565b610e52565b6115339092919063ffffffff16565b9050610c8d83610c87611052565b8361105a565b610c97838361189f565b505050565b60008060009054906101000a900473ffffffffffffffffffffffffffffffffffffffff16905090565b606060078054600181600116156101000203166002900480601f016020809104026020016040519081016040528092919081815260200182805460018160011615610100020316600290048015610d5d5780601f10610d3257610100808354040283529160200191610d5d565b820191906000526020600020905b815481529060010190602001808311610d4057829003601f168201915b5050505050905090565b6000610e2a610d74611052565b84610e2585604051806060016040528060288152602001611bc46028913960036000610d9e611052565b73ffffffffffffffffffffffffffffffffffffffff1673ffffffffffffffffffffffffffffffffffffffff16815260200190815260200160002060008a73ffffffffffffffffffffffffffffffffffffffff1673ffffffffffffffffffffffffffffffffffffffff168152602001908152602001600020546115339092919063ffffffff16565b61105a565b6001905092915050565b6000610e48610e41611052565b8484611251565b6001905092915050565b6000600360008473ffffffffffffffffffffffffffffffffffffffff1673ffffffffffffffffffffffffffffffffffffffff16815260200190815260200160002060008373ffffffffffffffffffffffffffffffffffffffff1673ffffffffffffffffffffffffffffffffffffffff16815260200190815260200160002054905092915050565b610ee1611052565b73ffffffffffffffffffffffffffffffffffffffff16610eff610c9c565b73ffffffffffffffffffffffffffffffffffffffff1614610f88576040517f08c379a00000000000000000000000000000000000000000000000000000000081526004018080602001828103825260208152602001807f4f776e61626c653a2063616c6c6572206973206e6f7420746865206f776e657281525060200191505060405180910390fd5b600073ffffffffffffffffffffffffffffffffffffffff168173ffffffffffffffffffffffffffffffffffffffff16141561100e576040517f08c379a0000000000000000000000000000000000000000000000000000000008152600401808060200182810382526026815260200180611b106026913960400191505060405180910390fd5b80600160006101000a81548173ffffffffffffffffffffffffffffffffffffffff021916908373ffffffffffffffffffffffffffffffffffffffff16021790555050565b600033905090565b600073ffffffffffffffffffffffffffffffffffffffff168373ffffffffffffffffffffffffffffffffffffffff1614156110e0576040517f08c379a0000000000000000000000000000000000000000000000000000000008152600401808060200182810382526024815260200180611c0d6024913960400191505060405180910390fd5b600073ffffffffffffffffffffffffffffffffffffffff168273ffffffffffffffffffffffffffffffffffffffff161415611166576040517f08c379a0000000000000000000000000000000000000000000000000000000008152600401808060200182810382526022815260200180611b366022913960400191505060405180910390fd5b80600360008573ffffffffffffffffffffffffffffffffffffffff1673ffffffffffffffffffffffffffffffffffffffff16815260200190815260200160002060008473ffffffffffffffffffffffffffffffffffffffff1673ffffffffffffffffffffffffffffffffffffffff168152602001908152602001600020819055508173ffffffffffffffffffffffffffffffffffffffff168373ffffffffffffffffffffffffffffffffffffffff167f8c5be1e5ebec7d5bd14f71427d1e84f3dd0314c0f7b2291e5b200ac8c7c3b925836040518082815260200191505060405180910390a3505050565b600073ffffffffffffffffffffffffffffffffffffffff168373ffffffffffffffffffffffffffffffffffffffff1614156112d7576040517f08c379a0000000000000000000000000000000000000000000000000000000008152600401808060200182810382526021815260200180611b586021913960400191505060405180910390fd5b600073ffffffffffffffffffffffffffffffffffffffff168273ffffffffffffffffffffffffffffffffffffffff16141561137a576040517f08c379a000000000000000000000000000000000000000000000000000000000815260040180806020018281038252601f8152602001807f45524332303a207472616e7366657220746f207a65726f20616464726573730081525060200191505060405180910390fd5b611385838383611a65565b6113f181604051806060016040528060268152602001611b7960269139600260008773ffffffffffffffffffffffffffffffffffffffff1673ffffffffffffffffffffffffffffffffffffffff168152602001908152602001600020546115339092919063ffffffff16565b600260008573ffffffffffffffffffffffffffffffffffffffff1673ffffffffffffffffffffffffffffffffffffffff1681526020019081526020016000208190555061148681600260008573ffffffffffffffffffffffffffffffffffffffff1673ffffffffffffffffffffffffffffffffffffffff168152602001908152602001600020546115ed90919063ffffffff16565b600260008473ffffffffffffffffffffffffffffffffffffffff1673ffffffffffffffffffffffffffffffffffffffff168152602001908152602001600020819055508173ffffffffffffffffffffffffffffffffffffffff168373ffffffffffffffffffffffffffffffffffffffff167fddf252ad1be2c89b69c2b068fc378daa952ba7f163c4a11628f55a4df523b3ef836040518082815260200191505060405180910390a3505050565b60008383111582906115e0576040517f08c379a00000000000000000000000000000000000000000000000000000000081526004018080602001828103825283818151815260200191508051906020019080838360005b838110156115a557808201518184015260208101905061158a565b50505050905090810190601f1680156115d25780820380516001836020036101000a031916815260200191505b509250505060405180910390fd5b5082840390509392505050565b600080828401905082840181101561166d576040517f08c379a000000000000000000000000000000000000000000000000000000000815260040180806020018281038252601b8152602001807f536166654d6174683a206164646974696f6e206f766572666c6f77000000000081525060200191505060405180910390fd5b8091505092915050565b600073ffffffffffffffffffffffffffffffffffffffff168273ffffffffffffffffffffffffffffffffffffffff16141561171a576040517f08c379a000000000000000000000000000000000000000000000000000000000815260040180806020018281038252601b8152602001807f45524332303a206d696e7420746f207a65726f2061646472657373000000000081525060200191505060405180910390fd5b60045481600554011115611779576040517f08c379a0000000000000000000000000000000000000000000000000000000008152600401808060200182810382526025815260200180611b9f6025913960400191505060405180910390fd5b61178560008383611a65565b61179a816005546115ed90919063ffffffff16565b6005819055506117f281600260008573ffffffffffffffffffffffffffffffffffffffff1673ffffffffffffffffffffffffffffffffffffffff168152602001908152602001600020546115ed90919063ffffffff16565b600260008473ffffffffffffffffffffffffffffffffffffffff1673ffffffffffffffffffffffffffffffffffffffff168152602001908152602001600020819055508173ffffffffffffffffffffffffffffffffffffffff16600073ffffffffffffffffffffffffffffffffffffffff167fddf252ad1be2c89b69c2b068fc378daa952ba7f163c4a11628f55a4df523b3ef836040518082815260200191505060405180910390a35050565b600073ffffffffffffffffffffffffffffffffffffffff168273ffffffffffffffffffffffffffffffffffffffff161415611925576040517f08c379a0000000000000000000000000000000000000000000000000000000008152600401808060200182810382526021815260200180611bec6021913960400191505060405180910390fd5b61193182600083611a65565b61199d81604051806060016040528060228152602001611aee60229139600260008673ffffffffffffffffffffffffffffffffffffffff1673ffffffffffffffffffffffffffffffffffffffff168152602001908152602001600020546115339092919063ffffffff16565b600260008473ffffffffffffffffffffffffffffffffffffffff1673ffffffffffffffffffffffffffffffffffffffff168152602001908152602001600020819055506119f581600554611a6a90919063ffffffff16565b600581905550600073ffffffffffffffffffffffffffffffffffffffff168273ffffffffffffffffffffffffffffffffffffffff167fddf252ad1be2c89b69c2b068fc378daa952ba7f163c4a11628f55a4df523b3ef836040518082815260200191505060405180910390a35050565b505050565b600082821115611ae2576040517f08c379a000000000000000000000000000000000000000000000000000000000815260040180806020018281038252601e8152602001807f536166654d6174683a207375627472616374696f6e206f766572666c6f77000081525060200191505060405180910390fd5b81830390509291505056fe45524332303a206275726e20616d6f756e7420657863656564732062616c616e63654f776e61626c653a206e6577206f776e657220697320746865207a65726f206164647265737345524332303a20617070726f766520746f20746865207a65726f206164647265737345524332303a207472616e736665722066726f6d207a65726f206164647265737345524332303a207472616e7366657220616d6f756e7420657863656564732062616c616e636545524332303a206d696e7420616d6f756e742065786365656473206d617820737570706c7945524332303a20646563726561736520616d6f756e74206578636565647320616c6c6f77616e636545524332303a206275726e2066726f6d20746865207a65726f206164647265737345524332303a20617070726f76652066726f6d20746865207a65726f20616464726573734f776e61626c653a206f6e6c79206e6577206f776e65722063616e20616363657074206f776e657273686970a2646970667358221220650678ac3000797f5dac2dacfad63ec89602f7107d187fd7d07d4f8d9a2b69fa64736f6c63430007060033",
					"opcodes": "PUSH1 0x80 PUSH1 0x40 MSTORE CALLVALUE DUP1 ISZERO PUSH3 0x11 JUMPI PUSH1 0x0 DUP1 REVERT JUMPDEST POP PUSH1 0x0 PUSH3 0x24 PUSH3 0x197 PUSH1 0x20 SHL PUSH1 0x20 SHR JUMP JUMPDEST SWAP1 POP DUP1 PUSH1 0x0 DUP1 PUSH2 0x100 EXP DUP2 SLOAD DUP2 PUSH20 0xFFFFFFFFFFFFFFFFFFFFFFFFFFFFFFFFFFFFFFFF MUL NOT AND SWAP1 DUP4 PUSH20 0xFFFFFFFFFFFFFFFFFFFFFFFFFFFFFFFFFFFFFFFF AND MUL OR SWAP1 SSTORE POP DUP1 PUSH20 0xFFFFFFFFFFFFFFFFFFFFFFFFFFFFFFFFFFFFFFFF AND PUSH1 0x0 PUSH20 0xFFFFFFFFFFFFFFFFFFFFFFFFFFFFFFFFFFFFFFFF AND PUSH32 0x8BE0079C531659141344CD1FD0A4F28419497F9722A3DAAFE3B4186F6B6457E0 PUSH1 0x40 MLOAD PUSH1 0x40 MLOAD DUP1 SWAP2 SUB SWAP1 LOG3 POP PUSH1 0x0 PUSH1 0x12 PUSH1 0xA EXP SWAP1 POP PUSH1 0x40 MLOAD DUP1 PUSH1 0x40 ADD PUSH1 0x40 MSTORE DUP1 PUSH1 0xA DUP2 MSTORE PUSH1 0x20 ADD PUSH32 0x466973682052696E677300000000000000000000000000000000000000000000 DUP2 MSTORE POP PUSH1 0x6 SWAP1 DUP1 MLOAD SWAP1 PUSH1 0x20 ADD SWAP1 PUSH3 0x118 SWAP3 SWAP2 SWAP1 PUSH3 0x19F JUMP JUMPDEST POP PUSH1 0x40 MLOAD DUP1 PUSH1 0x40 ADD PUSH1 0x40 MSTORE DUP1 PUSH1 0x3 DUP2 MSTORE PUSH1 0x20 ADD PUSH32 0x4653520000000000000000000000000000000000000000000000000000000000 DUP2 MSTORE POP PUSH1 0x7 SWAP1 DUP1 MLOAD SWAP1 PUSH1 0x20 ADD SWAP1 PUSH3 0x166 SWAP3 SWAP2 SWAP1 PUSH3 0x19F JUMP JUMPDEST POP PUSH1 0x12 PUSH1 0x8 PUSH1 0x0 PUSH2 0x100 EXP DUP2 SLOAD DUP2 PUSH1 0xFF MUL NOT AND SWAP1 DUP4 PUSH1 0xFF AND MUL OR SWAP1 SSTORE POP DUP1 PUSH4 0x3B9ACA00 MUL PUSH1 0x4 DUP2 SWAP1 SSTORE POP POP PUSH3 0x255 JUMP JUMPDEST PUSH1 0x0 CALLER SWAP1 POP SWAP1 JUMP JUMPDEST DUP3 DUP1 SLOAD PUSH1 0x1 DUP2 PUSH1 0x1 AND ISZERO PUSH2 0x100 MUL SUB AND PUSH1 0x2 SWAP1 DIV SWAP1 PUSH1 0x0 MSTORE PUSH1 0x20 PUSH1 0x0 KECCAK256 SWAP1 PUSH1 0x1F ADD PUSH1 0x20 SWAP1 DIV DUP2 ADD SWAP3 DUP3 PUSH3 0x1D7 JUMPI PUSH1 0x0 DUP6 SSTORE PUSH3 0x223 JUMP JUMPDEST DUP3 PUSH1 0x1F LT PUSH3 0x1F2 JUMPI DUP1 MLOAD PUSH1 0xFF NOT AND DUP4 DUP1 ADD OR DUP6 SSTORE PUSH3 0x223 JUMP JUMPDEST DUP3 DUP1 ADD PUSH1 0x1 ADD DUP6 SSTORE DUP3 ISZERO PUSH3 0x223 JUMPI SWAP2 DUP3 ADD JUMPDEST DUP3 DUP2 GT ISZERO PUSH3 0x222 JUMPI DUP3 MLOAD DUP3 SSTORE SWAP2 PUSH1 0x20 ADD SWAP2 SWAP1 PUSH1 0x1 ADD SWAP1 PUSH3 0x205 JUMP JUMPDEST JUMPDEST POP SWAP1 POP PUSH3 0x232 SWAP2 SWAP1 PUSH3 0x236 JUMP JUMPDEST POP SWAP1 JUMP JUMPDEST JUMPDEST DUP1 DUP3 GT ISZERO PUSH3 0x251 JUMPI PUSH1 0x0 DUP2 PUSH1 0x0 SWAP1 SSTORE POP PUSH1 0x1 ADD PUSH3 0x237 JUMP JUMPDEST POP SWAP1 JUMP JUMPDEST PUSH2 0x1C92 DUP1 PUSH3 0x265 PUSH1 0x0 CODECOPY PUSH1 0x0 RETURN INVALID PUSH1 0x80 PUSH1 0x40 MSTORE CALLVALUE DUP1 ISZERO PUSH2 0x10 JUMPI PUSH1 0x0 DUP1 REVERT JUMPDEST POP PUSH1 0x4 CALLDATASIZE LT PUSH2 0x10B JUMPI PUSH1 0x0 CALLDATALOAD PUSH1 0xE0 SHR DUP1 PUSH4 0x70A08231 GT PUSH2 0xA2 JUMPI DUP1 PUSH4 0x95D89B41 GT PUSH2 0x71 JUMPI DUP1 PUSH4 0x95D89B41 EQ PUSH2 0x47E JUMPI DUP1 PUSH4 0xA457C2D7 EQ PUSH2 0x501 JUMPI DUP1 PUSH4 0xA9059CBB EQ PUSH2 0x565 JUMPI DUP1 PUSH4 0xDD62ED3E EQ PUSH2 0x5C9 JUMPI DUP1 PUSH4 0xF2FDE38B EQ PUSH2 0x641 JUMPI PUSH2 0x10B JUMP JUMPDEST DUP1 PUSH4 0x70A08231 EQ PUSH2 0x39A JUMPI DUP1 PUSH4 0x79BA5097 EQ PUSH2 0x3F2 JUMPI DUP1 PUSH4 0x79CC6790 EQ PUSH2 0x3FC JUMPI DUP1 PUSH4 0x8DA5CB5B EQ PUSH2 0x44A JUMPI PUSH2 0x10B JUMP JUMPDEST DUP1 PUSH4 0x313CE567 GT PUSH2 0xDE JUMPI DUP1 PUSH4 0x313CE567 EQ PUSH2 0x299 JUMPI DUP1 PUSH4 0x39509351 EQ PUSH2 0x2BA JUMPI DUP1 PUSH4 0x40C10F19 EQ PUSH2 0x31E JUMPI DUP1 PUSH4 0x42966C68 EQ PUSH2 0x36C JUMPI PUSH2 0x10B JUMP JUMPDEST DUP1 PUSH4 0x6FDDE03 EQ PUSH2 0x110 JUMPI DUP1 PUSH4 0x95EA7B3 EQ PUSH2 0x193 JUMPI DUP1 PUSH4 0x18160DDD EQ PUSH2 0x1F7 JUMPI DUP1 PUSH4 0x23B872DD EQ PUSH2 0x215 JUMPI JUMPDEST PUSH1 0x0 DUP1 REVERT JUMPDEST PUSH2 0x118 PUSH2 0x685 JUMP JUMPDEST PUSH1 0x40 MLOAD DUP1 DUP1 PUSH1 0x20 ADD DUP3 DUP2 SUB DUP3 MSTORE DUP4 DUP2 DUP2 MLOAD DUP2 MSTORE PUSH1 0x20 ADD SWAP2 POP DUP1 MLOAD SWAP1 PUSH1 0x20 ADD SWAP1 DUP1 DUP4 DUP4 PUSH1 0x0 JUMPDEST DUP4 DUP2 LT ISZERO PUSH2 0x158 JUMPI DUP1 DUP3 ADD MLOAD DUP2 DUP5 ADD MSTORE PUSH1 0x20 DUP2 ADD SWAP1 POP PUSH2 0x13D JUMP JUMPDEST POP POP POP POP SWAP1 POP SWAP1 DUP2 ADD SWAP1 PUSH1 0x1F AND DUP1 ISZERO PUSH2 0x185 JUMPI DUP1 DUP3 SUB DUP1 MLOAD PUSH1 0x1 DUP4 PUSH1 0x20 SUB PUSH2 0x100 EXP SUB NOT AND DUP2 MSTORE PUSH1 0x20 ADD SWAP2 POP JUMPDEST POP SWAP3 POP POP POP PUSH1 0x40 MLOAD DUP1 SWAP2 SUB SWAP1 RETURN JUMPDEST PUSH2 0x1DF PUSH1 0x4 DUP1 CALLDATASIZE SUB PUSH1 0x40 DUP2 LT ISZERO PUSH2 0x1A9 JUMPI PUSH1 0x0 DUP1 REVERT JUMPDEST DUP2 ADD SWAP1 DUP1 DUP1 CALLDATALOAD PUSH20 0xFFFFFFFFFFFFFFFFFFFFFFFFFFFFFFFFFFFFFFFF AND SWAP1 PUSH1 0x20 ADD SWAP1 SWAP3 SWAP2 SWAP1 DUP1 CALLDATALOAD SWAP1 PUSH1 0x20 ADD SWAP1 SWAP3 SWAP2 SWAP1 POP POP POP PUSH2 0x727 JUMP JUMPDEST PUSH1 0x40 MLOAD DUP1 DUP3 ISZERO ISZERO DUP2 MSTORE PUSH1 0x20 ADD SWAP2 POP POP PUSH1 0x40 MLOAD DUP1 SWAP2 SUB SWAP1 RETURN JUMPDEST PUSH2 0x1FF PUSH2 0x745 JUMP JUMPDEST PUSH1 0x40 MLOAD DUP1 DUP3 DUP2 MSTORE PUSH1 0x20 ADD SWAP2 POP POP PUSH1 0x40 MLOAD DUP1 SWAP2 SUB SWAP1 RETURN JUMPDEST PUSH2 0x281 PUSH1 0x4 DUP1 CALLDATASIZE SUB PUSH1 0x60 DUP2 LT ISZERO PUSH2 0x22B JUMPI PUSH1 0x0 DUP1 REVERT JUMPDEST DUP2 ADD SWAP1 DUP1 DUP1 CALLDATALOAD PUSH20 0xFFFFFFFFFFFFFFFFFFFFFFFFFFFFFFFFFFFFFFFF AND SWAP1 PUSH1 0x20 ADD SWAP1 SWAP3 SWAP2 SWAP1 DUP1 CALLDATALOAD PUSH20 0xFFFFFFFFFFFFFFFFFFFFFFFFFFFFFFFFFFFFFFFF AND SWAP1 PUSH1 0x20 ADD SWAP1 SWAP3 SWAP2 SWAP1 DUP1 CALLDATALOAD SWAP1 PUSH1 0x20 ADD SWAP1 SWAP3 SWAP2 SWAP1 POP POP POP PUSH2 0x74F JUMP JUMPDEST PUSH1 0x40 MLOAD DUP1 DUP3 ISZERO ISZERO DUP2 MSTORE PUSH1 0x20 ADD SWAP2 POP POP PUSH1 0x40 MLOAD DUP1 SWAP2 SUB SWAP1 RETURN JUMPDEST PUSH2 0x2A1 PUSH2 0x845 JUMP JUMPDEST PUSH1 0x40 MLOAD DUP1 DUP3 PUSH1 0xFF AND DUP2 MSTORE PUSH1 0x20 ADD SWAP2 POP POP PUSH1 0x40 MLOAD DUP1 SWAP2 SUB SWAP1 RETURN JUMPDEST PUSH2 0x306 PUSH1 0x4 DUP1 CALLDATASIZE SUB PUSH1 0x40 DUP2 LT ISZERO PUSH2 0x2D0 JUMPI PUSH1 0x0 DUP1 REVERT JUMPDEST DUP2 ADD SWAP1 DUP1 DUP1 CALLDATALOAD PUSH20 0xFFFFFFFFFFFFFFFFFFFFFFFFFFFFFFFFFFFFFFFF AND SWAP1 PUSH1 0x20 ADD SWAP1 SWAP3 SWAP2 SWAP1 DUP1 CALLDATALOAD SWAP1 PUSH1 0x20 ADD SWAP1 SWAP3 SWAP2 SWAP1 POP POP POP PUSH2 0x85C JUMP JUMPDEST PUSH1 0x40 MLOAD DUP1 DUP3 ISZERO ISZERO DUP2 MSTORE PUSH1 0x20 ADD SWAP2 POP POP PUSH1 0x40 MLOAD DUP1 SWAP2 SUB SWAP1 RETURN JUMPDEST PUSH2 0x36A PUSH1 0x4 DUP1 CALLDATASIZE SUB PUSH1 0x40 DUP2 LT ISZERO PUSH2 0x334 JUMPI PUSH1 0x0 DUP1 REVERT JUMPDEST DUP2 ADD SWAP1 DUP1 DUP1 CALLDATALOAD PUSH20 0xFFFFFFFFFFFFFFFFFFFFFFFFFFFFFFFFFFFFFFFF AND SWAP1 PUSH1 0x20 ADD SWAP1 SWAP3 SWAP2 SWAP1 DUP1 CALLDATALOAD SWAP1 PUSH1 0x20 ADD SWAP1 SWAP3 SWAP2 SWAP1 POP POP POP PUSH2 0x90F JUMP JUMPDEST STOP JUMPDEST PUSH2 0x398 PUSH1 0x4 DUP1 CALLDATASIZE SUB PUSH1 0x20 DUP2 LT ISZERO PUSH2 0x382 JUMPI PUSH1 0x0 DUP1 REVERT JUMPDEST DUP2 ADD SWAP1 DUP1 DUP1 CALLDATALOAD SWAP1 PUSH1 0x20 ADD SWAP1 SWAP3 SWAP2 SWAP1 POP POP POP PUSH2 0x9CC JUMP JUMPDEST STOP JUMPDEST PUSH2 0x3DC PUSH1 0x4 DUP1 CALLDATASIZE SUB PUSH1 0x20 DUP2 LT ISZERO PUSH2 0x3B0 JUMPI PUSH1 0x0 DUP1 REVERT JUMPDEST DUP2 ADD SWAP1 DUP1 DUP1 CALLDATALOAD PUSH20 0xFFFFFFFFFFFFFFFFFFFFFFFFFFFFFFFFFFFFFFFF AND SWAP1 PUSH1 0x20 ADD SWAP1 SWAP3 SWAP2 SWAP1 POP POP POP PUSH2 0x9E0 JUMP JUMPDEST PUSH1 0x40 MLOAD DUP1 DUP3 DUP2 MSTORE PUSH1 0x20 ADD SWAP2 POP POP PUSH1 0x40 MLOAD DUP1 SWAP2 SUB SWAP1 RETURN JUMPDEST PUSH2 0x3FA PUSH2 0xA29 JUMP JUMPDEST STOP JUMPDEST PUSH2 0x448 PUSH1 0x4 DUP1 CALLDATASIZE SUB PUSH1 0x40 DUP2 LT ISZERO PUSH2 0x412 JUMPI PUSH1 0x0 DUP1 REVERT JUMPDEST DUP2 ADD SWAP1 DUP1 DUP1 CALLDATALOAD PUSH20 0xFFFFFFFFFFFFFFFFFFFFFFFFFFFFFFFFFFFFFFFF AND SWAP1 PUSH1 0x20 ADD SWAP1 SWAP3 SWAP2 SWAP1 DUP1 CALLDATALOAD SWAP1 PUSH1 0x20 ADD SWAP1 SWAP3 SWAP2 SWAP1 POP POP POP PUSH2 0xC1D JUMP JUMPDEST STOP JUMPDEST PUSH2 0x452 PUSH2 0xC9C JUMP JUMPDEST PUSH1 0x40 MLOAD DUP1 DUP3 PUSH20 0xFFFFFFFFFFFFFFFFFFFFFFFFFFFFFFFFFFFFFFFF AND DUP2 MSTORE PUSH1 0x20 ADD SWAP2 POP POP PUSH1 0x40 MLOAD DUP1 SWAP2 SUB SWAP1 RETURN JUMPDEST PUSH2 0x486 PUSH2 0xCC5 JUMP JUMPDEST PUSH1 0x40 MLOAD DUP1 DUP1 PUSH1 0x20 ADD DUP3 DUP2 SUB DUP3 MSTORE DUP4 DUP2 DUP2 MLOAD DUP2 MSTORE PUSH1 0x20 ADD SWAP2 POP DUP1 MLOAD SWAP1 PUSH1 0x20 ADD SWAP1 DUP1 DUP4 DUP4 PUSH1 0x0 JUMPDEST DUP4 DUP2 LT ISZERO PUSH2 0x4C6 JUMPI DUP1 DUP3 ADD MLOAD DUP2 DUP5 ADD MSTORE PUSH1 0x20 DUP2 ADD SWAP1 POP PUSH2 0x4AB JUMP JUMPDEST POP POP POP POP SWAP1 POP SWAP1 DUP2 ADD SWAP1 PUSH1 0x1F AND DUP1 ISZERO PUSH2 0x4F3 JUMPI DUP1 DUP3 SUB DUP1 MLOAD PUSH1 0x1 DUP4 PUSH1 0x20 SUB PUSH2 0x100 EXP SUB NOT AND DUP2 MSTORE PUSH1 0x20 ADD SWAP2 POP JUMPDEST POP SWAP3 POP POP POP PUSH1 0x40 MLOAD DUP1 SWAP2 SUB SWAP1 RETURN JUMPDEST PUSH2 0x54D PUSH1 0x4 DUP1 CALLDATASIZE SUB PUSH1 0x40 DUP2 LT ISZERO PUSH2 0x517 JUMPI PUSH1 0x0 DUP1 REVERT JUMPDEST DUP2 ADD SWAP1 DUP1 DUP1 CALLDATALOAD PUSH20 0xFFFFFFFFFFFFFFFFFFFFFFFFFFFFFFFFFFFFFFFF AND SWAP1 PUSH1 0x20 ADD SWAP1 SWAP3 SWAP2 SWAP1 DUP1 CALLDATALOAD SWAP1 PUSH1 0x20 ADD SWAP1 SWAP3 SWAP2 SWAP1 POP POP POP PUSH2 0xD67 JUMP JUMPDEST PUSH1 0x40 MLOAD DUP1 DUP3 ISZERO ISZERO DUP2 MSTORE PUSH1 0x20 ADD SWAP2 POP POP PUSH1 0x40 MLOAD DUP1 SWAP2 SUB SWAP1 RETURN JUMPDEST PUSH2 0x5B1 PUSH1 0x4 DUP1 CALLDATASIZE SUB PUSH1 0x40 DUP2 LT ISZERO PUSH2 0x57B JUMPI PUSH1 0x0 DUP1 REVERT JUMPDEST DUP2 ADD SWAP1 DUP1 DUP1 CALLDATALOAD PUSH20 0xFFFFFFFFFFFFFFFFFFFFFFFFFFFFFFFFFFFFFFFF AND SWAP1 PUSH1 0x20 ADD SWAP1 SWAP3 SWAP2 SWAP1 DUP1 CALLDATALOAD SWAP1 PUSH1 0x20 ADD SWAP1 SWAP3 SWAP2 SWAP1 POP POP POP PUSH2 0xE34 JUMP JUMPDEST PUSH1 0x40 MLOAD DUP1 DUP3 ISZERO ISZERO DUP2 MSTORE PUSH1 0x20 ADD SWAP2 POP POP PUSH1 0x40 MLOAD DUP1 SWAP2 SUB SWAP1 RETURN JUMPDEST PUSH2 0x62B PUSH1 0x4 DUP1 CALLDATASIZE SUB PUSH1 0x40 DUP2 LT ISZERO PUSH2 0x5DF JUMPI PUSH1 0x0 DUP1 REVERT JUMPDEST DUP2 ADD SWAP1 DUP1 DUP1 CALLDATALOAD PUSH20 0xFFFFFFFFFFFFFFFFFFFFFFFFFFFFFFFFFFFFFFFF AND SWAP1 PUSH1 0x20 ADD SWAP1 SWAP3 SWAP2 SWAP1 DUP1 CALLDATALOAD PUSH20 0xFFFFFFFFFFFFFFFFFFFFFFFFFFFFFFFFFFFFFFFF AND SWAP1 PUSH1 0x20 ADD SWAP1 SWAP3 SWAP2 SWAP1 POP POP POP PUSH2 0xE52 JUMP JUMPDEST PUSH1 0x40 MLOAD DUP1 DUP3 DUP2 MSTORE PUSH1 0x20 ADD SWAP2 POP POP PUSH1 0x40 MLOAD DUP1 SWAP2 SUB SWAP1 RETURN JUMPDEST PUSH2 0x683 PUSH1 0x4 DUP1 CALLDATASIZE SUB PUSH1 0x20 DUP2 LT ISZERO PUSH2 0x657 JUMPI PUSH1 0x0 DUP1 REVERT JUMPDEST DUP2 ADD SWAP1 DUP1 DUP1 CALLDATALOAD PUSH20 0xFFFFFFFFFFFFFFFFFFFFFFFFFFFFFFFFFFFFFFFF AND SWAP1 PUSH1 0x20 ADD SWAP1 SWAP3 SWAP2 SWAP1 POP POP POP PUSH2 0xED9 JUMP JUMPDEST STOP JUMPDEST PUSH1 0x60 PUSH1 0x6 DUP1 SLOAD PUSH1 0x1 DUP2 PUSH1 0x1 AND ISZERO PUSH2 0x100 MUL SUB AND PUSH1 0x2 SWAP1 DIV DUP1 PUSH1 0x1F ADD PUSH1 0x20 DUP1 SWAP2 DIV MUL PUSH1 0x20 ADD PUSH1 0x40 MLOAD SWAP1 DUP2 ADD PUSH1 0x40 MSTORE DUP1 SWAP3 SWAP2 SWAP1 DUP2 DUP2 MSTORE PUSH1 0x20 ADD DUP3 DUP1 SLOAD PUSH1 0x1 DUP2 PUSH1 0x1 AND ISZERO PUSH2 0x100 MUL SUB AND PUSH1 0x2 SWAP1 DIV DUP1 ISZERO PUSH2 0x71D JUMPI DUP1 PUSH1 0x1F LT PUSH2 0x6F2 JUMPI PUSH2 0x100 DUP1 DUP4 SLOAD DIV MUL DUP4 MSTORE SWAP2 PUSH1 0x20 ADD SWAP2 PUSH2 0x71D JUMP JUMPDEST DUP3 ADD SWAP2 SWAP1 PUSH1 0x0 MSTORE PUSH1 0x20 PUSH1 0x0 KECCAK256 SWAP1 JUMPDEST DUP2 SLOAD DUP2 MSTORE SWAP1 PUSH1 0x1 ADD SWAP1 PUSH1 0x20 ADD DUP1 DUP4 GT PUSH2 0x700 JUMPI DUP3 SWAP1 SUB PUSH1 0x1F AND DUP3 ADD SWAP2 JUMPDEST POP POP POP POP POP SWAP1 POP SWAP1 JUMP JUMPDEST PUSH1 0x0 PUSH2 0x73B PUSH2 0x734 PUSH2 0x1052 JUMP JUMPDEST DUP5 DUP5 PUSH2 0x105A JUMP JUMPDEST PUSH1 0x1 SWAP1 POP SWAP3 SWAP2 POP POP JUMP JUMPDEST PUSH1 0x0 PUSH1 0x5 SLOAD SWAP1 POP SWAP1 JUMP JUMPDEST PUSH1 0x0 PUSH2 0x75C DUP5 DUP5 DUP5 PUSH2 0x1251 JUMP JUMPDEST PUSH2 0x83A DUP5 PUSH2 0x768 PUSH2 0x1052 JUMP JUMPDEST PUSH2 0x835 DUP6 PUSH1 0x40 MLOAD DUP1 PUSH1 0x40 ADD PUSH1 0x40 MSTORE DUP1 PUSH1 0x16 DUP2 MSTORE PUSH1 0x20 ADD PUSH32 0x45524332303A207472616E7366657220616D6F756E7400000000000000000000 DUP2 MSTORE POP PUSH1 0x3 PUSH1 0x0 DUP12 PUSH20 0xFFFFFFFFFFFFFFFFFFFFFFFFFFFFFFFFFFFFFFFF AND PUSH20 0xFFFFFFFFFFFFFFFFFFFFFFFFFFFFFFFFFFFFFFFF AND DUP2 MSTORE PUSH1 0x20 ADD SWAP1 DUP2 MSTORE PUSH1 0x20 ADD PUSH1 0x0 KECCAK256 PUSH1 0x0 PUSH2 0x7EB PUSH2 0x1052 JUMP JUMPDEST PUSH20 0xFFFFFFFFFFFFFFFFFFFFFFFFFFFFFFFFFFFFFFFF AND PUSH20 0xFFFFFFFFFFFFFFFFFFFFFFFFFFFFFFFFFFFFFFFF AND DUP2 MSTORE PUSH1 0x20 ADD SWAP1 DUP2 MSTORE PUSH1 0x20 ADD PUSH1 0x0 KECCAK256 SLOAD PUSH2 0x1533 SWAP1 SWAP3 SWAP2 SWAP1 PUSH4 0xFFFFFFFF AND JUMP JUMPDEST PUSH2 0x105A JUMP JUMPDEST PUSH1 0x1 SWAP1 POP SWAP4 SWAP3 POP POP POP JUMP JUMPDEST PUSH1 0x0 PUSH1 0x8 PUSH1 0x0 SWAP1 SLOAD SWAP1 PUSH2 0x100 EXP SWAP1 DIV PUSH1 0xFF AND SWAP1 POP SWAP1 JUMP JUMPDEST PUSH1 0x0 PUSH2 0x905 PUSH2 0x869 PUSH2 0x1052 JUMP JUMPDEST DUP5 PUSH2 0x900 DUP6 PUSH1 0x3 PUSH1 0x0 PUSH2 0x87A PUSH2 0x1052 JUMP JUMPDEST PUSH20 0xFFFFFFFFFFFFFFFFFFFFFFFFFFFFFFFFFFFFFFFF AND PUSH20 0xFFFFFFFFFFFFFFFFFFFFFFFFFFFFFFFFFFFFFFFF AND DUP2 MSTORE PUSH1 0x20 ADD SWAP1 DUP2 MSTORE PUSH1 0x20 ADD PUSH1 0x0 KECCAK256 PUSH1 0x0 DUP10 PUSH20 0xFFFFFFFFFFFFFFFFFFFFFFFFFFFFFFFFFFFFFFFF AND PUSH20 0xFFFFFFFFFFFFFFFFFFFFFFFFFFFFFFFFFFFFFFFF AND DUP2 MSTORE PUSH1 0x20 ADD SWAP1 DUP2 MSTORE PUSH1 0x20 ADD PUSH1 0x0 KECCAK256 SLOAD PUSH2 0x15ED SWAP1 SWAP2 SWAP1 PUSH4 0xFFFFFFFF AND JUMP JUMPDEST PUSH2 0x105A JUMP JUMPDEST PUSH1 0x1 SWAP1 POP SWAP3 SWAP2 POP POP JUMP JUMPDEST PUSH2 0x917 PUSH2 0x1052 JUMP JUMPDEST PUSH20 0xFFFFFFFFFFFFFFFFFFFFFFFFFFFFFFFFFFFFFFFF AND PUSH2 0x935 PUSH2 0xC9C JUMP JUMPDEST PUSH20 0xFFFFFFFFFFFFFFFFFFFFFFFFFFFFFFFFFFFFFFFF AND EQ PUSH2 0x9BE JUMPI PUSH1 0x40 MLOAD PUSH32 0x8C379A000000000000000000000000000000000000000000000000000000000 DUP2 MSTORE PUSH1 0x4 ADD DUP1 DUP1 PUSH1 0x20 ADD DUP3 DUP2 SUB DUP3 MSTORE PUSH1 0x20 DUP2 MSTORE PUSH1 0x20 ADD DUP1 PUSH32 0x4F776E61626C653A2063616C6C6572206973206E6F7420746865206F776E6572 DUP2 MSTORE POP PUSH1 0x20 ADD SWAP2 POP POP PUSH1 0x40 MLOAD DUP1 SWAP2 SUB SWAP1 REVERT JUMPDEST PUSH2 0x9C8 DUP3 DUP3 PUSH2 0x1677 JUMP JUMPDEST POP POP JUMP JUMPDEST PUSH2 0x9DD PUSH2 0x9D7 PUSH2 0x1052 JUMP JUMPDEST DUP3 PUSH2 0x189F JUMP JUMPDEST POP JUMP JUMPDEST PUSH1 0x0 PUSH1 0x2 PUSH1 0x0 DUP4 PUSH20 0xFFFFFFFFFFFFFFFFFFFFFFFFFFFFFFFFFFFFFFFF AND PUSH20 0xFFFFFFFFFFFFFFFFFFFFFFFFFFFFFFFFFFFFFFFF AND DUP2 MSTORE PUSH1 0x20 ADD SWAP1 DUP2 MSTORE PUSH1 0x20 ADD PUSH1 0x0 KECCAK256 SLOAD SWAP1 POP SWAP2 SWAP1 POP JUMP JUMPDEST PUSH1 0x1 PUSH1 0x0 SWAP1 SLOAD SWAP1 PUSH2 0x100 EXP SWAP1 DIV PUSH20 0xFFFFFFFFFFFFFFFFFFFFFFFFFFFFFFFFFFFFFFFF AND PUSH20 0xFFFFFFFFFFFFFFFFFFFFFFFFFFFFFFFFFFFFFFFF AND PUSH2 0xA6A PUSH2 0x1052 JUMP JUMPDEST PUSH20 0xFFFFFFFFFFFFFFFFFFFFFFFFFFFFFFFFFFFFFFFF AND EQ PUSH2 0xAD6 JUMPI PUSH1 0x40 MLOAD PUSH32 0x8C379A000000000000000000000000000000000000000000000000000000000 DUP2 MSTORE PUSH1 0x4 ADD DUP1 DUP1 PUSH1 0x20 ADD DUP3 DUP2 SUB DUP3 MSTORE PUSH1 0x2C DUP2 MSTORE PUSH1 0x20 ADD DUP1 PUSH2 0x1C31 PUSH1 0x2C SWAP2 CODECOPY PUSH1 0x40 ADD SWAP2 POP POP PUSH1 0x40 MLOAD DUP1 SWAP2 SUB SWAP1 REVERT JUMPDEST PUSH1 0x0 DUP1 PUSH1 0x0 SWAP1 SLOAD SWAP1 PUSH2 0x100 EXP SWAP1 DIV PUSH20 0xFFFFFFFFFFFFFFFFFFFFFFFFFFFFFFFFFFFFFFFF AND SWAP1 POP PUSH1 0x1 PUSH1 0x0 SWAP1 SLOAD SWAP1 PUSH2 0x100 EXP SWAP1 DIV PUSH20 0xFFFFFFFFFFFFFFFFFFFFFFFFFFFFFFFFFFFFFFFF AND PUSH1 0x0 DUP1 PUSH2 0x100 EXP DUP2 SLOAD DUP2 PUSH20 0xFFFFFFFFFFFFFFFFFFFFFFFFFFFFFFFFFFFFFFFF MUL NOT AND SWAP1 DUP4 PUSH20 0xFFFFFFFFFFFFFFFFFFFFFFFFFFFFFFFFFFFFFFFF AND MUL OR SWAP1 SSTORE POP PUSH1 0x0 PUSH1 0x1 PUSH1 0x0 PUSH2 0x100 EXP DUP2 SLOAD DUP2 PUSH20 0xFFFFFFFFFFFFFFFFFFFFFFFFFFFFFFFFFFFFFFFF MUL NOT AND SWAP1 DUP4 PUSH20 0xFFFFFFFFFFFFFFFFFFFFFFFFFFFFFFFFFFFFFFFF AND MUL OR SWAP1 SSTORE POP PUSH1 0x0 DUP1 SLOAD SWAP1 PUSH2 0x100 EXP SWAP1 DIV PUSH20 0xFFFFFFFFFFFFFFFFFFFFFFFFFFFFFFFFFFFFFFFF AND PUSH20 0xFFFFFFFFFFFFFFFFFFFFFFFFFFFFFFFFFFFFFFFF AND DUP2 PUSH20 0xFFFFFFFFFFFFFFFFFFFFFFFFFFFFFFFFFFFFFFFF AND PUSH32 0x8BE0079C531659141344CD1FD0A4F28419497F9722A3DAAFE3B4186F6B6457E0 PUSH1 0x40 MLOAD PUSH1 0x40 MLOAD DUP1 SWAP2 SUB SWAP1 LOG3 POP JUMP JUMPDEST PUSH1 0x0 PUSH2 0xC79 DUP3 PUSH1 0x40 MLOAD DUP1 PUSH1 0x40 ADD PUSH1 0x40 MSTORE DUP1 PUSH1 0x19 DUP2 MSTORE PUSH1 0x20 ADD PUSH32 0x45524332303A204275726E20616D6F756E742065786375746500000000000000 DUP2 MSTORE POP PUSH2 0xC6A DUP7 PUSH2 0xC65 PUSH2 0x1052 JUMP JUMPDEST PUSH2 0xE52 JUMP JUMPDEST PUSH2 0x1533 SWAP1 SWAP3 SWAP2 SWAP1 PUSH4 0xFFFFFFFF AND JUMP JUMPDEST SWAP1 POP PUSH2 0xC8D DUP4 PUSH2 0xC87 PUSH2 0x1052 JUMP JUMPDEST DUP4 PUSH2 0x105A JUMP JUMPDEST PUSH2 0xC97 DUP4 DUP4 PUSH2 0x189F JUMP JUMPDEST POP POP POP JUMP JUMPDEST PUSH1 0x0 DUP1 PUSH1 0x0 SWAP1 SLOAD SWAP1 PUSH2 0x100 EXP SWAP1 DIV PUSH20 0xFFFFFFFFFFFFFFFFFFFFFFFFFFFFFFFFFFFFFFFF AND SWAP1 POP SWAP1 JUMP JUMPDEST PUSH1 0x60 PUSH1 0x7 DUP1 SLOAD PUSH1 0x1 DUP2 PUSH1 0x1 AND ISZERO PUSH2 0x100 MUL SUB AND PUSH1 0x2 SWAP1 DIV DUP1 PUSH1 0x1F ADD PUSH1 0x20 DUP1 SWAP2 DIV MUL PUSH1 0x20 ADD PUSH1 0x40 MLOAD SWAP1 DUP2 ADD PUSH1 0x40 MSTORE DUP1 SWAP3 SWAP2 SWAP1 DUP2 DUP2 MSTORE PUSH1 0x20 ADD DUP3 DUP1 SLOAD PUSH1 0x1 DUP2 PUSH1 0x1 AND ISZERO PUSH2 0x100 MUL SUB AND PUSH1 0x2 SWAP1 DIV DUP1 ISZERO PUSH2 0xD5D JUMPI DUP1 PUSH1 0x1F LT PUSH2 0xD32 JUMPI PUSH2 0x100 DUP1 DUP4 SLOAD DIV MUL DUP4 MSTORE SWAP2 PUSH1 0x20 ADD SWAP2 PUSH2 0xD5D JUMP JUMPDEST DUP3 ADD SWAP2 SWAP1 PUSH1 0x0 MSTORE PUSH1 0x20 PUSH1 0x0 KECCAK256 SWAP1 JUMPDEST DUP2 SLOAD DUP2 MSTORE SWAP1 PUSH1 0x1 ADD SWAP1 PUSH1 0x20 ADD DUP1 DUP4 GT PUSH2 0xD40 JUMPI DUP3 SWAP1 SUB PUSH1 0x1F AND DUP3 ADD SWAP2 JUMPDEST POP POP POP POP POP SWAP1 POP SWAP1 JUMP JUMPDEST PUSH1 0x0 PUSH2 0xE2A PUSH2 0xD74 PUSH2 0x1052 JUMP JUMPDEST DUP5 PUSH2 0xE25 DUP6 PUSH1 0x40 MLOAD DUP1 PUSH1 0x60 ADD PUSH1 0x40 MSTORE DUP1 PUSH1 0x28 DUP2 MSTORE PUSH1 0x20 ADD PUSH2 0x1BC4 PUSH1 0x28 SWAP2 CODECOPY PUSH1 0x3 PUSH1 0x0 PUSH2 0xD9E PUSH2 0x1052 JUMP JUMPDEST PUSH20 0xFFFFFFFFFFFFFFFFFFFFFFFFFFFFFFFFFFFFFFFF AND PUSH20 0xFFFFFFFFFFFFFFFFFFFFFFFFFFFFFFFFFFFFFFFF AND DUP2 MSTORE PUSH1 0x20 ADD SWAP1 DUP2 MSTORE PUSH1 0x20 ADD PUSH1 0x0 KECCAK256 PUSH1 0x0 DUP11 PUSH20 0xFFFFFFFFFFFFFFFFFFFFFFFFFFFFFFFFFFFFFFFF AND PUSH20 0xFFFFFFFFFFFFFFFFFFFFFFFFFFFFFFFFFFFFFFFF AND DUP2 MSTORE PUSH1 0x20 ADD SWAP1 DUP2 MSTORE PUSH1 0x20 ADD PUSH1 0x0 KECCAK256 SLOAD PUSH2 0x1533 SWAP1 SWAP3 SWAP2 SWAP1 PUSH4 0xFFFFFFFF AND JUMP JUMPDEST PUSH2 0x105A JUMP JUMPDEST PUSH1 0x1 SWAP1 POP SWAP3 SWAP2 POP POP JUMP JUMPDEST PUSH1 0x0 PUSH2 0xE48 PUSH2 0xE41 PUSH2 0x1052 JUMP JUMPDEST DUP5 DUP5 PUSH2 0x1251 JUMP JUMPDEST PUSH1 0x1 SWAP1 POP SWAP3 SWAP2 POP POP JUMP JUMPDEST PUSH1 0x0 PUSH1 0x3 PUSH1 0x0 DUP5 PUSH20 0xFFFFFFFFFFFFFFFFFFFFFFFFFFFFFFFFFFFFFFFF AND PUSH20 0xFFFFFFFFFFFFFFFFFFFFFFFFFFFFFFFFFFFFFFFF AND DUP2 MSTORE PUSH1 0x20 ADD SWAP1 DUP2 MSTORE PUSH1 0x20 ADD PUSH1 0x0 KECCAK256 PUSH1 0x0 DUP4 PUSH20 0xFFFFFFFFFFFFFFFFFFFFFFFFFFFFFFFFFFFFFFFF AND PUSH20 0xFFFFFFFFFFFFFFFFFFFFFFFFFFFFFFFFFFFFFFFF AND DUP2 MSTORE PUSH1 0x20 ADD SWAP1 DUP2 MSTORE PUSH1 0x20 ADD PUSH1 0x0 KECCAK256 SLOAD SWAP1 POP SWAP3 SWAP2 POP POP JUMP JUMPDEST PUSH2 0xEE1 PUSH2 0x1052 JUMP JUMPDEST PUSH20 0xFFFFFFFFFFFFFFFFFFFFFFFFFFFFFFFFFFFFFFFF AND PUSH2 0xEFF PUSH2 0xC9C JUMP JUMPDEST PUSH20 0xFFFFFFFFFFFFFFFFFFFFFFFFFFFFFFFFFFFFFFFF AND EQ PUSH2 0xF88 JUMPI PUSH1 0x40 MLOAD PUSH32 0x8C379A000000000000000000000000000000000000000000000000000000000 DUP2 MSTORE PUSH1 0x4 ADD DUP1 DUP1 PUSH1 0x20 ADD DUP3 DUP2 SUB DUP3 MSTORE PUSH1 0x20 DUP2 MSTORE PUSH1 0x20 ADD DUP1 PUSH32 0x4F776E61626C653A2063616C6C6572206973206E6F7420746865206F776E6572 DUP2 MSTORE POP PUSH1 0x20 ADD SWAP2 POP POP PUSH1 0x40 MLOAD DUP1 SWAP2 SUB SWAP1 REVERT JUMPDEST PUSH1 0x0 PUSH20 0xFFFFFFFFFFFFFFFFFFFFFFFFFFFFFFFFFFFFFFFF AND DUP2 PUSH20 0xFFFFFFFFFFFFFFFFFFFFFFFFFFFFFFFFFFFFFFFF AND EQ ISZERO PUSH2 0x100E JUMPI PUSH1 0x40 MLOAD PUSH32 0x8C379A000000000000000000000000000000000000000000000000000000000 DUP2 MSTORE PUSH1 0x4 ADD DUP1 DUP1 PUSH1 0x20 ADD DUP3 DUP2 SUB DUP3 MSTORE PUSH1 0x26 DUP2 MSTORE PUSH1 0x20 ADD DUP1 PUSH2 0x1B10 PUSH1 0x26 SWAP2 CODECOPY PUSH1 0x40 ADD SWAP2 POP POP PUSH1 0x40 MLOAD DUP1 SWAP2 SUB SWAP1 REVERT JUMPDEST DUP1 PUSH1 0x1 PUSH1 0x0 PUSH2 0x100 EXP DUP2 SLOAD DUP2 PUSH20 0xFFFFFFFFFFFFFFFFFFFFFFFFFFFFFFFFFFFFFFFF MUL NOT AND SWAP1 DUP4 PUSH20 0xFFFFFFFFFFFFFFFFFFFFFFFFFFFFFFFFFFFFFFFF AND MUL OR SWAP1 SSTORE POP POP JUMP JUMPDEST PUSH1 0x0 CALLER SWAP1 POP SWAP1 JUMP JUMPDEST PUSH1 0x0 PUSH20 0xFFFFFFFFFFFFFFFFFFFFFFFFFFFFFFFFFFFFFFFF AND DUP4 PUSH20 0xFFFFFFFFFFFFFFFFFFFFFFFFFFFFFFFFFFFFFFFF AND EQ ISZERO PUSH2 0x10E0 JUMPI PUSH1 0x40 MLOAD PUSH32 0x8C379A000000000000000000000000000000000000000000000000000000000 DUP2 MSTORE PUSH1 0x4 ADD DUP1 DUP1 PUSH1 0x20 ADD DUP3 DUP2 SUB DUP3 MSTORE PUSH1 0x24 DUP2 MSTORE PUSH1 0x20 ADD DUP1 PUSH2 0x1C0D PUSH1 0x24 SWAP2 CODECOPY PUSH1 0x40 ADD SWAP2 POP POP PUSH1 0x40 MLOAD DUP1 SWAP2 SUB SWAP1 REVERT JUMPDEST PUSH1 0x0 PUSH20 0xFFFFFFFFFFFFFFFFFFFFFFFFFFFFFFFFFFFFFFFF AND DUP3 PUSH20 0xFFFFFFFFFFFFFFFFFFFFFFFFFFFFFFFFFFFFFFFF AND EQ ISZERO PUSH2 0x1166 JUMPI PUSH1 0x40 MLOAD PUSH32 0x8C379A000000000000000000000000000000000000000000000000000000000 DUP2 MSTORE PUSH1 0x4 ADD DUP1 DUP1 PUSH1 0x20 ADD DUP3 DUP2 SUB DUP3 MSTORE PUSH1 0x22 DUP2 MSTORE PUSH1 0x20 ADD DUP1 PUSH2 0x1B36 PUSH1 0x22 SWAP2 CODECOPY PUSH1 0x40 ADD SWAP2 POP POP PUSH1 0x40 MLOAD DUP1 SWAP2 SUB SWAP1 REVERT JUMPDEST DUP1 PUSH1 0x3 PUSH1 0x0 DUP6 PUSH20 0xFFFFFFFFFFFFFFFFFFFFFFFFFFFFFFFFFFFFFFFF AND PUSH20 0xFFFFFFFFFFFFFFFFFFFFFFFFFFFFFFFFFFFFFFFF AND DUP2 MSTORE PUSH1 0x20 ADD SWAP1 DUP2 MSTORE PUSH1 0x20 ADD PUSH1 0x0 KECCAK256 PUSH1 0x0 DUP5 PUSH20 0xFFFFFFFFFFFFFFFFFFFFFFFFFFFFFFFFFFFFFFFF AND PUSH20 0xFFFFFFFFFFFFFFFFFFFFFFFFFFFFFFFFFFFFFFFF AND DUP2 MSTORE PUSH1 0x20 ADD SWAP1 DUP2 MSTORE PUSH1 0x20 ADD PUSH1 0x0 KECCAK256 DUP2 SWAP1 SSTORE POP DUP2 PUSH20 0xFFFFFFFFFFFFFFFFFFFFFFFFFFFFFFFFFFFFFFFF AND DUP4 PUSH20 0xFFFFFFFFFFFFFFFFFFFFFFFFFFFFFFFFFFFFFFFF AND PUSH32 0x8C5BE1E5EBEC7D5BD14F71427D1E84F3DD0314C0F7B2291E5B200AC8C7C3B925 DUP4 PUSH1 0x40 MLOAD DUP1 DUP3 DUP2 MSTORE PUSH1 0x20 ADD SWAP2 POP POP PUSH1 0x40 MLOAD DUP1 SWAP2 SUB SWAP1 LOG3 POP POP POP JUMP JUMPDEST PUSH1 0x0 PUSH20 0xFFFFFFFFFFFFFFFFFFFFFFFFFFFFFFFFFFFFFFFF AND DUP4 PUSH20 0xFFFFFFFFFFFFFFFFFFFFFFFFFFFFFFFFFFFFFFFF AND EQ ISZERO PUSH2 0x12D7 JUMPI PUSH1 0x40 MLOAD PUSH32 0x8C379A000000000000000000000000000000000000000000000000000000000 DUP2 MSTORE PUSH1 0x4 ADD DUP1 DUP1 PUSH1 0x20 ADD DUP3 DUP2 SUB DUP3 MSTORE PUSH1 0x21 DUP2 MSTORE PUSH1 0x20 ADD DUP1 PUSH2 0x1B58 PUSH1 0x21 SWAP2 CODECOPY PUSH1 0x40 ADD SWAP2 POP POP PUSH1 0x40 MLOAD DUP1 SWAP2 SUB SWAP1 REVERT JUMPDEST PUSH1 0x0 PUSH20 0xFFFFFFFFFFFFFFFFFFFFFFFFFFFFFFFFFFFFFFFF AND DUP3 PUSH20 0xFFFFFFFFFFFFFFFFFFFFFFFFFFFFFFFFFFFFFFFF AND EQ ISZERO PUSH2 0x137A JUMPI PUSH1 0x40 MLOAD PUSH32 0x8C379A000000000000000000000000000000000000000000000000000000000 DUP2 MSTORE PUSH1 0x4 ADD DUP1 DUP1 PUSH1 0x20 ADD DUP3 DUP2 SUB DUP3 MSTORE PUSH1 0x1F DUP2 MSTORE PUSH1 0x20 ADD DUP1 PUSH32 0x45524332303A207472616E7366657220746F207A65726F206164647265737300 DUP2 MSTORE POP PUSH1 0x20 ADD SWAP2 POP POP PUSH1 0x40 MLOAD DUP1 SWAP2 SUB SWAP1 REVERT JUMPDEST PUSH2 0x1385 DUP4 DUP4 DUP4 PUSH2 0x1A65 JUMP JUMPDEST PUSH2 0x13F1 DUP2 PUSH1 0x40 MLOAD DUP1 PUSH1 0x60 ADD PUSH1 0x40 MSTORE DUP1 PUSH1 0x26 DUP2 MSTORE PUSH1 0x20 ADD PUSH2 0x1B79 PUSH1 0x26 SWAP2 CODECOPY PUSH1 0x2 PUSH1 0x0 DUP8 PUSH20 0xFFFFFFFFFFFFFFFFFFFFFFFFFFFFFFFFFFFFFFFF AND PUSH20 0xFFFFFFFFFFFFFFFFFFFFFFFFFFFFFFFFFFFFFFFF AND DUP2 MSTORE PUSH1 0x20 ADD SWAP1 DUP2 MSTORE PUSH1 0x20 ADD PUSH1 0x0 KECCAK256 SLOAD PUSH2 0x1533 SWAP1 SWAP3 SWAP2 SWAP1 PUSH4 0xFFFFFFFF AND JUMP JUMPDEST PUSH1 0x2 PUSH1 0x0 DUP6 PUSH20 0xFFFFFFFFFFFFFFFFFFFFFFFFFFFFFFFFFFFFFFFF AND PUSH20 0xFFFFFFFFFFFFFFFFFFFFFFFFFFFFFFFFFFFFFFFF AND DUP2 MSTORE PUSH1 0x20 ADD SWAP1 DUP2 MSTORE PUSH1 0x20 ADD PUSH1 0x0 KECCAK256 DUP2 SWAP1 SSTORE POP PUSH2 0x1486 DUP2 PUSH1 0x2 PUSH1 0x0 DUP6 PUSH20 0xFFFFFFFFFFFFFFFFFFFFFFFFFFFFFFFFFFFFFFFF AND PUSH20 0xFFFFFFFFFFFFFFFFFFFFFFFFFFFFFFFFFFFFFFFF AND DUP2 MSTORE PUSH1 0x20 ADD SWAP1 DUP2 MSTORE PUSH1 0x20 ADD PUSH1 0x0 KECCAK256 SLOAD PUSH2 0x15ED SWAP1 SWAP2 SWAP1 PUSH4 0xFFFFFFFF AND JUMP JUMPDEST PUSH1 0x2 PUSH1 0x0 DUP5 PUSH20 0xFFFFFFFFFFFFFFFFFFFFFFFFFFFFFFFFFFFFFFFF AND PUSH20 0xFFFFFFFFFFFFFFFFFFFFFFFFFFFFFFFFFFFFFFFF AND DUP2 MSTORE PUSH1 0x20 ADD SWAP1 DUP2 MSTORE PUSH1 0x20 ADD PUSH1 0x0 KECCAK256 DUP2 SWAP1 SSTORE POP DUP2 PUSH20 0xFFFFFFFFFFFFFFFFFFFFFFFFFFFFFFFFFFFFFFFF AND DUP4 PUSH20 0xFFFFFFFFFFFFFFFFFFFFFFFFFFFFFFFFFFFFFFFF AND PUSH32 0xDDF252AD1BE2C89B69C2B068FC378DAA952BA7F163C4A11628F55A4DF523B3EF DUP4 PUSH1 0x40 MLOAD DUP1 DUP3 DUP2 MSTORE PUSH1 0x20 ADD SWAP2 POP POP PUSH1 0x40 MLOAD DUP1 SWAP2 SUB SWAP1 LOG3 POP POP POP JUMP JUMPDEST PUSH1 0x0 DUP4 DUP4 GT ISZERO DUP3 SWAP1 PUSH2 0x15E0 JUMPI PUSH1 0x40 MLOAD PUSH32 0x8C379A000000000000000000000000000000000000000000000000000000000 DUP2 MSTORE PUSH1 0x4 ADD DUP1 DUP1 PUSH1 0x20 ADD DUP3 DUP2 SUB DUP3 MSTORE DUP4 DUP2 DUP2 MLOAD DUP2 MSTORE PUSH1 0x20 ADD SWAP2 POP DUP1 MLOAD SWAP1 PUSH1 0x20 ADD SWAP1 DUP1 DUP4 DUP4 PUSH1 0x0 JUMPDEST DUP4 DUP2 LT ISZERO PUSH2 0x15A5 JUMPI DUP1 DUP3 ADD MLOAD DUP2 DUP5 ADD MSTORE PUSH1 0x20 DUP2 ADD SWAP1 POP PUSH2 0x158A JUMP JUMPDEST POP POP POP POP SWAP1 POP SWAP1 DUP2 ADD SWAP1 PUSH1 0x1F AND DUP1 ISZERO PUSH2 0x15D2 JUMPI DUP1 DUP3 SUB DUP1 MLOAD PUSH1 0x1 DUP4 PUSH1 0x20 SUB PUSH2 0x100 EXP SUB NOT AND DUP2 MSTORE PUSH1 0x20 ADD SWAP2 POP JUMPDEST POP SWAP3 POP POP POP PUSH1 0x40 MLOAD DUP1 SWAP2 SUB SWAP1 REVERT JUMPDEST POP DUP3 DUP5 SUB SWAP1 POP SWAP4 SWAP3 POP POP POP JUMP JUMPDEST PUSH1 0x0 DUP1 DUP3 DUP5 ADD SWAP1 POP DUP3 DUP5 ADD DUP2 LT ISZERO PUSH2 0x166D JUMPI PUSH1 0x40 MLOAD PUSH32 0x8C379A000000000000000000000000000000000000000000000000000000000 DUP2 MSTORE PUSH1 0x4 ADD DUP1 DUP1 PUSH1 0x20 ADD DUP3 DUP2 SUB DUP3 MSTORE PUSH1 0x1B DUP2 MSTORE PUSH1 0x20 ADD DUP1 PUSH32 0x536166654D6174683A206164646974696F6E206F766572666C6F770000000000 DUP2 MSTORE POP PUSH1 0x20 ADD SWAP2 POP POP PUSH1 0x40 MLOAD DUP1 SWAP2 SUB SWAP1 REVERT JUMPDEST DUP1 SWAP2 POP POP SWAP3 SWAP2 POP POP JUMP JUMPDEST PUSH1 0x0 PUSH20 0xFFFFFFFFFFFFFFFFFFFFFFFFFFFFFFFFFFFFFFFF AND DUP3 PUSH20 0xFFFFFFFFFFFFFFFFFFFFFFFFFFFFFFFFFFFFFFFF AND EQ ISZERO PUSH2 0x171A JUMPI PUSH1 0x40 MLOAD PUSH32 0x8C379A000000000000000000000000000000000000000000000000000000000 DUP2 MSTORE PUSH1 0x4 ADD DUP1 DUP1 PUSH1 0x20 ADD DUP3 DUP2 SUB DUP3 MSTORE PUSH1 0x1B DUP2 MSTORE PUSH1 0x20 ADD DUP1 PUSH32 0x45524332303A206D696E7420746F207A65726F20616464726573730000000000 DUP2 MSTORE POP PUSH1 0x20 ADD SWAP2 POP POP PUSH1 0x40 MLOAD DUP1 SWAP2 SUB SWAP1 REVERT JUMPDEST PUSH1 0x4 SLOAD DUP2 PUSH1 0x5 SLOAD ADD GT ISZERO PUSH2 0x1779 JUMPI PUSH1 0x40 MLOAD PUSH32 0x8C379A000000000000000000000000000000000000000000000000000000000 DUP2 MSTORE PUSH1 0x4 ADD DUP1 DUP1 PUSH1 0x20 ADD DUP3 DUP2 SUB DUP3 MSTORE PUSH1 0x25 DUP2 MSTORE PUSH1 0x20 ADD DUP1 PUSH2 0x1B9F PUSH1 0x25 SWAP2 CODECOPY PUSH1 0x40 ADD SWAP2 POP POP PUSH1 0x40 MLOAD DUP1 SWAP2 SUB SWAP1 REVERT JUMPDEST PUSH2 0x1785 PUSH1 0x0 DUP4 DUP4 PUSH2 0x1A65 JUMP JUMPDEST PUSH2 0x179A DUP2 PUSH1 0x5 SLOAD PUSH2 0x15ED SWAP1 SWAP2 SWAP1 PUSH4 0xFFFFFFFF AND JUMP JUMPDEST PUSH1 0x5 DUP2 SWAP1 SSTORE POP PUSH2 0x17F2 DUP2 PUSH1 0x2 PUSH1 0x0 DUP6 PUSH20 0xFFFFFFFFFFFFFFFFFFFFFFFFFFFFFFFFFFFFFFFF AND PUSH20 0xFFFFFFFFFFFFFFFFFFFFFFFFFFFFFFFFFFFFFFFF AND DUP2 MSTORE PUSH1 0x20 ADD SWAP1 DUP2 MSTORE PUSH1 0x20 ADD PUSH1 0x0 KECCAK256 SLOAD PUSH2 0x15ED SWAP1 SWAP2 SWAP1 PUSH4 0xFFFFFFFF AND JUMP JUMPDEST PUSH1 0x2 PUSH1 0x0 DUP5 PUSH20 0xFFFFFFFFFFFFFFFFFFFFFFFFFFFFFFFFFFFFFFFF AND PUSH20 0xFFFFFFFFFFFFFFFFFFFFFFFFFFFFFFFFFFFFFFFF AND DUP2 MSTORE PUSH1 0x20 ADD SWAP1 DUP2 MSTORE PUSH1 0x20 ADD PUSH1 0x0 KECCAK256 DUP2 SWAP1 SSTORE POP DUP2 PUSH20 0xFFFFFFFFFFFFFFFFFFFFFFFFFFFFFFFFFFFFFFFF AND PUSH1 0x0 PUSH20 0xFFFFFFFFFFFFFFFFFFFFFFFFFFFFFFFFFFFFFFFF AND PUSH32 0xDDF252AD1BE2C89B69C2B068FC378DAA952BA7F163C4A11628F55A4DF523B3EF DUP4 PUSH1 0x40 MLOAD DUP1 DUP3 DUP2 MSTORE PUSH1 0x20 ADD SWAP2 POP POP PUSH1 0x40 MLOAD DUP1 SWAP2 SUB SWAP1 LOG3 POP POP JUMP JUMPDEST PUSH1 0x0 PUSH20 0xFFFFFFFFFFFFFFFFFFFFFFFFFFFFFFFFFFFFFFFF AND DUP3 PUSH20 0xFFFFFFFFFFFFFFFFFFFFFFFFFFFFFFFFFFFFFFFF AND EQ ISZERO PUSH2 0x1925 JUMPI PUSH1 0x40 MLOAD PUSH32 0x8C379A000000000000000000000000000000000000000000000000000000000 DUP2 MSTORE PUSH1 0x4 ADD DUP1 DUP1 PUSH1 0x20 ADD DUP3 DUP2 SUB DUP3 MSTORE PUSH1 0x21 DUP2 MSTORE PUSH1 0x20 ADD DUP1 PUSH2 0x1BEC PUSH1 0x21 SWAP2 CODECOPY PUSH1 0x40 ADD SWAP2 POP POP PUSH1 0x40 MLOAD DUP1 SWAP2 SUB SWAP1 REVERT JUMPDEST PUSH2 0x1931 DUP3 PUSH1 0x0 DUP4 PUSH2 0x1A65 JUMP JUMPDEST PUSH2 0x199D DUP2 PUSH1 0x40 MLOAD DUP1 PUSH1 0x60 ADD PUSH1 0x40 MSTORE DUP1 PUSH1 0x22 DUP2 MSTORE PUSH1 0x20 ADD PUSH2 0x1AEE PUSH1 0x22 SWAP2 CODECOPY PUSH1 0x2 PUSH1 0x0 DUP7 PUSH20 0xFFFFFFFFFFFFFFFFFFFFFFFFFFFFFFFFFFFFFFFF AND PUSH20 0xFFFFFFFFFFFFFFFFFFFFFFFFFFFFFFFFFFFFFFFF AND DUP2 MSTORE PUSH1 0x20 ADD SWAP1 DUP2 MSTORE PUSH1 0x20 ADD PUSH1 0x0 KECCAK256 SLOAD PUSH2 0x1533 SWAP1 SWAP3 SWAP2 SWAP1 PUSH4 0xFFFFFFFF AND JUMP JUMPDEST PUSH1 0x2 PUSH1 0x0 DUP5 PUSH20 0xFFFFFFFFFFFFFFFFFFFFFFFFFFFFFFFFFFFFFFFF AND PUSH20 0xFFFFFFFFFFFFFFFFFFFFFFFFFFFFFFFFFFFFFFFF AND DUP2 MSTORE PUSH1 0x20 ADD SWAP1 DUP2 MSTORE PUSH1 0x20 ADD PUSH1 0x0 KECCAK256 DUP2 SWAP1 SSTORE POP PUSH2 0x19F5 DUP2 PUSH1 0x5 SLOAD PUSH2 0x1A6A SWAP1 SWAP2 SWAP1 PUSH4 0xFFFFFFFF AND JUMP JUMPDEST PUSH1 0x5 DUP2 SWAP1 SSTORE POP PUSH1 0x0 PUSH20 0xFFFFFFFFFFFFFFFFFFFFFFFFFFFFFFFFFFFFFFFF AND DUP3 PUSH20 0xFFFFFFFFFFFFFFFFFFFFFFFFFFFFFFFFFFFFFFFF AND PUSH32 0xDDF252AD1BE2C89B69C2B068FC378DAA952BA7F163C4A11628F55A4DF523B3EF DUP4 PUSH1 0x40 MLOAD DUP1 DUP3 DUP2 MSTORE PUSH1 0x20 ADD SWAP2 POP POP PUSH1 0x40 MLOAD DUP1 SWAP2 SUB SWAP1 LOG3 POP POP JUMP JUMPDEST POP POP POP JUMP JUMPDEST PUSH1 0x0 DUP3 DUP3 GT ISZERO PUSH2 0x1AE2 JUMPI PUSH1 0x40 MLOAD PUSH32 0x8C379A000000000000000000000000000000000000000000000000000000000 DUP2 MSTORE PUSH1 0x4 ADD DUP1 DUP1 PUSH1 0x20 ADD DUP3 DUP2 SUB DUP3 MSTORE PUSH1 0x1E DUP2 MSTORE PUSH1 0x20 ADD DUP1 PUSH32 0x536166654D6174683A207375627472616374696F6E206F766572666C6F770000 DUP2 MSTORE POP PUSH1 0x20 ADD SWAP2 POP POP PUSH1 0x40 MLOAD DUP1 SWAP2 SUB SWAP1 REVERT JUMPDEST DUP2 DUP4 SUB SWAP1 POP SWAP3 SWAP2 POP POP JUMP INVALID GASLIMIT MSTORE NUMBER ORIGIN ADDRESS GASPRICE KECCAK256 PUSH3 0x75726E KECCAK256 PUSH2 0x6D6F PUSH22 0x6E7420657863656564732062616C616E63654F776E61 PUSH3 0x6C653A KECCAK256 PUSH15 0x6577206F776E657220697320746865 KECCAK256 PUSH27 0x65726F206164647265737345524332303A20617070726F76652074 PUSH16 0x20746865207A65726F20616464726573 PUSH20 0x45524332303A207472616E736665722066726F6D KECCAK256 PUSH27 0x65726F206164647265737345524332303A207472616E7366657220 PUSH2 0x6D6F PUSH22 0x6E7420657863656564732062616C616E636545524332 ADDRESS GASPRICE KECCAK256 PUSH14 0x696E7420616D6F756E7420657863 PUSH6 0x656473206D61 PUSH25 0x20737570706C7945524332303A20646563726561736520616D PUSH16 0x756E74206578636565647320616C6C6F PUSH24 0x616E636545524332303A206275726E2066726F6D20746865 KECCAK256 PUSH27 0x65726F206164647265737345524332303A20617070726F76652066 PUSH19 0x6F6D20746865207A65726F2061646472657373 0x4F PUSH24 0x6E61626C653A206F6E6C79206E6577206F776E6572206361 PUSH15 0x20616363657074206F776E65727368 PUSH10 0x70A26469706673582212 KECCAK256 PUSH6 0x678AC300079 PUSH32 0x5DAC2DACFAD63EC89602F7107D187FD7D07D4F8D9A2B69FA64736F6C63430007 MOD STOP CALLER "
				},
				"gasEstimates": {
					"creation": {
						"codeDepositCost": "1462800",
						"executionCost": "infinite",
						"totalCost": "infinite"
					},
					"external": {
						"acceptOwnership()": "infinite",
						"allowance(address,address)": "1409",
						"approve(address,uint256)": "infinite",
						"balanceOf(address)": "1219",
						"burn(uint256)": "infinite",
						"burnFrom(address,uint256)": "infinite",
						"decimals()": "1078",
						"decreaseAllowance(address,uint256)": "infinite",
						"increaseAllowance(address,uint256)": "infinite",
						"mint(address,uint256)": "infinite",
						"name()": "infinite",
						"owner()": "1144",
						"symbol()": "infinite",
						"totalSupply()": "1081",
						"transfer(address,uint256)": "infinite",
						"transferFrom(address,address,uint256)": "infinite",
						"transferOwnership(address)": "infinite"
					},
					"internal": {
						"_afterTokenTransfer(address,address,uint256)": "infinite",
						"_approve(address,address,uint256)": "infinite",
						"_beforeTokenTransfer(address,address,uint256)": "15",
						"_burn(address,uint256)": "infinite",
						"_mint(address,uint256)": "infinite",
						"_transfer(address,address,uint256)": "infinite"
					}
				},
				"methodIdentifiers": {
					"acceptOwnership()": "79ba5097",
					"allowance(address,address)": "dd62ed3e",
					"approve(address,uint256)": "095ea7b3",
					"balanceOf(address)": "70a08231",
					"burn(uint256)": "42966c68",
					"burnFrom(address,uint256)": "79cc6790",
					"decimals()": "313ce567",
					"decreaseAllowance(address,uint256)": "a457c2d7",
					"increaseAllowance(address,uint256)": "39509351",
					"mint(address,uint256)": "40c10f19",
					"name()": "06fdde03",
					"owner()": "8da5cb5b",
					"symbol()": "95d89b41",
					"totalSupply()": "18160ddd",
					"transfer(address,uint256)": "a9059cbb",
					"transferFrom(address,address,uint256)": "23b872dd",
					"transferOwnership(address)": "f2fde38b"
				}
			},
			"storageLayout": {
				"storage": [
					{
						"astId": 458,
						"contract": "contracts/FishRings.sol:PiratesCoins",
						"label": "_owner",
						"offset": 0,
						"slot": "0",
						"type": "t_address"
					},
					{
						"astId": 460,
						"contract": "contracts/FishRings.sol:PiratesCoins",
						"label": "_newOwner",
						"offset": 0,
						"slot": "1",
						"type": "t_address"
					},
					{
						"astId": 582,
						"contract": "contracts/FishRings.sol:PiratesCoins",
						"label": "_balances",
						"offset": 0,
						"slot": "2",
						"type": "t_mapping(t_address,t_uint256)"
					},
					{
						"astId": 588,
						"contract": "contracts/FishRings.sol:PiratesCoins",
						"label": "_allowances",
						"offset": 0,
						"slot": "3",
						"type": "t_mapping(t_address,t_mapping(t_address,t_uint256))"
					},
					{
						"astId": 590,
						"contract": "contracts/FishRings.sol:PiratesCoins",
						"label": "_maxSupply",
						"offset": 0,
						"slot": "4",
						"type": "t_uint256"
					},
					{
						"astId": 592,
						"contract": "contracts/FishRings.sol:PiratesCoins",
						"label": "_totalSupply",
						"offset": 0,
						"slot": "5",
						"type": "t_uint256"
					},
					{
						"astId": 594,
						"contract": "contracts/FishRings.sol:PiratesCoins",
						"label": "_name",
						"offset": 0,
						"slot": "6",
						"type": "t_string_storage"
					},
					{
						"astId": 596,
						"contract": "contracts/FishRings.sol:PiratesCoins",
						"label": "_symbol",
						"offset": 0,
						"slot": "7",
						"type": "t_string_storage"
					},
					{
						"astId": 598,
						"contract": "contracts/FishRings.sol:PiratesCoins",
						"label": "_decimals",
						"offset": 0,
						"slot": "8",
						"type": "t_uint8"
					}
				],
				"types": {
					"t_address": {
						"encoding": "inplace",
						"label": "address",
						"numberOfBytes": "20"
					},
					"t_mapping(t_address,t_mapping(t_address,t_uint256))": {
						"encoding": "mapping",
						"key": "t_address",
						"label": "mapping(address => mapping(address => uint256))",
						"numberOfBytes": "32",
						"value": "t_mapping(t_address,t_uint256)"
					},
					"t_mapping(t_address,t_uint256)": {
						"encoding": "mapping",
						"key": "t_address",
						"label": "mapping(address => uint256)",
						"numberOfBytes": "32",
						"value": "t_uint256"
					},
					"t_string_storage": {
						"encoding": "bytes",
						"label": "string",
						"numberOfBytes": "32"
					},
					"t_uint256": {
						"encoding": "inplace",
						"label": "uint256",
						"numberOfBytes": "32"
					},
					"t_uint8": {
						"encoding": "inplace",
						"label": "uint8",
						"numberOfBytes": "1"
					}
				}
			},
			"userdoc": {
				"kind": "user",
				"methods": {},
				"version": 1
			}
		}
	}
}