{
	"data": {
		"bytecode": {
			"linkReferences": {},
			"object": "60806040526c01431e0fae6d7217caa00000006006556b409f9cbc7c4a04c2200000006008556b409f9cbc7c4a04c220000000600b557374fa728409a172ab9f9d5c695945df711a2f85e1600d60006101000a81548173ffffffffffffffffffffffffffffffffffffffff021916908373ffffffffffffffffffffffffffffffffffffffff1602179055506a084595161401484a000000600e55603c600f55600a601055348015620000b057600080fd5b506040518060400160405280600881526020017f4172626947756e730000000000000000000000000000000000000000000000008152506040518060400160405280600481526020017f4147554e0000000000000000000000000000000000000000000000000000000081525081600390816200012e9190620004b1565b508060049081620001409190620004b1565b50505062000163620001576200016960201b60201c565b6200017160201b60201c565b62000598565b600033905090565b6000600560009054906101000a900473ffffffffffffffffffffffffffffffffffffffff16905081600560006101000a81548173ffffffffffffffffffffffffffffffffffffffff021916908373ffffffffffffffffffffffffffffffffffffffff1602179055508173ffffffffffffffffffffffffffffffffffffffff168173ffffffffffffffffffffffffffffffffffffffff167f8be0079c531659141344cd1fd0a4f28419497f9722a3daafe3b4186f6b6457e060405160405180910390a35050565b600081519050919050565b7f4e487b7100000000000000000000000000000000000000000000000000000000600052604160045260246000fd5b7f4e487b7100000000000000000000000000000000000000000000000000000000600052602260045260246000fd5b60006002820490506001821680620002b957607f821691505b602082108103620002cf57620002ce62000271565b5b50919050565b60008190508160005260206000209050919050565b60006020601f8301049050919050565b600082821b905092915050565b600060088302620003397fffffffffffffffffffffffffffffffffffffffffffffffffffffffffffffffff82620002fa565b620003458683620002fa565b95508019841693508086168417925050509392505050565b6000819050919050565b6000819050919050565b6000620003926200038c62000386846200035d565b62000367565b6200035d565b9050919050565b6000819050919050565b620003ae8362000371565b620003c6620003bd8262000399565b84845462000307565b825550505050565b600090565b620003dd620003ce565b620003ea818484620003a3565b505050565b5b81811015620004125762000406600082620003d3565b600181019050620003f0565b5050565b601f82111562000461576200042b81620002d5565b6200043684620002ea565b8101602085101562000446578190505b6200045e6200045585620002ea565b830182620003ef565b50505b505050565b600082821c905092915050565b6000620004866000198460080262000466565b1980831691505092915050565b6000620004a1838362000473565b9150826002028217905092915050565b620004bc8262000237565b67ffffffffffffffff811115620004d857620004d762000242565b5b620004e48254620002a0565b620004f182828562000416565b600060209050601f83116001811462000529576000841562000514578287015190505b62000520858262000493565b86555062000590565b601f1984166200053986620002d5565b60005b8281101562000563578489015182556001820191506020850194506020810190506200053c565b868310156200058357848901516200057f601f89168262000473565b8355505b6001600288020188555050505b505050505050565b612fa580620005a86000396000f3fe608060405234801561001057600080fd5b50600436106101cf5760003560e01c806370a0823111610104578063ccec3716116100a2578063e15be46611610071578063e15be46614610584578063f2c2533c146105a2578063f2fde38b146105be578063f6bc9624146105da576101cf565b8063ccec3716146104e8578063d5abeb0114610518578063dd62ed3e14610536578063e042ad5814610566576101cf565b80638da5cb5b116100de5780638da5cb5b1461044c57806395d89b411461046a578063a457c2d714610488578063a9059cbb146104b8576101cf565b806370a08231146103e2578063715018a6146104125780637e3781ae1461041c576101cf565b8063326dc45d11610171578063641ec2f41161014b578063641ec2f4146103465780636a316213146103645780636b1b4987146103945780636bb07c73146103b2576101cf565b8063326dc45d146102dc57806339509351146102f85780635b149feb14610328576101cf565b806318160ddd116101ad57806318160ddd1461025257806320800a001461027057806323b872dd1461028e578063313ce567146102be576101cf565b806306fdde03146101d4578063095ea7b3146101f2578063168051fd14610222575b600080fd5b6101dc61060a565b6040516101e99190611d89565b60405180910390f35b61020c60048036038101906102079190611e44565b61069c565b6040516102199190611e9f565b60405180910390f35b61023c60048036038101906102379190611eba565b6106bf565b6040516102499190611e9f565b60405180910390f35b61025a6107a3565b6040516102679190611ef6565b60405180910390f35b6102786107ad565b6040516102859190611e9f565b60405180910390f35b6102a860048036038101906102a39190611f11565b61080c565b6040516102b59190611e9f565b60405180910390f35b6102c661083b565b6040516102d39190611f80565b60405180910390f35b6102f660048036038101906102f19190611e44565b610844565b005b610312600480360381019061030d9190611e44565b610a42565b60405161031f9190611e9f565b60405180910390f35b610330610a79565b60405161033d9190611ef6565b60405180910390f35b61034e610a7f565b60405161035b9190611faa565b60405180910390f35b61037e60048036038101906103799190611fc5565b610aa5565b60405161038b9190611e9f565b60405180910390f35b61039c610b16565b6040516103a99190611ef6565b60405180910390f35b6103cc60048036038101906103c79190612005565b610b1c565b6040516103d99190611e9f565b60405180910390f35b6103fc60048036038101906103f79190611eba565b610bd6565b6040516104099190611ef6565b60405180910390f35b61041a610c1e565b005b61043660048036038101906104319190611eba565b610c32565b6040516104439190611e9f565b60405180910390f35b610454610d16565b6040516104619190611faa565b60405180910390f35b610472610d40565b60405161047f9190611d89565b60405180910390f35b6104a2600480360381019061049d9190611e44565b610dd2565b6040516104af9190611e9f565b60405180910390f35b6104d260048036038101906104cd9190611e44565b610e49565b6040516104df9190611e9f565b60405180910390f35b61050260048036038101906104fd9190611eba565b610e6c565b60405161050f9190611e9f565b60405180910390f35b610520610f84565b60405161052d9190611ef6565b60405180910390f35b610550600480360381019061054b9190612032565b610f8a565b60405161055d9190611ef6565b60405180910390f35b61056e611011565b60405161057b9190611faa565b60405180910390f35b61058c611037565b6040516105999190611faa565b60405180910390f35b6105bc60048036038101906105b79190611e44565b61105d565b005b6105d860048036038101906105d39190611eba565b61125b565b005b6105f460048036038101906105ef9190611eba565b6112de565b6040516106019190611e9f565b60405180910390f35b606060038054610619906120a1565b80601f0160208091040260200160405190810160405280929190818152602001828054610645906120a1565b80156106925780601f1061066757610100808354040283529160200191610692565b820191906000526020600020905b81548152906001019060200180831161067557829003601f168201915b5050505050905090565b6000806106a7611431565b90506106b4818585611439565b600191505092915050565b60006106c9611602565b600a60009054906101000a900473ffffffffffffffffffffffffffffffffffffffff1673ffffffffffffffffffffffffffffffffffffffff168273ffffffffffffffffffffffffffffffffffffffff1603610759576040517f08c379a000000000000000000000000000000000000000000000000000000000815260040161075090612144565b60405180910390fd5b81600a60006101000a81548173ffffffffffffffffffffffffffffffffffffffff021916908373ffffffffffffffffffffffffffffffffffffffff16021790555060019050919050565b6000600254905090565b60006107b7611602565b6107bf611431565b73ffffffffffffffffffffffffffffffffffffffff166108fc479081150290604051600060405180830381858888f19350505050158015610804573d6000803e3d6000fd5b506001905090565b600080610817611431565b9050610824858285611680565b61082f85858561170c565b60019150509392505050565b60006012905090565b600760009054906101000a900473ffffffffffffffffffffffffffffffffffffffff1673ffffffffffffffffffffffffffffffffffffffff16610885611431565b73ffffffffffffffffffffffffffffffffffffffff16146108db576040517f08c379a00000000000000000000000000000000000000000000000000000000081526004016108d2906121d6565b60405180910390fd5b60095460085411610921576040517f08c379a000000000000000000000000000000000000000000000000000000000815260040161091890612242565b60405180910390fd5b600073ffffffffffffffffffffffffffffffffffffffff168273ffffffffffffffffffffffffffffffffffffffff1603610990576040517f08c379a0000000000000000000000000000000000000000000000000000000008152600401610987906122ae565b60405180910390fd5b600081116109d3576040517f08c379a00000000000000000000000000000000000000000000000000000000081526004016109ca9061231a565b60405180910390fd5b600060095490506109ef8260095461196c90919063ffffffff16565b60098190555060085460095411610a0f57610a0a83836119ca565b610a3d565b6000610a2682600854611b0890919063ffffffff16565b9050610a3284826119ca565b600854600981905550505b505050565b600080610a4d611431565b9050610a6e818585610a5f8589610f8a565b610a699190612369565b611439565b600191505092915050565b600f5481565b600760009054906101000a900473ffffffffffffffffffffffffffffffffffffffff1681565b6000610aaf611602565b60648284610abd9190612369565b1115610afe576040517f08c379a0000000000000000000000000000000000000000000000000000000008152600401610af5906123e9565b60405180910390fd5b82600f81905550816010819055506001905092915050565b60105481565b6000610b26611602565b610b6a6014610b5c6103e8610b4e670de0b6b3a7640000600654611b6190919063ffffffff16565b611b6190919063ffffffff16565b611bb990919063ffffffff16565b821115610bac576040517f08c379a0000000000000000000000000000000000000000000000000000000008152600401610ba39061247b565b60405180910390fd5b610bc7670de0b6b3a764000083611bb990919063ffffffff16565b600e8190555060019050919050565b60008060008373ffffffffffffffffffffffffffffffffffffffff1673ffffffffffffffffffffffffffffffffffffffff168152602001908152602001600020549050919050565b610c26611602565b610c306000611c33565b565b6000610c3c611602565b600760009054906101000a900473ffffffffffffffffffffffffffffffffffffffff1673ffffffffffffffffffffffffffffffffffffffff168273ffffffffffffffffffffffffffffffffffffffff1603610ccc576040517f08c379a0000000000000000000000000000000000000000000000000000000008152600401610cc39061250d565b60405180910390fd5b81600760006101000a81548173ffffffffffffffffffffffffffffffffffffffff021916908373ffffffffffffffffffffffffffffffffffffffff16021790555060019050919050565b6000600560009054906101000a900473ffffffffffffffffffffffffffffffffffffffff16905090565b606060048054610d4f906120a1565b80601f0160208091040260200160405190810160405280929190818152602001828054610d7b906120a1565b8015610dc85780601f10610d9d57610100808354040283529160200191610dc8565b820191906000526020600020905b815481529060010190602001808311610dab57829003601f168201915b5050505050905090565b600080610ddd611431565b90506000610deb8286610f8a565b905083811015610e30576040517f08c379a0000000000000000000000000000000000000000000000000000000008152600401610e279061259f565b60405180910390fd5b610e3d8286868403611439565b60019250505092915050565b600080610e54611431565b9050610e6181858561170c565b600191505092915050565b6000610e76611602565b60008290508073ffffffffffffffffffffffffffffffffffffffff1663a9059cbb610e9f611431565b8373ffffffffffffffffffffffffffffffffffffffff166370a08231306040518263ffffffff1660e01b8152600401610ed89190611faa565b602060405180830381865afa158015610ef5573d6000803e3d6000fd5b505050506040513d601f19601f82011682018060405250810190610f1991906125d4565b6040518363ffffffff1660e01b8152600401610f36929190612601565b6020604051808303816000875af1158015610f55573d6000803e3d6000fd5b505050506040513d601f19601f82011682018060405250810190610f799190612656565b506001915050919050565b60065481565b6000600160008473ffffffffffffffffffffffffffffffffffffffff1673ffffffffffffffffffffffffffffffffffffffff16815260200190815260200160002060008373ffffffffffffffffffffffffffffffffffffffff1673ffffffffffffffffffffffffffffffffffffffff16815260200190815260200160002054905092915050565b600d60009054906101000a900473ffffffffffffffffffffffffffffffffffffffff1681565b600a60009054906101000a900473ffffffffffffffffffffffffffffffffffffffff1681565b600a60009054906101000a900473ffffffffffffffffffffffffffffffffffffffff1673ffffffffffffffffffffffffffffffffffffffff1661109e611431565b73ffffffffffffffffffffffffffffffffffffffff16146110f4576040517f08c379a00000000000000000000000000000000000000000000000000000000081526004016110eb906126f5565b60405180910390fd5b600c54600b541161113a576040517f08c379a000000000000000000000000000000000000000000000000000000000815260040161113190612761565b60405180910390fd5b600073ffffffffffffffffffffffffffffffffffffffff168273ffffffffffffffffffffffffffffffffffffffff16036111a9576040517f08c379a00000000000000000000000000000000000000000000000000000000081526004016111a0906122ae565b60405180910390fd5b600081116111ec576040517f08c379a00000000000000000000000000000000000000000000000000000000081526004016111e39061231a565b60405180910390fd5b6000600c54905061120882600c5461196c90919063ffffffff16565b600c81905550600b54600c54116112285761122383836119ca565b611256565b600061123f82600b54611b0890919063ffffffff16565b905061124b84826119ca565b600b54600c81905550505b505050565b611263611602565b600073ffffffffffffffffffffffffffffffffffffffff168173ffffffffffffffffffffffffffffffffffffffff16036112d2576040517f08c379a00000000000000000000000000000000000000000000000000000000081526004016112c9906127f3565b60405180910390fd5b6112db81611c33565b50565b60006112e8611602565b600d60009054906101000a900473ffffffffffffffffffffffffffffffffffffffff1673ffffffffffffffffffffffffffffffffffffffff168273ffffffffffffffffffffffffffffffffffffffff1603611378576040517f08c379a000000000000000000000000000000000000000000000000000000000815260040161136f90612885565b60405180910390fd5b600073ffffffffffffffffffffffffffffffffffffffff168273ffffffffffffffffffffffffffffffffffffffff16036113e7576040517f08c379a00000000000000000000000000000000000000000000000000000000081526004016113de906122ae565b60405180910390fd5b81600d60006101000a81548173ffffffffffffffffffffffffffffffffffffffff021916908373ffffffffffffffffffffffffffffffffffffffff16021790555060019050919050565b600033905090565b600073ffffffffffffffffffffffffffffffffffffffff168373ffffffffffffffffffffffffffffffffffffffff16036114a8576040517f08c379a000000000000000000000000000000000000000000000000000000000815260040161149f90612917565b60405180910390fd5b600073ffffffffffffffffffffffffffffffffffffffff168273ffffffffffffffffffffffffffffffffffffffff1603611517576040517f08c379a000000000000000000000000000000000000000000000000000000000815260040161150e906129a9565b60405180910390fd5b80600160008573ffffffffffffffffffffffffffffffffffffffff1673ffffffffffffffffffffffffffffffffffffffff16815260200190815260200160002060008473ffffffffffffffffffffffffffffffffffffffff1673ffffffffffffffffffffffffffffffffffffffff168152602001908152602001600020819055508173ffffffffffffffffffffffffffffffffffffffff168373ffffffffffffffffffffffffffffffffffffffff167f8c5be1e5ebec7d5bd14f71427d1e84f3dd0314c0f7b2291e5b200ac8c7c3b925836040516115f59190611ef6565b60405180910390a3505050565b61160a611431565b73ffffffffffffffffffffffffffffffffffffffff16611628610d16565b73ffffffffffffffffffffffffffffffffffffffff161461167e576040517f08c379a000000000000000000000000000000000000000000000000000000000815260040161167590612a15565b60405180910390fd5b565b600061168c8484610f8a565b90507fffffffffffffffffffffffffffffffffffffffffffffffffffffffffffffffff811461170657818110156116f8576040517f08c379a00000000000000000000000000000000000000000000000000000000081526004016116ef90612a81565b60405180910390fd5b6117058484848403611439565b5b50505050565b600073ffffffffffffffffffffffffffffffffffffffff168373ffffffffffffffffffffffffffffffffffffffff160361177b576040517f08c379a000000000000000000000000000000000000000000000000000000000815260040161177290612b13565b60405180910390fd5b600073ffffffffffffffffffffffffffffffffffffffff168273ffffffffffffffffffffffffffffffffffffffff16036117ea576040517f08c379a00000000000000000000000000000000000000000000000000000000081526004016117e190612ba5565b60405180910390fd5b60008060008573ffffffffffffffffffffffffffffffffffffffff1673ffffffffffffffffffffffffffffffffffffffff16815260200190815260200160002054905081811015611870576040517f08c379a000000000000000000000000000000000000000000000000000000000815260040161186790612c37565b60405180910390fd5b8181036000808673ffffffffffffffffffffffffffffffffffffffff1673ffffffffffffffffffffffffffffffffffffffff16815260200190815260200160002081905550816000808573ffffffffffffffffffffffffffffffffffffffff1673ffffffffffffffffffffffffffffffffffffffff168152602001908152602001600020600082825401925050819055508273ffffffffffffffffffffffffffffffffffffffff168473ffffffffffffffffffffffffffffffffffffffff167fddf252ad1be2c89b69c2b068fc378daa952ba7f163c4a11628f55a4df523b3ef8460405161195e9190611ef6565b60405180910390a350505050565b600080828461197b9190612369565b9050838110156119c0576040517f08c379a00000000000000000000000000000000000000000000000000000000081526004016119b790612ca3565b60405180910390fd5b8091505092915050565b600073ffffffffffffffffffffffffffffffffffffffff168273ffffffffffffffffffffffffffffffffffffffff1603611a39576040517f08c379a0000000000000000000000000000000000000000000000000000000008152600401611a3090612d0f565b60405180910390fd5b8060026000828254611a4b9190612369565b92505081905550806000808473ffffffffffffffffffffffffffffffffffffffff1673ffffffffffffffffffffffffffffffffffffffff168152602001908152602001600020600082825401925050819055508173ffffffffffffffffffffffffffffffffffffffff16600073ffffffffffffffffffffffffffffffffffffffff167fddf252ad1be2c89b69c2b068fc378daa952ba7f163c4a11628f55a4df523b3ef83604051611afc9190611ef6565b60405180910390a35050565b600082821115611b4d576040517f08c379a0000000000000000000000000000000000000000000000000000000008152600401611b4490612d7b565b60405180910390fd5b8183611b599190612d9b565b905092915050565b6000808211611ba5576040517f08c379a0000000000000000000000000000000000000000000000000000000008152600401611b9c90612e1b565b60405180910390fd5b8183611bb19190612e6a565b905092915050565b6000808303611bcb5760009050611c2d565b60008284611bd99190612e9b565b9050828482611be89190612e6a565b14611c28576040517f08c379a0000000000000000000000000000000000000000000000000000000008152600401611c1f90612f4f565b60405180910390fd5b809150505b92915050565b6000600560009054906101000a900473ffffffffffffffffffffffffffffffffffffffff16905081600560006101000a81548173ffffffffffffffffffffffffffffffffffffffff021916908373ffffffffffffffffffffffffffffffffffffffff1602179055508173ffffffffffffffffffffffffffffffffffffffff168173ffffffffffffffffffffffffffffffffffffffff167f8be0079c531659141344cd1fd0a4f28419497f9722a3daafe3b4186f6b6457e060405160405180910390a35050565b600081519050919050565b600082825260208201905092915050565b60005b83811015611d33578082015181840152602081019050611d18565b60008484015250505050565b6000601f19601f8301169050919050565b6000611d5b82611cf9565b611d658185611d04565b9350611d75818560208601611d15565b611d7e81611d3f565b840191505092915050565b60006020820190508181036000830152611da38184611d50565b905092915050565b600080fd5b600073ffffffffffffffffffffffffffffffffffffffff82169050919050565b6000611ddb82611db0565b9050919050565b611deb81611dd0565b8114611df657600080fd5b50565b600081359050611e0881611de2565b92915050565b6000819050919050565b611e2181611e0e565b8114611e2c57600080fd5b50565b600081359050611e3e81611e18565b92915050565b60008060408385031215611e5b57611e5a611dab565b5b6000611e6985828601611df9565b9250506020611e7a85828601611e2f565b9150509250929050565b60008115159050919050565b611e9981611e84565b82525050565b6000602082019050611eb46000830184611e90565b92915050565b600060208284031215611ed057611ecf611dab565b5b6000611ede84828501611df9565b91505092915050565b611ef081611e0e565b82525050565b6000602082019050611f0b6000830184611ee7565b92915050565b600080600060608486031215611f2a57611f29611dab565b5b6000611f3886828701611df9565b9350506020611f4986828701611df9565b9250506040611f5a86828701611e2f565b9150509250925092565b600060ff82169050919050565b611f7a81611f64565b82525050565b6000602082019050611f956000830184611f71565b92915050565b611fa481611dd0565b82525050565b6000602082019050611fbf6000830184611f9b565b92915050565b60008060408385031215611fdc57611fdb611dab565b5b6000611fea85828601611e2f565b9250506020611ffb85828601611e2f565b9150509250929050565b60006020828403121561201b5761201a611dab565b5b600061202984828501611e2f565b91505092915050565b6000806040838503121561204957612048611dab565b5b600061205785828601611df9565b925050602061206885828601611df9565b9150509250929050565b7f4e487b7100000000000000000000000000000000000000000000000000000000600052602260045260246000fd5b600060028204905060018216806120b957607f821691505b6020821081036120cc576120cb612072565b5b50919050565b7f4147554e3a205468697320616464726573732069732063757272656e7420636f60008201527f6d626174206669656c6400000000000000000000000000000000000000000000602082015250565b600061212e602a83611d04565b9150612139826120d2565b604082019050919050565b6000602082019050818103600083015261215d81612121565b9050919050565b7f4147554e3a2043616c6c6572206973206e6f7420746865206661726d2066696560008201527f6c64000000000000000000000000000000000000000000000000000000000000602082015250565b60006121c0602283611d04565b91506121cb82612164565b604082019050919050565b600060208201905081810360008301526121ef816121b3565b9050919050565b7f4147554e3a204f76657220636170206661726d20726577617264000000000000600082015250565b600061222c601a83611d04565b9150612237826121f6565b602082019050919050565b6000602082019050818103600083015261225b8161221f565b9050919050565b7f4147554e3a203078206973206e6f742061636365707465642068657265000000600082015250565b6000612298601d83611d04565b91506122a382612262565b602082019050919050565b600060208201905081810360008301526122c78161228b565b9050919050565b7f4147554e3a2043616e206e6f7420726577617264203020746f6b656e00000000600082015250565b6000612304601c83611d04565b915061230f826122ce565b602082019050919050565b60006020820190508181036000830152612333816122f7565b9050919050565b7f4e487b7100000000000000000000000000000000000000000000000000000000600052601160045260246000fd5b600061237482611e0e565b915061237f83611e0e565b92508282019050808211156123975761239661233a565b5b92915050565b7f4147554e3a204665652063616e206e6f74207365742061626f76652031302500600082015250565b60006123d3601f83611d04565b91506123de8261239d565b602082019050919050565b60006020820190508181036000830152612402816123c6565b9050919050565b7f4147554e3a2043616e6e6f7420666565206d6f7265207468616e203225206f6660008201527f2074686520737570706c79206174206f6e636521000000000000000000000000602082015250565b6000612465603483611d04565b915061247082612409565b604082019050919050565b6000602082019050818103600083015261249481612458565b9050919050565b7f4147554e3a205468697320616464726573732069732063757272656e7420666160008201527f726d206669656c64000000000000000000000000000000000000000000000000602082015250565b60006124f7602883611d04565b91506125028261249b565b604082019050919050565b60006020820190508181036000830152612526816124ea565b9050919050565b7f45524332303a2064656372656173656420616c6c6f77616e63652062656c6f7760008201527f207a65726f000000000000000000000000000000000000000000000000000000602082015250565b6000612589602583611d04565b91506125948261252d565b604082019050919050565b600060208201905081810360008301526125b88161257c565b9050919050565b6000815190506125ce81611e18565b92915050565b6000602082840312156125ea576125e9611dab565b5b60006125f8848285016125bf565b91505092915050565b60006040820190506126166000830185611f9b565b6126236020830184611ee7565b9392505050565b61263381611e84565b811461263e57600080fd5b50565b6000815190506126508161262a565b92915050565b60006020828403121561266c5761266b611dab565b5b600061267a84828501612641565b91505092915050565b7f4147554e3a2043616c6c6572206973206e6f742074686520636f6d626174206660008201527f69656c6400000000000000000000000000000000000000000000000000000000602082015250565b60006126df602483611d04565b91506126ea82612683565b604082019050919050565b6000602082019050818103600083015261270e816126d2565b9050919050565b7f4147554e3a204f7665722063617020636f6d6261742072657761726400000000600082015250565b600061274b601c83611d04565b915061275682612715565b602082019050919050565b6000602082019050818103600083015261277a8161273e565b9050919050565b7f4f776e61626c653a206e6577206f776e657220697320746865207a65726f206160008201527f6464726573730000000000000000000000000000000000000000000000000000602082015250565b60006127dd602683611d04565b91506127e882612781565b604082019050919050565b6000602082019050818103600083015261280c816127d0565b9050919050565b7f4147554e3a205468697320616464726573732069732063757272656e74206f7060008201527f65726174696f6e20616464726573730000000000000000000000000000000000602082015250565b600061286f602f83611d04565b915061287a82612813565b604082019050919050565b6000602082019050818103600083015261289e81612862565b9050919050565b7f45524332303a20617070726f76652066726f6d20746865207a65726f2061646460008201527f7265737300000000000000000000000000000000000000000000000000000000602082015250565b6000612901602483611d04565b915061290c826128a5565b604082019050919050565b60006020820190508181036000830152612930816128f4565b9050919050565b7f45524332303a20617070726f766520746f20746865207a65726f20616464726560008201527f7373000000000000000000000000000000000000000000000000000000000000602082015250565b6000612993602283611d04565b915061299e82612937565b604082019050919050565b600060208201905081810360008301526129c281612986565b9050919050565b7f4f776e61626c653a2063616c6c6572206973206e6f7420746865206f776e6572600082015250565b60006129ff602083611d04565b9150612a0a826129c9565b602082019050919050565b60006020820190508181036000830152612a2e816129f2565b9050919050565b7f45524332303a20696e73756666696369656e7420616c6c6f77616e6365000000600082015250565b6000612a6b601d83611d04565b9150612a7682612a35565b602082019050919050565b60006020820190508181036000830152612a9a81612a5e565b9050919050565b7f45524332303a207472616e736665722066726f6d20746865207a65726f20616460008201527f6472657373000000000000000000000000000000000000000000000000000000602082015250565b6000612afd602583611d04565b9150612b0882612aa1565b604082019050919050565b60006020820190508181036000830152612b2c81612af0565b9050919050565b7f45524332303a207472616e7366657220746f20746865207a65726f206164647260008201527f6573730000000000000000000000000000000000000000000000000000000000602082015250565b6000612b8f602383611d04565b9150612b9a82612b33565b604082019050919050565b60006020820190508181036000830152612bbe81612b82565b9050919050565b7f45524332303a207472616e7366657220616d6f756e742065786365656473206260008201527f616c616e63650000000000000000000000000000000000000000000000000000602082015250565b6000612c21602683611d04565b9150612c2c82612bc5565b604082019050919050565b60006020820190508181036000830152612c5081612c14565b9050919050565b7f536166654d6174683a206164646974696f6e206f766572666c6f770000000000600082015250565b6000612c8d601b83611d04565b9150612c9882612c57565b602082019050919050565b60006020820190508181036000830152612cbc81612c80565b9050919050565b7f45524332303a206d696e7420746f20746865207a65726f206164647265737300600082015250565b6000612cf9601f83611d04565b9150612d0482612cc3565b602082019050919050565b60006020820190508181036000830152612d2881612cec565b9050919050565b7f536166654d6174683a207375627472616374696f6e206f766572666c6f770000600082015250565b6000612d65601e83611d04565b9150612d7082612d2f565b602082019050919050565b60006020820190508181036000830152612d9481612d58565b9050919050565b6000612da682611e0e565b9150612db183611e0e565b9250828203905081811115612dc957612dc861233a565b5b92915050565b7f536166654d6174683a206469766973696f6e206279207a65726f000000000000600082015250565b6000612e05601a83611d04565b9150612e1082612dcf565b602082019050919050565b60006020820190508181036000830152612e3481612df8565b9050919050565b7f4e487b7100000000000000000000000000000000000000000000000000000000600052601260045260246000fd5b6000612e7582611e0e565b9150612e8083611e0e565b925082612e9057612e8f612e3b565b5b828204905092915050565b6000612ea682611e0e565b9150612eb183611e0e565b9250828202612ebf81611e0e565b91508282048414831517612ed657612ed561233a565b5b5092915050565b7f536166654d6174683a206d756c7469706c69636174696f6e206f766572666c6f60008201527f7700000000000000000000000000000000000000000000000000000000000000602082015250565b6000612f39602183611d04565b9150612f4482612edd565b604082019050919050565b60006020820190508181036000830152612f6881612f2c565b905091905056fea2646970667358221220078943880b0c1b1dcd0bed78d9f45d57476fd44c085f476f896ec30e8daca31f64736f6c63430008120033",
			"opcodes": "PUSH1 0x80 PUSH1 0x40 MSTORE PUSH13 0x1431E0FAE6D7217CAA0000000 PUSH1 0x6 SSTORE PUSH12 0x409F9CBC7C4A04C220000000 PUSH1 0x8 SSTORE PUSH12 0x409F9CBC7C4A04C220000000 PUSH1 0xB SSTORE PUSH20 0x74FA728409A172AB9F9D5C695945DF711A2F85E1 PUSH1 0xD PUSH1 0x0 PUSH2 0x100 EXP DUP2 SLOAD DUP2 PUSH20 0xFFFFFFFFFFFFFFFFFFFFFFFFFFFFFFFFFFFFFFFF MUL NOT AND SWAP1 DUP4 PUSH20 0xFFFFFFFFFFFFFFFFFFFFFFFFFFFFFFFFFFFFFFFF AND MUL OR SWAP1 SSTORE POP PUSH11 0x84595161401484A000000 PUSH1 0xE SSTORE PUSH1 0x3C PUSH1 0xF SSTORE PUSH1 0xA PUSH1 0x10 SSTORE CALLVALUE DUP1 ISZERO PUSH3 0xB0 JUMPI PUSH1 0x0 DUP1 REVERT JUMPDEST POP PUSH1 0x40 MLOAD DUP1 PUSH1 0x40 ADD PUSH1 0x40 MSTORE DUP1 PUSH1 0x8 DUP2 MSTORE PUSH1 0x20 ADD PUSH32 0x4172626947756E73000000000000000000000000000000000000000000000000 DUP2 MSTORE POP PUSH1 0x40 MLOAD DUP1 PUSH1 0x40 ADD PUSH1 0x40 MSTORE DUP1 PUSH1 0x4 DUP2 MSTORE PUSH1 0x20 ADD PUSH32 0x4147554E00000000000000000000000000000000000000000000000000000000 DUP2 MSTORE POP DUP2 PUSH1 0x3 SWAP1 DUP2 PUSH3 0x12E SWAP2 SWAP1 PUSH3 0x4B1 JUMP JUMPDEST POP DUP1 PUSH1 0x4 SWAP1 DUP2 PUSH3 0x140 SWAP2 SWAP1 PUSH3 0x4B1 JUMP JUMPDEST POP POP POP PUSH3 0x163 PUSH3 0x157 PUSH3 0x169 PUSH1 0x20 SHL PUSH1 0x20 SHR JUMP JUMPDEST PUSH3 0x171 PUSH1 0x20 SHL PUSH1 0x20 SHR JUMP JUMPDEST PUSH3 0x598 JUMP JUMPDEST PUSH1 0x0 CALLER SWAP1 POP SWAP1 JUMP JUMPDEST PUSH1 0x0 PUSH1 0x5 PUSH1 0x0 SWAP1 SLOAD SWAP1 PUSH2 0x100 EXP SWAP1 DIV PUSH20 0xFFFFFFFFFFFFFFFFFFFFFFFFFFFFFFFFFFFFFFFF AND SWAP1 POP DUP2 PUSH1 0x5 PUSH1 0x0 PUSH2 0x100 EXP DUP2 SLOAD DUP2 PUSH20 0xFFFFFFFFFFFFFFFFFFFFFFFFFFFFFFFFFFFFFFFF MUL NOT AND SWAP1 DUP4 PUSH20 0xFFFFFFFFFFFFFFFFFFFFFFFFFFFFFFFFFFFFFFFF AND MUL OR SWAP1 SSTORE POP DUP2 PUSH20 0xFFFFFFFFFFFFFFFFFFFFFFFFFFFFFFFFFFFFFFFF AND DUP2 PUSH20 0xFFFFFFFFFFFFFFFFFFFFFFFFFFFFFFFFFFFFFFFF AND PUSH32 0x8BE0079C531659141344CD1FD0A4F28419497F9722A3DAAFE3B4186F6B6457E0 PUSH1 0x40 MLOAD PUSH1 0x40 MLOAD DUP1 SWAP2 SUB SWAP1 LOG3 POP POP JUMP JUMPDEST PUSH1 0x0 DUP2 MLOAD SWAP1 POP SWAP2 SWAP1 POP JUMP JUMPDEST PUSH32 0x4E487B7100000000000000000000000000000000000000000000000000000000 PUSH1 0x0 MSTORE PUSH1 0x41 PUSH1 0x4 MSTORE PUSH1 0x24 PUSH1 0x0 REVERT JUMPDEST PUSH32 0x4E487B7100000000000000000000000000000000000000000000000000000000 PUSH1 0x0 MSTORE PUSH1 0x22 PUSH1 0x4 MSTORE PUSH1 0x24 PUSH1 0x0 REVERT JUMPDEST PUSH1 0x0 PUSH1 0x2 DUP3 DIV SWAP1 POP PUSH1 0x1 DUP3 AND DUP1 PUSH3 0x2B9 JUMPI PUSH1 0x7F DUP3 AND SWAP2 POP JUMPDEST PUSH1 0x20 DUP3 LT DUP2 SUB PUSH3 0x2CF JUMPI PUSH3 0x2CE PUSH3 0x271 JUMP JUMPDEST JUMPDEST POP SWAP2 SWAP1 POP JUMP JUMPDEST PUSH1 0x0 DUP2 SWAP1 POP DUP2 PUSH1 0x0 MSTORE PUSH1 0x20 PUSH1 0x0 KECCAK256 SWAP1 POP SWAP2 SWAP1 POP JUMP JUMPDEST PUSH1 0x0 PUSH1 0x20 PUSH1 0x1F DUP4 ADD DIV SWAP1 POP SWAP2 SWAP1 POP JUMP JUMPDEST PUSH1 0x0 DUP3 DUP3 SHL SWAP1 POP SWAP3 SWAP2 POP POP JUMP JUMPDEST PUSH1 0x0 PUSH1 0x8 DUP4 MUL PUSH3 0x339 PUSH32 0xFFFFFFFFFFFFFFFFFFFFFFFFFFFFFFFFFFFFFFFFFFFFFFFFFFFFFFFFFFFFFFFF DUP3 PUSH3 0x2FA JUMP JUMPDEST PUSH3 0x345 DUP7 DUP4 PUSH3 0x2FA JUMP JUMPDEST SWAP6 POP DUP1 NOT DUP5 AND SWAP4 POP DUP1 DUP7 AND DUP5 OR SWAP3 POP POP POP SWAP4 SWAP3 POP POP POP JUMP JUMPDEST PUSH1 0x0 DUP2 SWAP1 POP SWAP2 SWAP1 POP JUMP JUMPDEST PUSH1 0x0 DUP2 SWAP1 POP SWAP2 SWAP1 POP JUMP JUMPDEST PUSH1 0x0 PUSH3 0x392 PUSH3 0x38C PUSH3 0x386 DUP5 PUSH3 0x35D JUMP JUMPDEST PUSH3 0x367 JUMP JUMPDEST PUSH3 0x35D JUMP JUMPDEST SWAP1 POP SWAP2 SWAP1 POP JUMP JUMPDEST PUSH1 0x0 DUP2 SWAP1 POP SWAP2 SWAP1 POP JUMP JUMPDEST PUSH3 0x3AE DUP4 PUSH3 0x371 JUMP JUMPDEST PUSH3 0x3C6 PUSH3 0x3BD DUP3 PUSH3 0x399 JUMP JUMPDEST DUP5 DUP5 SLOAD PUSH3 0x307 JUMP JUMPDEST DUP3 SSTORE POP POP POP POP JUMP JUMPDEST PUSH1 0x0 SWAP1 JUMP JUMPDEST PUSH3 0x3DD PUSH3 0x3CE JUMP JUMPDEST PUSH3 0x3EA DUP2 DUP5 DUP5 PUSH3 0x3A3 JUMP JUMPDEST POP POP POP JUMP JUMPDEST JUMPDEST DUP2 DUP2 LT ISZERO PUSH3 0x412 JUMPI PUSH3 0x406 PUSH1 0x0 DUP3 PUSH3 0x3D3 JUMP JUMPDEST PUSH1 0x1 DUP2 ADD SWAP1 POP PUSH3 0x3F0 JUMP JUMPDEST POP POP JUMP JUMPDEST PUSH1 0x1F DUP3 GT ISZERO PUSH3 0x461 JUMPI PUSH3 0x42B DUP2 PUSH3 0x2D5 JUMP JUMPDEST PUSH3 0x436 DUP5 PUSH3 0x2EA JUMP JUMPDEST DUP2 ADD PUSH1 0x20 DUP6 LT ISZERO PUSH3 0x446 JUMPI DUP2 SWAP1 POP JUMPDEST PUSH3 0x45E PUSH3 0x455 DUP6 PUSH3 0x2EA JUMP JUMPDEST DUP4 ADD DUP3 PUSH3 0x3EF JUMP JUMPDEST POP POP JUMPDEST POP POP POP JUMP JUMPDEST PUSH1 0x0 DUP3 DUP3 SHR SWAP1 POP SWAP3 SWAP2 POP POP JUMP JUMPDEST PUSH1 0x0 PUSH3 0x486 PUSH1 0x0 NOT DUP5 PUSH1 0x8 MUL PUSH3 0x466 JUMP JUMPDEST NOT DUP1 DUP4 AND SWAP2 POP POP SWAP3 SWAP2 POP POP JUMP JUMPDEST PUSH1 0x0 PUSH3 0x4A1 DUP4 DUP4 PUSH3 0x473 JUMP JUMPDEST SWAP2 POP DUP3 PUSH1 0x2 MUL DUP3 OR SWAP1 POP SWAP3 SWAP2 POP POP JUMP JUMPDEST PUSH3 0x4BC DUP3 PUSH3 0x237 JUMP JUMPDEST PUSH8 0xFFFFFFFFFFFFFFFF DUP2 GT ISZERO PUSH3 0x4D8 JUMPI PUSH3 0x4D7 PUSH3 0x242 JUMP JUMPDEST JUMPDEST PUSH3 0x4E4 DUP3 SLOAD PUSH3 0x2A0 JUMP JUMPDEST PUSH3 0x4F1 DUP3 DUP3 DUP6 PUSH3 0x416 JUMP JUMPDEST PUSH1 0x0 PUSH1 0x20 SWAP1 POP PUSH1 0x1F DUP4 GT PUSH1 0x1 DUP2 EQ PUSH3 0x529 JUMPI PUSH1 0x0 DUP5 ISZERO PUSH3 0x514 JUMPI DUP3 DUP8 ADD MLOAD SWAP1 POP JUMPDEST PUSH3 0x520 DUP6 DUP3 PUSH3 0x493 JUMP JUMPDEST DUP7 SSTORE POP PUSH3 0x590 JUMP JUMPDEST PUSH1 0x1F NOT DUP5 AND PUSH3 0x539 DUP7 PUSH3 0x2D5 JUMP JUMPDEST PUSH1 0x0 JUMPDEST DUP3 DUP2 LT ISZERO PUSH3 0x563 JUMPI DUP5 DUP10 ADD MLOAD DUP3 SSTORE PUSH1 0x1 DUP3 ADD SWAP2 POP PUSH1 0x20 DUP6 ADD SWAP5 POP PUSH1 0x20 DUP2 ADD SWAP1 POP PUSH3 0x53C JUMP JUMPDEST DUP7 DUP4 LT ISZERO PUSH3 0x583 JUMPI DUP5 DUP10 ADD MLOAD PUSH3 0x57F PUSH1 0x1F DUP10 AND DUP3 PUSH3 0x473 JUMP JUMPDEST DUP4 SSTORE POP JUMPDEST PUSH1 0x1 PUSH1 0x2 DUP9 MUL ADD DUP9 SSTORE POP POP POP JUMPDEST POP POP POP POP POP POP JUMP JUMPDEST PUSH2 0x2FA5 DUP1 PUSH3 0x5A8 PUSH1 0x0 CODECOPY PUSH1 0x0 RETURN INVALID PUSH1 0x80 PUSH1 0x40 MSTORE CALLVALUE DUP1 ISZERO PUSH2 0x10 JUMPI PUSH1 0x0 DUP1 REVERT JUMPDEST POP PUSH1 0x4 CALLDATASIZE LT PUSH2 0x1CF JUMPI PUSH1 0x0 CALLDATALOAD PUSH1 0xE0 SHR DUP1 PUSH4 0x70A08231 GT PUSH2 0x104 JUMPI DUP1 PUSH4 0xCCEC3716 GT PUSH2 0xA2 JUMPI DUP1 PUSH4 0xE15BE466 GT PUSH2 0x71 JUMPI DUP1 PUSH4 0xE15BE466 EQ PUSH2 0x584 JUMPI DUP1 PUSH4 0xF2C2533C EQ PUSH2 0x5A2 JUMPI DUP1 PUSH4 0xF2FDE38B EQ PUSH2 0x5BE JUMPI DUP1 PUSH4 0xF6BC9624 EQ PUSH2 0x5DA JUMPI PUSH2 0x1CF JUMP JUMPDEST DUP1 PUSH4 0xCCEC3716 EQ PUSH2 0x4E8 JUMPI DUP1 PUSH4 0xD5ABEB01 EQ PUSH2 0x518 JUMPI DUP1 PUSH4 0xDD62ED3E EQ PUSH2 0x536 JUMPI DUP1 PUSH4 0xE042AD58 EQ PUSH2 0x566 JUMPI PUSH2 0x1CF JUMP JUMPDEST DUP1 PUSH4 0x8DA5CB5B GT PUSH2 0xDE JUMPI DUP1 PUSH4 0x8DA5CB5B EQ PUSH2 0x44C JUMPI DUP1 PUSH4 0x95D89B41 EQ PUSH2 0x46A JUMPI DUP1 PUSH4 0xA457C2D7 EQ PUSH2 0x488 JUMPI DUP1 PUSH4 0xA9059CBB EQ PUSH2 0x4B8 JUMPI PUSH2 0x1CF JUMP JUMPDEST DUP1 PUSH4 0x70A08231 EQ PUSH2 0x3E2 JUMPI DUP1 PUSH4 0x715018A6 EQ PUSH2 0x412 JUMPI DUP1 PUSH4 0x7E3781AE EQ PUSH2 0x41C JUMPI PUSH2 0x1CF JUMP JUMPDEST DUP1 PUSH4 0x326DC45D GT PUSH2 0x171 JUMPI DUP1 PUSH4 0x641EC2F4 GT PUSH2 0x14B JUMPI DUP1 PUSH4 0x641EC2F4 EQ PUSH2 0x346 JUMPI DUP1 PUSH4 0x6A316213 EQ PUSH2 0x364 JUMPI DUP1 PUSH4 0x6B1B4987 EQ PUSH2 0x394 JUMPI DUP1 PUSH4 0x6BB07C73 EQ PUSH2 0x3B2 JUMPI PUSH2 0x1CF JUMP JUMPDEST DUP1 PUSH4 0x326DC45D EQ PUSH2 0x2DC JUMPI DUP1 PUSH4 0x39509351 EQ PUSH2 0x2F8 JUMPI DUP1 PUSH4 0x5B149FEB EQ PUSH2 0x328 JUMPI PUSH2 0x1CF JUMP JUMPDEST DUP1 PUSH4 0x18160DDD GT PUSH2 0x1AD JUMPI DUP1 PUSH4 0x18160DDD EQ PUSH2 0x252 JUMPI DUP1 PUSH4 0x20800A00 EQ PUSH2 0x270 JUMPI DUP1 PUSH4 0x23B872DD EQ PUSH2 0x28E JUMPI DUP1 PUSH4 0x313CE567 EQ PUSH2 0x2BE JUMPI PUSH2 0x1CF JUMP JUMPDEST DUP1 PUSH4 0x6FDDE03 EQ PUSH2 0x1D4 JUMPI DUP1 PUSH4 0x95EA7B3 EQ PUSH2 0x1F2 JUMPI DUP1 PUSH4 0x168051FD EQ PUSH2 0x222 JUMPI JUMPDEST PUSH1 0x0 DUP1 REVERT JUMPDEST PUSH2 0x1DC PUSH2 0x60A JUMP JUMPDEST PUSH1 0x40 MLOAD PUSH2 0x1E9 SWAP2 SWAP1 PUSH2 0x1D89 JUMP JUMPDEST PUSH1 0x40 MLOAD DUP1 SWAP2 SUB SWAP1 RETURN JUMPDEST PUSH2 0x20C PUSH1 0x4 DUP1 CALLDATASIZE SUB DUP2 ADD SWAP1 PUSH2 0x207 SWAP2 SWAP1 PUSH2 0x1E44 JUMP JUMPDEST PUSH2 0x69C JUMP JUMPDEST PUSH1 0x40 MLOAD PUSH2 0x219 SWAP2 SWAP1 PUSH2 0x1E9F JUMP JUMPDEST PUSH1 0x40 MLOAD DUP1 SWAP2 SUB SWAP1 RETURN JUMPDEST PUSH2 0x23C PUSH1 0x4 DUP1 CALLDATASIZE SUB DUP2 ADD SWAP1 PUSH2 0x237 SWAP2 SWAP1 PUSH2 0x1EBA JUMP JUMPDEST PUSH2 0x6BF JUMP JUMPDEST PUSH1 0x40 MLOAD PUSH2 0x249 SWAP2 SWAP1 PUSH2 0x1E9F JUMP JUMPDEST PUSH1 0x40 MLOAD DUP1 SWAP2 SUB SWAP1 RETURN JUMPDEST PUSH2 0x25A PUSH2 0x7A3 JUMP JUMPDEST PUSH1 0x40 MLOAD PUSH2 0x267 SWAP2 SWAP1 PUSH2 0x1EF6 JUMP JUMPDEST PUSH1 0x40 MLOAD DUP1 SWAP2 SUB SWAP1 RETURN JUMPDEST PUSH2 0x278 PUSH2 0x7AD JUMP JUMPDEST PUSH1 0x40 MLOAD PUSH2 0x285 SWAP2 SWAP1 PUSH2 0x1E9F JUMP JUMPDEST PUSH1 0x40 MLOAD DUP1 SWAP2 SUB SWAP1 RETURN JUMPDEST PUSH2 0x2A8 PUSH1 0x4 DUP1 CALLDATASIZE SUB DUP2 ADD SWAP1 PUSH2 0x2A3 SWAP2 SWAP1 PUSH2 0x1F11 JUMP JUMPDEST PUSH2 0x80C JUMP JUMPDEST PUSH1 0x40 MLOAD PUSH2 0x2B5 SWAP2 SWAP1 PUSH2 0x1E9F JUMP JUMPDEST PUSH1 0x40 MLOAD DUP1 SWAP2 SUB SWAP1 RETURN JUMPDEST PUSH2 0x2C6 PUSH2 0x83B JUMP JUMPDEST PUSH1 0x40 MLOAD PUSH2 0x2D3 SWAP2 SWAP1 PUSH2 0x1F80 JUMP JUMPDEST PUSH1 0x40 MLOAD DUP1 SWAP2 SUB SWAP1 RETURN JUMPDEST PUSH2 0x2F6 PUSH1 0x4 DUP1 CALLDATASIZE SUB DUP2 ADD SWAP1 PUSH2 0x2F1 SWAP2 SWAP1 PUSH2 0x1E44 JUMP JUMPDEST PUSH2 0x844 JUMP JUMPDEST STOP JUMPDEST PUSH2 0x312 PUSH1 0x4 DUP1 CALLDATASIZE SUB DUP2 ADD SWAP1 PUSH2 0x30D SWAP2 SWAP1 PUSH2 0x1E44 JUMP JUMPDEST PUSH2 0xA42 JUMP JUMPDEST PUSH1 0x40 MLOAD PUSH2 0x31F SWAP2 SWAP1 PUSH2 0x1E9F JUMP JUMPDEST PUSH1 0x40 MLOAD DUP1 SWAP2 SUB SWAP1 RETURN JUMPDEST PUSH2 0x330 PUSH2 0xA79 JUMP JUMPDEST PUSH1 0x40 MLOAD PUSH2 0x33D SWAP2 SWAP1 PUSH2 0x1EF6 JUMP JUMPDEST PUSH1 0x40 MLOAD DUP1 SWAP2 SUB SWAP1 RETURN JUMPDEST PUSH2 0x34E PUSH2 0xA7F JUMP JUMPDEST PUSH1 0x40 MLOAD PUSH2 0x35B SWAP2 SWAP1 PUSH2 0x1FAA JUMP JUMPDEST PUSH1 0x40 MLOAD DUP1 SWAP2 SUB SWAP1 RETURN JUMPDEST PUSH2 0x37E PUSH1 0x4 DUP1 CALLDATASIZE SUB DUP2 ADD SWAP1 PUSH2 0x379 SWAP2 SWAP1 PUSH2 0x1FC5 JUMP JUMPDEST PUSH2 0xAA5 JUMP JUMPDEST PUSH1 0x40 MLOAD PUSH2 0x38B SWAP2 SWAP1 PUSH2 0x1E9F JUMP JUMPDEST PUSH1 0x40 MLOAD DUP1 SWAP2 SUB SWAP1 RETURN JUMPDEST PUSH2 0x39C PUSH2 0xB16 JUMP JUMPDEST PUSH1 0x40 MLOAD PUSH2 0x3A9 SWAP2 SWAP1 PUSH2 0x1EF6 JUMP JUMPDEST PUSH1 0x40 MLOAD DUP1 SWAP2 SUB SWAP1 RETURN JUMPDEST PUSH2 0x3CC PUSH1 0x4 DUP1 CALLDATASIZE SUB DUP2 ADD SWAP1 PUSH2 0x3C7 SWAP2 SWAP1 PUSH2 0x2005 JUMP JUMPDEST PUSH2 0xB1C JUMP JUMPDEST PUSH1 0x40 MLOAD PUSH2 0x3D9 SWAP2 SWAP1 PUSH2 0x1E9F JUMP JUMPDEST PUSH1 0x40 MLOAD DUP1 SWAP2 SUB SWAP1 RETURN JUMPDEST PUSH2 0x3FC PUSH1 0x4 DUP1 CALLDATASIZE SUB DUP2 ADD SWAP1 PUSH2 0x3F7 SWAP2 SWAP1 PUSH2 0x1EBA JUMP JUMPDEST PUSH2 0xBD6 JUMP JUMPDEST PUSH1 0x40 MLOAD PUSH2 0x409 SWAP2 SWAP1 PUSH2 0x1EF6 JUMP JUMPDEST PUSH1 0x40 MLOAD DUP1 SWAP2 SUB SWAP1 RETURN JUMPDEST PUSH2 0x41A PUSH2 0xC1E JUMP JUMPDEST STOP JUMPDEST PUSH2 0x436 PUSH1 0x4 DUP1 CALLDATASIZE SUB DUP2 ADD SWAP1 PUSH2 0x431 SWAP2 SWAP1 PUSH2 0x1EBA JUMP JUMPDEST PUSH2 0xC32 JUMP JUMPDEST PUSH1 0x40 MLOAD PUSH2 0x443 SWAP2 SWAP1 PUSH2 0x1E9F JUMP JUMPDEST PUSH1 0x40 MLOAD DUP1 SWAP2 SUB SWAP1 RETURN JUMPDEST PUSH2 0x454 PUSH2 0xD16 JUMP JUMPDEST PUSH1 0x40 MLOAD PUSH2 0x461 SWAP2 SWAP1 PUSH2 0x1FAA JUMP JUMPDEST PUSH1 0x40 MLOAD DUP1 SWAP2 SUB SWAP1 RETURN JUMPDEST PUSH2 0x472 PUSH2 0xD40 JUMP JUMPDEST PUSH1 0x40 MLOAD PUSH2 0x47F SWAP2 SWAP1 PUSH2 0x1D89 JUMP JUMPDEST PUSH1 0x40 MLOAD DUP1 SWAP2 SUB SWAP1 RETURN JUMPDEST PUSH2 0x4A2 PUSH1 0x4 DUP1 CALLDATASIZE SUB DUP2 ADD SWAP1 PUSH2 0x49D SWAP2 SWAP1 PUSH2 0x1E44 JUMP JUMPDEST PUSH2 0xDD2 JUMP JUMPDEST PUSH1 0x40 MLOAD PUSH2 0x4AF SWAP2 SWAP1 PUSH2 0x1E9F JUMP JUMPDEST PUSH1 0x40 MLOAD DUP1 SWAP2 SUB SWAP1 RETURN JUMPDEST PUSH2 0x4D2 PUSH1 0x4 DUP1 CALLDATASIZE SUB DUP2 ADD SWAP1 PUSH2 0x4CD SWAP2 SWAP1 PUSH2 0x1E44 JUMP JUMPDEST PUSH2 0xE49 JUMP JUMPDEST PUSH1 0x40 MLOAD PUSH2 0x4DF SWAP2 SWAP1 PUSH2 0x1E9F JUMP JUMPDEST PUSH1 0x40 MLOAD DUP1 SWAP2 SUB SWAP1 RETURN JUMPDEST PUSH2 0x502 PUSH1 0x4 DUP1 CALLDATASIZE SUB DUP2 ADD SWAP1 PUSH2 0x4FD SWAP2 SWAP1 PUSH2 0x1EBA JUMP JUMPDEST PUSH2 0xE6C JUMP JUMPDEST PUSH1 0x40 MLOAD PUSH2 0x50F SWAP2 SWAP1 PUSH2 0x1E9F JUMP JUMPDEST PUSH1 0x40 MLOAD DUP1 SWAP2 SUB SWAP1 RETURN JUMPDEST PUSH2 0x520 PUSH2 0xF84 JUMP JUMPDEST PUSH1 0x40 MLOAD PUSH2 0x52D SWAP2 SWAP1 PUSH2 0x1EF6 JUMP JUMPDEST PUSH1 0x40 MLOAD DUP1 SWAP2 SUB SWAP1 RETURN JUMPDEST PUSH2 0x550 PUSH1 0x4 DUP1 CALLDATASIZE SUB DUP2 ADD SWAP1 PUSH2 0x54B SWAP2 SWAP1 PUSH2 0x2032 JUMP JUMPDEST PUSH2 0xF8A JUMP JUMPDEST PUSH1 0x40 MLOAD PUSH2 0x55D SWAP2 SWAP1 PUSH2 0x1EF6 JUMP JUMPDEST PUSH1 0x40 MLOAD DUP1 SWAP2 SUB SWAP1 RETURN JUMPDEST PUSH2 0x56E PUSH2 0x1011 JUMP JUMPDEST PUSH1 0x40 MLOAD PUSH2 0x57B SWAP2 SWAP1 PUSH2 0x1FAA JUMP JUMPDEST PUSH1 0x40 MLOAD DUP1 SWAP2 SUB SWAP1 RETURN JUMPDEST PUSH2 0x58C PUSH2 0x1037 JUMP JUMPDEST PUSH1 0x40 MLOAD PUSH2 0x599 SWAP2 SWAP1 PUSH2 0x1FAA JUMP JUMPDEST PUSH1 0x40 MLOAD DUP1 SWAP2 SUB SWAP1 RETURN JUMPDEST PUSH2 0x5BC PUSH1 0x4 DUP1 CALLDATASIZE SUB DUP2 ADD SWAP1 PUSH2 0x5B7 SWAP2 SWAP1 PUSH2 0x1E44 JUMP JUMPDEST PUSH2 0x105D JUMP JUMPDEST STOP JUMPDEST PUSH2 0x5D8 PUSH1 0x4 DUP1 CALLDATASIZE SUB DUP2 ADD SWAP1 PUSH2 0x5D3 SWAP2 SWAP1 PUSH2 0x1EBA JUMP JUMPDEST PUSH2 0x125B JUMP JUMPDEST STOP JUMPDEST PUSH2 0x5F4 PUSH1 0x4 DUP1 CALLDATASIZE SUB DUP2 ADD SWAP1 PUSH2 0x5EF SWAP2 SWAP1 PUSH2 0x1EBA JUMP JUMPDEST PUSH2 0x12DE JUMP JUMPDEST PUSH1 0x40 MLOAD PUSH2 0x601 SWAP2 SWAP1 PUSH2 0x1E9F JUMP JUMPDEST PUSH1 0x40 MLOAD DUP1 SWAP2 SUB SWAP1 RETURN JUMPDEST PUSH1 0x60 PUSH1 0x3 DUP1 SLOAD PUSH2 0x619 SWAP1 PUSH2 0x20A1 JUMP JUMPDEST DUP1 PUSH1 0x1F ADD PUSH1 0x20 DUP1 SWAP2 DIV MUL PUSH1 0x20 ADD PUSH1 0x40 MLOAD SWAP1 DUP2 ADD PUSH1 0x40 MSTORE DUP1 SWAP3 SWAP2 SWAP1 DUP2 DUP2 MSTORE PUSH1 0x20 ADD DUP3 DUP1 SLOAD PUSH2 0x645 SWAP1 PUSH2 0x20A1 JUMP JUMPDEST DUP1 ISZERO PUSH2 0x692 JUMPI DUP1 PUSH1 0x1F LT PUSH2 0x667 JUMPI PUSH2 0x100 DUP1 DUP4 SLOAD DIV MUL DUP4 MSTORE SWAP2 PUSH1 0x20 ADD SWAP2 PUSH2 0x692 JUMP JUMPDEST DUP3 ADD SWAP2 SWAP1 PUSH1 0x0 MSTORE PUSH1 0x20 PUSH1 0x0 KECCAK256 SWAP1 JUMPDEST DUP2 SLOAD DUP2 MSTORE SWAP1 PUSH1 0x1 ADD SWAP1 PUSH1 0x20 ADD DUP1 DUP4 GT PUSH2 0x675 JUMPI DUP3 SWAP1 SUB PUSH1 0x1F AND DUP3 ADD SWAP2 JUMPDEST POP POP POP POP POP SWAP1 POP SWAP1 JUMP JUMPDEST PUSH1 0x0 DUP1 PUSH2 0x6A7 PUSH2 0x1431 JUMP JUMPDEST SWAP1 POP PUSH2 0x6B4 DUP2 DUP6 DUP6 PUSH2 0x1439 JUMP JUMPDEST PUSH1 0x1 SWAP2 POP POP SWAP3 SWAP2 POP POP JUMP JUMPDEST PUSH1 0x0 PUSH2 0x6C9 PUSH2 0x1602 JUMP JUMPDEST PUSH1 0xA PUSH1 0x0 SWAP1 SLOAD SWAP1 PUSH2 0x100 EXP SWAP1 DIV PUSH20 0xFFFFFFFFFFFFFFFFFFFFFFFFFFFFFFFFFFFFFFFF AND PUSH20 0xFFFFFFFFFFFFFFFFFFFFFFFFFFFFFFFFFFFFFFFF AND DUP3 PUSH20 0xFFFFFFFFFFFFFFFFFFFFFFFFFFFFFFFFFFFFFFFF AND SUB PUSH2 0x759 JUMPI PUSH1 0x40 MLOAD PUSH32 0x8C379A000000000000000000000000000000000000000000000000000000000 DUP2 MSTORE PUSH1 0x4 ADD PUSH2 0x750 SWAP1 PUSH2 0x2144 JUMP JUMPDEST PUSH1 0x40 MLOAD DUP1 SWAP2 SUB SWAP1 REVERT JUMPDEST DUP2 PUSH1 0xA PUSH1 0x0 PUSH2 0x100 EXP DUP2 SLOAD DUP2 PUSH20 0xFFFFFFFFFFFFFFFFFFFFFFFFFFFFFFFFFFFFFFFF MUL NOT AND SWAP1 DUP4 PUSH20 0xFFFFFFFFFFFFFFFFFFFFFFFFFFFFFFFFFFFFFFFF AND MUL OR SWAP1 SSTORE POP PUSH1 0x1 SWAP1 POP SWAP2 SWAP1 POP JUMP JUMPDEST PUSH1 0x0 PUSH1 0x2 SLOAD SWAP1 POP SWAP1 JUMP JUMPDEST PUSH1 0x0 PUSH2 0x7B7 PUSH2 0x1602 JUMP JUMPDEST PUSH2 0x7BF PUSH2 0x1431 JUMP JUMPDEST PUSH20 0xFFFFFFFFFFFFFFFFFFFFFFFFFFFFFFFFFFFFFFFF AND PUSH2 0x8FC SELFBALANCE SWAP1 DUP2 ISZERO MUL SWAP1 PUSH1 0x40 MLOAD PUSH1 0x0 PUSH1 0x40 MLOAD DUP1 DUP4 SUB DUP2 DUP6 DUP9 DUP9 CALL SWAP4 POP POP POP POP ISZERO DUP1 ISZERO PUSH2 0x804 JUMPI RETURNDATASIZE PUSH1 0x0 DUP1 RETURNDATACOPY RETURNDATASIZE PUSH1 0x0 REVERT JUMPDEST POP PUSH1 0x1 SWAP1 POP SWAP1 JUMP JUMPDEST PUSH1 0x0 DUP1 PUSH2 0x817 PUSH2 0x1431 JUMP JUMPDEST SWAP1 POP PUSH2 0x824 DUP6 DUP3 DUP6 PUSH2 0x1680 JUMP JUMPDEST PUSH2 0x82F DUP6 DUP6 DUP6 PUSH2 0x170C JUMP JUMPDEST PUSH1 0x1 SWAP2 POP POP SWAP4 SWAP3 POP POP POP JUMP JUMPDEST PUSH1 0x0 PUSH1 0x12 SWAP1 POP SWAP1 JUMP JUMPDEST PUSH1 0x7 PUSH1 0x0 SWAP1 SLOAD SWAP1 PUSH2 0x100 EXP SWAP1 DIV PUSH20 0xFFFFFFFFFFFFFFFFFFFFFFFFFFFFFFFFFFFFFFFF AND PUSH20 0xFFFFFFFFFFFFFFFFFFFFFFFFFFFFFFFFFFFFFFFF AND PUSH2 0x885 PUSH2 0x1431 JUMP JUMPDEST PUSH20 0xFFFFFFFFFFFFFFFFFFFFFFFFFFFFFFFFFFFFFFFF AND EQ PUSH2 0x8DB JUMPI PUSH1 0x40 MLOAD PUSH32 0x8C379A000000000000000000000000000000000000000000000000000000000 DUP2 MSTORE PUSH1 0x4 ADD PUSH2 0x8D2 SWAP1 PUSH2 0x21D6 JUMP JUMPDEST PUSH1 0x40 MLOAD DUP1 SWAP2 SUB SWAP1 REVERT JUMPDEST PUSH1 0x9 SLOAD PUSH1 0x8 SLOAD GT PUSH2 0x921 JUMPI PUSH1 0x40 MLOAD PUSH32 0x8C379A000000000000000000000000000000000000000000000000000000000 DUP2 MSTORE PUSH1 0x4 ADD PUSH2 0x918 SWAP1 PUSH2 0x2242 JUMP JUMPDEST PUSH1 0x40 MLOAD DUP1 SWAP2 SUB SWAP1 REVERT JUMPDEST PUSH1 0x0 PUSH20 0xFFFFFFFFFFFFFFFFFFFFFFFFFFFFFFFFFFFFFFFF AND DUP3 PUSH20 0xFFFFFFFFFFFFFFFFFFFFFFFFFFFFFFFFFFFFFFFF AND SUB PUSH2 0x990 JUMPI PUSH1 0x40 MLOAD PUSH32 0x8C379A000000000000000000000000000000000000000000000000000000000 DUP2 MSTORE PUSH1 0x4 ADD PUSH2 0x987 SWAP1 PUSH2 0x22AE JUMP JUMPDEST PUSH1 0x40 MLOAD DUP1 SWAP2 SUB SWAP1 REVERT JUMPDEST PUSH1 0x0 DUP2 GT PUSH2 0x9D3 JUMPI PUSH1 0x40 MLOAD PUSH32 0x8C379A000000000000000000000000000000000000000000000000000000000 DUP2 MSTORE PUSH1 0x4 ADD PUSH2 0x9CA SWAP1 PUSH2 0x231A JUMP JUMPDEST PUSH1 0x40 MLOAD DUP1 SWAP2 SUB SWAP1 REVERT JUMPDEST PUSH1 0x0 PUSH1 0x9 SLOAD SWAP1 POP PUSH2 0x9EF DUP3 PUSH1 0x9 SLOAD PUSH2 0x196C SWAP1 SWAP2 SWAP1 PUSH4 0xFFFFFFFF AND JUMP JUMPDEST PUSH1 0x9 DUP2 SWAP1 SSTORE POP PUSH1 0x8 SLOAD PUSH1 0x9 SLOAD GT PUSH2 0xA0F JUMPI PUSH2 0xA0A DUP4 DUP4 PUSH2 0x19CA JUMP JUMPDEST PUSH2 0xA3D JUMP JUMPDEST PUSH1 0x0 PUSH2 0xA26 DUP3 PUSH1 0x8 SLOAD PUSH2 0x1B08 SWAP1 SWAP2 SWAP1 PUSH4 0xFFFFFFFF AND JUMP JUMPDEST SWAP1 POP PUSH2 0xA32 DUP5 DUP3 PUSH2 0x19CA JUMP JUMPDEST PUSH1 0x8 SLOAD PUSH1 0x9 DUP2 SWAP1 SSTORE POP POP JUMPDEST POP POP POP JUMP JUMPDEST PUSH1 0x0 DUP1 PUSH2 0xA4D PUSH2 0x1431 JUMP JUMPDEST SWAP1 POP PUSH2 0xA6E DUP2 DUP6 DUP6 PUSH2 0xA5F DUP6 DUP10 PUSH2 0xF8A JUMP JUMPDEST PUSH2 0xA69 SWAP2 SWAP1 PUSH2 0x2369 JUMP JUMPDEST PUSH2 0x1439 JUMP JUMPDEST PUSH1 0x1 SWAP2 POP POP SWAP3 SWAP2 POP POP JUMP JUMPDEST PUSH1 0xF SLOAD DUP2 JUMP JUMPDEST PUSH1 0x7 PUSH1 0x0 SWAP1 SLOAD SWAP1 PUSH2 0x100 EXP SWAP1 DIV PUSH20 0xFFFFFFFFFFFFFFFFFFFFFFFFFFFFFFFFFFFFFFFF AND DUP2 JUMP JUMPDEST PUSH1 0x0 PUSH2 0xAAF PUSH2 0x1602 JUMP JUMPDEST PUSH1 0x64 DUP3 DUP5 PUSH2 0xABD SWAP2 SWAP1 PUSH2 0x2369 JUMP JUMPDEST GT ISZERO PUSH2 0xAFE JUMPI PUSH1 0x40 MLOAD PUSH32 0x8C379A000000000000000000000000000000000000000000000000000000000 DUP2 MSTORE PUSH1 0x4 ADD PUSH2 0xAF5 SWAP1 PUSH2 0x23E9 JUMP JUMPDEST PUSH1 0x40 MLOAD DUP1 SWAP2 SUB SWAP1 REVERT JUMPDEST DUP3 PUSH1 0xF DUP2 SWAP1 SSTORE POP DUP2 PUSH1 0x10 DUP2 SWAP1 SSTORE POP PUSH1 0x1 SWAP1 POP SWAP3 SWAP2 POP POP JUMP JUMPDEST PUSH1 0x10 SLOAD DUP2 JUMP JUMPDEST PUSH1 0x0 PUSH2 0xB26 PUSH2 0x1602 JUMP JUMPDEST PUSH2 0xB6A PUSH1 0x14 PUSH2 0xB5C PUSH2 0x3E8 PUSH2 0xB4E PUSH8 0xDE0B6B3A7640000 PUSH1 0x6 SLOAD PUSH2 0x1B61 SWAP1 SWAP2 SWAP1 PUSH4 0xFFFFFFFF AND JUMP JUMPDEST PUSH2 0x1B61 SWAP1 SWAP2 SWAP1 PUSH4 0xFFFFFFFF AND JUMP JUMPDEST PUSH2 0x1BB9 SWAP1 SWAP2 SWAP1 PUSH4 0xFFFFFFFF AND JUMP JUMPDEST DUP3 GT ISZERO PUSH2 0xBAC JUMPI PUSH1 0x40 MLOAD PUSH32 0x8C379A000000000000000000000000000000000000000000000000000000000 DUP2 MSTORE PUSH1 0x4 ADD PUSH2 0xBA3 SWAP1 PUSH2 0x247B JUMP JUMPDEST PUSH1 0x40 MLOAD DUP1 SWAP2 SUB SWAP1 REVERT JUMPDEST PUSH2 0xBC7 PUSH8 0xDE0B6B3A7640000 DUP4 PUSH2 0x1BB9 SWAP1 SWAP2 SWAP1 PUSH4 0xFFFFFFFF AND JUMP JUMPDEST PUSH1 0xE DUP2 SWAP1 SSTORE POP PUSH1 0x1 SWAP1 POP SWAP2 SWAP1 POP JUMP JUMPDEST PUSH1 0x0 DUP1 PUSH1 0x0 DUP4 PUSH20 0xFFFFFFFFFFFFFFFFFFFFFFFFFFFFFFFFFFFFFFFF AND PUSH20 0xFFFFFFFFFFFFFFFFFFFFFFFFFFFFFFFFFFFFFFFF AND DUP2 MSTORE PUSH1 0x20 ADD SWAP1 DUP2 MSTORE PUSH1 0x20 ADD PUSH1 0x0 KECCAK256 SLOAD SWAP1 POP SWAP2 SWAP1 POP JUMP JUMPDEST PUSH2 0xC26 PUSH2 0x1602 JUMP JUMPDEST PUSH2 0xC30 PUSH1 0x0 PUSH2 0x1C33 JUMP JUMPDEST JUMP JUMPDEST PUSH1 0x0 PUSH2 0xC3C PUSH2 0x1602 JUMP JUMPDEST PUSH1 0x7 PUSH1 0x0 SWAP1 SLOAD SWAP1 PUSH2 0x100 EXP SWAP1 DIV PUSH20 0xFFFFFFFFFFFFFFFFFFFFFFFFFFFFFFFFFFFFFFFF AND PUSH20 0xFFFFFFFFFFFFFFFFFFFFFFFFFFFFFFFFFFFFFFFF AND DUP3 PUSH20 0xFFFFFFFFFFFFFFFFFFFFFFFFFFFFFFFFFFFFFFFF AND SUB PUSH2 0xCCC JUMPI PUSH1 0x40 MLOAD PUSH32 0x8C379A000000000000000000000000000000000000000000000000000000000 DUP2 MSTORE PUSH1 0x4 ADD PUSH2 0xCC3 SWAP1 PUSH2 0x250D JUMP JUMPDEST PUSH1 0x40 MLOAD DUP1 SWAP2 SUB SWAP1 REVERT JUMPDEST DUP2 PUSH1 0x7 PUSH1 0x0 PUSH2 0x100 EXP DUP2 SLOAD DUP2 PUSH20 0xFFFFFFFFFFFFFFFFFFFFFFFFFFFFFFFFFFFFFFFF MUL NOT AND SWAP1 DUP4 PUSH20 0xFFFFFFFFFFFFFFFFFFFFFFFFFFFFFFFFFFFFFFFF AND MUL OR SWAP1 SSTORE POP PUSH1 0x1 SWAP1 POP SWAP2 SWAP1 POP JUMP JUMPDEST PUSH1 0x0 PUSH1 0x5 PUSH1 0x0 SWAP1 SLOAD SWAP1 PUSH2 0x100 EXP SWAP1 DIV PUSH20 0xFFFFFFFFFFFFFFFFFFFFFFFFFFFFFFFFFFFFFFFF AND SWAP1 POP SWAP1 JUMP JUMPDEST PUSH1 0x60 PUSH1 0x4 DUP1 SLOAD PUSH2 0xD4F SWAP1 PUSH2 0x20A1 JUMP JUMPDEST DUP1 PUSH1 0x1F ADD PUSH1 0x20 DUP1 SWAP2 DIV MUL PUSH1 0x20 ADD PUSH1 0x40 MLOAD SWAP1 DUP2 ADD PUSH1 0x40 MSTORE DUP1 SWAP3 SWAP2 SWAP1 DUP2 DUP2 MSTORE PUSH1 0x20 ADD DUP3 DUP1 SLOAD PUSH2 0xD7B SWAP1 PUSH2 0x20A1 JUMP JUMPDEST DUP1 ISZERO PUSH2 0xDC8 JUMPI DUP1 PUSH1 0x1F LT PUSH2 0xD9D JUMPI PUSH2 0x100 DUP1 DUP4 SLOAD DIV MUL DUP4 MSTORE SWAP2 PUSH1 0x20 ADD SWAP2 PUSH2 0xDC8 JUMP JUMPDEST DUP3 ADD SWAP2 SWAP1 PUSH1 0x0 MSTORE PUSH1 0x20 PUSH1 0x0 KECCAK256 SWAP1 JUMPDEST DUP2 SLOAD DUP2 MSTORE SWAP1 PUSH1 0x1 ADD SWAP1 PUSH1 0x20 ADD DUP1 DUP4 GT PUSH2 0xDAB JUMPI DUP3 SWAP1 SUB PUSH1 0x1F AND DUP3 ADD SWAP2 JUMPDEST POP POP POP POP POP SWAP1 POP SWAP1 JUMP JUMPDEST PUSH1 0x0 DUP1 PUSH2 0xDDD PUSH2 0x1431 JUMP JUMPDEST SWAP1 POP PUSH1 0x0 PUSH2 0xDEB DUP3 DUP7 PUSH2 0xF8A JUMP JUMPDEST SWAP1 POP DUP4 DUP2 LT ISZERO PUSH2 0xE30 JUMPI PUSH1 0x40 MLOAD PUSH32 0x8C379A000000000000000000000000000000000000000000000000000000000 DUP2 MSTORE PUSH1 0x4 ADD PUSH2 0xE27 SWAP1 PUSH2 0x259F JUMP JUMPDEST PUSH1 0x40 MLOAD DUP1 SWAP2 SUB SWAP1 REVERT JUMPDEST PUSH2 0xE3D DUP3 DUP7 DUP7 DUP5 SUB PUSH2 0x1439 JUMP JUMPDEST PUSH1 0x1 SWAP3 POP POP POP SWAP3 SWAP2 POP POP JUMP JUMPDEST PUSH1 0x0 DUP1 PUSH2 0xE54 PUSH2 0x1431 JUMP JUMPDEST SWAP1 POP PUSH2 0xE61 DUP2 DUP6 DUP6 PUSH2 0x170C JUMP JUMPDEST PUSH1 0x1 SWAP2 POP POP SWAP3 SWAP2 POP POP JUMP JUMPDEST PUSH1 0x0 PUSH2 0xE76 PUSH2 0x1602 JUMP JUMPDEST PUSH1 0x0 DUP3 SWAP1 POP DUP1 PUSH20 0xFFFFFFFFFFFFFFFFFFFFFFFFFFFFFFFFFFFFFFFF AND PUSH4 0xA9059CBB PUSH2 0xE9F PUSH2 0x1431 JUMP JUMPDEST DUP4 PUSH20 0xFFFFFFFFFFFFFFFFFFFFFFFFFFFFFFFFFFFFFFFF AND PUSH4 0x70A08231 ADDRESS PUSH1 0x40 MLOAD DUP3 PUSH4 0xFFFFFFFF AND PUSH1 0xE0 SHL DUP2 MSTORE PUSH1 0x4 ADD PUSH2 0xED8 SWAP2 SWAP1 PUSH2 0x1FAA JUMP JUMPDEST PUSH1 0x20 PUSH1 0x40 MLOAD DUP1 DUP4 SUB DUP2 DUP7 GAS STATICCALL ISZERO DUP1 ISZERO PUSH2 0xEF5 JUMPI RETURNDATASIZE PUSH1 0x0 DUP1 RETURNDATACOPY RETURNDATASIZE PUSH1 0x0 REVERT JUMPDEST POP POP POP POP PUSH1 0x40 MLOAD RETURNDATASIZE PUSH1 0x1F NOT PUSH1 0x1F DUP3 ADD AND DUP3 ADD DUP1 PUSH1 0x40 MSTORE POP DUP2 ADD SWAP1 PUSH2 0xF19 SWAP2 SWAP1 PUSH2 0x25D4 JUMP JUMPDEST PUSH1 0x40 MLOAD DUP4 PUSH4 0xFFFFFFFF AND PUSH1 0xE0 SHL DUP2 MSTORE PUSH1 0x4 ADD PUSH2 0xF36 SWAP3 SWAP2 SWAP1 PUSH2 0x2601 JUMP JUMPDEST PUSH1 0x20 PUSH1 0x40 MLOAD DUP1 DUP4 SUB DUP2 PUSH1 0x0 DUP8 GAS CALL ISZERO DUP1 ISZERO PUSH2 0xF55 JUMPI RETURNDATASIZE PUSH1 0x0 DUP1 RETURNDATACOPY RETURNDATASIZE PUSH1 0x0 REVERT JUMPDEST POP POP POP POP PUSH1 0x40 MLOAD RETURNDATASIZE PUSH1 0x1F NOT PUSH1 0x1F DUP3 ADD AND DUP3 ADD DUP1 PUSH1 0x40 MSTORE POP DUP2 ADD SWAP1 PUSH2 0xF79 SWAP2 SWAP1 PUSH2 0x2656 JUMP JUMPDEST POP PUSH1 0x1 SWAP2 POP POP SWAP2 SWAP1 POP JUMP JUMPDEST PUSH1 0x6 SLOAD DUP2 JUMP JUMPDEST PUSH1 0x0 PUSH1 0x1 PUSH1 0x0 DUP5 PUSH20 0xFFFFFFFFFFFFFFFFFFFFFFFFFFFFFFFFFFFFFFFF AND PUSH20 0xFFFFFFFFFFFFFFFFFFFFFFFFFFFFFFFFFFFFFFFF AND DUP2 MSTORE PUSH1 0x20 ADD SWAP1 DUP2 MSTORE PUSH1 0x20 ADD PUSH1 0x0 KECCAK256 PUSH1 0x0 DUP4 PUSH20 0xFFFFFFFFFFFFFFFFFFFFFFFFFFFFFFFFFFFFFFFF AND PUSH20 0xFFFFFFFFFFFFFFFFFFFFFFFFFFFFFFFFFFFFFFFF AND DUP2 MSTORE PUSH1 0x20 ADD SWAP1 DUP2 MSTORE PUSH1 0x20 ADD PUSH1 0x0 KECCAK256 SLOAD SWAP1 POP SWAP3 SWAP2 POP POP JUMP JUMPDEST PUSH1 0xD PUSH1 0x0 SWAP1 SLOAD SWAP1 PUSH2 0x100 EXP SWAP1 DIV PUSH20 0xFFFFFFFFFFFFFFFFFFFFFFFFFFFFFFFFFFFFFFFF AND DUP2 JUMP JUMPDEST PUSH1 0xA PUSH1 0x0 SWAP1 SLOAD SWAP1 PUSH2 0x100 EXP SWAP1 DIV PUSH20 0xFFFFFFFFFFFFFFFFFFFFFFFFFFFFFFFFFFFFFFFF AND DUP2 JUMP JUMPDEST PUSH1 0xA PUSH1 0x0 SWAP1 SLOAD SWAP1 PUSH2 0x100 EXP SWAP1 DIV PUSH20 0xFFFFFFFFFFFFFFFFFFFFFFFFFFFFFFFFFFFFFFFF AND PUSH20 0xFFFFFFFFFFFFFFFFFFFFFFFFFFFFFFFFFFFFFFFF AND PUSH2 0x109E PUSH2 0x1431 JUMP JUMPDEST PUSH20 0xFFFFFFFFFFFFFFFFFFFFFFFFFFFFFFFFFFFFFFFF AND EQ PUSH2 0x10F4 JUMPI PUSH1 0x40 MLOAD PUSH32 0x8C379A000000000000000000000000000000000000000000000000000000000 DUP2 MSTORE PUSH1 0x4 ADD PUSH2 0x10EB SWAP1 PUSH2 0x26F5 JUMP JUMPDEST PUSH1 0x40 MLOAD DUP1 SWAP2 SUB SWAP1 REVERT JUMPDEST PUSH1 0xC SLOAD PUSH1 0xB SLOAD GT PUSH2 0x113A JUMPI PUSH1 0x40 MLOAD PUSH32 0x8C379A000000000000000000000000000000000000000000000000000000000 DUP2 MSTORE PUSH1 0x4 ADD PUSH2 0x1131 SWAP1 PUSH2 0x2761 JUMP JUMPDEST PUSH1 0x40 MLOAD DUP1 SWAP2 SUB SWAP1 REVERT JUMPDEST PUSH1 0x0 PUSH20 0xFFFFFFFFFFFFFFFFFFFFFFFFFFFFFFFFFFFFFFFF AND DUP3 PUSH20 0xFFFFFFFFFFFFFFFFFFFFFFFFFFFFFFFFFFFFFFFF AND SUB PUSH2 0x11A9 JUMPI PUSH1 0x40 MLOAD PUSH32 0x8C379A000000000000000000000000000000000000000000000000000000000 DUP2 MSTORE PUSH1 0x4 ADD PUSH2 0x11A0 SWAP1 PUSH2 0x22AE JUMP JUMPDEST PUSH1 0x40 MLOAD DUP1 SWAP2 SUB SWAP1 REVERT JUMPDEST PUSH1 0x0 DUP2 GT PUSH2 0x11EC JUMPI PUSH1 0x40 MLOAD PUSH32 0x8C379A000000000000000000000000000000000000000000000000000000000 DUP2 MSTORE PUSH1 0x4 ADD PUSH2 0x11E3 SWAP1 PUSH2 0x231A JUMP JUMPDEST PUSH1 0x40 MLOAD DUP1 SWAP2 SUB SWAP1 REVERT JUMPDEST PUSH1 0x0 PUSH1 0xC SLOAD SWAP1 POP PUSH2 0x1208 DUP3 PUSH1 0xC SLOAD PUSH2 0x196C SWAP1 SWAP2 SWAP1 PUSH4 0xFFFFFFFF AND JUMP JUMPDEST PUSH1 0xC DUP2 SWAP1 SSTORE POP PUSH1 0xB SLOAD PUSH1 0xC SLOAD GT PUSH2 0x1228 JUMPI PUSH2 0x1223 DUP4 DUP4 PUSH2 0x19CA JUMP JUMPDEST PUSH2 0x1256 JUMP JUMPDEST PUSH1 0x0 PUSH2 0x123F DUP3 PUSH1 0xB SLOAD PUSH2 0x1B08 SWAP1 SWAP2 SWAP1 PUSH4 0xFFFFFFFF AND JUMP JUMPDEST SWAP1 POP PUSH2 0x124B DUP5 DUP3 PUSH2 0x19CA JUMP JUMPDEST PUSH1 0xB SLOAD PUSH1 0xC DUP2 SWAP1 SSTORE POP POP JUMPDEST POP POP POP JUMP JUMPDEST PUSH2 0x1263 PUSH2 0x1602 JUMP JUMPDEST PUSH1 0x0 PUSH20 0xFFFFFFFFFFFFFFFFFFFFFFFFFFFFFFFFFFFFFFFF AND DUP2 PUSH20 0xFFFFFFFFFFFFFFFFFFFFFFFFFFFFFFFFFFFFFFFF AND SUB PUSH2 0x12D2 JUMPI PUSH1 0x40 MLOAD PUSH32 0x8C379A000000000000000000000000000000000000000000000000000000000 DUP2 MSTORE PUSH1 0x4 ADD PUSH2 0x12C9 SWAP1 PUSH2 0x27F3 JUMP JUMPDEST PUSH1 0x40 MLOAD DUP1 SWAP2 SUB SWAP1 REVERT JUMPDEST PUSH2 0x12DB DUP2 PUSH2 0x1C33 JUMP JUMPDEST POP JUMP JUMPDEST PUSH1 0x0 PUSH2 0x12E8 PUSH2 0x1602 JUMP JUMPDEST PUSH1 0xD PUSH1 0x0 SWAP1 SLOAD SWAP1 PUSH2 0x100 EXP SWAP1 DIV PUSH20 0xFFFFFFFFFFFFFFFFFFFFFFFFFFFFFFFFFFFFFFFF AND PUSH20 0xFFFFFFFFFFFFFFFFFFFFFFFFFFFFFFFFFFFFFFFF AND DUP3 PUSH20 0xFFFFFFFFFFFFFFFFFFFFFFFFFFFFFFFFFFFFFFFF AND SUB PUSH2 0x1378 JUMPI PUSH1 0x40 MLOAD PUSH32 0x8C379A000000000000000000000000000000000000000000000000000000000 DUP2 MSTORE PUSH1 0x4 ADD PUSH2 0x136F SWAP1 PUSH2 0x2885 JUMP JUMPDEST PUSH1 0x40 MLOAD DUP1 SWAP2 SUB SWAP1 REVERT JUMPDEST PUSH1 0x0 PUSH20 0xFFFFFFFFFFFFFFFFFFFFFFFFFFFFFFFFFFFFFFFF AND DUP3 PUSH20 0xFFFFFFFFFFFFFFFFFFFFFFFFFFFFFFFFFFFFFFFF AND SUB PUSH2 0x13E7 JUMPI PUSH1 0x40 MLOAD PUSH32 0x8C379A000000000000000000000000000000000000000000000000000000000 DUP2 MSTORE PUSH1 0x4 ADD PUSH2 0x13DE SWAP1 PUSH2 0x22AE JUMP JUMPDEST PUSH1 0x40 MLOAD DUP1 SWAP2 SUB SWAP1 REVERT JUMPDEST DUP2 PUSH1 0xD PUSH1 0x0 PUSH2 0x100 EXP DUP2 SLOAD DUP2 PUSH20 0xFFFFFFFFFFFFFFFFFFFFFFFFFFFFFFFFFFFFFFFF MUL NOT AND SWAP1 DUP4 PUSH20 0xFFFFFFFFFFFFFFFFFFFFFFFFFFFFFFFFFFFFFFFF AND MUL OR SWAP1 SSTORE POP PUSH1 0x1 SWAP1 POP SWAP2 SWAP1 POP JUMP JUMPDEST PUSH1 0x0 CALLER SWAP1 POP SWAP1 JUMP JUMPDEST PUSH1 0x0 PUSH20 0xFFFFFFFFFFFFFFFFFFFFFFFFFFFFFFFFFFFFFFFF AND DUP4 PUSH20 0xFFFFFFFFFFFFFFFFFFFFFFFFFFFFFFFFFFFFFFFF AND SUB PUSH2 0x14A8 JUMPI PUSH1 0x40 MLOAD PUSH32 0x8C379A000000000000000000000000000000000000000000000000000000000 DUP2 MSTORE PUSH1 0x4 ADD PUSH2 0x149F SWAP1 PUSH2 0x2917 JUMP JUMPDEST PUSH1 0x40 MLOAD DUP1 SWAP2 SUB SWAP1 REVERT JUMPDEST PUSH1 0x0 PUSH20 0xFFFFFFFFFFFFFFFFFFFFFFFFFFFFFFFFFFFFFFFF AND DUP3 PUSH20 0xFFFFFFFFFFFFFFFFFFFFFFFFFFFFFFFFFFFFFFFF AND SUB PUSH2 0x1517 JUMPI PUSH1 0x40 MLOAD PUSH32 0x8C379A000000000000000000000000000000000000000000000000000000000 DUP2 MSTORE PUSH1 0x4 ADD PUSH2 0x150E SWAP1 PUSH2 0x29A9 JUMP JUMPDEST PUSH1 0x40 MLOAD DUP1 SWAP2 SUB SWAP1 REVERT JUMPDEST DUP1 PUSH1 0x1 PUSH1 0x0 DUP6 PUSH20 0xFFFFFFFFFFFFFFFFFFFFFFFFFFFFFFFFFFFFFFFF AND PUSH20 0xFFFFFFFFFFFFFFFFFFFFFFFFFFFFFFFFFFFFFFFF AND DUP2 MSTORE PUSH1 0x20 ADD SWAP1 DUP2 MSTORE PUSH1 0x20 ADD PUSH1 0x0 KECCAK256 PUSH1 0x0 DUP5 PUSH20 0xFFFFFFFFFFFFFFFFFFFFFFFFFFFFFFFFFFFFFFFF AND PUSH20 0xFFFFFFFFFFFFFFFFFFFFFFFFFFFFFFFFFFFFFFFF AND DUP2 MSTORE PUSH1 0x20 ADD SWAP1 DUP2 MSTORE PUSH1 0x20 ADD PUSH1 0x0 KECCAK256 DUP2 SWAP1 SSTORE POP DUP2 PUSH20 0xFFFFFFFFFFFFFFFFFFFFFFFFFFFFFFFFFFFFFFFF AND DUP4 PUSH20 0xFFFFFFFFFFFFFFFFFFFFFFFFFFFFFFFFFFFFFFFF AND PUSH32 0x8C5BE1E5EBEC7D5BD14F71427D1E84F3DD0314C0F7B2291E5B200AC8C7C3B925 DUP4 PUSH1 0x40 MLOAD PUSH2 0x15F5 SWAP2 SWAP1 PUSH2 0x1EF6 JUMP JUMPDEST PUSH1 0x40 MLOAD DUP1 SWAP2 SUB SWAP1 LOG3 POP POP POP JUMP JUMPDEST PUSH2 0x160A PUSH2 0x1431 JUMP JUMPDEST PUSH20 0xFFFFFFFFFFFFFFFFFFFFFFFFFFFFFFFFFFFFFFFF AND PUSH2 0x1628 PUSH2 0xD16 JUMP JUMPDEST PUSH20 0xFFFFFFFFFFFFFFFFFFFFFFFFFFFFFFFFFFFFFFFF AND EQ PUSH2 0x167E JUMPI PUSH1 0x40 MLOAD PUSH32 0x8C379A000000000000000000000000000000000000000000000000000000000 DUP2 MSTORE PUSH1 0x4 ADD PUSH2 0x1675 SWAP1 PUSH2 0x2A15 JUMP JUMPDEST PUSH1 0x40 MLOAD DUP1 SWAP2 SUB SWAP1 REVERT JUMPDEST JUMP JUMPDEST PUSH1 0x0 PUSH2 0x168C DUP5 DUP5 PUSH2 0xF8A JUMP JUMPDEST SWAP1 POP PUSH32 0xFFFFFFFFFFFFFFFFFFFFFFFFFFFFFFFFFFFFFFFFFFFFFFFFFFFFFFFFFFFFFFFF DUP2 EQ PUSH2 0x1706 JUMPI DUP2 DUP2 LT ISZERO PUSH2 0x16F8 JUMPI PUSH1 0x40 MLOAD PUSH32 0x8C379A000000000000000000000000000000000000000000000000000000000 DUP2 MSTORE PUSH1 0x4 ADD PUSH2 0x16EF SWAP1 PUSH2 0x2A81 JUMP JUMPDEST PUSH1 0x40 MLOAD DUP1 SWAP2 SUB SWAP1 REVERT JUMPDEST PUSH2 0x1705 DUP5 DUP5 DUP5 DUP5 SUB PUSH2 0x1439 JUMP JUMPDEST JUMPDEST POP POP POP POP JUMP JUMPDEST PUSH1 0x0 PUSH20 0xFFFFFFFFFFFFFFFFFFFFFFFFFFFFFFFFFFFFFFFF AND DUP4 PUSH20 0xFFFFFFFFFFFFFFFFFFFFFFFFFFFFFFFFFFFFFFFF AND SUB PUSH2 0x177B JUMPI PUSH1 0x40 MLOAD PUSH32 0x8C379A000000000000000000000000000000000000000000000000000000000 DUP2 MSTORE PUSH1 0x4 ADD PUSH2 0x1772 SWAP1 PUSH2 0x2B13 JUMP JUMPDEST PUSH1 0x40 MLOAD DUP1 SWAP2 SUB SWAP1 REVERT JUMPDEST PUSH1 0x0 PUSH20 0xFFFFFFFFFFFFFFFFFFFFFFFFFFFFFFFFFFFFFFFF AND DUP3 PUSH20 0xFFFFFFFFFFFFFFFFFFFFFFFFFFFFFFFFFFFFFFFF AND SUB PUSH2 0x17EA JUMPI PUSH1 0x40 MLOAD PUSH32 0x8C379A000000000000000000000000000000000000000000000000000000000 DUP2 MSTORE PUSH1 0x4 ADD PUSH2 0x17E1 SWAP1 PUSH2 0x2BA5 JUMP JUMPDEST PUSH1 0x40 MLOAD DUP1 SWAP2 SUB SWAP1 REVERT JUMPDEST PUSH1 0x0 DUP1 PUSH1 0x0 DUP6 PUSH20 0xFFFFFFFFFFFFFFFFFFFFFFFFFFFFFFFFFFFFFFFF AND PUSH20 0xFFFFFFFFFFFFFFFFFFFFFFFFFFFFFFFFFFFFFFFF AND DUP2 MSTORE PUSH1 0x20 ADD SWAP1 DUP2 MSTORE PUSH1 0x20 ADD PUSH1 0x0 KECCAK256 SLOAD SWAP1 POP DUP2 DUP2 LT ISZERO PUSH2 0x1870 JUMPI PUSH1 0x40 MLOAD PUSH32 0x8C379A000000000000000000000000000000000000000000000000000000000 DUP2 MSTORE PUSH1 0x4 ADD PUSH2 0x1867 SWAP1 PUSH2 0x2C37 JUMP JUMPDEST PUSH1 0x40 MLOAD DUP1 SWAP2 SUB SWAP1 REVERT JUMPDEST DUP2 DUP2 SUB PUSH1 0x0 DUP1 DUP7 PUSH20 0xFFFFFFFFFFFFFFFFFFFFFFFFFFFFFFFFFFFFFFFF AND PUSH20 0xFFFFFFFFFFFFFFFFFFFFFFFFFFFFFFFFFFFFFFFF AND DUP2 MSTORE PUSH1 0x20 ADD SWAP1 DUP2 MSTORE PUSH1 0x20 ADD PUSH1 0x0 KECCAK256 DUP2 SWAP1 SSTORE POP DUP2 PUSH1 0x0 DUP1 DUP6 PUSH20 0xFFFFFFFFFFFFFFFFFFFFFFFFFFFFFFFFFFFFFFFF AND PUSH20 0xFFFFFFFFFFFFFFFFFFFFFFFFFFFFFFFFFFFFFFFF AND DUP2 MSTORE PUSH1 0x20 ADD SWAP1 DUP2 MSTORE PUSH1 0x20 ADD PUSH1 0x0 KECCAK256 PUSH1 0x0 DUP3 DUP3 SLOAD ADD SWAP3 POP POP DUP2 SWAP1 SSTORE POP DUP3 PUSH20 0xFFFFFFFFFFFFFFFFFFFFFFFFFFFFFFFFFFFFFFFF AND DUP5 PUSH20 0xFFFFFFFFFFFFFFFFFFFFFFFFFFFFFFFFFFFFFFFF AND PUSH32 0xDDF252AD1BE2C89B69C2B068FC378DAA952BA7F163C4A11628F55A4DF523B3EF DUP5 PUSH1 0x40 MLOAD PUSH2 0x195E SWAP2 SWAP1 PUSH2 0x1EF6 JUMP JUMPDEST PUSH1 0x40 MLOAD DUP1 SWAP2 SUB SWAP1 LOG3 POP POP POP POP JUMP JUMPDEST PUSH1 0x0 DUP1 DUP3 DUP5 PUSH2 0x197B SWAP2 SWAP1 PUSH2 0x2369 JUMP JUMPDEST SWAP1 POP DUP4 DUP2 LT ISZERO PUSH2 0x19C0 JUMPI PUSH1 0x40 MLOAD PUSH32 0x8C379A000000000000000000000000000000000000000000000000000000000 DUP2 MSTORE PUSH1 0x4 ADD PUSH2 0x19B7 SWAP1 PUSH2 0x2CA3 JUMP JUMPDEST PUSH1 0x40 MLOAD DUP1 SWAP2 SUB SWAP1 REVERT JUMPDEST DUP1 SWAP2 POP POP SWAP3 SWAP2 POP POP JUMP JUMPDEST PUSH1 0x0 PUSH20 0xFFFFFFFFFFFFFFFFFFFFFFFFFFFFFFFFFFFFFFFF AND DUP3 PUSH20 0xFFFFFFFFFFFFFFFFFFFFFFFFFFFFFFFFFFFFFFFF AND SUB PUSH2 0x1A39 JUMPI PUSH1 0x40 MLOAD PUSH32 0x8C379A000000000000000000000000000000000000000000000000000000000 DUP2 MSTORE PUSH1 0x4 ADD PUSH2 0x1A30 SWAP1 PUSH2 0x2D0F JUMP JUMPDEST PUSH1 0x40 MLOAD DUP1 SWAP2 SUB SWAP1 REVERT JUMPDEST DUP1 PUSH1 0x2 PUSH1 0x0 DUP3 DUP3 SLOAD PUSH2 0x1A4B SWAP2 SWAP1 PUSH2 0x2369 JUMP JUMPDEST SWAP3 POP POP DUP2 SWAP1 SSTORE POP DUP1 PUSH1 0x0 DUP1 DUP5 PUSH20 0xFFFFFFFFFFFFFFFFFFFFFFFFFFFFFFFFFFFFFFFF AND PUSH20 0xFFFFFFFFFFFFFFFFFFFFFFFFFFFFFFFFFFFFFFFF AND DUP2 MSTORE PUSH1 0x20 ADD SWAP1 DUP2 MSTORE PUSH1 0x20 ADD PUSH1 0x0 KECCAK256 PUSH1 0x0 DUP3 DUP3 SLOAD ADD SWAP3 POP POP DUP2 SWAP1 SSTORE POP DUP2 PUSH20 0xFFFFFFFFFFFFFFFFFFFFFFFFFFFFFFFFFFFFFFFF AND PUSH1 0x0 PUSH20 0xFFFFFFFFFFFFFFFFFFFFFFFFFFFFFFFFFFFFFFFF AND PUSH32 0xDDF252AD1BE2C89B69C2B068FC378DAA952BA7F163C4A11628F55A4DF523B3EF DUP4 PUSH1 0x40 MLOAD PUSH2 0x1AFC SWAP2 SWAP1 PUSH2 0x1EF6 JUMP JUMPDEST PUSH1 0x40 MLOAD DUP1 SWAP2 SUB SWAP1 LOG3 POP POP JUMP JUMPDEST PUSH1 0x0 DUP3 DUP3 GT ISZERO PUSH2 0x1B4D JUMPI PUSH1 0x40 MLOAD PUSH32 0x8C379A000000000000000000000000000000000000000000000000000000000 DUP2 MSTORE PUSH1 0x4 ADD PUSH2 0x1B44 SWAP1 PUSH2 0x2D7B JUMP JUMPDEST PUSH1 0x40 MLOAD DUP1 SWAP2 SUB SWAP1 REVERT JUMPDEST DUP2 DUP4 PUSH2 0x1B59 SWAP2 SWAP1 PUSH2 0x2D9B JUMP JUMPDEST SWAP1 POP SWAP3 SWAP2 POP POP JUMP JUMPDEST PUSH1 0x0 DUP1 DUP3 GT PUSH2 0x1BA5 JUMPI PUSH1 0x40 MLOAD PUSH32 0x8C379A000000000000000000000000000000000000000000000000000000000 DUP2 MSTORE PUSH1 0x4 ADD PUSH2 0x1B9C SWAP1 PUSH2 0x2E1B JUMP JUMPDEST PUSH1 0x40 MLOAD DUP1 SWAP2 SUB SWAP1 REVERT JUMPDEST DUP2 DUP4 PUSH2 0x1BB1 SWAP2 SWAP1 PUSH2 0x2E6A JUMP JUMPDEST SWAP1 POP SWAP3 SWAP2 POP POP JUMP JUMPDEST PUSH1 0x0 DUP1 DUP4 SUB PUSH2 0x1BCB JUMPI PUSH1 0x0 SWAP1 POP PUSH2 0x1C2D JUMP JUMPDEST PUSH1 0x0 DUP3 DUP5 PUSH2 0x1BD9 SWAP2 SWAP1 PUSH2 0x2E9B JUMP JUMPDEST SWAP1 POP DUP3 DUP5 DUP3 PUSH2 0x1BE8 SWAP2 SWAP1 PUSH2 0x2E6A JUMP JUMPDEST EQ PUSH2 0x1C28 JUMPI PUSH1 0x40 MLOAD PUSH32 0x8C379A000000000000000000000000000000000000000000000000000000000 DUP2 MSTORE PUSH1 0x4 ADD PUSH2 0x1C1F SWAP1 PUSH2 0x2F4F JUMP JUMPDEST PUSH1 0x40 MLOAD DUP1 SWAP2 SUB SWAP1 REVERT JUMPDEST DUP1 SWAP2 POP POP JUMPDEST SWAP3 SWAP2 POP POP JUMP JUMPDEST PUSH1 0x0 PUSH1 0x5 PUSH1 0x0 SWAP1 SLOAD SWAP1 PUSH2 0x100 EXP SWAP1 DIV PUSH20 0xFFFFFFFFFFFFFFFFFFFFFFFFFFFFFFFFFFFFFFFF AND SWAP1 POP DUP2 PUSH1 0x5 PUSH1 0x0 PUSH2 0x100 EXP DUP2 SLOAD DUP2 PUSH20 0xFFFFFFFFFFFFFFFFFFFFFFFFFFFFFFFFFFFFFFFF MUL NOT AND SWAP1 DUP4 PUSH20 0xFFFFFFFFFFFFFFFFFFFFFFFFFFFFFFFFFFFFFFFF AND MUL OR SWAP1 SSTORE POP DUP2 PUSH20 0xFFFFFFFFFFFFFFFFFFFFFFFFFFFFFFFFFFFFFFFF AND DUP2 PUSH20 0xFFFFFFFFFFFFFFFFFFFFFFFFFFFFFFFFFFFFFFFF AND PUSH32 0x8BE0079C531659141344CD1FD0A4F28419497F9722A3DAAFE3B4186F6B6457E0 PUSH1 0x40 MLOAD PUSH1 0x40 MLOAD DUP1 SWAP2 SUB SWAP1 LOG3 POP POP JUMP JUMPDEST PUSH1 0x0 DUP2 MLOAD SWAP1 POP SWAP2 SWAP1 POP JUMP JUMPDEST PUSH1 0x0 DUP3 DUP3 MSTORE PUSH1 0x20 DUP3 ADD SWAP1 POP SWAP3 SWAP2 POP POP JUMP JUMPDEST PUSH1 0x0 JUMPDEST DUP4 DUP2 LT ISZERO PUSH2 0x1D33 JUMPI DUP1 DUP3 ADD MLOAD DUP2 DUP5 ADD MSTORE PUSH1 0x20 DUP2 ADD SWAP1 POP PUSH2 0x1D18 JUMP JUMPDEST PUSH1 0x0 DUP5 DUP5 ADD MSTORE POP POP POP POP JUMP JUMPDEST PUSH1 0x0 PUSH1 0x1F NOT PUSH1 0x1F DUP4 ADD AND SWAP1 POP SWAP2 SWAP1 POP JUMP JUMPDEST PUSH1 0x0 PUSH2 0x1D5B DUP3 PUSH2 0x1CF9 JUMP JUMPDEST PUSH2 0x1D65 DUP2 DUP6 PUSH2 0x1D04 JUMP JUMPDEST SWAP4 POP PUSH2 0x1D75 DUP2 DUP6 PUSH1 0x20 DUP7 ADD PUSH2 0x1D15 JUMP JUMPDEST PUSH2 0x1D7E DUP2 PUSH2 0x1D3F JUMP JUMPDEST DUP5 ADD SWAP2 POP POP SWAP3 SWAP2 POP POP JUMP JUMPDEST PUSH1 0x0 PUSH1 0x20 DUP3 ADD SWAP1 POP DUP2 DUP2 SUB PUSH1 0x0 DUP4 ADD MSTORE PUSH2 0x1DA3 DUP2 DUP5 PUSH2 0x1D50 JUMP JUMPDEST SWAP1 POP SWAP3 SWAP2 POP POP JUMP JUMPDEST PUSH1 0x0 DUP1 REVERT JUMPDEST PUSH1 0x0 PUSH20 0xFFFFFFFFFFFFFFFFFFFFFFFFFFFFFFFFFFFFFFFF DUP3 AND SWAP1 POP SWAP2 SWAP1 POP JUMP JUMPDEST PUSH1 0x0 PUSH2 0x1DDB DUP3 PUSH2 0x1DB0 JUMP JUMPDEST SWAP1 POP SWAP2 SWAP1 POP JUMP JUMPDEST PUSH2 0x1DEB DUP2 PUSH2 0x1DD0 JUMP JUMPDEST DUP2 EQ PUSH2 0x1DF6 JUMPI PUSH1 0x0 DUP1 REVERT JUMPDEST POP JUMP JUMPDEST PUSH1 0x0 DUP2 CALLDATALOAD SWAP1 POP PUSH2 0x1E08 DUP2 PUSH2 0x1DE2 JUMP JUMPDEST SWAP3 SWAP2 POP POP JUMP JUMPDEST PUSH1 0x0 DUP2 SWAP1 POP SWAP2 SWAP1 POP JUMP JUMPDEST PUSH2 0x1E21 DUP2 PUSH2 0x1E0E JUMP JUMPDEST DUP2 EQ PUSH2 0x1E2C JUMPI PUSH1 0x0 DUP1 REVERT JUMPDEST POP JUMP JUMPDEST PUSH1 0x0 DUP2 CALLDATALOAD SWAP1 POP PUSH2 0x1E3E DUP2 PUSH2 0x1E18 JUMP JUMPDEST SWAP3 SWAP2 POP POP JUMP JUMPDEST PUSH1 0x0 DUP1 PUSH1 0x40 DUP4 DUP6 SUB SLT ISZERO PUSH2 0x1E5B JUMPI PUSH2 0x1E5A PUSH2 0x1DAB JUMP JUMPDEST JUMPDEST PUSH1 0x0 PUSH2 0x1E69 DUP6 DUP3 DUP7 ADD PUSH2 0x1DF9 JUMP JUMPDEST SWAP3 POP POP PUSH1 0x20 PUSH2 0x1E7A DUP6 DUP3 DUP7 ADD PUSH2 0x1E2F JUMP JUMPDEST SWAP2 POP POP SWAP3 POP SWAP3 SWAP1 POP JUMP JUMPDEST PUSH1 0x0 DUP2 ISZERO ISZERO SWAP1 POP SWAP2 SWAP1 POP JUMP JUMPDEST PUSH2 0x1E99 DUP2 PUSH2 0x1E84 JUMP JUMPDEST DUP3 MSTORE POP POP JUMP JUMPDEST PUSH1 0x0 PUSH1 0x20 DUP3 ADD SWAP1 POP PUSH2 0x1EB4 PUSH1 0x0 DUP4 ADD DUP5 PUSH2 0x1E90 JUMP JUMPDEST SWAP3 SWAP2 POP POP JUMP JUMPDEST PUSH1 0x0 PUSH1 0x20 DUP3 DUP5 SUB SLT ISZERO PUSH2 0x1ED0 JUMPI PUSH2 0x1ECF PUSH2 0x1DAB JUMP JUMPDEST JUMPDEST PUSH1 0x0 PUSH2 0x1EDE DUP5 DUP3 DUP6 ADD PUSH2 0x1DF9 JUMP JUMPDEST SWAP2 POP POP SWAP3 SWAP2 POP POP JUMP JUMPDEST PUSH2 0x1EF0 DUP2 PUSH2 0x1E0E JUMP JUMPDEST DUP3 MSTORE POP POP JUMP JUMPDEST PUSH1 0x0 PUSH1 0x20 DUP3 ADD SWAP1 POP PUSH2 0x1F0B PUSH1 0x0 DUP4 ADD DUP5 PUSH2 0x1EE7 JUMP JUMPDEST SWAP3 SWAP2 POP POP JUMP JUMPDEST PUSH1 0x0 DUP1 PUSH1 0x0 PUSH1 0x60 DUP5 DUP7 SUB SLT ISZERO PUSH2 0x1F2A JUMPI PUSH2 0x1F29 PUSH2 0x1DAB JUMP JUMPDEST JUMPDEST PUSH1 0x0 PUSH2 0x1F38 DUP7 DUP3 DUP8 ADD PUSH2 0x1DF9 JUMP JUMPDEST SWAP4 POP POP PUSH1 0x20 PUSH2 0x1F49 DUP7 DUP3 DUP8 ADD PUSH2 0x1DF9 JUMP JUMPDEST SWAP3 POP POP PUSH1 0x40 PUSH2 0x1F5A DUP7 DUP3 DUP8 ADD PUSH2 0x1E2F JUMP JUMPDEST SWAP2 POP POP SWAP3 POP SWAP3 POP SWAP3 JUMP JUMPDEST PUSH1 0x0 PUSH1 0xFF DUP3 AND SWAP1 POP SWAP2 SWAP1 POP JUMP JUMPDEST PUSH2 0x1F7A DUP2 PUSH2 0x1F64 JUMP JUMPDEST DUP3 MSTORE POP POP JUMP JUMPDEST PUSH1 0x0 PUSH1 0x20 DUP3 ADD SWAP1 POP PUSH2 0x1F95 PUSH1 0x0 DUP4 ADD DUP5 PUSH2 0x1F71 JUMP JUMPDEST SWAP3 SWAP2 POP POP JUMP JUMPDEST PUSH2 0x1FA4 DUP2 PUSH2 0x1DD0 JUMP JUMPDEST DUP3 MSTORE POP POP JUMP JUMPDEST PUSH1 0x0 PUSH1 0x20 DUP3 ADD SWAP1 POP PUSH2 0x1FBF PUSH1 0x0 DUP4 ADD DUP5 PUSH2 0x1F9B JUMP JUMPDEST SWAP3 SWAP2 POP POP JUMP JUMPDEST PUSH1 0x0 DUP1 PUSH1 0x40 DUP4 DUP6 SUB SLT ISZERO PUSH2 0x1FDC JUMPI PUSH2 0x1FDB PUSH2 0x1DAB JUMP JUMPDEST JUMPDEST PUSH1 0x0 PUSH2 0x1FEA DUP6 DUP3 DUP7 ADD PUSH2 0x1E2F JUMP JUMPDEST SWAP3 POP POP PUSH1 0x20 PUSH2 0x1FFB DUP6 DUP3 DUP7 ADD PUSH2 0x1E2F JUMP JUMPDEST SWAP2 POP POP SWAP3 POP SWAP3 SWAP1 POP JUMP JUMPDEST PUSH1 0x0 PUSH1 0x20 DUP3 DUP5 SUB SLT ISZERO PUSH2 0x201B JUMPI PUSH2 0x201A PUSH2 0x1DAB JUMP JUMPDEST JUMPDEST PUSH1 0x0 PUSH2 0x2029 DUP5 DUP3 DUP6 ADD PUSH2 0x1E2F JUMP JUMPDEST SWAP2 POP POP SWAP3 SWAP2 POP POP JUMP JUMPDEST PUSH1 0x0 DUP1 PUSH1 0x40 DUP4 DUP6 SUB SLT ISZERO PUSH2 0x2049 JUMPI PUSH2 0x2048 PUSH2 0x1DAB JUMP JUMPDEST JUMPDEST PUSH1 0x0 PUSH2 0x2057 DUP6 DUP3 DUP7 ADD PUSH2 0x1DF9 JUMP JUMPDEST SWAP3 POP POP PUSH1 0x20 PUSH2 0x2068 DUP6 DUP3 DUP7 ADD PUSH2 0x1DF9 JUMP JUMPDEST SWAP2 POP POP SWAP3 POP SWAP3 SWAP1 POP JUMP JUMPDEST PUSH32 0x4E487B7100000000000000000000000000000000000000000000000000000000 PUSH1 0x0 MSTORE PUSH1 0x22 PUSH1 0x4 MSTORE PUSH1 0x24 PUSH1 0x0 REVERT JUMPDEST PUSH1 0x0 PUSH1 0x2 DUP3 DIV SWAP1 POP PUSH1 0x1 DUP3 AND DUP1 PUSH2 0x20B9 JUMPI PUSH1 0x7F DUP3 AND SWAP2 POP JUMPDEST PUSH1 0x20 DUP3 LT DUP2 SUB PUSH2 0x20CC JUMPI PUSH2 0x20CB PUSH2 0x2072 JUMP JUMPDEST JUMPDEST POP SWAP2 SWAP1 POP JUMP JUMPDEST PUSH32 0x4147554E3A205468697320616464726573732069732063757272656E7420636F PUSH1 0x0 DUP3 ADD MSTORE PUSH32 0x6D626174206669656C6400000000000000000000000000000000000000000000 PUSH1 0x20 DUP3 ADD MSTORE POP JUMP JUMPDEST PUSH1 0x0 PUSH2 0x212E PUSH1 0x2A DUP4 PUSH2 0x1D04 JUMP JUMPDEST SWAP2 POP PUSH2 0x2139 DUP3 PUSH2 0x20D2 JUMP JUMPDEST PUSH1 0x40 DUP3 ADD SWAP1 POP SWAP2 SWAP1 POP JUMP JUMPDEST PUSH1 0x0 PUSH1 0x20 DUP3 ADD SWAP1 POP DUP2 DUP2 SUB PUSH1 0x0 DUP4 ADD MSTORE PUSH2 0x215D DUP2 PUSH2 0x2121 JUMP JUMPDEST SWAP1 POP SWAP2 SWAP1 POP JUMP JUMPDEST PUSH32 0x4147554E3A2043616C6C6572206973206E6F7420746865206661726D20666965 PUSH1 0x0 DUP3 ADD MSTORE PUSH32 0x6C64000000000000000000000000000000000000000000000000000000000000 PUSH1 0x20 DUP3 ADD MSTORE POP JUMP JUMPDEST PUSH1 0x0 PUSH2 0x21C0 PUSH1 0x22 DUP4 PUSH2 0x1D04 JUMP JUMPDEST SWAP2 POP PUSH2 0x21CB DUP3 PUSH2 0x2164 JUMP JUMPDEST PUSH1 0x40 DUP3 ADD SWAP1 POP SWAP2 SWAP1 POP JUMP JUMPDEST PUSH1 0x0 PUSH1 0x20 DUP3 ADD SWAP1 POP DUP2 DUP2 SUB PUSH1 0x0 DUP4 ADD MSTORE PUSH2 0x21EF DUP2 PUSH2 0x21B3 JUMP JUMPDEST SWAP1 POP SWAP2 SWAP1 POP JUMP JUMPDEST PUSH32 0x4147554E3A204F76657220636170206661726D20726577617264000000000000 PUSH1 0x0 DUP3 ADD MSTORE POP JUMP JUMPDEST PUSH1 0x0 PUSH2 0x222C PUSH1 0x1A DUP4 PUSH2 0x1D04 JUMP JUMPDEST SWAP2 POP PUSH2 0x2237 DUP3 PUSH2 0x21F6 JUMP JUMPDEST PUSH1 0x20 DUP3 ADD SWAP1 POP SWAP2 SWAP1 POP JUMP JUMPDEST PUSH1 0x0 PUSH1 0x20 DUP3 ADD SWAP1 POP DUP2 DUP2 SUB PUSH1 0x0 DUP4 ADD MSTORE PUSH2 0x225B DUP2 PUSH2 0x221F JUMP JUMPDEST SWAP1 POP SWAP2 SWAP1 POP JUMP JUMPDEST PUSH32 0x4147554E3A203078206973206E6F742061636365707465642068657265000000 PUSH1 0x0 DUP3 ADD MSTORE POP JUMP JUMPDEST PUSH1 0x0 PUSH2 0x2298 PUSH1 0x1D DUP4 PUSH2 0x1D04 JUMP JUMPDEST SWAP2 POP PUSH2 0x22A3 DUP3 PUSH2 0x2262 JUMP JUMPDEST PUSH1 0x20 DUP3 ADD SWAP1 POP SWAP2 SWAP1 POP JUMP JUMPDEST PUSH1 0x0 PUSH1 0x20 DUP3 ADD SWAP1 POP DUP2 DUP2 SUB PUSH1 0x0 DUP4 ADD MSTORE PUSH2 0x22C7 DUP2 PUSH2 0x228B JUMP JUMPDEST SWAP1 POP SWAP2 SWAP1 POP JUMP JUMPDEST PUSH32 0x4147554E3A2043616E206E6F7420726577617264203020746F6B656E00000000 PUSH1 0x0 DUP3 ADD MSTORE POP JUMP JUMPDEST PUSH1 0x0 PUSH2 0x2304 PUSH1 0x1C DUP4 PUSH2 0x1D04 JUMP JUMPDEST SWAP2 POP PUSH2 0x230F DUP3 PUSH2 0x22CE JUMP JUMPDEST PUSH1 0x20 DUP3 ADD SWAP1 POP SWAP2 SWAP1 POP JUMP JUMPDEST PUSH1 0x0 PUSH1 0x20 DUP3 ADD SWAP1 POP DUP2 DUP2 SUB PUSH1 0x0 DUP4 ADD MSTORE PUSH2 0x2333 DUP2 PUSH2 0x22F7 JUMP JUMPDEST SWAP1 POP SWAP2 SWAP1 POP JUMP JUMPDEST PUSH32 0x4E487B7100000000000000000000000000000000000000000000000000000000 PUSH1 0x0 MSTORE PUSH1 0x11 PUSH1 0x4 MSTORE PUSH1 0x24 PUSH1 0x0 REVERT JUMPDEST PUSH1 0x0 PUSH2 0x2374 DUP3 PUSH2 0x1E0E JUMP JUMPDEST SWAP2 POP PUSH2 0x237F DUP4 PUSH2 0x1E0E JUMP JUMPDEST SWAP3 POP DUP3 DUP3 ADD SWAP1 POP DUP1 DUP3 GT ISZERO PUSH2 0x2397 JUMPI PUSH2 0x2396 PUSH2 0x233A JUMP JUMPDEST JUMPDEST SWAP3 SWAP2 POP POP JUMP JUMPDEST PUSH32 0x4147554E3A204665652063616E206E6F74207365742061626F76652031302500 PUSH1 0x0 DUP3 ADD MSTORE POP JUMP JUMPDEST PUSH1 0x0 PUSH2 0x23D3 PUSH1 0x1F DUP4 PUSH2 0x1D04 JUMP JUMPDEST SWAP2 POP PUSH2 0x23DE DUP3 PUSH2 0x239D JUMP JUMPDEST PUSH1 0x20 DUP3 ADD SWAP1 POP SWAP2 SWAP1 POP JUMP JUMPDEST PUSH1 0x0 PUSH1 0x20 DUP3 ADD SWAP1 POP DUP2 DUP2 SUB PUSH1 0x0 DUP4 ADD MSTORE PUSH2 0x2402 DUP2 PUSH2 0x23C6 JUMP JUMPDEST SWAP1 POP SWAP2 SWAP1 POP JUMP JUMPDEST PUSH32 0x4147554E3A2043616E6E6F7420666565206D6F7265207468616E203225206F66 PUSH1 0x0 DUP3 ADD MSTORE PUSH32 0x2074686520737570706C79206174206F6E636521000000000000000000000000 PUSH1 0x20 DUP3 ADD MSTORE POP JUMP JUMPDEST PUSH1 0x0 PUSH2 0x2465 PUSH1 0x34 DUP4 PUSH2 0x1D04 JUMP JUMPDEST SWAP2 POP PUSH2 0x2470 DUP3 PUSH2 0x2409 JUMP JUMPDEST PUSH1 0x40 DUP3 ADD SWAP1 POP SWAP2 SWAP1 POP JUMP JUMPDEST PUSH1 0x0 PUSH1 0x20 DUP3 ADD SWAP1 POP DUP2 DUP2 SUB PUSH1 0x0 DUP4 ADD MSTORE PUSH2 0x2494 DUP2 PUSH2 0x2458 JUMP JUMPDEST SWAP1 POP SWAP2 SWAP1 POP JUMP JUMPDEST PUSH32 0x4147554E3A205468697320616464726573732069732063757272656E74206661 PUSH1 0x0 DUP3 ADD MSTORE PUSH32 0x726D206669656C64000000000000000000000000000000000000000000000000 PUSH1 0x20 DUP3 ADD MSTORE POP JUMP JUMPDEST PUSH1 0x0 PUSH2 0x24F7 PUSH1 0x28 DUP4 PUSH2 0x1D04 JUMP JUMPDEST SWAP2 POP PUSH2 0x2502 DUP3 PUSH2 0x249B JUMP JUMPDEST PUSH1 0x40 DUP3 ADD SWAP1 POP SWAP2 SWAP1 POP JUMP JUMPDEST PUSH1 0x0 PUSH1 0x20 DUP3 ADD SWAP1 POP DUP2 DUP2 SUB PUSH1 0x0 DUP4 ADD MSTORE PUSH2 0x2526 DUP2 PUSH2 0x24EA JUMP JUMPDEST SWAP1 POP SWAP2 SWAP1 POP JUMP JUMPDEST PUSH32 0x45524332303A2064656372656173656420616C6C6F77616E63652062656C6F77 PUSH1 0x0 DUP3 ADD MSTORE PUSH32 0x207A65726F000000000000000000000000000000000000000000000000000000 PUSH1 0x20 DUP3 ADD MSTORE POP JUMP JUMPDEST PUSH1 0x0 PUSH2 0x2589 PUSH1 0x25 DUP4 PUSH2 0x1D04 JUMP JUMPDEST SWAP2 POP PUSH2 0x2594 DUP3 PUSH2 0x252D JUMP JUMPDEST PUSH1 0x40 DUP3 ADD SWAP1 POP SWAP2 SWAP1 POP JUMP JUMPDEST PUSH1 0x0 PUSH1 0x20 DUP3 ADD SWAP1 POP DUP2 DUP2 SUB PUSH1 0x0 DUP4 ADD MSTORE PUSH2 0x25B8 DUP2 PUSH2 0x257C JUMP JUMPDEST SWAP1 POP SWAP2 SWAP1 POP JUMP JUMPDEST PUSH1 0x0 DUP2 MLOAD SWAP1 POP PUSH2 0x25CE DUP2 PUSH2 0x1E18 JUMP JUMPDEST SWAP3 SWAP2 POP POP JUMP JUMPDEST PUSH1 0x0 PUSH1 0x20 DUP3 DUP5 SUB SLT ISZERO PUSH2 0x25EA JUMPI PUSH2 0x25E9 PUSH2 0x1DAB JUMP JUMPDEST JUMPDEST PUSH1 0x0 PUSH2 0x25F8 DUP5 DUP3 DUP6 ADD PUSH2 0x25BF JUMP JUMPDEST SWAP2 POP POP SWAP3 SWAP2 POP POP JUMP JUMPDEST PUSH1 0x0 PUSH1 0x40 DUP3 ADD SWAP1 POP PUSH2 0x2616 PUSH1 0x0 DUP4 ADD DUP6 PUSH2 0x1F9B JUMP JUMPDEST PUSH2 0x2623 PUSH1 0x20 DUP4 ADD DUP5 PUSH2 0x1EE7 JUMP JUMPDEST SWAP4 SWAP3 POP POP POP JUMP JUMPDEST PUSH2 0x2633 DUP2 PUSH2 0x1E84 JUMP JUMPDEST DUP2 EQ PUSH2 0x263E JUMPI PUSH1 0x0 DUP1 REVERT JUMPDEST POP JUMP JUMPDEST PUSH1 0x0 DUP2 MLOAD SWAP1 POP PUSH2 0x2650 DUP2 PUSH2 0x262A JUMP JUMPDEST SWAP3 SWAP2 POP POP JUMP JUMPDEST PUSH1 0x0 PUSH1 0x20 DUP3 DUP5 SUB SLT ISZERO PUSH2 0x266C JUMPI PUSH2 0x266B PUSH2 0x1DAB JUMP JUMPDEST JUMPDEST PUSH1 0x0 PUSH2 0x267A DUP5 DUP3 DUP6 ADD PUSH2 0x2641 JUMP JUMPDEST SWAP2 POP POP SWAP3 SWAP2 POP POP JUMP JUMPDEST PUSH32 0x4147554E3A2043616C6C6572206973206E6F742074686520636F6D6261742066 PUSH1 0x0 DUP3 ADD MSTORE PUSH32 0x69656C6400000000000000000000000000000000000000000000000000000000 PUSH1 0x20 DUP3 ADD MSTORE POP JUMP JUMPDEST PUSH1 0x0 PUSH2 0x26DF PUSH1 0x24 DUP4 PUSH2 0x1D04 JUMP JUMPDEST SWAP2 POP PUSH2 0x26EA DUP3 PUSH2 0x2683 JUMP JUMPDEST PUSH1 0x40 DUP3 ADD SWAP1 POP SWAP2 SWAP1 POP JUMP JUMPDEST PUSH1 0x0 PUSH1 0x20 DUP3 ADD SWAP1 POP DUP2 DUP2 SUB PUSH1 0x0 DUP4 ADD MSTORE PUSH2 0x270E DUP2 PUSH2 0x26D2 JUMP JUMPDEST SWAP1 POP SWAP2 SWAP1 POP JUMP JUMPDEST PUSH32 0x4147554E3A204F7665722063617020636F6D6261742072657761726400000000 PUSH1 0x0 DUP3 ADD MSTORE POP JUMP JUMPDEST PUSH1 0x0 PUSH2 0x274B PUSH1 0x1C DUP4 PUSH2 0x1D04 JUMP JUMPDEST SWAP2 POP PUSH2 0x2756 DUP3 PUSH2 0x2715 JUMP JUMPDEST PUSH1 0x20 DUP3 ADD SWAP1 POP SWAP2 SWAP1 POP JUMP JUMPDEST PUSH1 0x0 PUSH1 0x20 DUP3 ADD SWAP1 POP DUP2 DUP2 SUB PUSH1 0x0 DUP4 ADD MSTORE PUSH2 0x277A DUP2 PUSH2 0x273E JUMP JUMPDEST SWAP1 POP SWAP2 SWAP1 POP JUMP JUMPDEST PUSH32 0x4F776E61626C653A206E6577206F776E657220697320746865207A65726F2061 PUSH1 0x0 DUP3 ADD MSTORE PUSH32 0x6464726573730000000000000000000000000000000000000000000000000000 PUSH1 0x20 DUP3 ADD MSTORE POP JUMP JUMPDEST PUSH1 0x0 PUSH2 0x27DD PUSH1 0x26 DUP4 PUSH2 0x1D04 JUMP JUMPDEST SWAP2 POP PUSH2 0x27E8 DUP3 PUSH2 0x2781 JUMP JUMPDEST PUSH1 0x40 DUP3 ADD SWAP1 POP SWAP2 SWAP1 POP JUMP JUMPDEST PUSH1 0x0 PUSH1 0x20 DUP3 ADD SWAP1 POP DUP2 DUP2 SUB PUSH1 0x0 DUP4 ADD MSTORE PUSH2 0x280C DUP2 PUSH2 0x27D0 JUMP JUMPDEST SWAP1 POP SWAP2 SWAP1 POP JUMP JUMPDEST PUSH32 0x4147554E3A205468697320616464726573732069732063757272656E74206F70 PUSH1 0x0 DUP3 ADD MSTORE PUSH32 0x65726174696F6E20616464726573730000000000000000000000000000000000 PUSH1 0x20 DUP3 ADD MSTORE POP JUMP JUMPDEST PUSH1 0x0 PUSH2 0x286F PUSH1 0x2F DUP4 PUSH2 0x1D04 JUMP JUMPDEST SWAP2 POP PUSH2 0x287A DUP3 PUSH2 0x2813 JUMP JUMPDEST PUSH1 0x40 DUP3 ADD SWAP1 POP SWAP2 SWAP1 POP JUMP JUMPDEST PUSH1 0x0 PUSH1 0x20 DUP3 ADD SWAP1 POP DUP2 DUP2 SUB PUSH1 0x0 DUP4 ADD MSTORE PUSH2 0x289E DUP2 PUSH2 0x2862 JUMP JUMPDEST SWAP1 POP SWAP2 SWAP1 POP JUMP JUMPDEST PUSH32 0x45524332303A20617070726F76652066726F6D20746865207A65726F20616464 PUSH1 0x0 DUP3 ADD MSTORE PUSH32 0x7265737300000000000000000000000000000000000000000000000000000000 PUSH1 0x20 DUP3 ADD MSTORE POP JUMP JUMPDEST PUSH1 0x0 PUSH2 0x2901 PUSH1 0x24 DUP4 PUSH2 0x1D04 JUMP JUMPDEST SWAP2 POP PUSH2 0x290C DUP3 PUSH2 0x28A5 JUMP JUMPDEST PUSH1 0x40 DUP3 ADD SWAP1 POP SWAP2 SWAP1 POP JUMP JUMPDEST PUSH1 0x0 PUSH1 0x20 DUP3 ADD SWAP1 POP DUP2 DUP2 SUB PUSH1 0x0 DUP4 ADD MSTORE PUSH2 0x2930 DUP2 PUSH2 0x28F4 JUMP JUMPDEST SWAP1 POP SWAP2 SWAP1 POP JUMP JUMPDEST PUSH32 0x45524332303A20617070726F766520746F20746865207A65726F206164647265 PUSH1 0x0 DUP3 ADD MSTORE PUSH32 0x7373000000000000000000000000000000000000000000000000000000000000 PUSH1 0x20 DUP3 ADD MSTORE POP JUMP JUMPDEST PUSH1 0x0 PUSH2 0x2993 PUSH1 0x22 DUP4 PUSH2 0x1D04 JUMP JUMPDEST SWAP2 POP PUSH2 0x299E DUP3 PUSH2 0x2937 JUMP JUMPDEST PUSH1 0x40 DUP3 ADD SWAP1 POP SWAP2 SWAP1 POP JUMP JUMPDEST PUSH1 0x0 PUSH1 0x20 DUP3 ADD SWAP1 POP DUP2 DUP2 SUB PUSH1 0x0 DUP4 ADD MSTORE PUSH2 0x29C2 DUP2 PUSH2 0x2986 JUMP JUMPDEST SWAP1 POP SWAP2 SWAP1 POP JUMP JUMPDEST PUSH32 0x4F776E61626C653A2063616C6C6572206973206E6F7420746865206F776E6572 PUSH1 0x0 DUP3 ADD MSTORE POP JUMP JUMPDEST PUSH1 0x0 PUSH2 0x29FF PUSH1 0x20 DUP4 PUSH2 0x1D04 JUMP JUMPDEST SWAP2 POP PUSH2 0x2A0A DUP3 PUSH2 0x29C9 JUMP JUMPDEST PUSH1 0x20 DUP3 ADD SWAP1 POP SWAP2 SWAP1 POP JUMP JUMPDEST PUSH1 0x0 PUSH1 0x20 DUP3 ADD SWAP1 POP DUP2 DUP2 SUB PUSH1 0x0 DUP4 ADD MSTORE PUSH2 0x2A2E DUP2 PUSH2 0x29F2 JUMP JUMPDEST SWAP1 POP SWAP2 SWAP1 POP JUMP JUMPDEST PUSH32 0x45524332303A20696E73756666696369656E7420616C6C6F77616E6365000000 PUSH1 0x0 DUP3 ADD MSTORE POP JUMP JUMPDEST PUSH1 0x0 PUSH2 0x2A6B PUSH1 0x1D DUP4 PUSH2 0x1D04 JUMP JUMPDEST SWAP2 POP PUSH2 0x2A76 DUP3 PUSH2 0x2A35 JUMP JUMPDEST PUSH1 0x20 DUP3 ADD SWAP1 POP SWAP2 SWAP1 POP JUMP JUMPDEST PUSH1 0x0 PUSH1 0x20 DUP3 ADD SWAP1 POP DUP2 DUP2 SUB PUSH1 0x0 DUP4 ADD MSTORE PUSH2 0x2A9A DUP2 PUSH2 0x2A5E JUMP JUMPDEST SWAP1 POP SWAP2 SWAP1 POP JUMP JUMPDEST PUSH32 0x45524332303A207472616E736665722066726F6D20746865207A65726F206164 PUSH1 0x0 DUP3 ADD MSTORE PUSH32 0x6472657373000000000000000000000000000000000000000000000000000000 PUSH1 0x20 DUP3 ADD MSTORE POP JUMP JUMPDEST PUSH1 0x0 PUSH2 0x2AFD PUSH1 0x25 DUP4 PUSH2 0x1D04 JUMP JUMPDEST SWAP2 POP PUSH2 0x2B08 DUP3 PUSH2 0x2AA1 JUMP JUMPDEST PUSH1 0x40 DUP3 ADD SWAP1 POP SWAP2 SWAP1 POP JUMP JUMPDEST PUSH1 0x0 PUSH1 0x20 DUP3 ADD SWAP1 POP DUP2 DUP2 SUB PUSH1 0x0 DUP4 ADD MSTORE PUSH2 0x2B2C DUP2 PUSH2 0x2AF0 JUMP JUMPDEST SWAP1 POP SWAP2 SWAP1 POP JUMP JUMPDEST PUSH32 0x45524332303A207472616E7366657220746F20746865207A65726F2061646472 PUSH1 0x0 DUP3 ADD MSTORE PUSH32 0x6573730000000000000000000000000000000000000000000000000000000000 PUSH1 0x20 DUP3 ADD MSTORE POP JUMP JUMPDEST PUSH1 0x0 PUSH2 0x2B8F PUSH1 0x23 DUP4 PUSH2 0x1D04 JUMP JUMPDEST SWAP2 POP PUSH2 0x2B9A DUP3 PUSH2 0x2B33 JUMP JUMPDEST PUSH1 0x40 DUP3 ADD SWAP1 POP SWAP2 SWAP1 POP JUMP JUMPDEST PUSH1 0x0 PUSH1 0x20 DUP3 ADD SWAP1 POP DUP2 DUP2 SUB PUSH1 0x0 DUP4 ADD MSTORE PUSH2 0x2BBE DUP2 PUSH2 0x2B82 JUMP JUMPDEST SWAP1 POP SWAP2 SWAP1 POP JUMP JUMPDEST PUSH32 0x45524332303A207472616E7366657220616D6F756E7420657863656564732062 PUSH1 0x0 DUP3 ADD MSTORE PUSH32 0x616C616E63650000000000000000000000000000000000000000000000000000 PUSH1 0x20 DUP3 ADD MSTORE POP JUMP JUMPDEST PUSH1 0x0 PUSH2 0x2C21 PUSH1 0x26 DUP4 PUSH2 0x1D04 JUMP JUMPDEST SWAP2 POP PUSH2 0x2C2C DUP3 PUSH2 0x2BC5 JUMP JUMPDEST PUSH1 0x40 DUP3 ADD SWAP1 POP SWAP2 SWAP1 POP JUMP JUMPDEST PUSH1 0x0 PUSH1 0x20 DUP3 ADD SWAP1 POP DUP2 DUP2 SUB PUSH1 0x0 DUP4 ADD MSTORE PUSH2 0x2C50 DUP2 PUSH2 0x2C14 JUMP JUMPDEST SWAP1 POP SWAP2 SWAP1 POP JUMP JUMPDEST PUSH32 0x536166654D6174683A206164646974696F6E206F766572666C6F770000000000 PUSH1 0x0 DUP3 ADD MSTORE POP JUMP JUMPDEST PUSH1 0x0 PUSH2 0x2C8D PUSH1 0x1B DUP4 PUSH2 0x1D04 JUMP JUMPDEST SWAP2 POP PUSH2 0x2C98 DUP3 PUSH2 0x2C57 JUMP JUMPDEST PUSH1 0x20 DUP3 ADD SWAP1 POP SWAP2 SWAP1 POP JUMP JUMPDEST PUSH1 0x0 PUSH1 0x20 DUP3 ADD SWAP1 POP DUP2 DUP2 SUB PUSH1 0x0 DUP4 ADD MSTORE PUSH2 0x2CBC DUP2 PUSH2 0x2C80 JUMP JUMPDEST SWAP1 POP SWAP2 SWAP1 POP JUMP JUMPDEST PUSH32 0x45524332303A206D696E7420746F20746865207A65726F206164647265737300 PUSH1 0x0 DUP3 ADD MSTORE POP JUMP JUMPDEST PUSH1 0x0 PUSH2 0x2CF9 PUSH1 0x1F DUP4 PUSH2 0x1D04 JUMP JUMPDEST SWAP2 POP PUSH2 0x2D04 DUP3 PUSH2 0x2CC3 JUMP JUMPDEST PUSH1 0x20 DUP3 ADD SWAP1 POP SWAP2 SWAP1 POP JUMP JUMPDEST PUSH1 0x0 PUSH1 0x20 DUP3 ADD SWAP1 POP DUP2 DUP2 SUB PUSH1 0x0 DUP4 ADD MSTORE PUSH2 0x2D28 DUP2 PUSH2 0x2CEC JUMP JUMPDEST SWAP1 POP SWAP2 SWAP1 POP JUMP JUMPDEST PUSH32 0x536166654D6174683A207375627472616374696F6E206F766572666C6F770000 PUSH1 0x0 DUP3 ADD MSTORE POP JUMP JUMPDEST PUSH1 0x0 PUSH2 0x2D65 PUSH1 0x1E DUP4 PUSH2 0x1D04 JUMP JUMPDEST SWAP2 POP PUSH2 0x2D70 DUP3 PUSH2 0x2D2F JUMP JUMPDEST PUSH1 0x20 DUP3 ADD SWAP1 POP SWAP2 SWAP1 POP JUMP JUMPDEST PUSH1 0x0 PUSH1 0x20 DUP3 ADD SWAP1 POP DUP2 DUP2 SUB PUSH1 0x0 DUP4 ADD MSTORE PUSH2 0x2D94 DUP2 PUSH2 0x2D58 JUMP JUMPDEST SWAP1 POP SWAP2 SWAP1 POP JUMP JUMPDEST PUSH1 0x0 PUSH2 0x2DA6 DUP3 PUSH2 0x1E0E JUMP JUMPDEST SWAP2 POP PUSH2 0x2DB1 DUP4 PUSH2 0x1E0E JUMP JUMPDEST SWAP3 POP DUP3 DUP3 SUB SWAP1 POP DUP2 DUP2 GT ISZERO PUSH2 0x2DC9 JUMPI PUSH2 0x2DC8 PUSH2 0x233A JUMP JUMPDEST JUMPDEST SWAP3 SWAP2 POP POP JUMP JUMPDEST PUSH32 0x536166654D6174683A206469766973696F6E206279207A65726F000000000000 PUSH1 0x0 DUP3 ADD MSTORE POP JUMP JUMPDEST PUSH1 0x0 PUSH2 0x2E05 PUSH1 0x1A DUP4 PUSH2 0x1D04 JUMP JUMPDEST SWAP2 POP PUSH2 0x2E10 DUP3 PUSH2 0x2DCF JUMP JUMPDEST PUSH1 0x20 DUP3 ADD SWAP1 POP SWAP2 SWAP1 POP JUMP JUMPDEST PUSH1 0x0 PUSH1 0x20 DUP3 ADD SWAP1 POP DUP2 DUP2 SUB PUSH1 0x0 DUP4 ADD MSTORE PUSH2 0x2E34 DUP2 PUSH2 0x2DF8 JUMP JUMPDEST SWAP1 POP SWAP2 SWAP1 POP JUMP JUMPDEST PUSH32 0x4E487B7100000000000000000000000000000000000000000000000000000000 PUSH1 0x0 MSTORE PUSH1 0x12 PUSH1 0x4 MSTORE PUSH1 0x24 PUSH1 0x0 REVERT JUMPDEST PUSH1 0x0 PUSH2 0x2E75 DUP3 PUSH2 0x1E0E JUMP JUMPDEST SWAP2 POP PUSH2 0x2E80 DUP4 PUSH2 0x1E0E JUMP JUMPDEST SWAP3 POP DUP3 PUSH2 0x2E90 JUMPI PUSH2 0x2E8F PUSH2 0x2E3B JUMP JUMPDEST JUMPDEST DUP3 DUP3 DIV SWAP1 POP SWAP3 SWAP2 POP POP JUMP JUMPDEST PUSH1 0x0 PUSH2 0x2EA6 DUP3 PUSH2 0x1E0E JUMP JUMPDEST SWAP2 POP PUSH2 0x2EB1 DUP4 PUSH2 0x1E0E JUMP JUMPDEST SWAP3 POP DUP3 DUP3 MUL PUSH2 0x2EBF DUP2 PUSH2 0x1E0E JUMP JUMPDEST SWAP2 POP DUP3 DUP3 DIV DUP5 EQ DUP4 ISZERO OR PUSH2 0x2ED6 JUMPI PUSH2 0x2ED5 PUSH2 0x233A JUMP JUMPDEST JUMPDEST POP SWAP3 SWAP2 POP POP JUMP JUMPDEST PUSH32 0x536166654D6174683A206D756C7469706C69636174696F6E206F766572666C6F PUSH1 0x0 DUP3 ADD MSTORE PUSH32 0x7700000000000000000000000000000000000000000000000000000000000000 PUSH1 0x20 DUP3 ADD MSTORE POP JUMP JUMPDEST PUSH1 0x0 PUSH2 0x2F39 PUSH1 0x21 DUP4 PUSH2 0x1D04 JUMP JUMPDEST SWAP2 POP PUSH2 0x2F44 DUP3 PUSH2 0x2EDD JUMP JUMPDEST PUSH1 0x40 DUP3 ADD SWAP1 POP SWAP2 SWAP1 POP JUMP JUMPDEST PUSH1 0x0 PUSH1 0x20 DUP3 ADD SWAP1 POP DUP2 DUP2 SUB PUSH1 0x0 DUP4 ADD MSTORE PUSH2 0x2F68 DUP2 PUSH2 0x2F2C JUMP JUMPDEST SWAP1 POP SWAP2 SWAP1 POP JUMP INVALID LOG2 PUSH5 0x6970667358 0x22 SLT KECCAK256 SMOD DUP10 NUMBER DUP9 SIGNEXTEND 0xC SHL SAR 0xCD SIGNEXTEND 0xED PUSH25 0xD9F45D57476FD44C085F476F896EC30E8DACA31F64736F6C63 NUMBER STOP ADDMOD SLT STOP CALLER "
		},
		"gasEstimates": {
			"creation": {
				"codeDepositCost": "2439400",
				"executionCost": "infinite",
				"totalCost": "infinite"
			},
			"external": {
				"allowance(address,address)": "infinite",
				"approve(address,uint256)": "infinite",
				"balanceOf(address)": "2887",
				"buyFeeRate()": "2518",
				"combatField()": "2558",
				"combatReward(address,uint256)": "infinite",
				"decimals()": "455",
				"decreaseAllowance(address,uint256)": "infinite",
				"farmField()": "2559",
				"farmReward(address,uint256)": "infinite",
				"increaseAllowance(address,uint256)": "infinite",
				"maxSupply()": "2496",
				"name()": "infinite",
				"operationWallet()": "2625",
				"owner()": "2567",
				"renounceOwnership()": "30466",
				"rescueERC20(address)": "infinite",
				"rescueETH()": "infinite",
				"sellFeeRate()": "2519",
				"setCombatField(address)": "29450",
				"setFarmField(address)": "29449",
				"setFeeCap(uint256)": "infinite",
				"setTransferFeeRate(uint256,uint256)": "infinite",
				"symbol()": "infinite",
				"totalSupply()": "2483",
				"transfer(address,uint256)": "infinite",
				"transferFrom(address,address,uint256)": "infinite",
				"transferOwnership(address)": "30832",
				"updateOperationWallet(address)": "29504"
			}
		},
		"methodIdentifiers": {
			"allowance(address,address)": "dd62ed3e",
			"approve(address,uint256)": "095ea7b3",
			"balanceOf(address)": "70a08231",
			"buyFeeRate()": "6b1b4987",
			"combatField()": "e15be466",
			"combatReward(address,uint256)": "f2c2533c",
			"decimals()": "313ce567",
			"decreaseAllowance(address,uint256)": "a457c2d7",
			"farmField()": "641ec2f4",
			"farmReward(address,uint256)": "326dc45d",
			"increaseAllowance(address,uint256)": "39509351",
			"maxSupply()": "d5abeb01",
			"name()": "06fdde03",
			"operationWallet()": "e042ad58",
			"owner()": "8da5cb5b",
			"renounceOwnership()": "715018a6",
			"rescueERC20(address)": "ccec3716",
			"rescueETH()": "20800a00",
			"sellFeeRate()": "5b149feb",
			"setCombatField(address)": "168051fd",
			"setFarmField(address)": "7e3781ae",
			"setFeeCap(uint256)": "6bb07c73",
			"setTransferFeeRate(uint256,uint256)": "6a316213",
			"symbol()": "95d89b41",
			"totalSupply()": "18160ddd",
			"transfer(address,uint256)": "a9059cbb",
			"transferFrom(address,address,uint256)": "23b872dd",
			"transferOwnership(address)": "f2fde38b",
			"updateOperationWallet(address)": "f6bc9624"
		}
	},
	"abi": [
		{
			"inputs": [],
			"stateMutability": "nonpayable",
			"type": "constructor"
		},
		{
			"anonymous": false,
			"inputs": [
				{
					"indexed": true,
					"internalType": "address",
					"name": "owner",
					"type": "address"
				},
				{
					"indexed": true,
					"internalType": "address",
					"name": "spender",
					"type": "address"
				},
				{
					"indexed": false,
					"internalType": "uint256",
					"name": "value",
					"type": "uint256"
				}
			],
			"name": "Approval",
			"type": "event"
		},
		{
			"anonymous": false,
			"inputs": [
				{
					"indexed": true,
					"internalType": "address",
					"name": "previousOwner",
					"type": "address"
				},
				{
					"indexed": true,
					"internalType": "address",
					"name": "newOwner",
					"type": "address"
				}
			],
			"name": "OwnershipTransferred",
			"type": "event"
		},
		{
			"anonymous": false,
			"inputs": [
				{
					"indexed": true,
					"internalType": "address",
					"name": "from",
					"type": "address"
				},
				{
					"indexed": true,
					"internalType": "address",
					"name": "to",
					"type": "address"
				},
				{
					"indexed": false,
					"internalType": "uint256",
					"name": "value",
					"type": "uint256"
				}
			],
			"name": "Transfer",
			"type": "event"
		},
		{
			"inputs": [
				{
					"internalType": "address",
					"name": "owner",
					"type": "address"
				},
				{
					"internalType": "address",
					"name": "spender",
					"type": "address"
				}
			],
			"name": "allowance",
			"outputs": [
				{
					"internalType": "uint256",
					"name": "",
					"type": "uint256"
				}
			],
			"stateMutability": "view",
			"type": "function"
		},
		{
			"inputs": [
				{
					"internalType": "address",
					"name": "spender",
					"type": "address"
				},
				{
					"internalType": "uint256",
					"name": "amount",
					"type": "uint256"
				}
			],
			"name": "approve",
			"outputs": [
				{
					"internalType": "bool",
					"name": "",
					"type": "bool"
				}
			],
			"stateMutability": "nonpayable",
			"type": "function"
		},
		{
			"inputs": [
				{
					"internalType": "address",
					"name": "account",
					"type": "address"
				}
			],
			"name": "balanceOf",
			"outputs": [
				{
					"internalType": "uint256",
					"name": "",
					"type": "uint256"
				}
			],
			"stateMutability": "view",
			"type": "function"
		},
		{
			"inputs": [],
			"name": "buyFeeRate",
			"outputs": [
				{
					"internalType": "uint256",
					"name": "",
					"type": "uint256"
				}
			],
			"stateMutability": "view",
			"type": "function"
		},
		{
			"inputs": [],
			"name": "combatField",
			"outputs": [
				{
					"internalType": "address",
					"name": "",
					"type": "address"
				}
			],
			"stateMutability": "view",
			"type": "function"
		},
		{
			"inputs": [
				{
					"internalType": "address",
					"name": "recipient",
					"type": "address"
				},
				{
					"internalType": "uint256",
					"name": "_amount",
					"type": "uint256"
				}
			],
			"name": "combatReward",
			"outputs": [],
			"stateMutability": "nonpayable",
			"type": "function"
		},
		{
			"inputs": [],
			"name": "decimals",
			"outputs": [
				{
					"internalType": "uint8",
					"name": "",
					"type": "uint8"
				}
			],
			"stateMutability": "view",
			"type": "function"
		},
		{
			"inputs": [
				{
					"internalType": "address",
					"name": "spender",
					"type": "address"
				},
				{
					"internalType": "uint256",
					"name": "subtractedValue",
					"type": "uint256"
				}
			],
			"name": "decreaseAllowance",
			"outputs": [
				{
					"internalType": "bool",
					"name": "",
					"type": "bool"
				}
			],
			"stateMutability": "nonpayable",
			"type": "function"
		},
		{
			"inputs": [],
			"name": "farmField",
			"outputs": [
				{
					"internalType": "address",
					"name": "",
					"type": "address"
				}
			],
			"stateMutability": "view",
			"type": "function"
		},
		{
			"inputs": [
				{
					"internalType": "address",
					"name": "recipient",
					"type": "address"
				},
				{
					"internalType": "uint256",
					"name": "_amount",
					"type": "uint256"
				}
			],
			"name": "farmReward",
			"outputs": [],
			"stateMutability": "nonpayable",
			"type": "function"
		},
		{
			"inputs": [
				{
					"internalType": "address",
					"name": "spender",
					"type": "address"
				},
				{
					"internalType": "uint256",
					"name": "addedValue",
					"type": "uint256"
				}
			],
			"name": "increaseAllowance",
			"outputs": [
				{
					"internalType": "bool",
					"name": "",
					"type": "bool"
				}
			],
			"stateMutability": "nonpayable",
			"type": "function"
		},
		{
			"inputs": [],
			"name": "maxSupply",
			"outputs": [
				{
					"internalType": "uint256",
					"name": "",
					"type": "uint256"
				}
			],
			"stateMutability": "view",
			"type": "function"
		},
		{
			"inputs": [],
			"name": "name",
			"outputs": [
				{
					"internalType": "string",
					"name": "",
					"type": "string"
				}
			],
			"stateMutability": "view",
			"type": "function"
		},
		{
			"inputs": [],
			"name": "operationWallet",
			"outputs": [
				{
					"internalType": "address",
					"name": "",
					"type": "address"
				}
			],
			"stateMutability": "view",
			"type": "function"
		},
		{
			"inputs": [],
			"name": "owner",
			"outputs": [
				{
					"internalType": "address",
					"name": "",
					"type": "address"
				}
			],
			"stateMutability": "view",
			"type": "function"
		},
		{
			"inputs": [],
			"name": "renounceOwnership",
			"outputs": [],
			"stateMutability": "nonpayable",
			"type": "function"
		},
		{
			"inputs": [
				{
					"internalType": "address",
					"name": "_token_address",
					"type": "address"
				}
			],
			"name": "rescueERC20",
			"outputs": [
				{
					"internalType": "bool",
					"name": "",
					"type": "bool"
				}
			],
			"stateMutability": "nonpayable",
			"type": "function"
		},
		{
			"inputs": [],
			"name": "rescueETH",
			"outputs": [
				{
					"internalType": "bool",
					"name": "",
					"type": "bool"
				}
			],
			"stateMutability": "nonpayable",
			"type": "function"
		},
		{
			"inputs": [],
			"name": "sellFeeRate",
			"outputs": [
				{
					"internalType": "uint256",
					"name": "",
					"type": "uint256"
				}
			],
			"stateMutability": "view",
			"type": "function"
		},
		{
			"inputs": [
				{
					"internalType": "address",
					"name": "_combatField",
					"type": "address"
				}
			],
			"name": "setCombatField",
			"outputs": [
				{
					"internalType": "bool",
					"name": "",
					"type": "bool"
				}
			],
			"stateMutability": "nonpayable",
			"type": "function"
		},
		{
			"inputs": [
				{
					"internalType": "address",
					"name": "_farmField",
					"type": "address"
				}
			],
			"name": "setFarmField",
			"outputs": [
				{
					"internalType": "bool",
					"name": "",
					"type": "bool"
				}
			],
			"stateMutability": "nonpayable",
			"type": "function"
		},
		{
			"inputs": [
				{
					"internalType": "uint256",
					"name": "_amount",
					"type": "uint256"
				}
			],
			"name": "setFeeCap",
			"outputs": [
				{
					"internalType": "bool",
					"name": "",
					"type": "bool"
				}
			],
			"stateMutability": "nonpayable",
			"type": "function"
		},
		{
			"inputs": [
				{
					"internalType": "uint256",
					"name": "_sellFeeRate",
					"type": "uint256"
				},
				{
					"internalType": "uint256",
					"name": "_buyFeeRate",
					"type": "uint256"
				}
			],
			"name": "setTransferFeeRate",
			"outputs": [
				{
					"internalType": "bool",
					"name": "",
					"type": "bool"
				}
			],
			"stateMutability": "nonpayable",
			"type": "function"
		},
		{
			"inputs": [],
			"name": "symbol",
			"outputs": [
				{
					"internalType": "string",
					"name": "",
					"type": "string"
				}
			],
			"stateMutability": "view",
			"type": "function"
		},
		{
			"inputs": [],
			"name": "totalSupply",
			"outputs": [
				{
					"internalType": "uint256",
					"name": "",
					"type": "uint256"
				}
			],
			"stateMutability": "view",
			"type": "function"
		},
		{
			"inputs": [
				{
					"internalType": "address",
					"name": "to",
					"type": "address"
				},
				{
					"internalType": "uint256",
					"name": "amount",
					"type": "uint256"
				}
			],
			"name": "transfer",
			"outputs": [
				{
					"internalType": "bool",
					"name": "",
					"type": "bool"
				}
			],
			"stateMutability": "nonpayable",
			"type": "function"
		},
		{
			"inputs": [
				{
					"internalType": "address",
					"name": "from",
					"type": "address"
				},
				{
					"internalType": "address",
					"name": "to",
					"type": "address"
				},
				{
					"internalType": "uint256",
					"name": "amount",
					"type": "uint256"
				}
			],
			"name": "transferFrom",
			"outputs": [
				{
					"internalType": "bool",
					"name": "",
					"type": "bool"
				}
			],
			"stateMutability": "nonpayable",
			"type": "function"
		},
		{
			"inputs": [
				{
					"internalType": "address",
					"name": "newOwner",
					"type": "address"
				}
			],
			"name": "transferOwnership",
			"outputs": [],
			"stateMutability": "nonpayable",
			"type": "function"
		},
		{
			"inputs": [
				{
					"internalType": "address",
					"name": "_operationWallet",
					"type": "address"
				}
			],
			"name": "updateOperationWallet",
			"outputs": [
				{
					"internalType": "bool",
					"name": "",
					"type": "bool"
				}
			],
			"stateMutability": "nonpayable",
			"type": "function"
		}
	]
}