{
	"data": {
		"bytecode": {
			"linkReferences": {},
			"object": "608060405234801561001057600080fd5b506102cc806100206000396000f3fe608060405234801561001057600080fd5b50600436106100575760003560e01c80634e70b1dc1461005c578063771602f71461007a578063ed36b3d8146100aa578063f2c0a786146100c8578063f4f3bdc1146100e6575b600080fd5b610064610116565b6040516100719190610173565b60405180910390f35b610094600480360381019061008f91906101bf565b61011c565b6040516100a19190610173565b60405180910390f35b6100b2610132565b6040516100bf9190610173565b60405180910390f35b6100d061013b565b6040516100dd9190610173565b60405180910390f35b61010060048036038101906100fb91906101bf565b610144565b60405161010d9190610173565b60405180910390f35b60005481565b6000818361012a919061022e565b905092915050565b60008054905090565b60006001905090565b600081836101529190610262565b905092915050565b6000819050919050565b61016d8161015a565b82525050565b60006020820190506101886000830184610164565b92915050565b600080fd5b61019c8161015a565b81146101a757600080fd5b50565b6000813590506101b981610193565b92915050565b600080604083850312156101d6576101d561018e565b5b60006101e4858286016101aa565b92505060206101f5858286016101aa565b9150509250929050565b7f4e487b7100000000000000000000000000000000000000000000000000000000600052601160045260246000fd5b60006102398261015a565b91506102448361015a565b925082820190508082111561025c5761025b6101ff565b5b92915050565b600061026d8261015a565b91506102788361015a565b92508282039050818111156102905761028f6101ff565b5b9291505056fea264697066735822122093f5023b9b836274091a79180429ee2ac63fbadd96d9a3999626ec7934e4a9be64736f6c63430008110033",
			"opcodes": "PUSH1 0x80 PUSH1 0x40 MSTORE CALLVALUE DUP1 ISZERO PUSH2 0x10 JUMPI PUSH1 0x0 DUP1 REVERT JUMPDEST POP PUSH2 0x2CC DUP1 PUSH2 0x20 PUSH1 0x0 CODECOPY PUSH1 0x0 RETURN INVALID PUSH1 0x80 PUSH1 0x40 MSTORE CALLVALUE DUP1 ISZERO PUSH2 0x10 JUMPI PUSH1 0x0 DUP1 REVERT JUMPDEST POP PUSH1 0x4 CALLDATASIZE LT PUSH2 0x57 JUMPI PUSH1 0x0 CALLDATALOAD PUSH1 0xE0 SHR DUP1 PUSH4 0x4E70B1DC EQ PUSH2 0x5C JUMPI DUP1 PUSH4 0x771602F7 EQ PUSH2 0x7A JUMPI DUP1 PUSH4 0xED36B3D8 EQ PUSH2 0xAA JUMPI DUP1 PUSH4 0xF2C0A786 EQ PUSH2 0xC8 JUMPI DUP1 PUSH4 0xF4F3BDC1 EQ PUSH2 0xE6 JUMPI JUMPDEST PUSH1 0x0 DUP1 REVERT JUMPDEST PUSH2 0x64 PUSH2 0x116 JUMP JUMPDEST PUSH1 0x40 MLOAD PUSH2 0x71 SWAP2 SWAP1 PUSH2 0x173 JUMP JUMPDEST PUSH1 0x40 MLOAD DUP1 SWAP2 SUB SWAP1 RETURN JUMPDEST PUSH2 0x94 PUSH1 0x4 DUP1 CALLDATASIZE SUB DUP2 ADD SWAP1 PUSH2 0x8F SWAP2 SWAP1 PUSH2 0x1BF JUMP JUMPDEST PUSH2 0x11C JUMP JUMPDEST PUSH1 0x40 MLOAD PUSH2 0xA1 SWAP2 SWAP1 PUSH2 0x173 JUMP JUMPDEST PUSH1 0x40 MLOAD DUP1 SWAP2 SUB SWAP1 RETURN JUMPDEST PUSH2 0xB2 PUSH2 0x132 JUMP JUMPDEST PUSH1 0x40 MLOAD PUSH2 0xBF SWAP2 SWAP1 PUSH2 0x173 JUMP JUMPDEST PUSH1 0x40 MLOAD DUP1 SWAP2 SUB SWAP1 RETURN JUMPDEST PUSH2 0xD0 PUSH2 0x13B JUMP JUMPDEST PUSH1 0x40 MLOAD PUSH2 0xDD SWAP2 SWAP1 PUSH2 0x173 JUMP JUMPDEST PUSH1 0x40 MLOAD DUP1 SWAP2 SUB SWAP1 RETURN JUMPDEST PUSH2 0x100 PUSH1 0x4 DUP1 CALLDATASIZE SUB DUP2 ADD SWAP1 PUSH2 0xFB SWAP2 SWAP1 PUSH2 0x1BF JUMP JUMPDEST PUSH2 0x144 JUMP JUMPDEST PUSH1 0x40 MLOAD PUSH2 0x10D SWAP2 SWAP1 PUSH2 0x173 JUMP JUMPDEST PUSH1 0x40 MLOAD DUP1 SWAP2 SUB SWAP1 RETURN JUMPDEST PUSH1 0x0 SLOAD DUP2 JUMP JUMPDEST PUSH1 0x0 DUP2 DUP4 PUSH2 0x12A SWAP2 SWAP1 PUSH2 0x22E JUMP JUMPDEST SWAP1 POP SWAP3 SWAP2 POP POP JUMP JUMPDEST PUSH1 0x0 DUP1 SLOAD SWAP1 POP SWAP1 JUMP JUMPDEST PUSH1 0x0 PUSH1 0x1 SWAP1 POP SWAP1 JUMP JUMPDEST PUSH1 0x0 DUP2 DUP4 PUSH2 0x152 SWAP2 SWAP1 PUSH2 0x262 JUMP JUMPDEST SWAP1 POP SWAP3 SWAP2 POP POP JUMP JUMPDEST PUSH1 0x0 DUP2 SWAP1 POP SWAP2 SWAP1 POP JUMP JUMPDEST PUSH2 0x16D DUP2 PUSH2 0x15A JUMP JUMPDEST DUP3 MSTORE POP POP JUMP JUMPDEST PUSH1 0x0 PUSH1 0x20 DUP3 ADD SWAP1 POP PUSH2 0x188 PUSH1 0x0 DUP4 ADD DUP5 PUSH2 0x164 JUMP JUMPDEST SWAP3 SWAP2 POP POP JUMP JUMPDEST PUSH1 0x0 DUP1 REVERT JUMPDEST PUSH2 0x19C DUP2 PUSH2 0x15A JUMP JUMPDEST DUP2 EQ PUSH2 0x1A7 JUMPI PUSH1 0x0 DUP1 REVERT JUMPDEST POP JUMP JUMPDEST PUSH1 0x0 DUP2 CALLDATALOAD SWAP1 POP PUSH2 0x1B9 DUP2 PUSH2 0x193 JUMP JUMPDEST SWAP3 SWAP2 POP POP JUMP JUMPDEST PUSH1 0x0 DUP1 PUSH1 0x40 DUP4 DUP6 SUB SLT ISZERO PUSH2 0x1D6 JUMPI PUSH2 0x1D5 PUSH2 0x18E JUMP JUMPDEST JUMPDEST PUSH1 0x0 PUSH2 0x1E4 DUP6 DUP3 DUP7 ADD PUSH2 0x1AA JUMP JUMPDEST SWAP3 POP POP PUSH1 0x20 PUSH2 0x1F5 DUP6 DUP3 DUP7 ADD PUSH2 0x1AA JUMP JUMPDEST SWAP2 POP POP SWAP3 POP SWAP3 SWAP1 POP JUMP JUMPDEST PUSH32 0x4E487B7100000000000000000000000000000000000000000000000000000000 PUSH1 0x0 MSTORE PUSH1 0x11 PUSH1 0x4 MSTORE PUSH1 0x24 PUSH1 0x0 REVERT JUMPDEST PUSH1 0x0 PUSH2 0x239 DUP3 PUSH2 0x15A JUMP JUMPDEST SWAP2 POP PUSH2 0x244 DUP4 PUSH2 0x15A JUMP JUMPDEST SWAP3 POP DUP3 DUP3 ADD SWAP1 POP DUP1 DUP3 GT ISZERO PUSH2 0x25C JUMPI PUSH2 0x25B PUSH2 0x1FF JUMP JUMPDEST JUMPDEST SWAP3 SWAP2 POP POP JUMP JUMPDEST PUSH1 0x0 PUSH2 0x26D DUP3 PUSH2 0x15A JUMP JUMPDEST SWAP2 POP PUSH2 0x278 DUP4 PUSH2 0x15A JUMP JUMPDEST SWAP3 POP DUP3 DUP3 SUB SWAP1 POP DUP2 DUP2 GT ISZERO PUSH2 0x290 JUMPI PUSH2 0x28F PUSH2 0x1FF JUMP JUMPDEST JUMPDEST SWAP3 SWAP2 POP POP JUMP INVALID LOG2 PUSH5 0x6970667358 0x22 SLT KECCAK256 SWAP4 CREATE2 MUL EXTCODESIZE SWAP12 DUP4 PUSH3 0x74091A PUSH26 0x180429EE2AC63FBADD96D9A3999626EC7934E4A9BE64736F6C63 NUMBER STOP ADDMOD GT STOP CALLER "
		},
		"gasEstimates": {
			"creation": {
				"codeDepositCost": "143200",
				"executionCost": "190",
				"totalCost": "143390"
			},
			"external": {
				"add(uint256,uint256)": "infinite",
				"minus(uint256,uint256)": "infinite",
				"num()": "2407",
				"pureFunction()": "381",
				"viewFunction()": "2459"
			}
		},
		"methodIdentifiers": {
			"add(uint256,uint256)": "771602f7",
			"minus(uint256,uint256)": "f4f3bdc1",
			"num()": "4e70b1dc",
			"pureFunction()": "f2c0a786",
			"viewFunction()": "ed36b3d8"
		}
	},
	"abi": [
		{
			"inputs": [
				{
					"internalType": "uint256",
					"name": "x",
					"type": "uint256"
				},
				{
					"internalType": "uint256",
					"name": "y",
					"type": "uint256"
				}
			],
			"name": "add",
			"outputs": [
				{
					"internalType": "uint256",
					"name": "",
					"type": "uint256"
				}
			],
			"stateMutability": "pure",
			"type": "function"
		},
		{
			"inputs": [
				{
					"internalType": "uint256",
					"name": "x",
					"type": "uint256"
				},
				{
					"internalType": "uint256",
					"name": "y",
					"type": "uint256"
				}
			],
			"name": "minus",
			"outputs": [
				{
					"internalType": "uint256",
					"name": "",
					"type": "uint256"
				}
			],
			"stateMutability": "pure",
			"type": "function"
		},
		{
			"inputs": [],
			"name": "num",
			"outputs": [
				{
					"internalType": "uint256",
					"name": "",
					"type": "uint256"
				}
			],
			"stateMutability": "view",
			"type": "function"
		},
		{
			"inputs": [],
			"name": "pureFunction",
			"outputs": [
				{
					"internalType": "uint256",
					"name": "",
					"type": "uint256"
				}
			],
			"stateMutability": "pure",
			"type": "function"
		},
		{
			"inputs": [],
			"name": "viewFunction",
			"outputs": [
				{
					"internalType": "uint256",
					"name": "",
					"type": "uint256"
				}
			],
			"stateMutability": "view",
			"type": "function"
		}
	]
}