{
	"data": {
		"bytecode": {
			"linkReferences": {},
			"object": "608060405234801561001057600080fd5b50610245806100206000396000f3fe608060405234801561001057600080fd5b50600436106100365760003560e01c8063d68cfc141461003b578063e8927fbc14610059575b600080fd5b610043610063565b6040516100509190610114565b60405180910390f35b610061610069565b005b60005481565b6001600054106100ae576040517f08c379a00000000000000000000000000000000000000000000000000000000081526004016100a59061018c565b60405180910390fd5b600a6000808282546100c091906101db565b9250508190555060016000808282546100d991906101db565b9250508190555060026000808282546100f291906101db565b92505081905550565b6000819050919050565b61010e816100fb565b82525050565b60006020820190506101296000830184610105565b92915050565b600082825260208201905092915050565b7f4e756d626572206c657373207468616e20310000000000000000000000000000600082015250565b600061017660128361012f565b915061018182610140565b602082019050919050565b600060208201905081810360008301526101a581610169565b9050919050565b7f4e487b7100000000000000000000000000000000000000000000000000000000600052601160045260246000fd5b60006101e6826100fb565b91506101f1836100fb565b9250828201905080821115610209576102086101ac565b5b9291505056fea2646970667358221220ed831f9b2c4109f850482ec6faa53395aaafca81aecae80554ad08d836da3c8e64736f6c63430008130033",
			"opcodes": "PUSH1 0x80 PUSH1 0x40 MSTORE CALLVALUE DUP1 ISZERO PUSH2 0x10 JUMPI PUSH1 0x0 DUP1 REVERT JUMPDEST POP PUSH2 0x245 DUP1 PUSH2 0x20 PUSH1 0x0 CODECOPY PUSH1 0x0 RETURN INVALID PUSH1 0x80 PUSH1 0x40 MSTORE CALLVALUE DUP1 ISZERO PUSH2 0x10 JUMPI PUSH1 0x0 DUP1 REVERT JUMPDEST POP PUSH1 0x4 CALLDATASIZE LT PUSH2 0x36 JUMPI PUSH1 0x0 CALLDATALOAD PUSH1 0xE0 SHR DUP1 PUSH4 0xD68CFC14 EQ PUSH2 0x3B JUMPI DUP1 PUSH4 0xE8927FBC EQ PUSH2 0x59 JUMPI JUMPDEST PUSH1 0x0 DUP1 REVERT JUMPDEST PUSH2 0x43 PUSH2 0x63 JUMP JUMPDEST PUSH1 0x40 MLOAD PUSH2 0x50 SWAP2 SWAP1 PUSH2 0x114 JUMP JUMPDEST PUSH1 0x40 MLOAD DUP1 SWAP2 SUB SWAP1 RETURN JUMPDEST PUSH2 0x61 PUSH2 0x69 JUMP JUMPDEST STOP JUMPDEST PUSH1 0x0 SLOAD DUP2 JUMP JUMPDEST PUSH1 0x1 PUSH1 0x0 SLOAD LT PUSH2 0xAE JUMPI PUSH1 0x40 MLOAD PUSH32 0x8C379A000000000000000000000000000000000000000000000000000000000 DUP2 MSTORE PUSH1 0x4 ADD PUSH2 0xA5 SWAP1 PUSH2 0x18C JUMP JUMPDEST PUSH1 0x40 MLOAD DUP1 SWAP2 SUB SWAP1 REVERT JUMPDEST PUSH1 0xA PUSH1 0x0 DUP1 DUP3 DUP3 SLOAD PUSH2 0xC0 SWAP2 SWAP1 PUSH2 0x1DB JUMP JUMPDEST SWAP3 POP POP DUP2 SWAP1 SSTORE POP PUSH1 0x1 PUSH1 0x0 DUP1 DUP3 DUP3 SLOAD PUSH2 0xD9 SWAP2 SWAP1 PUSH2 0x1DB JUMP JUMPDEST SWAP3 POP POP DUP2 SWAP1 SSTORE POP PUSH1 0x2 PUSH1 0x0 DUP1 DUP3 DUP3 SLOAD PUSH2 0xF2 SWAP2 SWAP1 PUSH2 0x1DB JUMP JUMPDEST SWAP3 POP POP DUP2 SWAP1 SSTORE POP JUMP JUMPDEST PUSH1 0x0 DUP2 SWAP1 POP SWAP2 SWAP1 POP JUMP JUMPDEST PUSH2 0x10E DUP2 PUSH2 0xFB JUMP JUMPDEST DUP3 MSTORE POP POP JUMP JUMPDEST PUSH1 0x0 PUSH1 0x20 DUP3 ADD SWAP1 POP PUSH2 0x129 PUSH1 0x0 DUP4 ADD DUP5 PUSH2 0x105 JUMP JUMPDEST SWAP3 SWAP2 POP POP JUMP JUMPDEST PUSH1 0x0 DUP3 DUP3 MSTORE PUSH1 0x20 DUP3 ADD SWAP1 POP SWAP3 SWAP2 POP POP JUMP JUMPDEST PUSH32 0x4E756D626572206C657373207468616E20310000000000000000000000000000 PUSH1 0x0 DUP3 ADD MSTORE POP JUMP JUMPDEST PUSH1 0x0 PUSH2 0x176 PUSH1 0x12 DUP4 PUSH2 0x12F JUMP JUMPDEST SWAP2 POP PUSH2 0x181 DUP3 PUSH2 0x140 JUMP JUMPDEST PUSH1 0x20 DUP3 ADD SWAP1 POP SWAP2 SWAP1 POP JUMP JUMPDEST PUSH1 0x0 PUSH1 0x20 DUP3 ADD SWAP1 POP DUP2 DUP2 SUB PUSH1 0x0 DUP4 ADD MSTORE PUSH2 0x1A5 DUP2 PUSH2 0x169 JUMP JUMPDEST SWAP1 POP SWAP2 SWAP1 POP JUMP JUMPDEST PUSH32 0x4E487B7100000000000000000000000000000000000000000000000000000000 PUSH1 0x0 MSTORE PUSH1 0x11 PUSH1 0x4 MSTORE PUSH1 0x24 PUSH1 0x0 REVERT JUMPDEST PUSH1 0x0 PUSH2 0x1E6 DUP3 PUSH2 0xFB JUMP JUMPDEST SWAP2 POP PUSH2 0x1F1 DUP4 PUSH2 0xFB JUMP JUMPDEST SWAP3 POP DUP3 DUP3 ADD SWAP1 POP DUP1 DUP3 GT ISZERO PUSH2 0x209 JUMPI PUSH2 0x208 PUSH2 0x1AC JUMP JUMPDEST JUMPDEST SWAP3 SWAP2 POP POP JUMP INVALID LOG2 PUSH5 0x6970667358 0x22 SLT KECCAK256 0xED DUP4 0x1F SWAP12 0x2C COINBASE MULMOD 0xF8 POP BASEFEE 0x2E 0xC6 STATICCALL 0xA5 CALLER SWAP6 0xAA 0xAF 0xCA DUP2 0xAE 0xCA 0xE8 SDIV SLOAD 0xAD ADDMOD 0xD8 CALLDATASIZE 0xDA EXTCODECOPY DUP15 PUSH5 0x736F6C6343 STOP ADDMOD SGT STOP CALLER "
		},
		"gasEstimates": {
			"creation": {
				"codeDepositCost": "116200",
				"executionCost": "165",
				"totalCost": "116365"
			},
			"external": {
				"_num()": "2407",
				"increase()": "infinite"
			}
		},
		"methodIdentifiers": {
			"_num()": "d68cfc14",
			"increase()": "e8927fbc"
		}
	},
	"abi": [
		{
			"inputs": [],
			"name": "_num",
			"outputs": [
				{
					"internalType": "uint256",
					"name": "",
					"type": "uint256"
				}
			],
			"stateMutability": "view",
			"type": "function"
		},
		{
			"inputs": [],
			"name": "increase",
			"outputs": [],
			"stateMutability": "nonpayable",
			"type": "function"
		}
	]
}